{
  "_format": "hh-sol-artifact-1",
  "contractName": "SCShop",
  "sourceName": "SuperChamps/contracts/Token/SCShop.sol",
  "abi": [
    {
      "inputs": [
        {
          "internalType": "address",
          "name": "permissions_",
          "type": "address"
        },
        {
          "internalType": "address",
          "name": "token_",
          "type": "address"
        }
      ],
      "stateMutability": "nonpayable",
      "type": "constructor"
    },
    {
      "anonymous": false,
      "inputs": [
        {
          "indexed": false,
          "internalType": "address",
          "name": "buyer",
          "type": "address"
        },
        {
          "indexed": false,
          "internalType": "uint256",
          "name": "amount",
          "type": "uint256"
        },
        {
          "indexed": false,
          "internalType": "string",
          "name": "subsystem",
          "type": "string"
        },
        {
          "indexed": false,
          "internalType": "string",
          "name": "metadata",
          "type": "string"
        }
      ],
      "name": "saleReceipt",
      "type": "event"
    },
    {
      "inputs": [
        {
          "internalType": "address",
          "name": "buyer_",
          "type": "address"
        },
        {
          "internalType": "address",
          "name": "seller_",
          "type": "address"
        },
        {
          "internalType": "uint256",
          "name": "price_",
          "type": "uint256"
        },
        {
          "internalType": "contract IERC721",
          "name": "nft_",
          "type": "address"
        },
        {
          "internalType": "uint256",
          "name": "token_id_",
          "type": "uint256"
        },
        {
          "internalType": "string",
          "name": "sale_metadata_",
          "type": "string"
        },
        {
          "internalType": "bytes",
          "name": "transfer_metadata_",
          "type": "bytes"
        }
      ],
      "name": "nftChampTrade",
      "outputs": [],
      "stateMutability": "nonpayable",
      "type": "function"
    },
    {
      "inputs": [],
      "name": "permissions",
      "outputs": [
        {
          "internalType": "contract IPermissionsManager",
          "name": "",
          "type": "address"
        }
      ],
      "stateMutability": "view",
      "type": "function"
    },
    {
      "inputs": [
        {
          "internalType": "address",
          "name": "tokenAddress_",
          "type": "address"
        },
        {
          "internalType": "uint256",
          "name": "tokenAmount_",
          "type": "uint256"
        }
      ],
      "name": "recoverERC20",
      "outputs": [],
      "stateMutability": "nonpayable",
      "type": "function"
    },
    {
      "inputs": [
        {
          "internalType": "address",
          "name": "buyer_",
          "type": "address"
        },
        {
          "internalType": "address",
          "name": "recipient_",
          "type": "address"
        },
        {
          "internalType": "uint256",
          "name": "amount_",
          "type": "uint256"
        },
        {
          "internalType": "string",
          "name": "subsystem_",
          "type": "string"
        },
        {
          "internalType": "string",
          "name": "metadata_",
          "type": "string"
        }
      ],
      "name": "saleTransaction",
      "outputs": [],
      "stateMutability": "nonpayable",
      "type": "function"
    }
  ],
  "bytecode": "0x60c060405234801561001057600080fd5b50604051610a15380380610a1583398101604081905261002f91610062565b6001600160a01b039182166080521660a052610095565b80516001600160a01b038116811461005d57600080fd5b919050565b6000806040838503121561007557600080fd5b61007e83610046565b915061008c60208401610046565b90509250929050565b60805160a0516109486100cd600039600061034101526000818160910152818160e601528181610256015261041b01526109486000f3fe608060405234801561001057600080fd5b506004361061004c5760003560e01c80632e582803146100515780634cfa0a3c146100665780638980f11f14610079578063ab8c71c01461008c575b600080fd5b61006461005f3660046105ac565b6100cf565b005b610064610074366004610684565b61023f565b61006461008736600461079e565b610404565b6100b37f000000000000000000000000000000000000000000000000000000000000000081565b6040516001600160a01b03909116815260200160405180910390f35b604051634f4bdc7b60e11b81526001600160a01b037f00000000000000000000000000000000000000000000000000000000000000001690639e97b8f69061011d90600490339082016107ca565b602060405180830381865afa15801561013a573d6000803e3d6000fd5b505050506040513d601f19601f8201168201806040525081019061015e9190610804565b6101a55760405162461bcd60e51b81526020600482015260136024820152722737ba10309029bcb9ba32b6b99020b236b4b760691b60448201526064015b60405180910390fd5b6101ce8989896040518060400160405280600381526020016213919560ea1b815250888861023f565b604051635c46a7ef60e11b81526001600160a01b0387169063b88d4fde90610202908b908d908a9088908890600401610856565b600060405180830381600087803b15801561021c57600080fd5b505af1158015610230573d6000803e3d6000fd5b50505050505050505050505050565b604051634f4bdc7b60e11b81526001600160a01b037f00000000000000000000000000000000000000000000000000000000000000001690639e97b8f69061028d90600490339082016107ca565b602060405180830381865afa1580156102aa573d6000803e3d6000fd5b505050506040513d601f19601f820116820180604052508101906102ce9190610804565b6103105760405162461bcd60e51b81526020600482015260136024820152722737ba10309029bcb9ba32b6b99020b236b4b760691b604482015260640161019c565b6040516323b872dd60e01b81526001600160a01b0387811660048301528681166024830152604482018690526000917f0000000000000000000000000000000000000000000000000000000000000000909116906323b872dd906064016020604051808303816000875af115801561038c573d6000803e3d6000fd5b505050506040513d601f19601f820116820180604052508101906103b09190610804565b9050806103bc57600080fd5b7f0a491d1cca87a39dfcd808ed896c5fb6d350a5afbca32ab72ef0592a91760fe387868686866040516103f3959493929190610895565b60405180910390a150505050505050565b604051634f4bdc7b60e11b81526001600160a01b037f00000000000000000000000000000000000000000000000000000000000000001690639e97b8f6906104539060019033906004016107ca565b602060405180830381865afa158015610470573d6000803e3d6000fd5b505050506040513d601f19601f820116820180604052508101906104949190610804565b6104d55760405162461bcd60e51b81526020600482015260126024820152712737ba10309023b637b130b61020b236b4b760711b604482015260640161019c565b60405163a9059cbb60e01b8152336004820152602481018290526001600160a01b0383169063a9059cbb906044016020604051808303816000875af1158015610522573d6000803e3d6000fd5b505050506040513d601f19601f820116820180604052508101906105469190610804565b505050565b6001600160a01b038116811461056057600080fd5b50565b60008083601f84011261057557600080fd5b50813567ffffffffffffffff81111561058d57600080fd5b6020830191508360208285010111156105a557600080fd5b9250929050565b600080600080600080600080600060e08a8c0312156105ca57600080fd5b89356105d58161054b565b985060208a01356105e58161054b565b975060408a0135965060608a01356105fc8161054b565b955060808a0135945060a08a013567ffffffffffffffff81111561061f57600080fd5b61062b8c828d01610563565b90955093505060c08a013567ffffffffffffffff81111561064b57600080fd5b6106578c828d01610563565b915080935050809150509295985092959850929598565b634e487b7160e01b600052604160045260246000fd5b60008060008060008060a0878903121561069d57600080fd5b86356106a88161054b565b955060208701356106b88161054b565b945060408701359350606087013567ffffffffffffffff8111156106db57600080fd5b8701601f810189136106ec57600080fd5b803567ffffffffffffffff8111156107065761070661066e565b604051601f8201601f19908116603f0116810167ffffffffffffffff811182821017156107355761073561066e565b6040528181528282016020018b101561074d57600080fd5b81602084016020830137600060208383010152809550505050608087013567ffffffffffffffff81111561078057600080fd5b61078c89828a01610563565b979a9699509497509295939492505050565b600080604083850312156107b157600080fd5b82356107bc8161054b565b946020939093013593505050565b60408101600f84106107ec57634e487b7160e01b600052602160045260246000fd5b9281526001600160a01b039190911660209091015290565b60006020828403121561081657600080fd5b8151801515811461082657600080fd5b9392505050565b81835281816020850137506000828201602090810191909152601f909101601f19169091010190565b6001600160a01b038681168252851660208201526040810184905260806060820181905260009061088a908301848661082d565b979650505050505050565b60018060a01b0386168152846020820152608060408201526000845180608084015260005b818110156108d757602081880181015160a08684010152016108ba565b50600060a08285010152601f19601f8201168301905060a083820301606084015261090660a08201858761082d565b9897505050505050505056fea2646970667358221220e154a7e67929b6072e86794b318e25592be70d48ed8eccb9fa052b3c35b368e664736f6c634300081e0033",
  "linkReferences": {},
  "deployedLinkReferences": {}
}