{
  "_format": "hh-sol-artifact-1",
  "contractName": "GenesisNFTStaking",
  "sourceName": "SuperChamps/contracts/Seasons/GenesisNFTStaking.sol",
  "abi": [
    {
      "inputs": [
        {
          "internalType": "contract IERC721",
          "name": "underlyingToken",
          "type": "address"
        }
      ],
      "stateMutability": "nonpayable",
      "type": "constructor"
    },
    {
      "inputs": [
        {
          "internalType": "address",
          "name": "token",
          "type": "address"
        }
      ],
      "name": "ERC721UnsupportedToken",
      "type": "error"
    },
    {
      "inputs": [],
      "name": "MustInitiateStakingFromSelf",
      "type": "error"
    },
    {
      "inputs": [
        {
          "internalType": "uint256",
          "name": "tokenID",
          "type": "uint256"
        },
        {
          "internalType": "address",
          "name": "sender",
          "type": "address"
        }
      ],
      "name": "TokenNotStakedByAddress",
      "type": "error"
    },
    {
      "anonymous": false,
      "inputs": [
        {
          "indexed": false,
          "internalType": "uint256",
          "name": "tokenID",
          "type": "uint256"
        },
        {
          "indexed": false,
          "internalType": "address",
          "name": "staker",
          "type": "address"
        }
      ],
      "name": "TokenStaked",
      "type": "event"
    },
    {
      "anonymous": false,
      "inputs": [
        {
          "indexed": false,
          "internalType": "uint256",
          "name": "tokenID",
          "type": "uint256"
        },
        {
          "indexed": false,
          "internalType": "address",
          "name": "staker",
          "type": "address"
        }
      ],
      "name": "TokenUnstaked",
      "type": "event"
    },
    {
      "inputs": [
        {
          "internalType": "address",
          "name": "staker",
          "type": "address"
        }
      ],
      "name": "StakedTokens",
      "outputs": [
        {
          "internalType": "uint256[]",
          "name": "ret",
          "type": "uint256[]"
        }
      ],
      "stateMutability": "view",
      "type": "function"
    },
    {
      "inputs": [
        {
          "internalType": "uint256[]",
          "name": "tokenIds",
          "type": "uint256[]"
        }
      ],
      "name": "TokenData",
      "outputs": [
        {
          "components": [
            {
              "internalType": "uint256",
              "name": "last_staked",
              "type": "uint256"
            },
            {
              "internalType": "uint256",
              "name": "last_unstaked",
              "type": "uint256"
            },
            {
              "internalType": "address",
              "name": "last_staker",
              "type": "address"
            }
          ],
          "internalType": "struct GenesisNFTStaking.StakingData[]",
          "name": "ret",
          "type": "tuple[]"
        }
      ],
      "stateMutability": "view",
      "type": "function"
    },
    {
      "inputs": [
        {
          "internalType": "uint256[]",
          "name": "tokenIds",
          "type": "uint256[]"
        }
      ],
      "name": "deposit",
      "outputs": [
        {
          "internalType": "bool",
          "name": "",
          "type": "bool"
        }
      ],
      "stateMutability": "nonpayable",
      "type": "function"
    },
    {
      "inputs": [
        {
          "internalType": "address",
          "name": "",
          "type": "address"
        },
        {
          "internalType": "address",
          "name": "from",
          "type": "address"
        },
        {
          "internalType": "uint256",
          "name": "tokenId",
          "type": "uint256"
        },
        {
          "internalType": "bytes",
          "name": "",
          "type": "bytes"
        }
      ],
      "name": "onERC721Received",
      "outputs": [
        {
          "internalType": "bytes4",
          "name": "",
          "type": "bytes4"
        }
      ],
      "stateMutability": "nonpayable",
      "type": "function"
    },
    {
      "inputs": [
        {
          "internalType": "uint256",
          "name": "",
          "type": "uint256"
        }
      ],
      "name": "staking_data",
      "outputs": [
        {
          "internalType": "uint256",
          "name": "last_staked",
          "type": "uint256"
        },
        {
          "internalType": "uint256",
          "name": "last_unstaked",
          "type": "uint256"
        },
        {
          "internalType": "address",
          "name": "last_staker",
          "type": "address"
        }
      ],
      "stateMutability": "view",
      "type": "function"
    },
    {
      "inputs": [
        {
          "internalType": "bytes4",
          "name": "interfaceId",
          "type": "bytes4"
        }
      ],
      "name": "supportsInterface",
      "outputs": [
        {
          "internalType": "bool",
          "name": "",
          "type": "bool"
        }
      ],
      "stateMutability": "view",
      "type": "function"
    },
    {
      "inputs": [],
      "name": "underlying",
      "outputs": [
        {
          "internalType": "contract IERC721",
          "name": "",
          "type": "address"
        }
      ],
      "stateMutability": "view",
      "type": "function"
    },
    {
      "inputs": [
        {
          "internalType": "uint256[]",
          "name": "tokenIds",
          "type": "uint256[]"
        }
      ],
      "name": "withdraw",
      "outputs": [
        {
          "internalType": "bool",
          "name": "",
          "type": "bool"
        }
      ],
      "stateMutability": "nonpayable",
      "type": "function"
    }
  ],
  "bytecode": "0x60a060405234801561001057600080fd5b50604051610d02380380610d0283398101604081905261002f91610040565b6001600160a01b0316608052610070565b60006020828403121561005257600080fd5b81516001600160a01b038116811461006957600080fd5b9392505050565b608051610c626100a060003960008181610101015281816102160152818161039301526106220152610c626000f3fe608060405234801561001057600080fd5b50600436106100885760003560e01c8063936e59fd1161005b578063936e59fd1461012b578063983d95ce1461014b578063b7354a6a1461015e578063d3da6ed5146101ba57600080fd5b806301ffc9a71461008d578063150b7a02146100b5578063598b8e71146100e15780636f307dc3146100f4575b600080fd5b6100a061009b366004610950565b6101da565b60405190151581526020015b60405180910390f35b6100c86100c3366004610996565b610211565b6040516001600160e01b031990911681526020016100ac565b6100a06100ef366004610a47565b610382565b6040516001600160a01b037f00000000000000000000000000000000000000000000000000000000000000001681526020016100ac565b61013e610139366004610a47565b61045b565b6040516100ac9190610b05565b6100a0610159366004610a47565b61056e565b61019661016c366004610b67565b6000602081905290815260409020805460018201546002909201549091906001600160a01b031683565b6040805193845260208401929092526001600160a01b0316908201526060016100ac565b6101cd6101c8366004610b80565b6106d9565b6040516100ac9190610b9b565b60006001600160e01b03198216630a85bd0160e11b148061020b57506301ffc9a760e01b6001600160e01b03198316145b92915050565b6000337f00000000000000000000000000000000000000000000000000000000000000006001600160a01b031614610263576040516363ec1be360e11b81523360048201526024015b60405180910390fd5b6000848152602081905260409020600201546001600160a01b03166102de5760408051606081018252428152600060208083018281526001600160a01b038a81168587019081528a85529284905294909220925183559051600183015551600290910180546001600160a01b0319169190921617905561030c565b600084815260208190526040902042815560020180546001600160a01b0319166001600160a01b0387161790555b6001600160a01b038516600090815260016020526040902061032e9085610797565b50604080518581526001600160a01b03871660208201527f7d2f41d944235f7c99290ca6f149e25aa6deb5397189be3882b8ddf71c51bbec910160405180910390a150630a85bd0160e11b95945050505050565b8051600090815b81811015610451577f00000000000000000000000000000000000000000000000000000000000000006001600160a01b03166342842e0e33308785815181106103d4576103d4610bdf565b60209081029190910101516040516001600160e01b031960e086901b1681526001600160a01b0393841660048201529290911660248301526044820152606401600060405180830381600087803b15801561042e57600080fd5b505af1158015610442573d6000803e3d6000fd5b50505050806001019050610389565b5060019392505050565b80516060908067ffffffffffffffff81111561047957610479610a31565b6040519080825280602002602001820160405280156104d757816020015b6104c46040518060600160405280600081526020016000815260200160006001600160a01b031681525090565b8152602001906001900390816104975790505b50915060005b81811015610567576000808583815181106104fa576104fa610bdf565b6020908102919091018101518252818101929092526040908101600020815160608101835281548152600182015493810193909352600201546001600160a01b031690820152835184908390811061055457610554610bdf565b60209081029190910101526001016104dd565b5050919050565b8051600090815b8181101561045157600084828151811061059157610591610bdf565b602090810291909101810151336000908152600190925260409091209091506105ba90826107aa565b156106ae576000818152602081815260408083204260019182015533845290915290206105e790826107c2565b50604080518281523360208201527f0bd399ae365ab45a4803bca8e95718b4f1ff0915b48493d790b2525603c0a092910160405180910390a17f0000000000000000000000000000000000000000000000000000000000000000604051632142170760e11b8152306004820152336024820152604481018390526001600160a01b0391909116906342842e0e90606401600060405180830381600087803b15801561069157600080fd5b505af11580156106a5573d6000803e3d6000fd5b505050506106d0565b604051637d5dad4360e01b81526004810182905233602482015260440161025a565b50600101610575565b6001600160a01b0381166000908152600160205260408120606091906106fe906107ce565b90508067ffffffffffffffff81111561071957610719610a31565b604051908082528060200260200182016040528015610742578160200160208202803683370190505b50915060005b81811015610567576001600160a01b038416600090815260016020526040902061077290826107d8565b83828151811061078457610784610bdf565b6020908102919091010152600101610748565b60006107a383836107e4565b9392505050565b600081815260018301602052604081205415156107a3565b60006107a38383610833565b600061020b825490565b60006107a38383610926565b600081815260018301602052604081205461082b5750815460018181018455600084815260208082209093018490558454848252828601909352604090209190915561020b565b50600061020b565b6000818152600183016020526040812054801561091c576000610857600183610bf5565b855490915060009061086b90600190610bf5565b90508082146108d057600086600001828154811061088b5761088b610bdf565b90600052602060002001549050808760000184815481106108ae576108ae610bdf565b6000918252602080832090910192909255918252600188019052604090208390555b85548690806108e1576108e1610c16565b60019003818190600052602060002001600090559055856001016000868152602001908152602001600020600090556001935050505061020b565b600091505061020b565b600082600001828154811061093d5761093d610bdf565b9060005260206000200154905092915050565b60006020828403121561096257600080fd5b81356001600160e01b0319811681146107a357600080fd5b80356001600160a01b038116811461099157600080fd5b919050565b6000806000806000608086880312156109ae57600080fd5b6109b78661097a565b94506109c56020870161097a565b935060408601359250606086013567ffffffffffffffff808211156109e957600080fd5b818801915088601f8301126109fd57600080fd5b813581811115610a0c57600080fd5b896020828501011115610a1e57600080fd5b9699959850939650602001949392505050565b634e487b7160e01b600052604160045260246000fd5b60006020808385031215610a5a57600080fd5b823567ffffffffffffffff80821115610a7257600080fd5b818501915085601f830112610a8657600080fd5b813581811115610a9857610a98610a31565b8060051b604051601f19603f83011681018181108582111715610abd57610abd610a31565b604052918252848201925083810185019188831115610adb57600080fd5b938501935b82851015610af957843584529385019392850192610ae0565b98975050505050505050565b602080825282518282018190526000919060409081850190868401855b82811015610b5a5781518051855286810151878601528501516001600160a01b03168585015260609093019290850190600101610b22565b5091979650505050505050565b600060208284031215610b7957600080fd5b5035919050565b600060208284031215610b9257600080fd5b6107a38261097a565b6020808252825182820181905260009190848201906040850190845b81811015610bd357835183529284019291840191600101610bb7565b50909695505050505050565b634e487b7160e01b600052603260045260246000fd5b8181038181111561020b57634e487b7160e01b600052601160045260246000fd5b634e487b7160e01b600052603160045260246000fdfea2646970667358221220d091a166e27172e4be3718c81591dc4cfd49b39c73e9f5770e6f0229024d7d4464736f6c63430008180033",
  "linkReferences": {},
  "deployedLinkReferences": {}
}