{
  "_format": "hh-sol-artifact-1",
  "contractName": "SCAccessPass",
  "sourceName": "SuperChamps/contracts/NFTs/SCAccessPass.sol",
  "abi": [
    {
      "inputs": [
        {
          "internalType": "contract IPermissionsManager",
          "name": "permissions_",
          "type": "address"
        },
        {
          "internalType": "string",
          "name": "name_",
          "type": "string"
        },
        {
          "internalType": "string",
          "name": "symbol_",
          "type": "string"
        },
        {
          "internalType": "string",
          "name": "uri_",
          "type": "string"
        }
      ],
      "stateMutability": "nonpayable",
      "type": "constructor"
    },
    {
      "inputs": [
        {
          "internalType": "address",
          "name": "sender",
          "type": "address"
        },
        {
          "internalType": "uint256",
          "name": "tokenId",
          "type": "uint256"
        },
        {
          "internalType": "address",
          "name": "owner",
          "type": "address"
        }
      ],
      "name": "ERC721IncorrectOwner",
      "type": "error"
    },
    {
      "inputs": [
        {
          "internalType": "address",
          "name": "operator",
          "type": "address"
        },
        {
          "internalType": "uint256",
          "name": "tokenId",
          "type": "uint256"
        }
      ],
      "name": "ERC721InsufficientApproval",
      "type": "error"
    },
    {
      "inputs": [
        {
          "internalType": "address",
          "name": "approver",
          "type": "address"
        }
      ],
      "name": "ERC721InvalidApprover",
      "type": "error"
    },
    {
      "inputs": [
        {
          "internalType": "address",
          "name": "operator",
          "type": "address"
        }
      ],
      "name": "ERC721InvalidOperator",
      "type": "error"
    },
    {
      "inputs": [
        {
          "internalType": "address",
          "name": "owner",
          "type": "address"
        }
      ],
      "name": "ERC721InvalidOwner",
      "type": "error"
    },
    {
      "inputs": [
        {
          "internalType": "address",
          "name": "receiver",
          "type": "address"
        }
      ],
      "name": "ERC721InvalidReceiver",
      "type": "error"
    },
    {
      "inputs": [
        {
          "internalType": "address",
          "name": "sender",
          "type": "address"
        }
      ],
      "name": "ERC721InvalidSender",
      "type": "error"
    },
    {
      "inputs": [
        {
          "internalType": "uint256",
          "name": "tokenId",
          "type": "uint256"
        }
      ],
      "name": "ERC721NonexistentToken",
      "type": "error"
    },
    {
      "anonymous": false,
      "inputs": [
        {
          "indexed": true,
          "internalType": "address",
          "name": "owner",
          "type": "address"
        },
        {
          "indexed": true,
          "internalType": "address",
          "name": "approved",
          "type": "address"
        },
        {
          "indexed": true,
          "internalType": "uint256",
          "name": "tokenId",
          "type": "uint256"
        }
      ],
      "name": "Approval",
      "type": "event"
    },
    {
      "anonymous": false,
      "inputs": [
        {
          "indexed": true,
          "internalType": "address",
          "name": "owner",
          "type": "address"
        },
        {
          "indexed": true,
          "internalType": "address",
          "name": "operator",
          "type": "address"
        },
        {
          "indexed": false,
          "internalType": "bool",
          "name": "approved",
          "type": "bool"
        }
      ],
      "name": "ApprovalForAll",
      "type": "event"
    },
    {
      "anonymous": false,
      "inputs": [
        {
          "indexed": true,
          "internalType": "address",
          "name": "from",
          "type": "address"
        },
        {
          "indexed": true,
          "internalType": "address",
          "name": "to",
          "type": "address"
        },
        {
          "indexed": true,
          "internalType": "uint256",
          "name": "tokenId",
          "type": "uint256"
        }
      ],
      "name": "Transfer",
      "type": "event"
    },
    {
      "inputs": [
        {
          "internalType": "address",
          "name": "to",
          "type": "address"
        },
        {
          "internalType": "uint256",
          "name": "tokenId",
          "type": "uint256"
        }
      ],
      "name": "approve",
      "outputs": [],
      "stateMutability": "nonpayable",
      "type": "function"
    },
    {
      "inputs": [
        {
          "internalType": "address",
          "name": "owner",
          "type": "address"
        }
      ],
      "name": "balanceOf",
      "outputs": [
        {
          "internalType": "uint256",
          "name": "",
          "type": "uint256"
        }
      ],
      "stateMutability": "view",
      "type": "function"
    },
    {
      "inputs": [
        {
          "internalType": "address",
          "name": "holder_",
          "type": "address"
        }
      ],
      "name": "burnToken",
      "outputs": [],
      "stateMutability": "nonpayable",
      "type": "function"
    },
    {
      "inputs": [
        {
          "internalType": "address payable",
          "name": "recipient_",
          "type": "address"
        }
      ],
      "name": "collect",
      "outputs": [],
      "stateMutability": "nonpayable",
      "type": "function"
    },
    {
      "inputs": [
        {
          "internalType": "address",
          "name": "recipient_",
          "type": "address"
        }
      ],
      "name": "freeRegister",
      "outputs": [],
      "stateMutability": "nonpayable",
      "type": "function"
    },
    {
      "inputs": [
        {
          "internalType": "address",
          "name": "recipient_",
          "type": "address"
        }
      ],
      "name": "freeUpgrade",
      "outputs": [],
      "stateMutability": "nonpayable",
      "type": "function"
    },
    {
      "inputs": [
        {
          "internalType": "uint256",
          "name": "tokenId",
          "type": "uint256"
        }
      ],
      "name": "getApproved",
      "outputs": [
        {
          "internalType": "address",
          "name": "",
          "type": "address"
        }
      ],
      "stateMutability": "view",
      "type": "function"
    },
    {
      "inputs": [
        {
          "internalType": "address",
          "name": "addr_",
          "type": "address"
        }
      ],
      "name": "getLevel",
      "outputs": [
        {
          "internalType": "uint256",
          "name": "_level",
          "type": "uint256"
        }
      ],
      "stateMutability": "view",
      "type": "function"
    },
    {
      "inputs": [
        {
          "internalType": "uint256",
          "name": "id_",
          "type": "uint256"
        }
      ],
      "name": "getLevel",
      "outputs": [
        {
          "internalType": "uint256",
          "name": "_level",
          "type": "uint256"
        }
      ],
      "stateMutability": "view",
      "type": "function"
    },
    {
      "inputs": [
        {
          "internalType": "address",
          "name": "owner",
          "type": "address"
        },
        {
          "internalType": "address",
          "name": "operator",
          "type": "address"
        }
      ],
      "name": "isApprovedForAll",
      "outputs": [
        {
          "internalType": "bool",
          "name": "",
          "type": "bool"
        }
      ],
      "stateMutability": "view",
      "type": "function"
    },
    {
      "inputs": [
        {
          "internalType": "address",
          "name": "addr_",
          "type": "address"
        }
      ],
      "name": "isPassHolder",
      "outputs": [
        {
          "internalType": "bool",
          "name": "_result",
          "type": "bool"
        }
      ],
      "stateMutability": "view",
      "type": "function"
    },
    {
      "inputs": [
        {
          "internalType": "address",
          "name": "addr_",
          "type": "address"
        }
      ],
      "name": "isVerified",
      "outputs": [
        {
          "internalType": "bool",
          "name": "_result",
          "type": "bool"
        }
      ],
      "stateMutability": "view",
      "type": "function"
    },
    {
      "inputs": [],
      "name": "name",
      "outputs": [
        {
          "internalType": "string",
          "name": "",
          "type": "string"
        }
      ],
      "stateMutability": "view",
      "type": "function"
    },
    {
      "inputs": [
        {
          "internalType": "uint256",
          "name": "tokenId",
          "type": "uint256"
        }
      ],
      "name": "ownerOf",
      "outputs": [
        {
          "internalType": "address",
          "name": "",
          "type": "address"
        }
      ],
      "stateMutability": "view",
      "type": "function"
    },
    {
      "inputs": [],
      "name": "register",
      "outputs": [],
      "stateMutability": "payable",
      "type": "function"
    },
    {
      "inputs": [
        {
          "internalType": "address",
          "name": "from",
          "type": "address"
        },
        {
          "internalType": "address",
          "name": "to",
          "type": "address"
        },
        {
          "internalType": "uint256",
          "name": "tokenId",
          "type": "uint256"
        }
      ],
      "name": "safeTransferFrom",
      "outputs": [],
      "stateMutability": "nonpayable",
      "type": "function"
    },
    {
      "inputs": [
        {
          "internalType": "address",
          "name": "from",
          "type": "address"
        },
        {
          "internalType": "address",
          "name": "to",
          "type": "address"
        },
        {
          "internalType": "uint256",
          "name": "tokenId",
          "type": "uint256"
        },
        {
          "internalType": "bytes",
          "name": "data",
          "type": "bytes"
        }
      ],
      "name": "safeTransferFrom",
      "outputs": [],
      "stateMutability": "nonpayable",
      "type": "function"
    },
    {
      "inputs": [
        {
          "internalType": "address",
          "name": "operator",
          "type": "address"
        },
        {
          "internalType": "bool",
          "name": "approved",
          "type": "bool"
        }
      ],
      "name": "setApprovalForAll",
      "outputs": [],
      "stateMutability": "nonpayable",
      "type": "function"
    },
    {
      "inputs": [
        {
          "internalType": "uint256",
          "name": "price_",
          "type": "uint256"
        },
        {
          "internalType": "uint256",
          "name": "level_",
          "type": "uint256"
        }
      ],
      "name": "setPrice",
      "outputs": [],
      "stateMutability": "nonpayable",
      "type": "function"
    },
    {
      "inputs": [
        {
          "internalType": "address",
          "name": "renderer_",
          "type": "address"
        }
      ],
      "name": "setRenderer",
      "outputs": [],
      "stateMutability": "nonpayable",
      "type": "function"
    },
    {
      "inputs": [
        {
          "internalType": "bytes4",
          "name": "interfaceId",
          "type": "bytes4"
        }
      ],
      "name": "supportsInterface",
      "outputs": [
        {
          "internalType": "bool",
          "name": "",
          "type": "bool"
        }
      ],
      "stateMutability": "view",
      "type": "function"
    },
    {
      "inputs": [],
      "name": "symbol",
      "outputs": [
        {
          "internalType": "string",
          "name": "",
          "type": "string"
        }
      ],
      "stateMutability": "view",
      "type": "function"
    },
    {
      "inputs": [
        {
          "internalType": "uint256",
          "name": "tokenId",
          "type": "uint256"
        }
      ],
      "name": "tokenURI",
      "outputs": [
        {
          "internalType": "string",
          "name": "",
          "type": "string"
        }
      ],
      "stateMutability": "view",
      "type": "function"
    },
    {
      "inputs": [
        {
          "internalType": "address",
          "name": "",
          "type": "address"
        },
        {
          "internalType": "address",
          "name": "",
          "type": "address"
        },
        {
          "internalType": "uint256",
          "name": "",
          "type": "uint256"
        }
      ],
      "name": "transferFrom",
      "outputs": [],
      "stateMutability": "pure",
      "type": "function"
    },
    {
      "inputs": [],
      "name": "upgrade",
      "outputs": [],
      "stateMutability": "payable",
      "type": "function"
    },
    {
      "inputs": [
        {
          "internalType": "uint256",
          "name": "",
          "type": "uint256"
        }
      ],
      "name": "upgrade_prices",
      "outputs": [
        {
          "internalType": "uint256",
          "name": "",
          "type": "uint256"
        }
      ],
      "stateMutability": "view",
      "type": "function"
    },
    {
      "inputs": [
        {
          "internalType": "address",
          "name": "holder_",
          "type": "address"
        },
        {
          "internalType": "bool",
          "name": "status_",
          "type": "bool"
        }
      ],
      "name": "verifyPassHolder",
      "outputs": [],
      "stateMutability": "nonpayable",
      "type": "function"
    }
  ],
  "bytecode": "0x60c060405266038d7ea4c6800060a09081526200002190600a906001620000f7565b506001600b553480156200003457600080fd5b506040516200312538038062003125833981016040819052620000579162000244565b8282600062000067838262000387565b50600162000076828262000387565b5050506001600160a01b038416608052604051849030908590859085906200009e9062000152565b620000ae95949392919062000481565b604051809103906000f080158015620000cb573d6000803e3d6000fd5b50600680546001600160a01b0319166001600160a01b039290921691909117905550620004e592505050565b82805482825590600052602060002090810192821562000140579160200282015b8281111562000140578251829066ffffffffffffff1690559160200191906001019062000118565b506200014e92915062000160565b5090565b610e6980620022bc83390190565b5b808211156200014e576000815560010162000161565b634e487b7160e01b600052604160045260246000fd5b60005b83811015620001aa57818101518382015260200162000190565b50506000910152565b600082601f830112620001c557600080fd5b81516001600160401b0380821115620001e257620001e262000177565b604051601f8301601f19908116603f011681019082821181831017156200020d576200020d62000177565b816040528381528660208588010111156200022757600080fd5b6200023a8460208301602089016200018d565b9695505050505050565b600080600080608085870312156200025b57600080fd5b84516001600160a01b03811681146200027357600080fd5b60208601519094506001600160401b03808211156200029157600080fd5b6200029f88838901620001b3565b94506040870151915080821115620002b657600080fd5b620002c488838901620001b3565b93506060870151915080821115620002db57600080fd5b50620002ea87828801620001b3565b91505092959194509250565b600181811c908216806200030b57607f821691505b6020821081036200032c57634e487b7160e01b600052602260045260246000fd5b50919050565b601f82111562000382576000816000526020600020601f850160051c810160208610156200035d5750805b601f850160051c820191505b818110156200037e5782815560010162000369565b5050505b505050565b81516001600160401b03811115620003a357620003a362000177565b620003bb81620003b48454620002f6565b8462000332565b602080601f831160018114620003f35760008415620003da5750858301515b600019600386901b1c1916600185901b1785556200037e565b600085815260208120601f198616915b82811015620004245788860151825594840194600190910190840162000403565b5085821015620004435787850151600019600388901b60f8161c191681555b5050505050600190811b01905550565b600081518084526200046d8160208601602086016200018d565b601f01601f19169290920160200192915050565b6001600160a01b0386811682528516602082015260a060408201819052600090620004af9083018662000453565b8281036060840152620004c3818662000453565b90508281036080840152620004d9818562000453565b98975050505050505050565b608051611d916200052b600039600081816105b50152818161091b01528181610a7601528181610b5c01528181610d3d0152818161109301526112010152611d916000f3fe60806040526004361061019c5760003560e01c806367beb551116100ec578063b88d4fde1161008a578063d55ec69711610064578063d55ec697146104e4578063e985e9c5146104ec578063ea025a931461050c578063f7d975771461052c57600080fd5b8063b88d4fde1461046b578063b9209e331461048b578063c87b56dd146104c457600080fd5b806386481d40116100c657806386481d40146103f6578063950dad191461041657806395d89b4114610436578063a22cb4651461044b57600080fd5b806367beb5511461038057806370a08231146103a0578063817c8966146103c057600080fd5b80631aa3a0081161015957806342842e0e1161013357806342842e0e146102f257806356d3163d146103125780635718f5ec146103325780636352211e1461036057600080fd5b80631aa3a008146102aa57806323b872dd146102b25780632c9d46fe146102d257600080fd5b806301ffc9a7146101a157806306ec16f8146101d657806306fdde03146101f8578063081812fc1461021a578063095ea7b3146102525780630d5afd8b14610272575b600080fd5b3480156101ad57600080fd5b506101c16101bc3660046118ee565b61054c565b60405190151581526020015b60405180910390f35b3480156101e257600080fd5b506101f66101f1366004611920565b61059e565b005b34801561020457600080fd5b5061020d610723565b6040516101cd919061198d565b34801561022657600080fd5b5061023a6102353660046119a0565b61079a565b6040516001600160a01b0390911681526020016101cd565b34801561025e57600080fd5b506101f661026d3660046119b9565b6107c3565b34801561027e57600080fd5b506101c161028d366004611920565b6001600160a01b0316600090815260076020526040902054151590565b6101f66107d2565b3480156102be57600080fd5b506101f66102cd3660046119e5565b6108c6565b3480156102de57600080fd5b506101f66102ed366004611920565b610904565b3480156102fe57600080fd5b506101f661030d3660046119e5565b610a44565b34801561031e57600080fd5b506101f661032d366004611920565b610a5f565b34801561033e57600080fd5b5061035261034d3660046119a0565b610b19565b6040519081526020016101cd565b34801561036c57600080fd5b5061023a61037b3660046119a0565b610b3a565b34801561038c57600080fd5b506101f661039b366004611a34565b610b45565b3480156103ac57600080fd5b506103526103bb366004611920565b610c6c565b3480156103cc57600080fd5b506103526103db366004611920565b6001600160a01b031660009081526009602052604090205490565b34801561040257600080fd5b506103526104113660046119a0565b610cb4565b34801561042257600080fd5b506101f6610431366004611920565b610d26565b34801561044257600080fd5b5061020d610e49565b34801561045757600080fd5b506101f6610466366004611a34565b610e93565b34801561047757600080fd5b506101f6610486366004611adc565b610e9e565b34801561049757600080fd5b506101c16104a6366004611920565b6001600160a01b031660009081526008602052604090205460ff1690565b3480156104d057600080fd5b5061020d6104df3660046119a0565b610ebc565b6101f6610f39565b3480156104f857600080fd5b506101c1610507366004611b8b565b61104e565b34801561051857600080fd5b506101f6610527366004611920565b61107c565b34801561053857600080fd5b506101f6610547366004611bb9565b6111ea565b60006001600160e01b031982166380ac58cd60e01b148061057d57506001600160e01b03198216635b5e139f60e01b145b8061059857506301ffc9a760e01b6001600160e01b03198316145b92915050565b604051634f4bdc7b60e11b81526001600160a01b037f00000000000000000000000000000000000000000000000000000000000000001690639e97b8f6906105ec9060049033908201611bdb565b602060405180830381865afa158015610609573d6000803e3d6000fd5b505050506040513d601f19601f8201168201806040525081019061062d9190611c15565b61063657600080fd5b600047116106825760405162461bcd60e51b81526020600482015260146024820152734e4f20455448455220544f20574954484452415760601b60448201526064015b60405180910390fd5b600080826001600160a01b03164760405160006040518083038185875af1925050503d80600081146106d0576040519150601f19603f3d011682016040523d82523d6000602084013e6106d5565b606091505b50915091508161071e5760405162461bcd60e51b81526020600482015260146024820152732330b4b632b2103a379039b2b7321022ba3432b960611b6044820152606401610679565b505050565b600654604080516306fdde0360e01b815290516060926001600160a01b0316916306fdde039160048083019260009291908290030181865afa15801561076d573d6000803e3d6000fd5b505050506040513d6000823e601f3d908101601f191682016040526107959190810190611c32565b905090565b60006107a58261132a565b506000828152600460205260409020546001600160a01b0316610598565b6107ce828233611363565b5050565b33600090815260076020526040902054156108245760405162461bcd60e51b815260206004820152601260248201527110531491505116481352539511510814d09560721b6044820152606401610679565b600a60008154811061083857610838611ca9565b906000526020600020015434146108835760405162461bcd60e51b815260206004820152600f60248201526e125395905312510814105653515395608a1b6044820152606401610679565b600b546108903382611370565b3360009081526007602090815260408083208490556009909152812060019055600b8054916108be83611cd5565b919050555050565b60405162461bcd60e51b815260206004820152601360248201527210d0539393d5081514905394d191548814d095606a1b6044820152606401610679565b604051634f4bdc7b60e11b81526001600160a01b037f00000000000000000000000000000000000000000000000000000000000000001690639e97b8f6906109529060049033908201611bdb565b602060405180830381865afa15801561096f573d6000803e3d6000fd5b505050506040513d601f19601f820116820180604052508101906109939190611c15565b61099c57600080fd5b6001600160a01b038116600090815260076020526040902054156109f75760405162461bcd60e51b815260206004820152601260248201527110531491505116481352539511510814d09560721b6044820152606401610679565b600b54610a048282611370565b6001600160a01b03821660009081526007602090815260408083208490556009909152812060019055600b805491610a3b83611cd5565b91905055505050565b61071e83838360405180602001604052806000815250610e9e565b604051634f4bdc7b60e11b81526001600160a01b037f00000000000000000000000000000000000000000000000000000000000000001690639e97b8f690610aad9060049033908201611bdb565b602060405180830381865afa158015610aca573d6000803e3d6000fd5b505050506040513d601f19601f82011682018060405250810190610aee9190611c15565b610af757600080fd5b600680546001600160a01b0319166001600160a01b0392909216919091179055565b600a8181548110610b2957600080fd5b600091825260209091200154905081565b60006105988261132a565b604051634f4bdc7b60e11b81526001600160a01b037f00000000000000000000000000000000000000000000000000000000000000001690639e97b8f690610b939060049033908201611bdb565b602060405180830381865afa158015610bb0573d6000803e3d6000fd5b505050506040513d601f19601f82011682018060405250810190610bd49190611c15565b610bdd57600080fd5b6001600160a01b03821660009081526008602052604090205481151560ff909116151503610c415760405162461bcd60e51b8152602060048201526011602482015270105314915051164814d1550bd55394d155607a1b6044820152606401610679565b6001600160a01b03919091166000908152600860205260409020805460ff1916911515919091179055565b60006001600160a01b038216610c98576040516322718ad960e21b815260006004820152602401610679565b506001600160a01b031660009081526003602052604090205490565b600080610cc083610b3a565b90506001600160a01b038116610d055760405162461bcd60e51b815260206004820152600a6024820152691253959053125108125160b21b6044820152606401610679565b6001600160a01b0381166000908152600960205260409020545b9392505050565b604051634f4bdc7b60e11b81526001600160a01b037f00000000000000000000000000000000000000000000000000000000000000001690639e97b8f690610d749060049033908201611bdb565b602060405180830381865afa158015610d91573d6000803e3d6000fd5b505050506040513d601f19601f82011682018060405250810190610db59190611c15565b610dbe57600080fd5b6001600160a01b03811660009081526007602052604081205490819003610e185760405162461bcd60e51b815260206004820152600e60248201526d1393d3881352539511510814d09560921b6044820152606401610679565b610e218161138a565b506001600160a01b031660009081526007602090815260408083208390556009909152812055565b600654604080516395d89b4160e01b815290516060926001600160a01b0316916395d89b419160048083019260009291908290030181865afa15801561076d573d6000803e3d6000fd5b6107ce3383836113c5565b610ea98484846108c6565b610eb63385858585611464565b50505050565b6060610ec78261132a565b5060065460405163c87b56dd60e01b8152600481018490526001600160a01b039091169063c87b56dd90602401600060405180830381865afa158015610f11573d6000803e3d6000fd5b505050506040513d6000823e601f3d908101601f191682016040526105989190810190611c32565b33600090815260076020526040902054610f855760405162461bcd60e51b815260206004820152600d60248201526c135554d508135253950814d095609a1b6044820152606401610679565b33600090815260096020526040902054600a548110610fd25760405162461bcd60e51b815260206004820152600960248201526813505608131155915360ba1b6044820152606401610679565b600a8181548110610fe557610fe5611ca9565b906000526020600020015434146110305760405162461bcd60e51b815260206004820152600f60248201526e125395905312510814105653515395608a1b6044820152606401610679565b61103b816001611cee565b3360009081526009602052604090205550565b6001600160a01b03918216600090815260056020908152604080832093909416825291909152205460ff1690565b604051634f4bdc7b60e11b81526001600160a01b037f00000000000000000000000000000000000000000000000000000000000000001690639e97b8f6906110ca9060049033908201611bdb565b602060405180830381865afa1580156110e7573d6000803e3d6000fd5b505050506040513d601f19601f8201168201806040525081019061110b9190611c15565b61111457600080fd5b6001600160a01b0381166000908152600760205260409020546111695760405162461bcd60e51b815260206004820152600d60248201526c135554d508135253950814d095609a1b6044820152606401610679565b6001600160a01b038116600090815260096020526040902054600a5481106111bf5760405162461bcd60e51b815260206004820152600960248201526813505608131155915360ba1b6044820152606401610679565b6111ca816001611cee565b6001600160a01b0390921660009081526009602052604090209190915550565b604051634f4bdc7b60e11b81526001600160a01b037f00000000000000000000000000000000000000000000000000000000000000001690639e97b8f6906112389060049033908201611bdb565b602060405180830381865afa158015611255573d6000803e3d6000fd5b505050506040513d601f19601f820116820180604052508101906112799190611c15565b61128257600080fd5b600a548111156112c75760405162461bcd60e51b815260206004820152601060248201526f43414e5420534b4950204c4556454c5360801b6044820152606401610679565b600a5481036113065750600a80546001810182556000919091527fc65a7bb8d6351c1cf70c95a316cc6a92839c986682d98bc35f958f4883f9d2a80155565b81600a828154811061131a5761131a611ca9565b6000918252602090912001555050565b6000818152600260205260408120546001600160a01b03168061059857604051637e27328960e01b815260048101849052602401610679565b61071e838383600161158f565b6107ce828260405180602001604052806000815250611695565b600061139960008360006116ad565b90506001600160a01b0381166107ce57604051637e27328960e01b815260048101839052602401610679565b6001600160a01b0382166113f757604051630b61174360e31b81526001600160a01b0383166004820152602401610679565b6001600160a01b03838116600081815260056020908152604080832094871680845294825291829020805460ff191686151590811790915591519182527f17307eab39ab6107e8899845ad3d59bd9653f200f220920489ca2b5937696c31910160405180910390a3505050565b6001600160a01b0383163b1561158857604051630a85bd0160e11b81526001600160a01b0384169063150b7a02906114a6908890889087908790600401611d01565b6020604051808303816000875af19250505080156114e1575060408051601f3d908101601f191682019092526114de91810190611d3e565b60015b61154a573d80801561150f576040519150601f19603f3d011682016040523d82523d6000602084013e611514565b606091505b50805160000361154257604051633250574960e11b81526001600160a01b0385166004820152602401610679565b805181602001fd5b6001600160e01b03198116630a85bd0160e11b1461158657604051633250574960e11b81526001600160a01b0385166004820152602401610679565b505b5050505050565b80806115a357506001600160a01b03821615155b156116655760006115b38461132a565b90506001600160a01b038316158015906115df5750826001600160a01b0316816001600160a01b031614155b80156115f257506115f0818461104e565b155b1561161b5760405163a9fbf51f60e01b81526001600160a01b0384166004820152602401610679565b81156116635783856001600160a01b0316826001600160a01b03167f8c5be1e5ebec7d5bd14f71427d1e84f3dd0314c0f7b2291e5b200ac8c7c3b92560405160405180910390a45b505b5050600090815260046020526040902080546001600160a01b0319166001600160a01b0392909216919091179055565b61169f83836117a6565b61071e336000858585611464565b6000828152600260205260408120546001600160a01b03908116908316156116da576116da81848661180b565b6001600160a01b03811615611718576116f760008560008061158f565b6001600160a01b038116600090815260036020526040902080546000190190555b6001600160a01b03851615611747576001600160a01b0385166000908152600360205260409020805460010190555b60008481526002602052604080822080546001600160a01b0319166001600160a01b0389811691821790925591518793918516917fddf252ad1be2c89b69c2b068fc378daa952ba7f163c4a11628f55a4df523b3ef91a4949350505050565b6001600160a01b0382166117d057604051633250574960e11b815260006004820152602401610679565b60006117de838360006116ad565b90506001600160a01b0381161561071e576040516339e3563760e11b815260006004820152602401610679565b61181683838361186f565b61071e576001600160a01b03831661184457604051637e27328960e01b815260048101829052602401610679565b60405163177e802f60e01b81526001600160a01b038316600482015260248101829052604401610679565b60006001600160a01b038316158015906118cd5750826001600160a01b0316846001600160a01b031614806118a957506118a9848461104e565b806118cd57506000828152600460205260409020546001600160a01b038481169116145b949350505050565b6001600160e01b0319811681146118eb57600080fd5b50565b60006020828403121561190057600080fd5b8135610d1f816118d5565b6001600160a01b03811681146118eb57600080fd5b60006020828403121561193257600080fd5b8135610d1f8161190b565b60005b83811015611958578181015183820152602001611940565b50506000910152565b6000815180845261197981602086016020860161193d565b601f01601f19169290920160200192915050565b602081526000610d1f6020830184611961565b6000602082840312156119b257600080fd5b5035919050565b600080604083850312156119cc57600080fd5b82356119d78161190b565b946020939093013593505050565b6000806000606084860312156119fa57600080fd5b8335611a058161190b565b92506020840135611a158161190b565b929592945050506040919091013590565b80151581146118eb57600080fd5b60008060408385031215611a4757600080fd5b8235611a528161190b565b91506020830135611a6281611a26565b809150509250929050565b634e487b7160e01b600052604160045260246000fd5b604051601f8201601f1916810167ffffffffffffffff81118282101715611aac57611aac611a6d565b604052919050565b600067ffffffffffffffff821115611ace57611ace611a6d565b50601f01601f191660200190565b60008060008060808587031215611af257600080fd5b8435611afd8161190b565b93506020850135611b0d8161190b565b925060408501359150606085013567ffffffffffffffff811115611b3057600080fd5b8501601f81018713611b4157600080fd5b8035611b54611b4f82611ab4565b611a83565b818152886020838501011115611b6957600080fd5b8160208401602083013760006020838301015280935050505092959194509250565b60008060408385031215611b9e57600080fd5b8235611ba98161190b565b91506020830135611a628161190b565b60008060408385031215611bcc57600080fd5b50508035926020909101359150565b60408101600f8410611bfd57634e487b7160e01b600052602160045260246000fd5b9281526001600160a01b039190911660209091015290565b600060208284031215611c2757600080fd5b8151610d1f81611a26565b600060208284031215611c4457600080fd5b815167ffffffffffffffff811115611c5b57600080fd5b8201601f81018413611c6c57600080fd5b8051611c7a611b4f82611ab4565b818152856020838501011115611c8f57600080fd5b611ca082602083016020860161193d565b95945050505050565b634e487b7160e01b600052603260045260246000fd5b634e487b7160e01b600052601160045260246000fd5b600060018201611ce757611ce7611cbf565b5060010190565b8082018082111561059857610598611cbf565b6001600160a01b0385811682528416602082015260408101839052608060608201819052600090611d3490830184611961565b9695505050505050565b600060208284031215611d5057600080fd5b8151610d1f816118d556fea2646970667358221220c9cb70ccb5021ded3f726d49dae0597195b6cfdc05525bb8b108a03f660caba164736f6c6343000818003360a06040523480156200001157600080fd5b5060405162000e6938038062000e69833981016040819052620000349162000172565b6001600160a01b03858116608052600080546001600160a01b0319169186169190911790556001620000678482620002c0565b506002620000768382620002c0565b506003620000858282620002c0565b5050505050506200038c565b6001600160a01b0381168114620000a757600080fd5b50565b634e487b7160e01b600052604160045260246000fd5b600082601f830112620000d257600080fd5b81516001600160401b0380821115620000ef57620000ef620000aa565b604051601f8301601f19908116603f011681019082821181831017156200011a576200011a620000aa565b81604052838152602092508660208588010111156200013857600080fd5b600091505b838210156200015c57858201830151818301840152908201906200013d565b6000602085830101528094505050505092915050565b600080600080600060a086880312156200018b57600080fd5b8551620001988162000091565b6020870151909550620001ab8162000091565b60408701519094506001600160401b0380821115620001c957600080fd5b620001d789838a01620000c0565b94506060880151915080821115620001ee57600080fd5b620001fc89838a01620000c0565b935060808801519150808211156200021357600080fd5b506200022288828901620000c0565b9150509295509295909350565b600181811c908216806200024457607f821691505b6020821081036200026557634e487b7160e01b600052602260045260246000fd5b50919050565b601f821115620002bb576000816000526020600020601f850160051c81016020861015620002965750805b601f850160051c820191505b81811015620002b757828155600101620002a2565b5050505b505050565b81516001600160401b03811115620002dc57620002dc620000aa565b620002f481620002ed84546200022f565b846200026b565b602080601f8311600181146200032c5760008415620003135750858301515b600019600386901b1c1916600185901b178555620002b7565b600085815260208120601f198616915b828110156200035d578886015182559484019460019091019084016200033c565b50858210156200037c5787850151600019600388901b60f8161c191681555b5050505050600190811b01905550565b608051610aba620003af600039600081816101af01526102690152610aba6000f3fe608060405234801561001057600080fd5b50600436106100625760003560e01c806306fdde031461006757806310d4fe081461008557806383aea88b14610098578063876a4cdc146100ad57806395d89b41146100c0578063c87b56dd146100c8575b600080fd5b61006f6100db565b60405161007c91906105d8565b60405180910390f35b61006f610093366004610652565b61016d565b6100ab6100a63660046106f8565b610198565b005b6100ab6100bb366004610744565b610252565b61006f61030b565b61006f6100d63660046107ea565b61031a565b6060600180546100ea90610803565b80601f016020809104026020016040519081016040528092919081815260200182805461011690610803565b80156101635780601f1061013857610100808354040283529160200191610163565b820191906000526020600020905b81548152906001019060200180831161014657829003601f168201915b5050505050905090565b6060610192826000815181106101855761018561083d565b602002602001015161031a565b92915050565b604051634f4bdc7b60e11b81526001600160a01b037f00000000000000000000000000000000000000000000000000000000000000001690639e97b8f6906101e69060049033908201610853565b602060405180830381865afa158015610203573d6000803e3d6000fd5b505050506040513d601f19601f82011682018060405250810190610227919061088d565b61023057600080fd5b600080546001600160a01b0319166001600160a01b0392909216919091179055565b604051634f4bdc7b60e11b81526001600160a01b037f00000000000000000000000000000000000000000000000000000000000000001690639e97b8f6906102a09060049033908201610853565b602060405180830381865afa1580156102bd573d6000803e3d6000fd5b505050506040513d601f19601f820116820180604052508101906102e1919061088d565b6102ea57600080fd5b60036102f683826108fb565b506004805460ff191691151591909117905550565b6060600280546100ea90610803565b60045460609060ff16156103845760006003805461033790610803565b9050116103535760405180602001604052806000815250610192565b600361035e83610449565b60405160200161036f9291906109bb565b60405160208183030381529060405292915050565b60008054604051630219207560e61b8152600481018590526001600160a01b03909116906386481d4090602401602060405180830381865afa1580156103ce573d6000803e3d6000fd5b505050506040513d601f19601f820116820180604052508101906103f29190610a42565b905060036103ff82610449565b60405160200161040f9190610a5b565b60408051601f198184030181529082905261042d92916020016109bb565b604051602081830303815290604052915050919050565b919050565b60606000610456836104dc565b600101905060008167ffffffffffffffff8111156104765761047661060b565b6040519080825280601f01601f1916602001820160405280156104a0576020820181803683370190505b5090508181016020015b600019016f181899199a1a9b1b9c1cb0b131b232b360811b600a86061a8153600a85049450846104aa57509392505050565b60008072184f03e93ff9f4daa797ed6e38ed64bf6a1f0160401b831061051b5772184f03e93ff9f4daa797ed6e38ed64bf6a1f0160401b830492506040015b6d04ee2d6d415b85acef81000000008310610547576d04ee2d6d415b85acef8100000000830492506020015b662386f26fc10000831061056557662386f26fc10000830492506010015b6305f5e100831061057d576305f5e100830492506008015b612710831061059157612710830492506004015b606483106105a3576064830492506002015b600a83106101925760010192915050565b60005b838110156105cf5781810151838201526020016105b7565b50506000910152565b60208152600082518060208401526105f78160408501602087016105b4565b601f01601f19169190910160400192915050565b634e487b7160e01b600052604160045260246000fd5b604051601f8201601f1916810167ffffffffffffffff8111828210171561064a5761064a61060b565b604052919050565b6000602080838503121561066557600080fd5b823567ffffffffffffffff8082111561067d57600080fd5b818501915085601f83011261069157600080fd5b8135818111156106a3576106a361060b565b8060051b91506106b4848301610621565b81815291830184019184810190888411156106ce57600080fd5b938501935b838510156106ec578435825293850193908501906106d3565b98975050505050505050565b60006020828403121561070a57600080fd5b81356001600160a01b038116811461072157600080fd5b9392505050565b801515811461073657600080fd5b50565b803561044481610728565b6000806040838503121561075757600080fd5b823567ffffffffffffffff8082111561076f57600080fd5b818501915085601f83011261078357600080fd5b81356020828211156107975761079761060b565b6107a9601f8301601f19168201610621565b925081835287818386010111156107bf57600080fd5b818185018285013760008183850101528295506107dd818801610739565b9450505050509250929050565b6000602082840312156107fc57600080fd5b5035919050565b600181811c9082168061081757607f821691505b60208210810361083757634e487b7160e01b600052602260045260246000fd5b50919050565b634e487b7160e01b600052603260045260246000fd5b60408101600f841061087557634e487b7160e01b600052602160045260246000fd5b9281526001600160a01b039190911660209091015290565b60006020828403121561089f57600080fd5b815161072181610728565b601f8211156108f6576000816000526020600020601f850160051c810160208610156108d35750805b601f850160051c820191505b818110156108f2578281556001016108df565b5050505b505050565b815167ffffffffffffffff8111156109155761091561060b565b610929816109238454610803565b846108aa565b602080601f83116001811461095e57600084156109465750858301515b600019600386901b1c1916600185901b1785556108f2565b600085815260208120601f198616915b8281101561098d5788860151825594840194600190910190840161096e565b50858210156109ab5787850151600019600388901b60f8161c191681555b5050505050600190811b01905550565b60008084546109c981610803565b600182811680156109e157600181146109f657610a25565b60ff1984168752821515830287019450610a25565b8860005260208060002060005b85811015610a1c5781548a820152908401908201610a03565b50505082870194505b505050508351610a398183602088016105b4565b01949350505050565b600060208284031215610a5457600080fd5b5051919050565b602f60f81b815260008251610a778160018501602087016105b4565b919091016001019291505056fea2646970667358221220795bc08bb56d43a143ec6223bd6bc9999892bf4eb53001fdf8cc251b3d173fb564736f6c63430008180033",
  "linkReferences": {},
  "deployedLinkReferences": {}
}