{
  "_format": "hh-sol-artifact-1",
  "contractName": "SCTempLockedNFT",
  "sourceName": "SuperChamps/contracts/NFTs/SCTempLockedNFT.sol",
  "abi": [
    {
      "inputs": [
        {
          "internalType": "string",
          "name": "name_",
          "type": "string"
        },
        {
          "internalType": "string",
          "name": "symbol_",
          "type": "string"
        },
        {
          "internalType": "string",
          "name": "uri_",
          "type": "string"
        },
        {
          "internalType": "address",
          "name": "permissions_",
          "type": "address"
        }
      ],
      "stateMutability": "nonpayable",
      "type": "constructor"
    },
    {
      "inputs": [
        {
          "internalType": "address",
          "name": "sender",
          "type": "address"
        },
        {
          "internalType": "uint256",
          "name": "tokenId",
          "type": "uint256"
        },
        {
          "internalType": "address",
          "name": "owner",
          "type": "address"
        }
      ],
      "name": "ERC721IncorrectOwner",
      "type": "error"
    },
    {
      "inputs": [
        {
          "internalType": "address",
          "name": "operator",
          "type": "address"
        },
        {
          "internalType": "uint256",
          "name": "tokenId",
          "type": "uint256"
        }
      ],
      "name": "ERC721InsufficientApproval",
      "type": "error"
    },
    {
      "inputs": [
        {
          "internalType": "address",
          "name": "approver",
          "type": "address"
        }
      ],
      "name": "ERC721InvalidApprover",
      "type": "error"
    },
    {
      "inputs": [
        {
          "internalType": "address",
          "name": "operator",
          "type": "address"
        }
      ],
      "name": "ERC721InvalidOperator",
      "type": "error"
    },
    {
      "inputs": [
        {
          "internalType": "address",
          "name": "owner",
          "type": "address"
        }
      ],
      "name": "ERC721InvalidOwner",
      "type": "error"
    },
    {
      "inputs": [
        {
          "internalType": "address",
          "name": "receiver",
          "type": "address"
        }
      ],
      "name": "ERC721InvalidReceiver",
      "type": "error"
    },
    {
      "inputs": [
        {
          "internalType": "address",
          "name": "sender",
          "type": "address"
        }
      ],
      "name": "ERC721InvalidSender",
      "type": "error"
    },
    {
      "inputs": [
        {
          "internalType": "uint256",
          "name": "tokenId",
          "type": "uint256"
        }
      ],
      "name": "ERC721NonexistentToken",
      "type": "error"
    },
    {
      "anonymous": false,
      "inputs": [
        {
          "indexed": true,
          "internalType": "address",
          "name": "owner",
          "type": "address"
        },
        {
          "indexed": true,
          "internalType": "address",
          "name": "approved",
          "type": "address"
        },
        {
          "indexed": true,
          "internalType": "uint256",
          "name": "tokenId",
          "type": "uint256"
        }
      ],
      "name": "Approval",
      "type": "event"
    },
    {
      "anonymous": false,
      "inputs": [
        {
          "indexed": true,
          "internalType": "address",
          "name": "owner",
          "type": "address"
        },
        {
          "indexed": true,
          "internalType": "address",
          "name": "operator",
          "type": "address"
        },
        {
          "indexed": false,
          "internalType": "bool",
          "name": "approved",
          "type": "bool"
        }
      ],
      "name": "ApprovalForAll",
      "type": "event"
    },
    {
      "anonymous": false,
      "inputs": [
        {
          "indexed": true,
          "internalType": "address",
          "name": "from",
          "type": "address"
        },
        {
          "indexed": true,
          "internalType": "address",
          "name": "to",
          "type": "address"
        },
        {
          "indexed": true,
          "internalType": "uint256",
          "name": "tokenId",
          "type": "uint256"
        }
      ],
      "name": "Transfer",
      "type": "event"
    },
    {
      "inputs": [
        {
          "internalType": "uint256",
          "name": "",
          "type": "uint256"
        }
      ],
      "name": "_token_data",
      "outputs": [
        {
          "internalType": "uint96",
          "name": "group",
          "type": "uint96"
        },
        {
          "internalType": "uint96",
          "name": "species",
          "type": "uint96"
        },
        {
          "internalType": "uint64",
          "name": "expiry",
          "type": "uint64"
        }
      ],
      "stateMutability": "view",
      "type": "function"
    },
    {
      "inputs": [
        {
          "internalType": "uint128",
          "name": "",
          "type": "uint128"
        }
      ],
      "name": "_unlocked_groups",
      "outputs": [
        {
          "internalType": "bool",
          "name": "",
          "type": "bool"
        }
      ],
      "stateMutability": "view",
      "type": "function"
    },
    {
      "inputs": [
        {
          "internalType": "uint256",
          "name": "",
          "type": "uint256"
        }
      ],
      "name": "_unlocked_species",
      "outputs": [
        {
          "internalType": "bool",
          "name": "",
          "type": "bool"
        }
      ],
      "stateMutability": "view",
      "type": "function"
    },
    {
      "inputs": [
        {
          "internalType": "uint256",
          "name": "",
          "type": "uint256"
        }
      ],
      "name": "_unlocked_tokens",
      "outputs": [
        {
          "internalType": "bool",
          "name": "",
          "type": "bool"
        }
      ],
      "stateMutability": "view",
      "type": "function"
    },
    {
      "inputs": [
        {
          "internalType": "address",
          "name": "to",
          "type": "address"
        },
        {
          "internalType": "uint256",
          "name": "tokenId",
          "type": "uint256"
        }
      ],
      "name": "approve",
      "outputs": [],
      "stateMutability": "nonpayable",
      "type": "function"
    },
    {
      "inputs": [
        {
          "internalType": "address",
          "name": "owner",
          "type": "address"
        }
      ],
      "name": "balanceOf",
      "outputs": [
        {
          "internalType": "uint256",
          "name": "",
          "type": "uint256"
        }
      ],
      "stateMutability": "view",
      "type": "function"
    },
    {
      "inputs": [],
      "name": "champ_token",
      "outputs": [
        {
          "internalType": "contract ISuperChampsToken",
          "name": "",
          "type": "address"
        }
      ],
      "stateMutability": "view",
      "type": "function"
    },
    {
      "inputs": [
        {
          "internalType": "uint256[]",
          "name": "expired_token_ids_",
          "type": "uint256[]"
        }
      ],
      "name": "cleanup",
      "outputs": [],
      "stateMutability": "nonpayable",
      "type": "function"
    },
    {
      "inputs": [
        {
          "internalType": "uint256",
          "name": "token_id_",
          "type": "uint256"
        },
        {
          "internalType": "uint64",
          "name": "add_seconds_",
          "type": "uint64"
        }
      ],
      "name": "extendExpiry",
      "outputs": [],
      "stateMutability": "nonpayable",
      "type": "function"
    },
    {
      "inputs": [
        {
          "internalType": "uint256",
          "name": "tokenId",
          "type": "uint256"
        }
      ],
      "name": "getApproved",
      "outputs": [
        {
          "internalType": "address",
          "name": "",
          "type": "address"
        }
      ],
      "stateMutability": "view",
      "type": "function"
    },
    {
      "inputs": [
        {
          "internalType": "address",
          "name": "owner",
          "type": "address"
        },
        {
          "internalType": "address",
          "name": "operator",
          "type": "address"
        }
      ],
      "name": "isApprovedForAll",
      "outputs": [
        {
          "internalType": "bool",
          "name": "",
          "type": "bool"
        }
      ],
      "stateMutability": "view",
      "type": "function"
    },
    {
      "inputs": [
        {
          "internalType": "uint256",
          "name": "token_id_",
          "type": "uint256"
        }
      ],
      "name": "isUnlocked",
      "outputs": [
        {
          "internalType": "bool",
          "name": "_unlocked_",
          "type": "bool"
        }
      ],
      "stateMutability": "view",
      "type": "function"
    },
    {
      "inputs": [
        {
          "internalType": "address",
          "name": "recipient_",
          "type": "address"
        },
        {
          "internalType": "uint256",
          "name": "token_id_",
          "type": "uint256"
        },
        {
          "internalType": "uint96",
          "name": "species_",
          "type": "uint96"
        },
        {
          "internalType": "uint96",
          "name": "group_",
          "type": "uint96"
        },
        {
          "internalType": "uint64",
          "name": "expiry_",
          "type": "uint64"
        }
      ],
      "name": "mintTo",
      "outputs": [],
      "stateMutability": "nonpayable",
      "type": "function"
    },
    {
      "inputs": [],
      "name": "name",
      "outputs": [
        {
          "internalType": "string",
          "name": "",
          "type": "string"
        }
      ],
      "stateMutability": "view",
      "type": "function"
    },
    {
      "inputs": [
        {
          "internalType": "uint256",
          "name": "tokenId",
          "type": "uint256"
        }
      ],
      "name": "ownerOf",
      "outputs": [
        {
          "internalType": "address",
          "name": "",
          "type": "address"
        }
      ],
      "stateMutability": "view",
      "type": "function"
    },
    {
      "inputs": [],
      "name": "permissions",
      "outputs": [
        {
          "internalType": "contract IPermissionsManager",
          "name": "",
          "type": "address"
        }
      ],
      "stateMutability": "view",
      "type": "function"
    },
    {
      "inputs": [
        {
          "internalType": "address",
          "name": "tokenAddress_",
          "type": "address"
        },
        {
          "internalType": "uint256",
          "name": "tokenAmount_",
          "type": "uint256"
        }
      ],
      "name": "recoverERC20",
      "outputs": [],
      "stateMutability": "nonpayable",
      "type": "function"
    },
    {
      "inputs": [
        {
          "internalType": "address",
          "name": "from",
          "type": "address"
        },
        {
          "internalType": "address",
          "name": "to",
          "type": "address"
        },
        {
          "internalType": "uint256",
          "name": "tokenId",
          "type": "uint256"
        }
      ],
      "name": "safeTransferFrom",
      "outputs": [],
      "stateMutability": "nonpayable",
      "type": "function"
    },
    {
      "inputs": [
        {
          "internalType": "address",
          "name": "from",
          "type": "address"
        },
        {
          "internalType": "address",
          "name": "to",
          "type": "address"
        },
        {
          "internalType": "uint256",
          "name": "tokenId",
          "type": "uint256"
        },
        {
          "internalType": "bytes",
          "name": "data",
          "type": "bytes"
        }
      ],
      "name": "safeTransferFrom",
      "outputs": [],
      "stateMutability": "nonpayable",
      "type": "function"
    },
    {
      "inputs": [
        {
          "internalType": "address",
          "name": "operator",
          "type": "address"
        },
        {
          "internalType": "bool",
          "name": "approved",
          "type": "bool"
        }
      ],
      "name": "setApprovalForAll",
      "outputs": [],
      "stateMutability": "nonpayable",
      "type": "function"
    },
    {
      "inputs": [
        {
          "internalType": "address",
          "name": "renderer_",
          "type": "address"
        }
      ],
      "name": "setRenderer",
      "outputs": [],
      "stateMutability": "nonpayable",
      "type": "function"
    },
    {
      "inputs": [
        {
          "internalType": "bytes4",
          "name": "interfaceId",
          "type": "bytes4"
        }
      ],
      "name": "supportsInterface",
      "outputs": [
        {
          "internalType": "bool",
          "name": "",
          "type": "bool"
        }
      ],
      "stateMutability": "view",
      "type": "function"
    },
    {
      "inputs": [],
      "name": "symbol",
      "outputs": [
        {
          "internalType": "string",
          "name": "",
          "type": "string"
        }
      ],
      "stateMutability": "view",
      "type": "function"
    },
    {
      "inputs": [
        {
          "internalType": "uint256",
          "name": "token_id_",
          "type": "uint256"
        }
      ],
      "name": "tokenURI",
      "outputs": [
        {
          "internalType": "string",
          "name": "",
          "type": "string"
        }
      ],
      "stateMutability": "view",
      "type": "function"
    },
    {
      "inputs": [
        {
          "internalType": "address",
          "name": "from_",
          "type": "address"
        },
        {
          "internalType": "address",
          "name": "to_",
          "type": "address"
        },
        {
          "internalType": "uint256",
          "name": "token_id_",
          "type": "uint256"
        }
      ],
      "name": "transferFrom",
      "outputs": [],
      "stateMutability": "nonpayable",
      "type": "function"
    },
    {
      "inputs": [
        {
          "internalType": "bool",
          "name": "unlocked_",
          "type": "bool"
        }
      ],
      "name": "unlockCollection",
      "outputs": [],
      "stateMutability": "nonpayable",
      "type": "function"
    },
    {
      "inputs": [
        {
          "internalType": "uint128",
          "name": "group_",
          "type": "uint128"
        }
      ],
      "name": "unlockTokenGroup",
      "outputs": [],
      "stateMutability": "nonpayable",
      "type": "function"
    },
    {
      "inputs": [
        {
          "internalType": "uint128",
          "name": "species_",
          "type": "uint128"
        },
        {
          "internalType": "uint128",
          "name": "group_",
          "type": "uint128"
        }
      ],
      "name": "unlockTokenSpecies",
      "outputs": [],
      "stateMutability": "nonpayable",
      "type": "function"
    },
    {
      "inputs": [
        {
          "internalType": "uint256[]",
          "name": "token_ids_",
          "type": "uint256[]"
        }
      ],
      "name": "unlockTokens",
      "outputs": [],
      "stateMutability": "nonpayable",
      "type": "function"
    }
  ],
  "bytecode": "0x60c06040523480156200001157600080fd5b50604051620034d7380380620034d78339810160408190526200003491620001ac565b8084846000620000458382620002f0565b506001620000548282620002f0565b5050506001600160a01b031660808190526040518590859085906200007990620000d1565b620000889493929190620003ea565b604051809103906000f080158015620000a5573d6000803e3d6000fd5b50600680546001600160a01b0319166001600160a01b0392909216919091179055506200044592505050565b610de080620026f783390190565b634e487b7160e01b600052604160045260246000fd5b60005b8381101562000112578181015183820152602001620000f8565b50506000910152565b600082601f8301126200012d57600080fd5b81516001600160401b03808211156200014a576200014a620000df565b604051601f8301601f19908116603f01168101908282118183101715620001755762000175620000df565b816040528381528660208588010111156200018f57600080fd5b620001a2846020830160208901620000f5565b9695505050505050565b60008060008060808587031215620001c357600080fd5b84516001600160401b0380821115620001db57600080fd5b620001e9888389016200011b565b955060208701519150808211156200020057600080fd5b6200020e888389016200011b565b945060408701519150808211156200022557600080fd5b5062000234878288016200011b565b606087015190935090506001600160a01b03811681146200025457600080fd5b939692955090935050565b600181811c908216806200027457607f821691505b6020821081036200029557634e487b7160e01b600052602260045260246000fd5b50919050565b601f821115620002eb576000816000526020600020601f850160051c81016020861015620002c65750805b601f850160051c820191505b81811015620002e757828155600101620002d2565b5050505b505050565b81516001600160401b038111156200030c576200030c620000df565b62000324816200031d84546200025f565b846200029b565b602080601f8311600181146200035c5760008415620003435750858301515b600019600386901b1c1916600185901b178555620002e7565b600085815260208120601f198616915b828110156200038d578886015182559484019460019091019084016200036c565b5085821015620003ac5787850151600019600388901b60f8161c191681555b5050505050600190811b01905550565b60008151808452620003d6816020860160208601620000f5565b601f01601f19169290920160200192915050565b6001600160a01b03851681526080602082018190526000906200041090830186620003bc565b8281036040840152620004248186620003bc565b905082810360608401526200043a8185620003bc565b979650505050505050565b60805160a05161223f620004b8600039600061035801526000818161039a0152818161060a015281816106a8015281816107890152818161087801528181610a1501528181610ae201528181610d9701528181610ed901528181611066015281816112cf01526113e6015261223f6000f3fe608060405234801561001057600080fd5b50600436106101cf5760003560e01c80638980f11f11610104578063b88d4fde116100a2578063cbd5d40311610071578063cbd5d4031461043b578063d02732a31461044e578063d065c2d6146104c4578063e985e9c5146104d757600080fd5b8063b88d4fde146103df578063c763748a146103f2578063c87b56dd14610405578063c94ac06a1461041857600080fd5b806395d89b41116100de57806395d89b411461037a578063a22cb46514610382578063ab8c71c014610395578063b29433a9146103bc57600080fd5b80638980f11f1461032d5780638e0353e51461034057806395400b771461035357600080fd5b806342842e0e1161017157806359fa41971161014b57806359fa4197146102d35780636352211e146102e657806370a08231146102f957806372abc8b71461031a57600080fd5b806342842e0e1461029a5780634d6df89b146102ad57806356d3163d146102c057600080fd5b8063095ea7b3116101ad578063095ea7b31461023c57806323b872dd1461025157806333f604c114610264578063393712b91461027757600080fd5b806301ffc9a7146101d457806306fdde03146101fc578063081812fc14610211575b600080fd5b6101e76101e2366004611b62565b6104ea565b60405190151581526020015b60405180910390f35b61020461053c565b6040516101f39190611bcf565b61022461021f366004611be2565b6105b3565b6040516001600160a01b0390911681526020016101f3565b61024f61024a366004611c17565b6105dc565b005b61024f61025f366004611c41565b6105eb565b61024f610272366004611c94565b610772565b6101e7610285366004611be2565b60096020526000908152604090205460ff1681565b61024f6102a8366004611c41565b610841565b61024f6102bb366004611cdd565b610861565b61024f6102ce366004611d3b565b6109fe565b61024f6102e1366004611d56565b610acb565b6102246102f4366004611be2565b610c6f565b61030c610307366004611d3b565b610c7a565b6040519081526020016101f3565b6101e7610328366004611be2565b610cc2565b61024f61033b366004611c17565b610d80565b61024f61034e366004611dc8565b610ec2565b6102247f000000000000000000000000000000000000000000000000000000000000000081565b610204610fe2565b61024f610390366004611e7b565b61102c565b6102247f000000000000000000000000000000000000000000000000000000000000000081565b6101e76103ca366004611be2565b60086020526000908152604090205460ff1681565b61024f6103ed366004611ed9565b611037565b61024f610400366004611f83565b61104f565b610204610413366004611be2565b61111f565b6101e7610426366004611c94565b600a6020526000908152604090205460ff1681565b61024f610449366004611dc8565b6112b8565b61049561045c366004611be2565b6007602052600090815260409020546001600160601b0380821691600160601b810490911690600160c01b90046001600160401b031683565b604080516001600160601b0394851681529390921660208401526001600160401b0316908201526060016101f3565b61024f6104d2366004611fad565b6113cf565b6101e76104e5366004611fca565b61148d565b60006001600160e01b031982166380ac58cd60e01b148061051b57506001600160e01b03198216635b5e139f60e01b145b8061053657506301ffc9a760e01b6001600160e01b03198316145b92915050565b600654604080516306fdde0360e01b815290516060926001600160a01b0316916306fdde039160048083019260009291908290030181865afa158015610586573d6000803e3d6000fd5b505050506040513d6000823e601f3d908101601f191682016040526105ae9190810190611ff4565b905090565b60006105be826114bb565b506000828152600460205260409020546001600160a01b0316610536565b6105e78282336114f3565b5050565b806105f581610cc2565b8061068b5750604051634f4bdc7b60e11b81527f00000000000000000000000000000000000000000000000000000000000000006001600160a01b031690639e97b8f69061064a90600390339060040161206a565b602060405180830381865afa158015610667573d6000803e3d6000fd5b505050506040513d601f19601f8201168201806040525081019061068b91906120a4565b806107215750604051634f4bdc7b60e11b81526001600160a01b037f00000000000000000000000000000000000000000000000000000000000000001690639e97b8f6906106e090600390329060040161206a565b602060405180830381865afa1580156106fd573d6000803e3d6000fd5b505050506040513d601f19601f8201168201806040525081019061072191906120a4565b6107615760405162461bcd60e51b815260206004820152600c60248201526b1393d50815539313d0d2d15160a21b60448201526064015b60405180910390fd5b61076c848484611500565b50505050565b604051634f4bdc7b60e11b81526001600160a01b037f00000000000000000000000000000000000000000000000000000000000000001690639e97b8f6906107c0906004903390820161206a565b602060405180830381865afa1580156107dd573d6000803e3d6000fd5b505050506040513d601f19601f8201168201806040525081019061080191906120a4565b61081d5760405162461bcd60e51b8152600401610758906120c1565b6001600160801b03166000908152600a60205260409020805460ff19166001179055565b61085c83838360405180602001604052806000815250611037565b505050565b604051634f4bdc7b60e11b81526001600160a01b037f00000000000000000000000000000000000000000000000000000000000000001690639e97b8f6906108af906004903390820161206a565b602060405180830381865afa1580156108cc573d6000803e3d6000fd5b505050506040513d601f19601f820116820180604052508101906108f091906120a4565b61090c5760405162461bcd60e51b8152600401610758906120c1565b6001600160401b038116158061092a575042816001600160401b0316115b61096c5760405162461bcd60e51b815260206004820152601360248201527210d0539393d508135253950811561412549151606a1b6044820152606401610758565b6109768585611585565b604080516060810182526001600160601b03938416815293831660208086019182526001600160401b0393841686840190815260009788526007909152919095209351845495519151909216600160c01b026001600160c01b03918416600160601b026001600160c01b03199096169290931691909117939093179290921691909117905550565b604051634f4bdc7b60e11b81526001600160a01b037f00000000000000000000000000000000000000000000000000000000000000001690639e97b8f690610a4c906004903390820161206a565b602060405180830381865afa158015610a69573d6000803e3d6000fd5b505050506040513d601f19601f82011682018060405250810190610a8d91906120a4565b610aa95760405162461bcd60e51b8152600401610758906120c1565b600680546001600160a01b0319166001600160a01b0392909216919091179055565b604051634f4bdc7b60e11b81526001600160a01b037f00000000000000000000000000000000000000000000000000000000000000001690639e97b8f690610b19906004903390820161206a565b602060405180830381865afa158015610b36573d6000803e3d6000fd5b505050506040513d601f19601f82011682018060405250810190610b5a91906120a4565b610b765760405162461bcd60e51b8152600401610758906120c1565b600082815260076020526040902054600160c01b90046001600160401b031680610be25760405162461bcd60e51b815260206004820181905260248201527f43414e4e4f5420455854454e44204e4f4e2d4558504952494e4720544f4b454e6044820152606401610758565b610bec8282612104565b905042816001600160401b031611610c385760405162461bcd60e51b815260206004820152600f60248201526e4e4f5420454e4f5547482054494d4560881b6044820152606401610758565b60009283526007602052604090922080546001600160401b03909316600160c01b026001600160c01b039093169290921790915550565b6000610536826114bb565b60006001600160a01b038216610ca6576040516322718ad960e21b815260006004820152602401610758565b506001600160a01b031660009081526003602052604090205490565b6000818152600760209081526040808320815160608101835290546001600160601b038082168352600160601b82041693820193909352600160c01b9092046001600160401b031690820152600b5460ff1680610d3c57506020808201516001600160601b031660009081526009909152604090205460ff165b80610d60575080516001600160601b03166000908152600a602052604090205460ff165b80610d79575060008381526008602052604090205460ff165b9392505050565b604051634f4bdc7b60e11b81526001600160a01b037f00000000000000000000000000000000000000000000000000000000000000001690639e97b8f690610dcf90600190339060040161206a565b602060405180830381865afa158015610dec573d6000803e3d6000fd5b505050506040513d601f19601f82011682018060405250810190610e1091906120a4565b610e515760405162461bcd60e51b81526020600482015260126024820152712737ba10309023b637b130b61020b236b4b760711b6044820152606401610758565b60405163a9059cbb60e01b8152336004820152602481018290526001600160a01b0383169063a9059cbb906044016020604051808303816000875af1158015610e9e573d6000803e3d6000fd5b505050506040513d601f19601f8201168201806040525081019061085c91906120a4565b604051634f4bdc7b60e11b81526001600160a01b037f00000000000000000000000000000000000000000000000000000000000000001690639e97b8f690610f10906004903390820161206a565b602060405180830381865afa158015610f2d573d6000803e3d6000fd5b505050506040513d601f19601f82011682018060405250810190610f5191906120a4565b610f6d5760405162461bcd60e51b8152600401610758906120c1565b60005b81518110156105e7576000828281518110610f8d57610f8d61212b565b60209081029190910181015160008181526007909252604090912054909150600160c01b90046001600160401b03168015801590610fca57504281105b15610fd857610fd88261159f565b5050600101610f70565b600654604080516395d89b4160e01b815290516060926001600160a01b0316916395d89b419160048083019260009291908290030181865afa158015610586573d6000803e3d6000fd5b6105e73383836115da565b6110428484846105eb565b61076c3385858585611679565b604051634f4bdc7b60e11b81526001600160a01b037f00000000000000000000000000000000000000000000000000000000000000001690639e97b8f69061109d906004903390820161206a565b602060405180830381865afa1580156110ba573d6000803e3d6000fd5b505050506040513d601f19601f820116820180604052508101906110de91906120a4565b6110fa5760405162461bcd60e51b8152600401610758906120c1565b506001600160801b03166000908152600960205260409020805460ff19166001179055565b606061112a826114bb565b506000828152600760209081526040808320815160608101835290546001600160601b038082168352600160601b82041682850152600160c01b90046001600160401b0316818301528151600480825260a08201909352909392909190820160808036833701905050905081600001516001600160601b0316816000815181106111b6576111b661212b565b60200260200101818152505081602001516001600160601b0316816001815181106111e3576111e361212b565b60200260200101818152505083816002815181106112035761120361212b565b60200260200101818152505081604001516001600160401b0316816003815181106112305761123061212b565b602090810291909101015260065460405163021a9fc160e31b81526001600160a01b03909116906310d4fe089061126b908490600401612141565b600060405180830381865afa158015611288573d6000803e3d6000fd5b505050506040513d6000823e601f3d908101601f191682016040526112b09190810190611ff4565b949350505050565b604051634f4bdc7b60e11b81526001600160a01b037f00000000000000000000000000000000000000000000000000000000000000001690639e97b8f690611306906004903390820161206a565b602060405180830381865afa158015611323573d6000803e3d6000fd5b505050506040513d601f19601f8201168201806040525081019061134791906120a4565b6113635760405162461bcd60e51b8152600401610758906120c1565b6000600182516113739190612185565b9050805b60016008600085848151811061138f5761138f61212b565b6020026020010151815260200190815260200160002060006101000a81548160ff02191690831515021790555080806113c790612198565b915050611377565b604051634f4bdc7b60e11b81526001600160a01b037f00000000000000000000000000000000000000000000000000000000000000001690639e97b8f69061141d906004903390820161206a565b602060405180830381865afa15801561143a573d6000803e3d6000fd5b505050506040513d601f19601f8201168201806040525081019061145e91906120a4565b61147a5760405162461bcd60e51b8152600401610758906120c1565b600b805460ff1916911515919091179055565b6001600160a01b03918216600090815260056020908152604080832093909416825291909152205460ff1690565b6000806114c7836117a4565b90506001600160a01b03811661053657604051637e27328960e01b815260048101849052602401610758565b61085c838383600161180b565b6001600160a01b03821661152a57604051633250574960e11b815260006004820152602401610758565b6000611537838333611911565b9050836001600160a01b0316816001600160a01b03161461076c576040516364283d7b60e01b81526001600160a01b0380861660048301526024820184905282166044820152606401610758565b6105e7828260405180602001604052806000815250611a05565b60006115ae6000836000611911565b90506001600160a01b0381166105e757604051637e27328960e01b815260048101839052602401610758565b6001600160a01b03821661160c57604051630b61174360e31b81526001600160a01b0383166004820152602401610758565b6001600160a01b03838116600081815260056020908152604080832094871680845294825291829020805460ff191686151590811790915591519182527f17307eab39ab6107e8899845ad3d59bd9653f200f220920489ca2b5937696c31910160405180910390a3505050565b6001600160a01b0383163b1561179d57604051630a85bd0160e11b81526001600160a01b0384169063150b7a02906116bb9088908890879087906004016121af565b6020604051808303816000875af19250505080156116f6575060408051601f3d908101601f191682019092526116f3918101906121ec565b60015b61175f573d808015611724576040519150601f19603f3d011682016040523d82523d6000602084013e611729565b606091505b50805160000361175757604051633250574960e11b81526001600160a01b0385166004820152602401610758565b805181602001fd5b6001600160e01b03198116630a85bd0160e11b1461179b57604051633250574960e11b81526001600160a01b0385166004820152602401610758565b505b5050505050565b600081815260076020526040812054600160c01b90046001600160401b031680158015906117da575042816001600160401b0316105b156117e85760009150611805565b6000838152600260205260409020546001600160a01b0316610d79565b50919050565b808061181f57506001600160a01b03821615155b156118e157600061182f846114bb565b90506001600160a01b0383161580159061185b5750826001600160a01b0316816001600160a01b031614155b801561186e575061186c818461148d565b155b156118975760405163a9fbf51f60e01b81526001600160a01b0384166004820152602401610758565b81156118df5783856001600160a01b0316826001600160a01b03167f8c5be1e5ebec7d5bd14f71427d1e84f3dd0314c0f7b2291e5b200ac8c7c3b92560405160405180910390a45b505b5050600090815260046020526040902080546001600160a01b0319166001600160a01b0392909216919091179055565b60008061191d846117a4565b90506001600160a01b0383161561193957611939818486611a1d565b6001600160a01b038116156119775761195660008560008061180b565b6001600160a01b038116600090815260036020526040902080546000190190555b6001600160a01b038516156119a6576001600160a01b0385166000908152600360205260409020805460010190555b60008481526002602052604080822080546001600160a01b0319166001600160a01b0389811691821790925591518793918516917fddf252ad1be2c89b69c2b068fc378daa952ba7f163c4a11628f55a4df523b3ef91a4949350505050565b611a0f8383611a81565b61085c336000858585611679565b611a28838383611ae6565b61085c576001600160a01b038316611a5657604051637e27328960e01b815260048101829052602401610758565b60405163177e802f60e01b81526001600160a01b038316600482015260248101829052604401610758565b6001600160a01b038216611aab57604051633250574960e11b815260006004820152602401610758565b6000611ab983836000611911565b90506001600160a01b0381161561085c576040516339e3563760e11b815260006004820152602401610758565b60006001600160a01b038316158015906112b05750826001600160a01b0316846001600160a01b03161480611b205750611b20848461148d565b806112b05750506000908152600460205260409020546001600160a01b03908116911614919050565b6001600160e01b031981168114611b5f57600080fd5b50565b600060208284031215611b7457600080fd5b8135610d7981611b49565b60005b83811015611b9a578181015183820152602001611b82565b50506000910152565b60008151808452611bbb816020860160208601611b7f565b601f01601f19169290920160200192915050565b602081526000610d796020830184611ba3565b600060208284031215611bf457600080fd5b5035919050565b80356001600160a01b0381168114611c1257600080fd5b919050565b60008060408385031215611c2a57600080fd5b611c3383611bfb565b946020939093013593505050565b600080600060608486031215611c5657600080fd5b611c5f84611bfb565b9250611c6d60208501611bfb565b9150604084013590509250925092565b80356001600160801b0381168114611c1257600080fd5b600060208284031215611ca657600080fd5b610d7982611c7d565b80356001600160601b0381168114611c1257600080fd5b80356001600160401b0381168114611c1257600080fd5b600080600080600060a08688031215611cf557600080fd5b611cfe86611bfb565b945060208601359350611d1360408701611caf565b9250611d2160608701611caf565b9150611d2f60808701611cc6565b90509295509295909350565b600060208284031215611d4d57600080fd5b610d7982611bfb565b60008060408385031215611d6957600080fd5b82359150611d7960208401611cc6565b90509250929050565b634e487b7160e01b600052604160045260246000fd5b604051601f8201601f191681016001600160401b0381118282101715611dc057611dc0611d82565b604052919050565b60006020808385031215611ddb57600080fd5b82356001600160401b0380821115611df257600080fd5b818501915085601f830112611e0657600080fd5b813581811115611e1857611e18611d82565b8060051b9150611e29848301611d98565b8181529183018401918481019088841115611e4357600080fd5b938501935b83851015611e6157843582529385019390850190611e48565b98975050505050505050565b8015158114611b5f57600080fd5b60008060408385031215611e8e57600080fd5b611e9783611bfb565b91506020830135611ea781611e6d565b809150509250929050565b60006001600160401b03821115611ecb57611ecb611d82565b50601f01601f191660200190565b60008060008060808587031215611eef57600080fd5b611ef885611bfb565b9350611f0660208601611bfb565b92506040850135915060608501356001600160401b03811115611f2857600080fd5b8501601f81018713611f3957600080fd5b8035611f4c611f4782611eb2565b611d98565b818152886020838501011115611f6157600080fd5b8160208401602083013760006020838301015280935050505092959194509250565b60008060408385031215611f9657600080fd5b611f9f83611c7d565b9150611d7960208401611c7d565b600060208284031215611fbf57600080fd5b8135610d7981611e6d565b60008060408385031215611fdd57600080fd5b611fe683611bfb565b9150611d7960208401611bfb565b60006020828403121561200657600080fd5b81516001600160401b0381111561201c57600080fd5b8201601f8101841361202d57600080fd5b805161203b611f4782611eb2565b81815285602083850101111561205057600080fd5b612061826020830160208601611b7f565b95945050505050565b60408101600f841061208c57634e487b7160e01b600052602160045260246000fd5b9281526001600160a01b039190911660209091015290565b6000602082840312156120b657600080fd5b8151610d7981611e6d565b6020808252601390820152722737ba10309029bcb9ba32b6b99020b236b4b760691b604082015260600190565b634e487b7160e01b600052601160045260246000fd5b6001600160401b03818116838216019080821115612124576121246120ee565b5092915050565b634e487b7160e01b600052603260045260246000fd5b6020808252825182820181905260009190848201906040850190845b818110156121795783518352928401929184019160010161215d565b50909695505050505050565b81810381811115610536576105366120ee565b6000816121a7576121a76120ee565b506000190190565b6001600160a01b03858116825284166020820152604081018390526080606082018190526000906121e290830184611ba3565b9695505050505050565b6000602082840312156121fe57600080fd5b8151610d7981611b4956fea2646970667358221220baf9305d4e684929a69cb11d6e7273e795a6a06dacb4785a63e63e3a4706be7b64736f6c6343000818003360a06040526003805460ff191660011790553480156200001e57600080fd5b5060405162000de038038062000de083398101604081905262000041916200014d565b6001600160a01b03841660805260006200005c848262000290565b5060016200006b838262000290565b5060026200007a828262000290565b50505050506200035c565b634e487b7160e01b600052604160045260246000fd5b600082601f830112620000ad57600080fd5b81516001600160401b0380821115620000ca57620000ca62000085565b604051601f8301601f19908116603f01168101908282118183101715620000f557620000f562000085565b81604052838152602092508660208588010111156200011357600080fd5b600091505b8382101562000137578582018301518183018401529082019062000118565b6000602085830101528094505050505092915050565b600080600080608085870312156200016457600080fd5b84516001600160a01b03811681146200017c57600080fd5b60208601519094506001600160401b03808211156200019a57600080fd5b620001a8888389016200009b565b94506040870151915080821115620001bf57600080fd5b620001cd888389016200009b565b93506060870151915080821115620001e457600080fd5b50620001f3878288016200009b565b91505092959194509250565b600181811c908216806200021457607f821691505b6020821081036200023557634e487b7160e01b600052602260045260246000fd5b50919050565b601f8211156200028b576000816000526020600020601f850160051c81016020861015620002665750805b601f850160051c820191505b81811015620002875782815560010162000272565b5050505b505050565b81516001600160401b03811115620002ac57620002ac62000085565b620002c481620002bd8454620001ff565b846200023b565b602080601f831160018114620002fc5760008415620002e35750858301515b600019600386901b1c1916600185901b17855562000287565b600085815260208120601f198616915b828110156200032d578886015182559484019460019091019084016200030c565b50858210156200034c5787850151600019600388901b60f8161c191681555b5050505050600190811b01905550565b608051610a686200037860003960006103230152610a686000f3fe608060405234801561001057600080fd5b50600436106100575760003560e01c806306fdde031461005c57806310d4fe081461007a578063876a4cdc1461008d57806395d89b41146100a2578063c87b56dd146100aa575b600080fd5b6100646100bd565b60405161007191906105bb565b60405180910390f35b610064610088366004610635565b61014f565b6100a061009b3660046106f7565b61030c565b005b6100646103c5565b6100646100b836600461079d565b6103d4565b6060600080546100cc906107b6565b80601f01602080910402602001604051908101604052809291908181526020018280546100f8906107b6565b80156101455780601f1061011a57610100808354040283529160200191610145565b820191906000526020600020905b81548152906001019060200180831161012857829003601f168201915b5050505050905090565b60035460609060ff16156102755760006002805461016c906107b6565b905011156102615760028054610181906107b6565b80601f01602080910402602001604051908101604052809291908181526020018280546101ad906107b6565b80156101fa5780601f106101cf576101008083540402835291602001916101fa565b820191906000526020600020905b8154815290600101906020018083116101dd57829003601f168201915b5050505050905060005b825181101561025b5781610230848381518110610223576102236107ea565b602002602001015161042b565b604051602001610241929190610800565b60408051601f198184030181529190529150600101610204565b50919050565b505060408051602081019091526000815290565b60028054610282906107b6565b80601f01602080910402602001604051908101604052809291908181526020018280546102ae906107b6565b80156102fb5780601f106102d0576101008083540402835291602001916102fb565b820191906000526020600020905b8154815290600101906020018083116102de57829003601f168201915b50505050509050919050565b919050565b604051634f4bdc7b60e11b81526001600160a01b037f00000000000000000000000000000000000000000000000000000000000000001690639e97b8f69061035a906004903390820161083c565b602060405180830381865afa158015610377573d6000803e3d6000fd5b505050506040513d601f19601f8201168201806040525081019061039b9190610876565b6103a457600080fd5b60026103b083826108eb565b506003805460ff191691151591909117905550565b6060600180546100cc906107b6565b60035460609060ff1615610275576000600280546103f1906107b6565b905011156102615760026104048361042b565b6040516020016104159291906109ab565b6040516020818303038152906040529050919050565b60606000610438836104be565b600101905060008167ffffffffffffffff811115610458576104586105ee565b6040519080825280601f01601f191660200182016040528015610482576020820181803683370190505b5090508181016020015b600019016f181899199a1a9b1b9c1cb0b131b232b360811b600a86061a8153600a850494508461048c57509392505050565b60008072184f03e93ff9f4daa797ed6e38ed64bf6a1f0160401b83106104fd5772184f03e93ff9f4daa797ed6e38ed64bf6a1f0160401b830492506040015b6d04ee2d6d415b85acef81000000008310610529576d04ee2d6d415b85acef8100000000830492506020015b662386f26fc10000831061054757662386f26fc10000830492506010015b6305f5e100831061055f576305f5e100830492506008015b612710831061057357612710830492506004015b60648310610585576064830492506002015b600a8310610591576001015b92915050565b60005b838110156105b257818101518382015260200161059a565b50506000910152565b60208152600082518060208401526105da816040850160208701610597565b601f01601f19169190910160400192915050565b634e487b7160e01b600052604160045260246000fd5b604051601f8201601f1916810167ffffffffffffffff8111828210171561062d5761062d6105ee565b604052919050565b6000602080838503121561064857600080fd5b823567ffffffffffffffff8082111561066057600080fd5b818501915085601f83011261067457600080fd5b813581811115610686576106866105ee565b8060051b9150610697848301610604565b81815291830184019184810190888411156106b157600080fd5b938501935b838510156106cf578435825293850193908501906106b6565b98975050505050505050565b80151581146106e957600080fd5b50565b8035610307816106db565b6000806040838503121561070a57600080fd5b823567ffffffffffffffff8082111561072257600080fd5b818501915085601f83011261073657600080fd5b813560208282111561074a5761074a6105ee565b61075c601f8301601f19168201610604565b9250818352878183860101111561077257600080fd5b818185018285013760008183850101528295506107908188016106ec565b9450505050509250929050565b6000602082840312156107af57600080fd5b5035919050565b600181811c908216806107ca57607f821691505b60208210810361025b57634e487b7160e01b600052602260045260246000fd5b634e487b7160e01b600052603260045260246000fd5b60008351610812818460208801610597565b602f60f81b9083019081528351610830816001840160208801610597565b01600101949350505050565b60408101600f841061085e57634e487b7160e01b600052602160045260246000fd5b9281526001600160a01b039190911660209091015290565b60006020828403121561088857600080fd5b8151610893816106db565b9392505050565b601f8211156108e6576000816000526020600020601f850160051c810160208610156108c35750805b601f850160051c820191505b818110156108e2578281556001016108cf565b5050505b505050565b815167ffffffffffffffff811115610905576109056105ee565b6109198161091384546107b6565b8461089a565b602080601f83116001811461094e57600084156109365750858301515b600019600386901b1c1916600185901b1785556108e2565b600085815260208120601f198616915b8281101561097d5788860151825594840194600190910190840161095e565b508582101561099b5787850151600019600388901b60f8161c191681555b5050505050600190811b01905550565b60008084546109b9816107b6565b600182811680156109d157600181146109e657610a15565b60ff1984168752821515830287019450610a15565b8860005260208060002060005b85811015610a0c5781548a8201529084019082016109f3565b50505082870194505b505050508351610a29818360208801610597565b0194935050505056fea2646970667358221220cc91420d718922ecdd8eaa5e90abc20c36284f65745d9dc792449a150378507764736f6c63430008180033",
  "linkReferences": {},
  "deployedLinkReferences": {}
}