{
  "_format": "hh-sol-artifact-1",
  "contractName": "SCTempLockedNFT",
  "sourceName": "SuperChamps/contracts/NFTs/SCTempLockedNFT.sol",
  "abi": [
    {
      "inputs": [
        {
          "internalType": "string",
          "name": "name_",
          "type": "string"
        },
        {
          "internalType": "string",
          "name": "symbol_",
          "type": "string"
        },
        {
          "internalType": "string",
          "name": "uri_",
          "type": "string"
        },
        {
          "internalType": "address",
          "name": "permissions_",
          "type": "address"
        }
      ],
      "stateMutability": "nonpayable",
      "type": "constructor"
    },
    {
      "inputs": [
        {
          "internalType": "address",
          "name": "sender",
          "type": "address"
        },
        {
          "internalType": "uint256",
          "name": "tokenId",
          "type": "uint256"
        },
        {
          "internalType": "address",
          "name": "owner",
          "type": "address"
        }
      ],
      "name": "ERC721IncorrectOwner",
      "type": "error"
    },
    {
      "inputs": [
        {
          "internalType": "address",
          "name": "operator",
          "type": "address"
        },
        {
          "internalType": "uint256",
          "name": "tokenId",
          "type": "uint256"
        }
      ],
      "name": "ERC721InsufficientApproval",
      "type": "error"
    },
    {
      "inputs": [
        {
          "internalType": "address",
          "name": "approver",
          "type": "address"
        }
      ],
      "name": "ERC721InvalidApprover",
      "type": "error"
    },
    {
      "inputs": [
        {
          "internalType": "address",
          "name": "operator",
          "type": "address"
        }
      ],
      "name": "ERC721InvalidOperator",
      "type": "error"
    },
    {
      "inputs": [
        {
          "internalType": "address",
          "name": "owner",
          "type": "address"
        }
      ],
      "name": "ERC721InvalidOwner",
      "type": "error"
    },
    {
      "inputs": [
        {
          "internalType": "address",
          "name": "receiver",
          "type": "address"
        }
      ],
      "name": "ERC721InvalidReceiver",
      "type": "error"
    },
    {
      "inputs": [
        {
          "internalType": "address",
          "name": "sender",
          "type": "address"
        }
      ],
      "name": "ERC721InvalidSender",
      "type": "error"
    },
    {
      "inputs": [
        {
          "internalType": "uint256",
          "name": "tokenId",
          "type": "uint256"
        }
      ],
      "name": "ERC721NonexistentToken",
      "type": "error"
    },
    {
      "anonymous": false,
      "inputs": [
        {
          "indexed": true,
          "internalType": "address",
          "name": "owner",
          "type": "address"
        },
        {
          "indexed": true,
          "internalType": "address",
          "name": "approved",
          "type": "address"
        },
        {
          "indexed": true,
          "internalType": "uint256",
          "name": "tokenId",
          "type": "uint256"
        }
      ],
      "name": "Approval",
      "type": "event"
    },
    {
      "anonymous": false,
      "inputs": [
        {
          "indexed": true,
          "internalType": "address",
          "name": "owner",
          "type": "address"
        },
        {
          "indexed": true,
          "internalType": "address",
          "name": "operator",
          "type": "address"
        },
        {
          "indexed": false,
          "internalType": "bool",
          "name": "approved",
          "type": "bool"
        }
      ],
      "name": "ApprovalForAll",
      "type": "event"
    },
    {
      "anonymous": false,
      "inputs": [
        {
          "indexed": true,
          "internalType": "address",
          "name": "from",
          "type": "address"
        },
        {
          "indexed": true,
          "internalType": "address",
          "name": "to",
          "type": "address"
        },
        {
          "indexed": true,
          "internalType": "uint256",
          "name": "tokenId",
          "type": "uint256"
        }
      ],
      "name": "Transfer",
      "type": "event"
    },
    {
      "inputs": [
        {
          "internalType": "uint256",
          "name": "",
          "type": "uint256"
        }
      ],
      "name": "_token_data",
      "outputs": [
        {
          "internalType": "uint96",
          "name": "group",
          "type": "uint96"
        },
        {
          "internalType": "uint96",
          "name": "species",
          "type": "uint96"
        },
        {
          "internalType": "uint64",
          "name": "expiry",
          "type": "uint64"
        }
      ],
      "stateMutability": "view",
      "type": "function"
    },
    {
      "inputs": [
        {
          "internalType": "uint128",
          "name": "",
          "type": "uint128"
        }
      ],
      "name": "_unlocked_groups",
      "outputs": [
        {
          "internalType": "bool",
          "name": "",
          "type": "bool"
        }
      ],
      "stateMutability": "view",
      "type": "function"
    },
    {
      "inputs": [
        {
          "internalType": "uint256",
          "name": "",
          "type": "uint256"
        }
      ],
      "name": "_unlocked_species",
      "outputs": [
        {
          "internalType": "bool",
          "name": "",
          "type": "bool"
        }
      ],
      "stateMutability": "view",
      "type": "function"
    },
    {
      "inputs": [
        {
          "internalType": "uint256",
          "name": "",
          "type": "uint256"
        }
      ],
      "name": "_unlocked_tokens",
      "outputs": [
        {
          "internalType": "bool",
          "name": "",
          "type": "bool"
        }
      ],
      "stateMutability": "view",
      "type": "function"
    },
    {
      "inputs": [
        {
          "internalType": "address",
          "name": "to",
          "type": "address"
        },
        {
          "internalType": "uint256",
          "name": "tokenId",
          "type": "uint256"
        }
      ],
      "name": "approve",
      "outputs": [],
      "stateMutability": "nonpayable",
      "type": "function"
    },
    {
      "inputs": [
        {
          "internalType": "address",
          "name": "owner",
          "type": "address"
        }
      ],
      "name": "balanceOf",
      "outputs": [
        {
          "internalType": "uint256",
          "name": "",
          "type": "uint256"
        }
      ],
      "stateMutability": "view",
      "type": "function"
    },
    {
      "inputs": [],
      "name": "champ_token",
      "outputs": [
        {
          "internalType": "contract ISuperChampsToken",
          "name": "",
          "type": "address"
        }
      ],
      "stateMutability": "view",
      "type": "function"
    },
    {
      "inputs": [
        {
          "internalType": "uint256[]",
          "name": "expired_token_ids_",
          "type": "uint256[]"
        }
      ],
      "name": "cleanup",
      "outputs": [],
      "stateMutability": "nonpayable",
      "type": "function"
    },
    {
      "inputs": [
        {
          "internalType": "uint256",
          "name": "token_id_",
          "type": "uint256"
        },
        {
          "internalType": "uint64",
          "name": "add_seconds_",
          "type": "uint64"
        }
      ],
      "name": "extendExpiry",
      "outputs": [],
      "stateMutability": "nonpayable",
      "type": "function"
    },
    {
      "inputs": [
        {
          "internalType": "uint256",
          "name": "tokenId",
          "type": "uint256"
        }
      ],
      "name": "getApproved",
      "outputs": [
        {
          "internalType": "address",
          "name": "",
          "type": "address"
        }
      ],
      "stateMutability": "view",
      "type": "function"
    },
    {
      "inputs": [
        {
          "internalType": "address",
          "name": "owner",
          "type": "address"
        },
        {
          "internalType": "address",
          "name": "operator",
          "type": "address"
        }
      ],
      "name": "isApprovedForAll",
      "outputs": [
        {
          "internalType": "bool",
          "name": "",
          "type": "bool"
        }
      ],
      "stateMutability": "view",
      "type": "function"
    },
    {
      "inputs": [
        {
          "internalType": "uint256",
          "name": "token_id_",
          "type": "uint256"
        }
      ],
      "name": "isUnlocked",
      "outputs": [
        {
          "internalType": "bool",
          "name": "_unlocked_",
          "type": "bool"
        }
      ],
      "stateMutability": "view",
      "type": "function"
    },
    {
      "inputs": [
        {
          "internalType": "address",
          "name": "recipient_",
          "type": "address"
        },
        {
          "internalType": "uint256",
          "name": "token_id_",
          "type": "uint256"
        },
        {
          "internalType": "uint96",
          "name": "species_",
          "type": "uint96"
        },
        {
          "internalType": "uint96",
          "name": "group_",
          "type": "uint96"
        },
        {
          "internalType": "uint64",
          "name": "expiry_",
          "type": "uint64"
        }
      ],
      "name": "mintTo",
      "outputs": [],
      "stateMutability": "nonpayable",
      "type": "function"
    },
    {
      "inputs": [],
      "name": "name",
      "outputs": [
        {
          "internalType": "string",
          "name": "",
          "type": "string"
        }
      ],
      "stateMutability": "view",
      "type": "function"
    },
    {
      "inputs": [
        {
          "internalType": "uint256",
          "name": "tokenId",
          "type": "uint256"
        }
      ],
      "name": "ownerOf",
      "outputs": [
        {
          "internalType": "address",
          "name": "",
          "type": "address"
        }
      ],
      "stateMutability": "view",
      "type": "function"
    },
    {
      "inputs": [],
      "name": "permissions",
      "outputs": [
        {
          "internalType": "contract IPermissionsManager",
          "name": "",
          "type": "address"
        }
      ],
      "stateMutability": "view",
      "type": "function"
    },
    {
      "inputs": [
        {
          "internalType": "address",
          "name": "tokenAddress_",
          "type": "address"
        },
        {
          "internalType": "uint256",
          "name": "tokenAmount_",
          "type": "uint256"
        }
      ],
      "name": "recoverERC20",
      "outputs": [],
      "stateMutability": "nonpayable",
      "type": "function"
    },
    {
      "inputs": [
        {
          "internalType": "address",
          "name": "from",
          "type": "address"
        },
        {
          "internalType": "address",
          "name": "to",
          "type": "address"
        },
        {
          "internalType": "uint256",
          "name": "tokenId",
          "type": "uint256"
        }
      ],
      "name": "safeTransferFrom",
      "outputs": [],
      "stateMutability": "nonpayable",
      "type": "function"
    },
    {
      "inputs": [
        {
          "internalType": "address",
          "name": "from",
          "type": "address"
        },
        {
          "internalType": "address",
          "name": "to",
          "type": "address"
        },
        {
          "internalType": "uint256",
          "name": "tokenId",
          "type": "uint256"
        },
        {
          "internalType": "bytes",
          "name": "data",
          "type": "bytes"
        }
      ],
      "name": "safeTransferFrom",
      "outputs": [],
      "stateMutability": "nonpayable",
      "type": "function"
    },
    {
      "inputs": [
        {
          "internalType": "address",
          "name": "operator",
          "type": "address"
        },
        {
          "internalType": "bool",
          "name": "approved",
          "type": "bool"
        }
      ],
      "name": "setApprovalForAll",
      "outputs": [],
      "stateMutability": "nonpayable",
      "type": "function"
    },
    {
      "inputs": [
        {
          "internalType": "address",
          "name": "renderer_",
          "type": "address"
        }
      ],
      "name": "setRenderer",
      "outputs": [],
      "stateMutability": "nonpayable",
      "type": "function"
    },
    {
      "inputs": [
        {
          "internalType": "bytes4",
          "name": "interfaceId",
          "type": "bytes4"
        }
      ],
      "name": "supportsInterface",
      "outputs": [
        {
          "internalType": "bool",
          "name": "",
          "type": "bool"
        }
      ],
      "stateMutability": "view",
      "type": "function"
    },
    {
      "inputs": [],
      "name": "symbol",
      "outputs": [
        {
          "internalType": "string",
          "name": "",
          "type": "string"
        }
      ],
      "stateMutability": "view",
      "type": "function"
    },
    {
      "inputs": [
        {
          "internalType": "uint256",
          "name": "token_id_",
          "type": "uint256"
        }
      ],
      "name": "tokenURI",
      "outputs": [
        {
          "internalType": "string",
          "name": "",
          "type": "string"
        }
      ],
      "stateMutability": "view",
      "type": "function"
    },
    {
      "inputs": [
        {
          "internalType": "address",
          "name": "from_",
          "type": "address"
        },
        {
          "internalType": "address",
          "name": "to_",
          "type": "address"
        },
        {
          "internalType": "uint256",
          "name": "token_id_",
          "type": "uint256"
        }
      ],
      "name": "transferFrom",
      "outputs": [],
      "stateMutability": "nonpayable",
      "type": "function"
    },
    {
      "inputs": [
        {
          "internalType": "bool",
          "name": "unlocked_",
          "type": "bool"
        }
      ],
      "name": "unlockCollection",
      "outputs": [],
      "stateMutability": "nonpayable",
      "type": "function"
    },
    {
      "inputs": [
        {
          "internalType": "uint128",
          "name": "group_",
          "type": "uint128"
        }
      ],
      "name": "unlockTokenGroup",
      "outputs": [],
      "stateMutability": "nonpayable",
      "type": "function"
    },
    {
      "inputs": [
        {
          "internalType": "uint128",
          "name": "species_",
          "type": "uint128"
        },
        {
          "internalType": "uint128",
          "name": "group_",
          "type": "uint128"
        }
      ],
      "name": "unlockTokenSpecies",
      "outputs": [],
      "stateMutability": "nonpayable",
      "type": "function"
    },
    {
      "inputs": [
        {
          "internalType": "uint256[]",
          "name": "token_ids_",
          "type": "uint256[]"
        }
      ],
      "name": "unlockTokens",
      "outputs": [],
      "stateMutability": "nonpayable",
      "type": "function"
    }
  ],
  "bytecode": "0x60c060405234801561001057600080fd5b5060405161348038038061348083398101604081905261002f91610192565b808484600061003e83826102d1565b50600161004b82826102d1565b5050506001600160a01b0316608081905260405185908590859061006e906100c2565b61007b94939291906103bb565b604051809103906000f080158015610097573d6000803e3d6000fd5b50600680546001600160a01b0319166001600160a01b03929092169190911790555061041092505050565b610dbd806126c383390190565b634e487b7160e01b600052604160045260246000fd5b60005b838110156101005781810151838201526020016100e8565b50506000910152565b600082601f83011261011a57600080fd5b81516001600160401b03811115610133576101336100cf565b604051601f8201601f19908116603f011681016001600160401b0381118282101715610161576101616100cf565b60405281815283820160200185101561017957600080fd5b61018a8260208301602087016100e5565b949350505050565b600080600080608085870312156101a857600080fd5b84516001600160401b038111156101be57600080fd5b6101ca87828801610109565b602087015190955090506001600160401b038111156101e857600080fd5b6101f487828801610109565b604087015190945090506001600160401b0381111561021257600080fd5b61021e87828801610109565b606087015190935090506001600160a01b038116811461023d57600080fd5b939692955090935050565b600181811c9082168061025c57607f821691505b60208210810361027c57634e487b7160e01b600052602260045260246000fd5b50919050565b601f8211156102cc57806000526020600020601f840160051c810160208510156102a95750805b601f840160051c820191505b818110156102c957600081556001016102b5565b50505b505050565b81516001600160401b038111156102ea576102ea6100cf565b6102fe816102f88454610248565b84610282565b6020601f821160018114610332576000831561031a5750848201515b600019600385901b1c1916600184901b1784556102c9565b600084815260208120601f198516915b828110156103625787850151825560209485019460019092019101610342565b50848210156103805786840151600019600387901b60f8161c191681555b50505050600190811b01905550565b600081518084526103a78160208601602086016100e5565b601f01601f19169290920160200192915050565b6001600160a01b03851681526080602082018190526000906103df9083018661038f565b82810360408401526103f1818661038f565b90508281036060840152610405818561038f565b979650505050505050565b60805160a051612241610482600039600061035801526000818161039a0152818161060a015281816106a8015281816107890152818161087801528181610a1501528181610ae201528181610d9701528181610ed901528181611066015281816112cf01526113e601526122416000f3fe608060405234801561001057600080fd5b50600436106101cf5760003560e01c80638980f11f11610104578063b88d4fde116100a2578063cbd5d40311610071578063cbd5d4031461043b578063d02732a31461044e578063d065c2d6146104c4578063e985e9c5146104d757600080fd5b8063b88d4fde146103df578063c763748a146103f2578063c87b56dd14610405578063c94ac06a1461041857600080fd5b806395d89b41116100de57806395d89b411461037a578063a22cb46514610382578063ab8c71c014610395578063b29433a9146103bc57600080fd5b80638980f11f1461032d5780638e0353e51461034057806395400b771461035357600080fd5b806342842e0e1161017157806359fa41971161014b57806359fa4197146102d35780636352211e146102e657806370a08231146102f957806372abc8b71461031a57600080fd5b806342842e0e1461029a5780634d6df89b146102ad57806356d3163d146102c057600080fd5b8063095ea7b3116101ad578063095ea7b31461023c57806323b872dd1461025157806333f604c114610264578063393712b91461027757600080fd5b806301ffc9a7146101d457806306fdde03146101fc578063081812fc14610211575b600080fd5b6101e76101e2366004611b62565b6104ea565b60405190151581526020015b60405180910390f35b61020461053c565b6040516101f39190611bcf565b61022461021f366004611be2565b6105b3565b6040516001600160a01b0390911681526020016101f3565b61024f61024a366004611c17565b6105dc565b005b61024f61025f366004611c41565b6105eb565b61024f610272366004611c95565b610772565b6101e7610285366004611be2565b60096020526000908152604090205460ff1681565b61024f6102a8366004611c41565b610841565b61024f6102bb366004611cde565b610861565b61024f6102ce366004611d3c565b6109fe565b61024f6102e1366004611d57565b610acb565b6102246102f4366004611be2565b610c6f565b61030c610307366004611d3c565b610c7a565b6040519081526020016101f3565b6101e7610328366004611be2565b610cc2565b61024f61033b366004611c17565b610d80565b61024f61034e366004611dc9565b610ec2565b6102247f000000000000000000000000000000000000000000000000000000000000000081565b610204610fe2565b61024f610390366004611e86565b61102c565b6102247f000000000000000000000000000000000000000000000000000000000000000081565b6101e76103ca366004611be2565b60086020526000908152604090205460ff1681565b61024f6103ed366004611ee4565b611037565b61024f610400366004611f8e565b61104f565b610204610413366004611be2565b61111f565b6101e7610426366004611c95565b600a6020526000908152604090205460ff1681565b61024f610449366004611dc9565b6112b8565b61049561045c366004611be2565b6007602052600090815260409020546001600160601b0380821691600160601b810490911690600160c01b90046001600160401b031683565b604080516001600160601b0394851681529390921660208401526001600160401b0316908201526060016101f3565b61024f6104d2366004611fb8565b6113cf565b6101e76104e5366004611fd5565b61148d565b60006001600160e01b031982166380ac58cd60e01b148061051b57506001600160e01b03198216635b5e139f60e01b145b8061053657506301ffc9a760e01b6001600160e01b03198316145b92915050565b600654604080516306fdde0360e01b815290516060926001600160a01b0316916306fdde039160048083019260009291908290030181865afa158015610586573d6000803e3d6000fd5b505050506040513d6000823e601f3d908101601f191682016040526105ae9190810190611fff565b905090565b60006105be826114bb565b506000828152600460205260409020546001600160a01b0316610536565b6105e78282336114f3565b5050565b806105f581610cc2565b8061068b5750604051634f4bdc7b60e11b81527f00000000000000000000000000000000000000000000000000000000000000006001600160a01b031690639e97b8f69061064a906003903390600401612075565b602060405180830381865afa158015610667573d6000803e3d6000fd5b505050506040513d601f19601f8201168201806040525081019061068b91906120af565b806107215750604051634f4bdc7b60e11b81526001600160a01b037f00000000000000000000000000000000000000000000000000000000000000001690639e97b8f6906106e0906003903290600401612075565b602060405180830381865afa1580156106fd573d6000803e3d6000fd5b505050506040513d601f19601f8201168201806040525081019061072191906120af565b6107615760405162461bcd60e51b815260206004820152600c60248201526b1393d50815539313d0d2d15160a21b60448201526064015b60405180910390fd5b61076c848484611500565b50505050565b604051634f4bdc7b60e11b81526001600160a01b037f00000000000000000000000000000000000000000000000000000000000000001690639e97b8f6906107c09060049033908201612075565b602060405180830381865afa1580156107dd573d6000803e3d6000fd5b505050506040513d601f19601f8201168201806040525081019061080191906120af565b61081d5760405162461bcd60e51b8152600401610758906120cc565b6001600160801b03166000908152600a60205260409020805460ff19166001179055565b61085c83838360405180602001604052806000815250611037565b505050565b604051634f4bdc7b60e11b81526001600160a01b037f00000000000000000000000000000000000000000000000000000000000000001690639e97b8f6906108af9060049033908201612075565b602060405180830381865afa1580156108cc573d6000803e3d6000fd5b505050506040513d601f19601f820116820180604052508101906108f091906120af565b61090c5760405162461bcd60e51b8152600401610758906120cc565b6001600160401b038116158061092a575042816001600160401b0316115b61096c5760405162461bcd60e51b815260206004820152601360248201527210d0539393d508135253950811561412549151606a1b6044820152606401610758565b6109768585611585565b604080516060810182526001600160601b03938416815293831660208086019182526001600160401b0393841686840190815260009788526007909152919095209351845495519151909216600160c01b026001600160c01b03918416600160601b026001600160c01b03199096169290931691909117939093179290921691909117905550565b604051634f4bdc7b60e11b81526001600160a01b037f00000000000000000000000000000000000000000000000000000000000000001690639e97b8f690610a4c9060049033908201612075565b602060405180830381865afa158015610a69573d6000803e3d6000fd5b505050506040513d601f19601f82011682018060405250810190610a8d91906120af565b610aa95760405162461bcd60e51b8152600401610758906120cc565b600680546001600160a01b0319166001600160a01b0392909216919091179055565b604051634f4bdc7b60e11b81526001600160a01b037f00000000000000000000000000000000000000000000000000000000000000001690639e97b8f690610b199060049033908201612075565b602060405180830381865afa158015610b36573d6000803e3d6000fd5b505050506040513d601f19601f82011682018060405250810190610b5a91906120af565b610b765760405162461bcd60e51b8152600401610758906120cc565b600082815260076020526040902054600160c01b90046001600160401b031680610be25760405162461bcd60e51b815260206004820181905260248201527f43414e4e4f5420455854454e44204e4f4e2d4558504952494e4720544f4b454e6044820152606401610758565b610bec828261210f565b905042816001600160401b031611610c385760405162461bcd60e51b815260206004820152600f60248201526e4e4f5420454e4f5547482054494d4560881b6044820152606401610758565b60009283526007602052604090922080546001600160401b03909316600160c01b026001600160c01b039093169290921790915550565b6000610536826114bb565b60006001600160a01b038216610ca6576040516322718ad960e21b815260006004820152602401610758565b506001600160a01b031660009081526003602052604090205490565b6000818152600760209081526040808320815160608101835290546001600160601b038082168352600160601b82041693820193909352600160c01b9092046001600160401b031690820152600b5460ff1680610d3c57506020808201516001600160601b031660009081526009909152604090205460ff165b80610d60575080516001600160601b03166000908152600a602052604090205460ff165b80610d79575060008381526008602052604090205460ff165b9392505050565b604051634f4bdc7b60e11b81526001600160a01b037f00000000000000000000000000000000000000000000000000000000000000001690639e97b8f690610dcf906001903390600401612075565b602060405180830381865afa158015610dec573d6000803e3d6000fd5b505050506040513d601f19601f82011682018060405250810190610e1091906120af565b610e515760405162461bcd60e51b81526020600482015260126024820152712737ba10309023b637b130b61020b236b4b760711b6044820152606401610758565b60405163a9059cbb60e01b8152336004820152602481018290526001600160a01b0383169063a9059cbb906044016020604051808303816000875af1158015610e9e573d6000803e3d6000fd5b505050506040513d601f19601f8201168201806040525081019061085c91906120af565b604051634f4bdc7b60e11b81526001600160a01b037f00000000000000000000000000000000000000000000000000000000000000001690639e97b8f690610f109060049033908201612075565b602060405180830381865afa158015610f2d573d6000803e3d6000fd5b505050506040513d601f19601f82011682018060405250810190610f5191906120af565b610f6d5760405162461bcd60e51b8152600401610758906120cc565b60005b81518110156105e7576000828281518110610f8d57610f8d61212e565b60209081029190910181015160008181526007909252604090912054909150600160c01b90046001600160401b03168015801590610fca57504281105b15610fd857610fd88261159f565b5050600101610f70565b600654604080516395d89b4160e01b815290516060926001600160a01b0316916395d89b419160048083019260009291908290030181865afa158015610586573d6000803e3d6000fd5b6105e73383836115da565b6110428484846105eb565b61076c3385858585611679565b604051634f4bdc7b60e11b81526001600160a01b037f00000000000000000000000000000000000000000000000000000000000000001690639e97b8f69061109d9060049033908201612075565b602060405180830381865afa1580156110ba573d6000803e3d6000fd5b505050506040513d601f19601f820116820180604052508101906110de91906120af565b6110fa5760405162461bcd60e51b8152600401610758906120cc565b506001600160801b03166000908152600960205260409020805460ff19166001179055565b606061112a826114bb565b506000828152600760209081526040808320815160608101835290546001600160601b038082168352600160601b82041682850152600160c01b90046001600160401b0316818301528151600480825260a08201909352909392909190820160808036833701905050905081600001516001600160601b0316816000815181106111b6576111b661212e565b60200260200101818152505081602001516001600160601b0316816001815181106111e3576111e361212e565b60200260200101818152505083816002815181106112035761120361212e565b60200260200101818152505081604001516001600160401b0316816003815181106112305761123061212e565b602090810291909101015260065460405163021a9fc160e31b81526001600160a01b03909116906310d4fe089061126b908490600401612144565b600060405180830381865afa158015611288573d6000803e3d6000fd5b505050506040513d6000823e601f3d908101601f191682016040526112b09190810190611fff565b949350505050565b604051634f4bdc7b60e11b81526001600160a01b037f00000000000000000000000000000000000000000000000000000000000000001690639e97b8f6906113069060049033908201612075565b602060405180830381865afa158015611323573d6000803e3d6000fd5b505050506040513d601f19601f8201168201806040525081019061134791906120af565b6113635760405162461bcd60e51b8152600401610758906120cc565b6000600182516113739190612187565b9050805b60016008600085848151811061138f5761138f61212e565b6020026020010151815260200190815260200160002060006101000a81548160ff02191690831515021790555080806113c79061219a565b915050611377565b604051634f4bdc7b60e11b81526001600160a01b037f00000000000000000000000000000000000000000000000000000000000000001690639e97b8f69061141d9060049033908201612075565b602060405180830381865afa15801561143a573d6000803e3d6000fd5b505050506040513d601f19601f8201168201806040525081019061145e91906120af565b61147a5760405162461bcd60e51b8152600401610758906120cc565b600b805460ff1916911515919091179055565b6001600160a01b03918216600090815260056020908152604080832093909416825291909152205460ff1690565b6000806114c7836117a4565b90506001600160a01b03811661053657604051637e27328960e01b815260048101849052602401610758565b61085c838383600161180b565b6001600160a01b03821661152a57604051633250574960e11b815260006004820152602401610758565b6000611537838333611911565b9050836001600160a01b0316816001600160a01b03161461076c576040516364283d7b60e01b81526001600160a01b0380861660048301526024820184905282166044820152606401610758565b6105e7828260405180602001604052806000815250611a05565b60006115ae6000836000611911565b90506001600160a01b0381166105e757604051637e27328960e01b815260048101839052602401610758565b6001600160a01b03821661160c57604051630b61174360e31b81526001600160a01b0383166004820152602401610758565b6001600160a01b03838116600081815260056020908152604080832094871680845294825291829020805460ff191686151590811790915591519182527f17307eab39ab6107e8899845ad3d59bd9653f200f220920489ca2b5937696c31910160405180910390a3505050565b6001600160a01b0383163b1561179d57604051630a85bd0160e11b81526001600160a01b0384169063150b7a02906116bb9088908890879087906004016121b1565b6020604051808303816000875af19250505080156116f6575060408051601f3d908101601f191682019092526116f3918101906121ee565b60015b61175f573d808015611724576040519150601f19603f3d011682016040523d82523d6000602084013e611729565b606091505b50805160000361175757604051633250574960e11b81526001600160a01b0385166004820152602401610758565b805181602001fd5b6001600160e01b03198116630a85bd0160e11b1461179b57604051633250574960e11b81526001600160a01b0385166004820152602401610758565b505b5050505050565b600081815260076020526040812054600160c01b90046001600160401b031680158015906117da575042816001600160401b0316105b156117e85760009150611805565b6000838152600260205260409020546001600160a01b0316610d79565b50919050565b808061181f57506001600160a01b03821615155b156118e157600061182f846114bb565b90506001600160a01b0383161580159061185b5750826001600160a01b0316816001600160a01b031614155b801561186e575061186c818461148d565b155b156118975760405163a9fbf51f60e01b81526001600160a01b0384166004820152602401610758565b81156118df5783856001600160a01b0316826001600160a01b03167f8c5be1e5ebec7d5bd14f71427d1e84f3dd0314c0f7b2291e5b200ac8c7c3b92560405160405180910390a45b505b5050600090815260046020526040902080546001600160a01b0319166001600160a01b0392909216919091179055565b60008061191d846117a4565b90506001600160a01b0383161561193957611939818486611a1d565b6001600160a01b038116156119775761195660008560008061180b565b6001600160a01b038116600090815260036020526040902080546000190190555b6001600160a01b038516156119a6576001600160a01b0385166000908152600360205260409020805460010190555b60008481526002602052604080822080546001600160a01b0319166001600160a01b0389811691821790925591518793918516917fddf252ad1be2c89b69c2b068fc378daa952ba7f163c4a11628f55a4df523b3ef91a4949350505050565b611a0f8383611a81565b61085c336000858585611679565b611a28838383611ae6565b61085c576001600160a01b038316611a5657604051637e27328960e01b815260048101829052602401610758565b60405163177e802f60e01b81526001600160a01b038316600482015260248101829052604401610758565b6001600160a01b038216611aab57604051633250574960e11b815260006004820152602401610758565b6000611ab983836000611911565b90506001600160a01b0381161561085c576040516339e3563760e11b815260006004820152602401610758565b60006001600160a01b038316158015906112b05750826001600160a01b0316846001600160a01b03161480611b205750611b20848461148d565b806112b05750506000908152600460205260409020546001600160a01b03908116911614919050565b6001600160e01b031981168114611b5f57600080fd5b50565b600060208284031215611b7457600080fd5b8135610d7981611b49565b60005b83811015611b9a578181015183820152602001611b82565b50506000910152565b60008151808452611bbb816020860160208601611b7f565b601f01601f19169290920160200192915050565b602081526000610d796020830184611ba3565b600060208284031215611bf457600080fd5b5035919050565b80356001600160a01b0381168114611c1257600080fd5b919050565b60008060408385031215611c2a57600080fd5b611c3383611bfb565b946020939093013593505050565b600080600060608486031215611c5657600080fd5b611c5f84611bfb565b9250611c6d60208501611bfb565b929592945050506040919091013590565b80356001600160801b0381168114611c1257600080fd5b600060208284031215611ca757600080fd5b610d7982611c7e565b80356001600160601b0381168114611c1257600080fd5b80356001600160401b0381168114611c1257600080fd5b600080600080600060a08688031215611cf657600080fd5b611cff86611bfb565b945060208601359350611d1460408701611cb0565b9250611d2260608701611cb0565b9150611d3060808701611cc7565b90509295509295909350565b600060208284031215611d4e57600080fd5b610d7982611bfb565b60008060408385031215611d6a57600080fd5b82359150611d7a60208401611cc7565b90509250929050565b634e487b7160e01b600052604160045260246000fd5b604051601f8201601f191681016001600160401b0381118282101715611dc157611dc1611d83565b604052919050565b600060208284031215611ddb57600080fd5b81356001600160401b03811115611df157600080fd5b8201601f81018413611e0257600080fd5b80356001600160401b03811115611e1b57611e1b611d83565b8060051b611e2b60208201611d99565b91825260208184018101929081019087841115611e4757600080fd5b6020850194505b83851015611e6d57843580835260209586019590935090910190611e4e565b979650505050505050565b8015158114611b5f57600080fd5b60008060408385031215611e9957600080fd5b611ea283611bfb565b91506020830135611eb281611e78565b809150509250929050565b60006001600160401b03821115611ed657611ed6611d83565b50601f01601f191660200190565b60008060008060808587031215611efa57600080fd5b611f0385611bfb565b9350611f1160208601611bfb565b92506040850135915060608501356001600160401b03811115611f3357600080fd5b8501601f81018713611f4457600080fd5b8035611f57611f5282611ebd565b611d99565b818152886020838501011115611f6c57600080fd5b8160208401602083013760006020838301015280935050505092959194509250565b60008060408385031215611fa157600080fd5b611faa83611c7e565b9150611d7a60208401611c7e565b600060208284031215611fca57600080fd5b8135610d7981611e78565b60008060408385031215611fe857600080fd5b611ff183611bfb565b9150611d7a60208401611bfb565b60006020828403121561201157600080fd5b81516001600160401b0381111561202757600080fd5b8201601f8101841361203857600080fd5b8051612046611f5282611ebd565b81815285602083850101111561205b57600080fd5b61206c826020830160208601611b7f565b95945050505050565b60408101600f841061209757634e487b7160e01b600052602160045260246000fd5b9281526001600160a01b039190911660209091015290565b6000602082840312156120c157600080fd5b8151610d7981611e78565b6020808252601390820152722737ba10309029bcb9ba32b6b99020b236b4b760691b604082015260600190565b634e487b7160e01b600052601160045260246000fd5b6001600160401b038181168382160190811115610536576105366120f9565b634e487b7160e01b600052603260045260246000fd5b602080825282518282018190526000918401906040840190835b8181101561217c57835183526020938401939092019160010161215e565b509095945050505050565b81810381811115610536576105366120f9565b6000816121a9576121a96120f9565b506000190190565b6001600160a01b03858116825284166020820152604081018390526080606082018190526000906121e490830184611ba3565b9695505050505050565b60006020828403121561220057600080fd5b8151610d7981611b4956fea264697066735822122083fc8a128dc7a13759d78d00eb499427c99382e826a1c69ad64f778bd5ce4c9e64736f6c634300081e003360a06040526003805460ff1916600117905534801561001d57600080fd5b50604051610dbd380380610dbd83398101604081905261003c91610132565b6001600160a01b03841660805260006100558482610270565b5060016100628382610270565b50600261006f8282610270565b505050505061032e565b634e487b7160e01b600052604160045260246000fd5b600082601f8301126100a057600080fd5b81516001600160401b038111156100b9576100b9610079565b604051601f8201601f19908116603f011681016001600160401b03811182821017156100e7576100e7610079565b6040528181528382016020018510156100ff57600080fd5b60005b8281101561011e57602081860181015183830182015201610102565b506000918101602001919091529392505050565b6000806000806080858703121561014857600080fd5b84516001600160a01b038116811461015f57600080fd5b60208601519094506001600160401b0381111561017b57600080fd5b6101878782880161008f565b604087015190945090506001600160401b038111156101a557600080fd5b6101b18782880161008f565b606087015190935090506001600160401b038111156101cf57600080fd5b6101db8782880161008f565b91505092959194509250565b600181811c908216806101fb57607f821691505b60208210810361021b57634e487b7160e01b600052602260045260246000fd5b50919050565b601f82111561026b57806000526020600020601f840160051c810160208510156102485750805b601f840160051c820191505b818110156102685760008155600101610254565b50505b505050565b81516001600160401b0381111561028957610289610079565b61029d8161029784546101e7565b84610221565b6020601f8211600181146102d157600083156102b95750848201515b600019600385901b1c1916600184901b178455610268565b600084815260208120601f198516915b8281101561030157878501518255602094850194600190920191016102e1565b508482101561031f5786840151600019600387901b60f8161c191681555b50505050600190811b01905550565b608051610a7461034960003960006103230152610a746000f3fe608060405234801561001057600080fd5b50600436106100575760003560e01c806306fdde031461005c57806310d4fe081461007a578063876a4cdc1461008d57806395d89b41146100a2578063c87b56dd146100aa575b600080fd5b6100646100bd565b60405161007191906105bb565b60405180910390f35b610064610088366004610635565b61014f565b6100a061009b366004610702565b61030c565b005b6100646103c5565b6100646100b83660046107ad565b6103d4565b6060600080546100cc906107c6565b80601f01602080910402602001604051908101604052809291908181526020018280546100f8906107c6565b80156101455780601f1061011a57610100808354040283529160200191610145565b820191906000526020600020905b81548152906001019060200180831161012857829003601f168201915b5050505050905090565b60035460609060ff16156102755760006002805461016c906107c6565b905011156102615760028054610181906107c6565b80601f01602080910402602001604051908101604052809291908181526020018280546101ad906107c6565b80156101fa5780601f106101cf576101008083540402835291602001916101fa565b820191906000526020600020905b8154815290600101906020018083116101dd57829003601f168201915b5050505050905060005b825181101561025b5781610230848381518110610223576102236107fa565b602002602001015161042b565b604051602001610241929190610810565b60408051601f198184030181529190529150600101610204565b50919050565b505060408051602081019091526000815290565b60028054610282906107c6565b80601f01602080910402602001604051908101604052809291908181526020018280546102ae906107c6565b80156102fb5780601f106102d0576101008083540402835291602001916102fb565b820191906000526020600020905b8154815290600101906020018083116102de57829003601f168201915b50505050509050919050565b919050565b604051634f4bdc7b60e11b81526001600160a01b037f00000000000000000000000000000000000000000000000000000000000000001690639e97b8f69061035a906004903390820161084c565b602060405180830381865afa158015610377573d6000803e3d6000fd5b505050506040513d601f19601f8201168201806040525081019061039b9190610886565b6103a457600080fd5b60026103b083826108f9565b506003805460ff191691151591909117905550565b6060600180546100cc906107c6565b60035460609060ff1615610275576000600280546103f1906107c6565b905011156102615760026104048361042b565b6040516020016104159291906109b8565b6040516020818303038152906040529050919050565b60606000610438836104be565b600101905060008167ffffffffffffffff811115610458576104586105ee565b6040519080825280601f01601f191660200182016040528015610482576020820181803683370190505b5090508181016020015b600019016f181899199a1a9b1b9c1cb0b131b232b360811b600a86061a8153600a850494508461048c57509392505050565b60008072184f03e93ff9f4daa797ed6e38ed64bf6a1f0160401b83106104fd5772184f03e93ff9f4daa797ed6e38ed64bf6a1f0160401b830492506040015b6d04ee2d6d415b85acef81000000008310610529576d04ee2d6d415b85acef8100000000830492506020015b662386f26fc10000831061054757662386f26fc10000830492506010015b6305f5e100831061055f576305f5e100830492506008015b612710831061057357612710830492506004015b60648310610585576064830492506002015b600a8310610591576001015b92915050565b60005b838110156105b257818101518382015260200161059a565b50506000910152565b60208152600082518060208401526105da816040850160208701610597565b601f01601f19169190910160400192915050565b634e487b7160e01b600052604160045260246000fd5b604051601f8201601f1916810167ffffffffffffffff8111828210171561062d5761062d6105ee565b604052919050565b60006020828403121561064757600080fd5b813567ffffffffffffffff81111561065e57600080fd5b8201601f8101841361066f57600080fd5b803567ffffffffffffffff811115610689576106896105ee565b8060051b61069960208201610604565b918252602081840181019290810190878411156106b557600080fd5b6020850194505b838510156106db578435808352602095860195909350909101906106bc565b979650505050505050565b80151581146106f457600080fd5b50565b8035610307816106e6565b6000806040838503121561071557600080fd5b823567ffffffffffffffff81111561072c57600080fd5b8301601f8101851361073d57600080fd5b803567ffffffffffffffff811115610757576107576105ee565b61076a601f8201601f1916602001610604565b81815286602083850101111561077f57600080fd5b816020840160208301376000602083830101528094505050506107a4602084016106f7565b90509250929050565b6000602082840312156107bf57600080fd5b5035919050565b600181811c908216806107da57607f821691505b60208210810361025b57634e487b7160e01b600052602260045260246000fd5b634e487b7160e01b600052603260045260246000fd5b60008351610822818460208801610597565b602f60f81b9083019081528351610840816001840160208801610597565b01600101949350505050565b60408101600f841061086e57634e487b7160e01b600052602160045260246000fd5b9281526001600160a01b039190911660209091015290565b60006020828403121561089857600080fd5b81516108a3816106e6565b9392505050565b601f8211156108f457806000526020600020601f840160051c810160208510156108d15750805b601f840160051c820191505b818110156108f157600081556001016108dd565b50505b505050565b815167ffffffffffffffff811115610913576109136105ee565b6109278161092184546107c6565b846108aa565b6020601f82116001811461095b57600083156109435750848201515b600019600385901b1c1916600184901b1784556108f1565b600084815260208120601f198516915b8281101561098b578785015182556020948501946001909201910161096b565b50848210156109a95786840151600019600387901b60f8161c191681555b50505050600190811b01905550565b60008084546109c6816107c6565b6001821680156109dd57600181146109f257610a22565b60ff1983168652811515820286019350610a22565b87600052602060002060005b83811015610a1a578154888201526001909101906020016109fe565b505081860193505b5050508351610a35818360208801610597565b0194935050505056fea26469706673582212206ecaf23c38acd084a16174b9389b03d6e7e3f641e438f65992a26c5a2e61bf9e64736f6c634300081e0033",
  "linkReferences": {},
  "deployedLinkReferences": {}
}