{
  "_format": "hh-sol-artifact-1",
  "contractName": "SCMetagameLocationRewards",
  "sourceName": "SuperChamps/contracts/Metagame/SCMetagameLocationRewards.sol",
  "abi": [
    {
      "inputs": [
        {
          "internalType": "address",
          "name": "token_",
          "type": "address"
        },
        {
          "internalType": "address",
          "name": "metagame_data_",
          "type": "address"
        },
        {
          "internalType": "string",
          "name": "location_id_",
          "type": "string"
        },
        {
          "internalType": "address",
          "name": "access_pass_",
          "type": "address"
        }
      ],
      "stateMutability": "nonpayable",
      "type": "constructor"
    },
    {
      "inputs": [],
      "name": "ReentrancyGuardReentrantCall",
      "type": "error"
    },
    {
      "anonymous": false,
      "inputs": [
        {
          "indexed": false,
          "internalType": "address",
          "name": "oldOwner",
          "type": "address"
        },
        {
          "indexed": false,
          "internalType": "address",
          "name": "newOwner",
          "type": "address"
        }
      ],
      "name": "OwnerChanged",
      "type": "event"
    },
    {
      "anonymous": false,
      "inputs": [
        {
          "indexed": false,
          "internalType": "address",
          "name": "newOwner",
          "type": "address"
        }
      ],
      "name": "OwnerNominated",
      "type": "event"
    },
    {
      "anonymous": false,
      "inputs": [
        {
          "indexed": false,
          "internalType": "bool",
          "name": "isPaused",
          "type": "bool"
        }
      ],
      "name": "PauseChanged",
      "type": "event"
    },
    {
      "anonymous": false,
      "inputs": [
        {
          "indexed": false,
          "internalType": "address",
          "name": "token",
          "type": "address"
        },
        {
          "indexed": false,
          "internalType": "uint256",
          "name": "amount",
          "type": "uint256"
        }
      ],
      "name": "Recovered",
      "type": "event"
    },
    {
      "anonymous": false,
      "inputs": [
        {
          "indexed": false,
          "internalType": "uint256",
          "name": "reward",
          "type": "uint256"
        }
      ],
      "name": "RewardAdded",
      "type": "event"
    },
    {
      "anonymous": false,
      "inputs": [
        {
          "indexed": true,
          "internalType": "address",
          "name": "user",
          "type": "address"
        },
        {
          "indexed": false,
          "internalType": "uint256",
          "name": "reward",
          "type": "uint256"
        }
      ],
      "name": "RewardPaid",
      "type": "event"
    },
    {
      "anonymous": false,
      "inputs": [
        {
          "indexed": false,
          "internalType": "uint256",
          "name": "newDuration",
          "type": "uint256"
        }
      ],
      "name": "RewardsDurationUpdated",
      "type": "event"
    },
    {
      "anonymous": false,
      "inputs": [
        {
          "indexed": true,
          "internalType": "address",
          "name": "user",
          "type": "address"
        },
        {
          "indexed": false,
          "internalType": "uint256",
          "name": "amount",
          "type": "uint256"
        }
      ],
      "name": "Staked",
      "type": "event"
    },
    {
      "anonymous": false,
      "inputs": [
        {
          "indexed": true,
          "internalType": "address",
          "name": "user",
          "type": "address"
        },
        {
          "indexed": false,
          "internalType": "uint256",
          "name": "amount",
          "type": "uint256"
        }
      ],
      "name": "Withdrawn",
      "type": "event"
    },
    {
      "inputs": [],
      "name": "acceptOwnership",
      "outputs": [],
      "stateMutability": "nonpayable",
      "type": "function"
    },
    {
      "inputs": [],
      "name": "access_pass",
      "outputs": [
        {
          "internalType": "contract ISCAccessPass",
          "name": "",
          "type": "address"
        }
      ],
      "stateMutability": "view",
      "type": "function"
    },
    {
      "inputs": [
        {
          "internalType": "address",
          "name": "account",
          "type": "address"
        }
      ],
      "name": "balanceOf",
      "outputs": [
        {
          "internalType": "uint256",
          "name": "",
          "type": "uint256"
        }
      ],
      "stateMutability": "view",
      "type": "function"
    },
    {
      "inputs": [
        {
          "internalType": "address",
          "name": "account",
          "type": "address"
        }
      ],
      "name": "earned",
      "outputs": [
        {
          "internalType": "uint256",
          "name": "",
          "type": "uint256"
        }
      ],
      "stateMutability": "view",
      "type": "function"
    },
    {
      "inputs": [],
      "name": "exit",
      "outputs": [],
      "stateMutability": "nonpayable",
      "type": "function"
    },
    {
      "inputs": [],
      "name": "getReward",
      "outputs": [],
      "stateMutability": "nonpayable",
      "type": "function"
    },
    {
      "inputs": [],
      "name": "getRewardForDuration",
      "outputs": [
        {
          "internalType": "uint256",
          "name": "",
          "type": "uint256"
        }
      ],
      "stateMutability": "view",
      "type": "function"
    },
    {
      "inputs": [],
      "name": "lastPauseTime",
      "outputs": [
        {
          "internalType": "uint256",
          "name": "",
          "type": "uint256"
        }
      ],
      "stateMutability": "view",
      "type": "function"
    },
    {
      "inputs": [],
      "name": "lastTimeRewardApplicable",
      "outputs": [
        {
          "internalType": "uint256",
          "name": "",
          "type": "uint256"
        }
      ],
      "stateMutability": "view",
      "type": "function"
    },
    {
      "inputs": [],
      "name": "lastUpdateTime",
      "outputs": [
        {
          "internalType": "uint256",
          "name": "",
          "type": "uint256"
        }
      ],
      "stateMutability": "view",
      "type": "function"
    },
    {
      "inputs": [],
      "name": "location_id",
      "outputs": [
        {
          "internalType": "string",
          "name": "",
          "type": "string"
        }
      ],
      "stateMutability": "view",
      "type": "function"
    },
    {
      "inputs": [
        {
          "internalType": "address",
          "name": "_owner",
          "type": "address"
        }
      ],
      "name": "nominateNewOwner",
      "outputs": [],
      "stateMutability": "nonpayable",
      "type": "function"
    },
    {
      "inputs": [],
      "name": "nominatedOwner",
      "outputs": [
        {
          "internalType": "address",
          "name": "",
          "type": "address"
        }
      ],
      "stateMutability": "view",
      "type": "function"
    },
    {
      "inputs": [
        {
          "internalType": "uint256",
          "name": "reward",
          "type": "uint256"
        }
      ],
      "name": "notifyRewardAmount",
      "outputs": [],
      "stateMutability": "nonpayable",
      "type": "function"
    },
    {
      "inputs": [],
      "name": "owner",
      "outputs": [
        {
          "internalType": "address",
          "name": "",
          "type": "address"
        }
      ],
      "stateMutability": "view",
      "type": "function"
    },
    {
      "inputs": [],
      "name": "paused",
      "outputs": [
        {
          "internalType": "bool",
          "name": "",
          "type": "bool"
        }
      ],
      "stateMutability": "view",
      "type": "function"
    },
    {
      "inputs": [],
      "name": "periodFinish",
      "outputs": [
        {
          "internalType": "uint256",
          "name": "",
          "type": "uint256"
        }
      ],
      "stateMutability": "view",
      "type": "function"
    },
    {
      "inputs": [
        {
          "internalType": "address",
          "name": "tokenAddress",
          "type": "address"
        },
        {
          "internalType": "uint256",
          "name": "tokenAmount",
          "type": "uint256"
        }
      ],
      "name": "recoverERC20",
      "outputs": [],
      "stateMutability": "nonpayable",
      "type": "function"
    },
    {
      "inputs": [],
      "name": "rewardPerToken",
      "outputs": [
        {
          "internalType": "uint256",
          "name": "",
          "type": "uint256"
        }
      ],
      "stateMutability": "view",
      "type": "function"
    },
    {
      "inputs": [],
      "name": "rewardPerTokenStored",
      "outputs": [
        {
          "internalType": "uint256",
          "name": "",
          "type": "uint256"
        }
      ],
      "stateMutability": "view",
      "type": "function"
    },
    {
      "inputs": [],
      "name": "rewardRate",
      "outputs": [
        {
          "internalType": "uint256",
          "name": "",
          "type": "uint256"
        }
      ],
      "stateMutability": "view",
      "type": "function"
    },
    {
      "inputs": [
        {
          "internalType": "address",
          "name": "",
          "type": "address"
        }
      ],
      "name": "rewards",
      "outputs": [
        {
          "internalType": "uint256",
          "name": "",
          "type": "uint256"
        }
      ],
      "stateMutability": "view",
      "type": "function"
    },
    {
      "inputs": [],
      "name": "rewardsDistribution",
      "outputs": [
        {
          "internalType": "address",
          "name": "",
          "type": "address"
        }
      ],
      "stateMutability": "view",
      "type": "function"
    },
    {
      "inputs": [],
      "name": "rewardsDuration",
      "outputs": [
        {
          "internalType": "uint256",
          "name": "",
          "type": "uint256"
        }
      ],
      "stateMutability": "view",
      "type": "function"
    },
    {
      "inputs": [],
      "name": "rewardsToken",
      "outputs": [
        {
          "internalType": "contract IERC20",
          "name": "",
          "type": "address"
        }
      ],
      "stateMutability": "view",
      "type": "function"
    },
    {
      "inputs": [
        {
          "internalType": "bool",
          "name": "_paused",
          "type": "bool"
        }
      ],
      "name": "setPaused",
      "outputs": [],
      "stateMutability": "nonpayable",
      "type": "function"
    },
    {
      "inputs": [
        {
          "internalType": "address",
          "name": "_rewardsDistribution",
          "type": "address"
        }
      ],
      "name": "setRewardsDistribution",
      "outputs": [],
      "stateMutability": "nonpayable",
      "type": "function"
    },
    {
      "inputs": [
        {
          "internalType": "uint256",
          "name": "_rewardsDuration",
          "type": "uint256"
        }
      ],
      "name": "setRewardsDuration",
      "outputs": [],
      "stateMutability": "nonpayable",
      "type": "function"
    },
    {
      "inputs": [
        {
          "internalType": "uint256",
          "name": "amount_",
          "type": "uint256"
        }
      ],
      "name": "stake",
      "outputs": [],
      "stateMutability": "nonpayable",
      "type": "function"
    },
    {
      "inputs": [],
      "name": "staked_supply",
      "outputs": [
        {
          "internalType": "uint256",
          "name": "",
          "type": "uint256"
        }
      ],
      "stateMutability": "view",
      "type": "function"
    },
    {
      "inputs": [],
      "name": "stakingToken",
      "outputs": [
        {
          "internalType": "contract IERC20",
          "name": "",
          "type": "address"
        }
      ],
      "stateMutability": "view",
      "type": "function"
    },
    {
      "inputs": [],
      "name": "totalSupply",
      "outputs": [
        {
          "internalType": "uint256",
          "name": "",
          "type": "uint256"
        }
      ],
      "stateMutability": "view",
      "type": "function"
    },
    {
      "inputs": [
        {
          "internalType": "address",
          "name": "addr_",
          "type": "address"
        }
      ],
      "name": "updateMultiplier",
      "outputs": [
        {
          "internalType": "uint256",
          "name": "_mult_bp",
          "type": "uint256"
        }
      ],
      "stateMutability": "nonpayable",
      "type": "function"
    },
    {
      "inputs": [
        {
          "internalType": "address",
          "name": "",
          "type": "address"
        }
      ],
      "name": "userRewardPerTokenPaid",
      "outputs": [
        {
          "internalType": "uint256",
          "name": "",
          "type": "uint256"
        }
      ],
      "stateMutability": "view",
      "type": "function"
    },
    {
      "inputs": [
        {
          "internalType": "address",
          "name": "",
          "type": "address"
        }
      ],
      "name": "user_stakes",
      "outputs": [
        {
          "internalType": "uint256",
          "name": "",
          "type": "uint256"
        }
      ],
      "stateMutability": "view",
      "type": "function"
    },
    {
      "inputs": [
        {
          "internalType": "uint256",
          "name": "amount",
          "type": "uint256"
        }
      ],
      "name": "withdraw",
      "outputs": [],
      "stateMutability": "nonpayable",
      "type": "function"
    }
  ],
  "bytecode": "0x60a06040526000600755600060085562093a806009553480156200002257600080fd5b5060405162001dcf38038062001dcf83398101604081905262000045916200020b565b338085808280806200009e5760405162461bcd60e51b815260206004820152601960248201527f4f776e657220616464726573732063616e6e6f7420626520300000000000000060448201526064015b60405180910390fd5b600080546001600160a01b0319166001600160a01b03831690811782556040805192835260208301919091527fb532073b38c83145e3e5135377a08bf9aab55bc0fd7c1179cd4fb995d2a5159c910160405180910390a1505060016003556000546001600160a01b03166200014a5760405162461bcd60e51b815260206004820152601160248201527013dddb995c881b5d5cdd081899481cd95d607a1b604482015260640162000095565b600580546001600160a01b0393841661010002610100600160a81b0319909116179055600680549183166001600160a01b03199283161790556002805493831693909116929092179091558416608052506010620001a98382620003a9565b50601180546001600160a01b0319166001600160a01b0392909216919091179055505060006009555062000475565b80516001600160a01b0381168114620001f057600080fd5b919050565b634e487b7160e01b600052604160045260246000fd5b600080600080608085870312156200022257600080fd5b6200022d85620001d8565b935060206200023e818701620001d8565b60408701519094506001600160401b03808211156200025c57600080fd5b818801915088601f8301126200027157600080fd5b815181811115620002865762000286620001f5565b604051601f8201601f19908116603f01168101908382118183101715620002b157620002b1620001f5565b816040528281528b86848701011115620002ca57600080fd5b600093505b82841015620002ee5784840186015181850187015292850192620002cf565b60008684830101528097505050505050506200030d60608601620001d8565b905092959194509250565b600181811c908216806200032d57607f821691505b6020821081036200034e57634e487b7160e01b600052602260045260246000fd5b50919050565b601f821115620003a4576000816000526020600020601f850160051c810160208610156200037f5750805b601f850160051c820191505b81811015620003a0578281556001016200038b565b5050505b505050565b81516001600160401b03811115620003c557620003c5620001f5565b620003dd81620003d6845462000318565b8462000354565b602080601f831160018114620004155760008415620003fc5750858301515b600019600386901b1c1916600185901b178555620003a0565b600085815260208120601f198616915b82811015620004465788860151825594840194600190910190840162000425565b5085821015620004655787850151600019600388901b60f8161c191681555b5050505050600190811b01905550565b60805161193762000498600039600081816105a5015261116e01526119376000f3fe608060405234801561001057600080fd5b506004361061021b5760003560e01c806370a082311161012557806391b4ded9116100ad578063cd3daf9d1161007c578063cd3daf9d1461047a578063d1af0c7d14610482578063df136d651461049a578063e9fad8ee146104a3578063ebe2b12b146104ab57600080fd5b806391b4ded914610442578063a694fc3a1461044b578063c8f33c911461045e578063cc1a378f1461046757600080fd5b806380faa57d116100f457806380faa57d146103e157806388b50b5f146103e95780638980f11f146103fc5780638b8763471461040f5780638da5cb5b1461042f57600080fd5b806370a082311461039457806372f702f3146103bd57806379ba5097146103d05780637b0a47ee146103d857600080fd5b80632e1a7d4d116101a85780633ede0b67116101775780633ede0b671461031b5780633fc6df6e14610324578063455457aa1461034f57806353a47bb7146103645780635c975abb1461037757600080fd5b80632e1a7d4d146102e4578063386a9525146102f75780633c6b16ab146103005780633d18b9121461031357600080fd5b806316c38b3c116101ef57806316c38b3c1461028e57806318160ddd146102a157806319762143146102a95780631c1f78eb146102bc578063263319a5146102c457600080fd5b80628cc262146102205780630700037d146102465780630d773a64146102665780631627540c14610279575b600080fd5b61023361022e366004611682565b6104b4565b6040519081526020015b60405180910390f35b610233610254366004611682565b600d6020526000908152604090205481565b610233610274366004611682565b610531565b61028c610287366004611682565b6106ee565b005b61028c61029c3660046116b2565b61074b565b600e54610233565b61028c6102b7366004611682565b6107bd565b6102336107e7565b6102336102d2366004611682565b60136020526000908152604090205481565b61028c6102f23660046116cf565b6107fe565b61023360095481565b61028c61030e3660046116cf565b6109f7565b61028c610c6d565b61023360125481565b600254610337906001600160a01b031681565b6040516001600160a01b03909116815260200161023d565b610357610db8565b60405161023d91906116e8565b600154610337906001600160a01b031681565b6005546103849060ff1681565b604051901515815260200161023d565b6102336103a2366004611682565b6001600160a01b03166000908152600f602052604090205490565b600654610337906001600160a01b031681565b61028c610e46565b61023360085481565b610233610f30565b601154610337906001600160a01b031681565b61028c61040a366004611737565b610f4d565b61023361041d366004611682565b600c6020526000908152604090205481565b600054610337906001600160a01b031681565b61023360045481565b61028c6104593660046116cf565b61107b565b610233600a5481565b61028c6104753660046116cf565b61146e565b610233611548565b6005546103379061010090046001600160a01b031681565b610233600b5481565b61028c6115a9565b61023360075481565b6001600160a01b0381166000908152600d6020908152604080832054600c909252822054670de0b6b3a7640000906104ea611548565b6104f49190611777565b6001600160a01b0385166000908152600f6020526040902054610517919061178a565b61052191906117a1565b61052b91906117c3565b92915050565b60003361053c611548565b600b55610547610f30565b600a556001600160a01b0381161561058e57610562816104b4565b6001600160a01b0382166000908152600d6020908152604080832093909355600b54600c909152919020555b6040516304e9b19960e31b81526001600160a01b037f0000000000000000000000000000000000000000000000000000000000000000169063274d8cc8906105dd90869060109060040161180a565b602060405180830381865afa1580156105fa573d6000803e3d6000fd5b505050506040513d601f19601f8201168201806040525081019061061e91906118cb565b6001600160a01b03841660009081526014602052604090205490925082146106e8576001600160a01b0383166000908152601460209081526040808320805490869055600f909252822054600e80549293919290919061067f908490611777565b90915550506001600160a01b0384166000908152600f602052604090205481906106aa90859061178a565b6106b491906117a1565b6001600160a01b0385166000908152600f60205260408120829055600e80549091906106e19084906117c3565b9091555050505b50919050565b6106f66115ca565b600180546001600160a01b0319166001600160a01b0383169081179091556040519081527f906a1c6bd7e3091ea86693dd029a831c19049ce77f1dce2ce0bab1cacbabce22906020015b60405180910390a150565b6107536115ca565b60055460ff161515811515146107ba576005805460ff191682151590811790915560ff161561078157426004555b60055460405160ff909116151581527f8fb6c181ee25a520cf3dd6565006ef91229fcfe5a989566c2a3b8c115570cec590602001610740565b50565b6107c56115ca565b600280546001600160a01b0319166001600160a01b0392909216919091179055565b60006009546008546107f9919061178a565b905090565b61080661163c565b3361080f611548565b600b5561081a610f30565b600a556001600160a01b0381161561086157610835816104b4565b6001600160a01b0382166000908152600d6020908152604080832093909355600b54600c909152919020555b600082116108aa5760405162461bcd60e51b8152602060048201526011602482015270043616e6e6f74207769746864726177203607c1b60448201526064015b60405180910390fd5b33600090815260146020526040812054906108c5828561178a565b905080600e60008282546108d99190611777565b9091555050336000908152600f6020526040812080548392906108fd908490611777565b9250508190555083601260008282546109169190611777565b9091555050336000908152601360205260408120805486929061093a908490611777565b909155505060065460405163a9059cbb60e01b8152336004820152602481018690526001600160a01b039091169063a9059cbb906044016020604051808303816000875af1158015610990573d6000803e3d6000fd5b505050506040513d601f19601f820116820180604052508101906109b491906118e4565b5060405184815233907f7084f5476618d8e60b11ef0d7d3f06914655adb8793e28ff7f018d4c76d505d59060200160405180910390a25050506107ba6001600355565b6002546001600160a01b03163314610a645760405162461bcd60e51b815260206004820152602a60248201527f43616c6c6572206973206e6f742052657761726473446973747269627574696f6044820152691b8818dbdb9d1c9858dd60b21b60648201526084016108a1565b6000610a6e611548565b600b55610a79610f30565b600a556001600160a01b03811615610ac057610a94816104b4565b6001600160a01b0382166000908152600d6020908152604080832093909355600b54600c909152919020555b6007544210610ade57600954610ad690836117a1565b600855610b20565b600042600754610aee9190611777565b9050600060085482610b00919061178a565b600954909150610b1082866117c3565b610b1a91906117a1565b60085550505b6005546040516370a0823160e01b815230600482015260009161010090046001600160a01b0316906370a0823190602401602060405180830381865afa158015610b6e573d6000803e3d6000fd5b505050506040513d601f19601f82011682018060405250810190610b9291906118cb565b6005546006549192506001600160a01b036101009091048116911603610bc257601254610bbf9082611777565b90505b600954610bcf90826117a1565b6008541115610c205760405162461bcd60e51b815260206004820152601860248201527f50726f76696465642072657761726420746f6f2068696768000000000000000060448201526064016108a1565b42600a5560095442610c3291906117c3565b6007556040518381527fde88a922e0d3b88b24e9623efeb464919c6bf9f66857a65e2bfcf2ce87a9433d9060200160405180910390a1505050565b610c7561163c565b33610c7e611548565b600b55610c89610f30565b600a556001600160a01b03811615610cd057610ca4816104b4565b6001600160a01b0382166000908152600d6020908152604080832093909355600b54600c909152919020555b336000908152600d60205260409020548015610daa57336000818152600d602052604080822091909155600554905163a9059cbb60e01b815260048101929092526024820183905261010090046001600160a01b03169063a9059cbb906044016020604051808303816000875af1158015610d4f573d6000803e3d6000fd5b505050506040513d601f19601f82011682018060405250810190610d7391906118e4565b5060405181815233907fe2403640ba68fed3a2f88b7557551d1993f84b99bb10ff833f0cf8db0c5e04869060200160405180910390a25b5050610db66001600355565b565b60108054610dc5906117d6565b80601f0160208091040260200160405190810160405280929190818152602001828054610df1906117d6565b8015610e3e5780601f10610e1357610100808354040283529160200191610e3e565b820191906000526020600020905b815481529060010190602001808311610e2157829003601f168201915b505050505081565b6001546001600160a01b03163314610ebe5760405162461bcd60e51b815260206004820152603560248201527f596f75206d757374206265206e6f6d696e61746564206265666f726520796f7560448201527402063616e20616363657074206f776e65727368697605c1b60648201526084016108a1565b600054600154604080516001600160a01b0393841681529290911660208301527fb532073b38c83145e3e5135377a08bf9aab55bc0fd7c1179cd4fb995d2a5159c910160405180910390a160018054600080546001600160a01b03199081166001600160a01b03841617909155169055565b6000600754610f3c4290565b10610f48575060075490565b504290565b610f556115ca565b6006546001600160a01b0390811690831603610fbd5760405162461bcd60e51b815260206004820152602160248201527f43616e6e6f7420776974686472617720746865207374616b696e6720746f6b656044820152603760f91b60648201526084016108a1565b60005460405163a9059cbb60e01b81526001600160a01b039182166004820152602481018390529083169063a9059cbb906044016020604051808303816000875af1158015611010573d6000803e3d6000fd5b505050506040513d601f19601f8201168201806040525081019061103491906118e4565b50604080516001600160a01b0384168152602081018390527f8c1256b8896378cd5044f80c202f9772b9d77dc85c8a6eb51967210b09bfaa28910160405180910390a15050565b61108361163c565b60055460ff16156110fc5760405162461bcd60e51b815260206004820152603c60248201527f5468697320616374696f6e2063616e6e6f7420626520706572666f726d65642060448201527f7768696c652074686520636f6e7472616374206973207061757365640000000060648201526084016108a1565b33611105611548565b600b55611110610f30565b600a556001600160a01b038116156111575761112b816104b4565b6001600160a01b0382166000908152600d6020908152604080832093909355600b54600c909152919020555b60405163d23614b160e01b81526001600160a01b037f0000000000000000000000000000000000000000000000000000000000000000169063d23614b1906111a690339060109060040161180a565b602060405180830381865afa1580156111c3573d6000803e3d6000fd5b505050506040513d601f19601f820116820180604052508101906111e791906118e4565b6112265760405162461bcd60e51b815260206004820152601060248201526f4d55535420424520494e20484f55534560801b60448201526064016108a1565b60115460405163b9209e3360e01b81523360048201526001600160a01b039091169063b9209e3390602401602060405180830381865afa15801561126e573d6000803e3d6000fd5b505050506040513d601f19601f8201168201806040525081019061129291906118e4565b6112de5760405162461bcd60e51b815260206004820152601e60248201527f4d5553542048415645205645524946494544204143434553532050415353000060448201526064016108a1565b6000821161131f5760405162461bcd60e51b815260206004820152600e60248201526d043414e4e4f54205354414b4520360941b60448201526064016108a1565b816012600082825461133191906117c3565b909155505033600090815260136020526040812080548492906113559084906117c3565b909155505033600090815260146020526040812054611374908461178a565b905080600e600082825461138891906117c3565b9091555050336000908152600f6020526040812080548392906113ac9084906117c3565b90915550506006546040516323b872dd60e01b8152336004820152306024820152604481018590526001600160a01b03909116906323b872dd906064016020604051808303816000875af1158015611408573d6000803e3d6000fd5b505050506040513d601f19601f8201168201806040525081019061142c91906118e4565b5060405183815233907f9e71bc8eea02a63969f509818f2dafb9254532904319f9dbda79b67bd34a5f3d9060200160405180910390a250506107ba6001600355565b6114766115ca565b60075442116115135760405162461bcd60e51b815260206004820152605860248201527f50726576696f7573207265776172647320706572696f64206d7573742062652060448201527f636f6d706c657465206265666f7265206368616e67696e67207468652064757260648201527f6174696f6e20666f7220746865206e657720706572696f640000000000000000608482015260a4016108a1565b60098190556040518181527ffb46ca5a5e06d4540d6387b930a7c978bce0db5f449ec6b3f5d07c6e1d44f2d390602001610740565b6000600e5460000361155b5750600b5490565b600e54600854600a5461156c610f30565b6115769190611777565b611580919061178a565b61159290670de0b6b3a764000061178a565b61159c91906117a1565b600b546107f991906117c3565b336000908152601360205260409020546115c2906107fe565b610db6610c6d565b6000546001600160a01b03163314610db65760405162461bcd60e51b815260206004820152602f60248201527f4f6e6c792074686520636f6e7472616374206f776e6572206d6179207065726660448201526e37b936903a3434b99030b1ba34b7b760891b60648201526084016108a1565b60026003540361165f57604051633ee5aeb560e01b815260040160405180910390fd5b6002600355565b80356001600160a01b038116811461167d57600080fd5b919050565b60006020828403121561169457600080fd5b61169d82611666565b9392505050565b80151581146107ba57600080fd5b6000602082840312156116c457600080fd5b813561169d816116a4565b6000602082840312156116e157600080fd5b5035919050565b60006020808352835180602085015260005b81811015611716578581018301518582016040015282016116fa565b506000604082860101526040601f19601f8301168501019250505092915050565b6000806040838503121561174a57600080fd5b61175383611666565b946020939093013593505050565b634e487b7160e01b600052601160045260246000fd5b8181038181111561052b5761052b611761565b808202811582820484141761052b5761052b611761565b6000826117be57634e487b7160e01b600052601260045260246000fd5b500490565b8082018082111561052b5761052b611761565b600181811c908216806117ea57607f821691505b6020821081036106e857634e487b7160e01b600052602260045260246000fd5b60018060a01b03831681526000602060406020840152600084548160018260011c9150600183168061183d57607f831692505b60208310810361185b57634e487b7160e01b85526022600452602485fd5b604088018390526060880181801561187a5760018114611890576118bb565b60ff198616825284151560051b820196506118bb565b60008b81526020902060005b868110156118b55781548482015290850190890161189c565b83019750505b50949a9950505050505050505050565b6000602082840312156118dd57600080fd5b5051919050565b6000602082840312156118f657600080fd5b815161169d816116a456fea2646970667358221220a8982f1c321ab8cd787343bcc3ec827cc110d37ae462de7b4dc4dd131e18df2764736f6c63430008180033",
  "linkReferences": {},
  "deployedLinkReferences": {}
}