{
  "_format": "hh-sol-artifact-1",
  "contractName": "SCLock",
  "sourceName": "SuperChamps/contracts/Metagame/SCLock.sol",
  "abi": [
    {
      "inputs": [],
      "stateMutability": "nonpayable",
      "type": "constructor"
    },
    {
      "inputs": [],
      "name": "InvalidInitialization",
      "type": "error"
    },
    {
      "inputs": [],
      "name": "NotInitializing",
      "type": "error"
    },
    {
      "inputs": [
        {
          "internalType": "address",
          "name": "owner",
          "type": "address"
        }
      ],
      "name": "OwnableInvalidOwner",
      "type": "error"
    },
    {
      "inputs": [
        {
          "internalType": "address",
          "name": "account",
          "type": "address"
        }
      ],
      "name": "OwnableUnauthorizedAccount",
      "type": "error"
    },
    {
      "anonymous": false,
      "inputs": [
        {
          "indexed": true,
          "internalType": "address",
          "name": "user",
          "type": "address"
        },
        {
          "indexed": true,
          "internalType": "uint256",
          "name": "lockId",
          "type": "uint256"
        },
        {
          "indexed": false,
          "internalType": "uint256",
          "name": "amount",
          "type": "uint256"
        },
        {
          "indexed": false,
          "internalType": "uint256",
          "name": "claimedAt",
          "type": "uint256"
        }
      ],
      "name": "Claimed",
      "type": "event"
    },
    {
      "anonymous": false,
      "inputs": [
        {
          "indexed": false,
          "internalType": "uint64",
          "name": "version",
          "type": "uint64"
        }
      ],
      "name": "Initialized",
      "type": "event"
    },
    {
      "anonymous": false,
      "inputs": [
        {
          "indexed": true,
          "internalType": "address",
          "name": "user",
          "type": "address"
        },
        {
          "indexed": true,
          "internalType": "uint256",
          "name": "lockId",
          "type": "uint256"
        },
        {
          "indexed": false,
          "internalType": "uint256",
          "name": "newEndTime",
          "type": "uint256"
        }
      ],
      "name": "LockExtended",
      "type": "event"
    },
    {
      "anonymous": false,
      "inputs": [
        {
          "indexed": true,
          "internalType": "address",
          "name": "user",
          "type": "address"
        },
        {
          "indexed": true,
          "internalType": "uint256",
          "name": "lockId",
          "type": "uint256"
        },
        {
          "indexed": false,
          "internalType": "uint256",
          "name": "amount",
          "type": "uint256"
        },
        {
          "indexed": false,
          "internalType": "uint256",
          "name": "startTime",
          "type": "uint256"
        },
        {
          "indexed": false,
          "internalType": "uint256",
          "name": "endTime",
          "type": "uint256"
        }
      ],
      "name": "Locked",
      "type": "event"
    },
    {
      "anonymous": false,
      "inputs": [
        {
          "indexed": true,
          "internalType": "address",
          "name": "previousOwner",
          "type": "address"
        },
        {
          "indexed": true,
          "internalType": "address",
          "name": "newOwner",
          "type": "address"
        }
      ],
      "name": "OwnershipTransferred",
      "type": "event"
    },
    {
      "inputs": [
        {
          "internalType": "uint256",
          "name": "lockId",
          "type": "uint256"
        }
      ],
      "name": "claim",
      "outputs": [],
      "stateMutability": "nonpayable",
      "type": "function"
    },
    {
      "inputs": [
        {
          "internalType": "uint256",
          "name": "lockId",
          "type": "uint256"
        },
        {
          "internalType": "uint256",
          "name": "additionalSecs",
          "type": "uint256"
        }
      ],
      "name": "extendLock",
      "outputs": [],
      "stateMutability": "nonpayable",
      "type": "function"
    },
    {
      "inputs": [
        {
          "internalType": "address",
          "name": "user",
          "type": "address"
        }
      ],
      "name": "getClaimHistory",
      "outputs": [
        {
          "components": [
            {
              "internalType": "uint256",
              "name": "lockId",
              "type": "uint256"
            },
            {
              "internalType": "uint256",
              "name": "amount",
              "type": "uint256"
            },
            {
              "internalType": "uint256",
              "name": "claimedAt",
              "type": "uint256"
            }
          ],
          "internalType": "struct SCLock.ClaimEvent[]",
          "name": "",
          "type": "tuple[]"
        }
      ],
      "stateMutability": "view",
      "type": "function"
    },
    {
      "inputs": [
        {
          "internalType": "address",
          "name": "user",
          "type": "address"
        },
        {
          "internalType": "uint256",
          "name": "offset",
          "type": "uint256"
        },
        {
          "internalType": "uint256",
          "name": "limit",
          "type": "uint256"
        }
      ],
      "name": "getClaimHistoryPaginated",
      "outputs": [
        {
          "components": [
            {
              "internalType": "uint256",
              "name": "lockId",
              "type": "uint256"
            },
            {
              "internalType": "uint256",
              "name": "amount",
              "type": "uint256"
            },
            {
              "internalType": "uint256",
              "name": "claimedAt",
              "type": "uint256"
            }
          ],
          "internalType": "struct SCLock.ClaimEvent[]",
          "name": "",
          "type": "tuple[]"
        }
      ],
      "stateMutability": "view",
      "type": "function"
    },
    {
      "inputs": [
        {
          "internalType": "address",
          "name": "user",
          "type": "address"
        },
        {
          "internalType": "uint256",
          "name": "lockId",
          "type": "uint256"
        }
      ],
      "name": "getClaimable",
      "outputs": [
        {
          "internalType": "uint256",
          "name": "",
          "type": "uint256"
        }
      ],
      "stateMutability": "view",
      "type": "function"
    },
    {
      "inputs": [
        {
          "internalType": "address",
          "name": "user",
          "type": "address"
        }
      ],
      "name": "getLockHistory",
      "outputs": [
        {
          "components": [
            {
              "internalType": "uint256",
              "name": "lockId",
              "type": "uint256"
            },
            {
              "internalType": "uint256",
              "name": "amount",
              "type": "uint256"
            },
            {
              "internalType": "uint256",
              "name": "startTime",
              "type": "uint256"
            },
            {
              "internalType": "uint256",
              "name": "endTime",
              "type": "uint256"
            },
            {
              "internalType": "bool",
              "name": "isClaimed",
              "type": "bool"
            }
          ],
          "internalType": "struct SCLock.LockEvent[]",
          "name": "",
          "type": "tuple[]"
        }
      ],
      "stateMutability": "view",
      "type": "function"
    },
    {
      "inputs": [
        {
          "internalType": "address",
          "name": "user",
          "type": "address"
        },
        {
          "internalType": "uint256",
          "name": "offset",
          "type": "uint256"
        },
        {
          "internalType": "uint256",
          "name": "limit",
          "type": "uint256"
        }
      ],
      "name": "getLockHistoryPaginated",
      "outputs": [
        {
          "components": [
            {
              "internalType": "uint256",
              "name": "lockId",
              "type": "uint256"
            },
            {
              "internalType": "uint256",
              "name": "amount",
              "type": "uint256"
            },
            {
              "internalType": "uint256",
              "name": "startTime",
              "type": "uint256"
            },
            {
              "internalType": "uint256",
              "name": "endTime",
              "type": "uint256"
            },
            {
              "internalType": "bool",
              "name": "isClaimed",
              "type": "bool"
            }
          ],
          "internalType": "struct SCLock.LockEvent[]",
          "name": "",
          "type": "tuple[]"
        }
      ],
      "stateMutability": "view",
      "type": "function"
    },
    {
      "inputs": [
        {
          "internalType": "address",
          "name": "user",
          "type": "address"
        }
      ],
      "name": "hasImportedLocks",
      "outputs": [
        {
          "internalType": "bool",
          "name": "",
          "type": "bool"
        }
      ],
      "stateMutability": "view",
      "type": "function"
    },
    {
      "inputs": [
        {
          "internalType": "address",
          "name": "oldContract",
          "type": "address"
        },
        {
          "internalType": "address[]",
          "name": "users",
          "type": "address[]"
        }
      ],
      "name": "importLocksFromOldContract",
      "outputs": [],
      "stateMutability": "nonpayable",
      "type": "function"
    },
    {
      "inputs": [
        {
          "internalType": "address",
          "name": "_token",
          "type": "address"
        }
      ],
      "name": "initialize",
      "outputs": [],
      "stateMutability": "nonpayable",
      "type": "function"
    },
    {
      "inputs": [
        {
          "internalType": "address",
          "name": "",
          "type": "address"
        }
      ],
      "name": "isLockImported",
      "outputs": [
        {
          "internalType": "bool",
          "name": "",
          "type": "bool"
        }
      ],
      "stateMutability": "view",
      "type": "function"
    },
    {
      "inputs": [
        {
          "internalType": "uint256",
          "name": "amount",
          "type": "uint256"
        },
        {
          "internalType": "uint256",
          "name": "durationInSecs",
          "type": "uint256"
        }
      ],
      "name": "lock",
      "outputs": [],
      "stateMutability": "nonpayable",
      "type": "function"
    },
    {
      "inputs": [],
      "name": "owner",
      "outputs": [
        {
          "internalType": "address",
          "name": "",
          "type": "address"
        }
      ],
      "stateMutability": "view",
      "type": "function"
    },
    {
      "inputs": [],
      "name": "renounceOwnership",
      "outputs": [],
      "stateMutability": "nonpayable",
      "type": "function"
    },
    {
      "inputs": [],
      "name": "token",
      "outputs": [
        {
          "internalType": "contract IERC20",
          "name": "",
          "type": "address"
        }
      ],
      "stateMutability": "view",
      "type": "function"
    },
    {
      "inputs": [
        {
          "internalType": "address",
          "name": "newOwner",
          "type": "address"
        }
      ],
      "name": "transferOwnership",
      "outputs": [],
      "stateMutability": "nonpayable",
      "type": "function"
    }
  ],
  "bytecode": "0x6080604052348015600f57600080fd5b506016601a565b60ca565b7ff0c57e16840df040f15088dc2f81fe391c3923bec73e23a9662efc9c229c6a00805468010000000000000000900460ff161560695760405163f92ee8a960e01b815260040160405180910390fd5b80546001600160401b039081161460c75780546001600160401b0319166001600160401b0390811782556040519081527fc7f505b2f371ae2175ee4913f4499e1f2633a7b5936321eed1cdaeb6115181d29060200160405180910390a15b50565b611797806100d96000396000f3fe608060405234801561001057600080fd5b50600436106101005760003560e01c8063a95f4bc111610097578063e1370d4811610066578063e1370d4814610277578063f08aae0d1461028a578063f2fde38b1461029d578063fc0c546a146102b057600080fd5b8063a95f4bc114610205578063bcbf116814610218578063c4d66de814610238578063d187a2f91461024b57600080fd5b80636f5244b1116100d35780636f5244b114610178578063715018a614610199578063874b0f7f146101a15780638da5cb5b146101c157600080fd5b8063070d66bf146101055780630daeaa851461011a5780631338736f14610152578063379607f514610165575b600080fd5b610118610113366004611357565b6102c3565b005b61013d610128366004611395565b60036020526000908152604090205460ff1681565b60405190151581526020015b60405180910390f35b610118610160366004611357565b61043d565b6101186101733660046113b0565b610658565b61018b6101863660046113c9565b6108d0565b604051908152602001610149565b610118610969565b6101b46101af3660046113f3565b61097d565b6040516101499190611426565b7f9016d09d72d40fdae2fd8ceac6b6234c7706214fd39c1cd1e609a0528c199300546001600160a01b03165b6040516001600160a01b039091168152602001610149565b6101b4610213366004611395565b610b1f565b61022b610226366004611395565b610bb2565b6040516101499190611485565b610118610246366004611395565b610c4d565b61013d610259366004611395565b6001600160a01b031660009081526003602052604090205460ff1690565b6101186102853660046114ef565b610db2565b61022b6102983660046113f3565b611002565b6101186102ab366004611395565b6111cc565b6000546101ed906001600160a01b031681565b3360009081526001602052604090205482106103185760405162461bcd60e51b815260206004820152600f60248201526e125b9d985b1a59081b1bd8dac81251608a1b60448201526064015b60405180910390fd5b600081116103685760405162461bcd60e51b815260206004820181905260248201527f4d75737420657874656e64206279206174206c656173742031207365636f6e64604482015260640161030f565b33600090815260016020526040812080548490811061038957610389611577565b60009182526020909120600590910201600481015490915060ff16156103e35760405162461bcd60e51b815260206004820152600f60248201526e105b1c9958591e4818db185a5b5959608a1b604482015260640161030f565b818160030160008282546103f791906115a3565b90915550506003810154604051908152839033907f050932e79e5bc73d7c0e6856f9b80ae760803919f72fdb530c47608b3c2ffbd89060200160405180910390a3505050565b600082116104825760405162461bcd60e51b81526020600482015260126024820152710416d6f756e74206d757374206265203e20360741b604482015260640161030f565b600081116104c95760405162461bcd60e51b815260206004820152601460248201527304475726174696f6e206d757374206265203e20360641b604482015260640161030f565b4260006104d683836115a3565b6000546040516323b872dd60e01b8152336004820152306024820152604481018790529192506001600160a01b0316906323b872dd906064016020604051808303816000875af115801561052e573d6000803e3d6000fd5b505050506040513d601f19601f8201168201806040525081019061055291906115c6565b6105905760405162461bcd60e51b815260206004820152600f60248201526e151c985b9cd9995c8819985a5b1959608a1b604482015260640161030f565b3360008181526001602081815260408084208054825160a0810184528181528085018c81528185018b815260608084018c8152608085018b8152868b018855968b5299889020935160058602909401938455915197830197909755955160028201559551600387015590516004909501805460ff191695151595909517909455805189815291820187905281018590529192839290917fc1126f780558d178a12a5cf08c087496f33400d9b431b6530eb0001f3c34fa99910160405180910390a35050505050565b3360009081526001602052604090205481106106a85760405162461bcd60e51b815260206004820152600f60248201526e125b9d985b1a59081b1bd8dac81251608a1b604482015260640161030f565b3360009081526001602052604081208054839081106106c9576106c9611577565b60009182526020909120600590910201600481015490915060ff16156107235760405162461bcd60e51b815260206004820152600f60248201526e105b1c9958591e4818db185a5b5959608a1b604482015260640161030f565b806003015442101561076d5760405162461bcd60e51b8152602060048201526013602482015272151bdad95b9cc81cdd1a5b1b081b1bd8dad959606a1b604482015260640161030f565b6004818101805460ff191660019081179091556000549083015460405163a9059cbb60e01b8152339381019390935260248301526001600160a01b03169063a9059cbb906044016020604051808303816000875af11580156107d3573d6000803e3d6000fd5b505050506040513d601f19601f820116820180604052508101906107f791906115c6565b6108355760405162461bcd60e51b815260206004820152600f60248201526e151c985b9cd9995c8819985a5b1959608a1b604482015260640161030f565b3360008181526002602081815260408084208151606081018352888152600188810180548387019081524284870181815286548086018855968b52998890209451600390960290940194855551918401919091559551919094015592548351908152908101919091528492917f9cdcf2f7714cca3508c7f0110b04a90a80a3a8dd0e35de99689db74d28c5383e910160405180910390a35050565b6001600160a01b03821660009081526001602052604081205482106108f757506000610963565b6001600160a01b038316600090815260016020526040812080548490811061092157610921611577565b60009182526020909120600590910201600481015490915060ff1615801561094d575080600301544210155b1561095d57600101549050610963565b60009150505b92915050565b61097161120a565b61097b6000611265565b565b6001600160a01b03831660009081526002602052604090208054606091908085106109f95760408051600080825260208201909252906109ef565b6109dc60405180606001604052806000815260200160008152602001600081525090565b8152602001906001900390816109b85790505b5092505050610b18565b6000610a0585876115a3565b905081811115610a125750805b6000610a1e87836115f7565b67ffffffffffffffff811115610a3657610a366115e1565b604051908082528060200260200182016040528015610a8b57816020015b610a7860405180606001604052806000815260200160008152602001600081525090565b815260200190600190039081610a545790505b509050865b82811015610b1157848181548110610aaa57610aaa611577565b90600052602060002090600302016040518060600160405290816000820154815260200160018201548152602001600282015481525050828983610aee91906115f7565b81518110610afe57610afe611577565b6020908102919091010152600101610a90565b5093505050505b9392505050565b6001600160a01b0381166000908152600260209081526040808320805482518185028101850190935280835260609492939192909184015b82821015610ba75783829060005260206000209060030201604051806060016040529081600082015481526020016001820154815260200160028201548152505081526020019060010190610b57565b505050509050919050565b6001600160a01b0381166000908152600160209081526040808320805482518185028101850190935280835260609492939192909184015b82821015610ba75760008481526020908190206040805160a081018252600586029092018054835260018082015484860152600282015492840192909252600381015460608401526004015460ff16151560808301529083529092019101610bea565b6000610c576112d6565b805490915060ff600160401b820416159067ffffffffffffffff16600081158015610c7f5750825b905060008267ffffffffffffffff166001148015610c9c5750303b155b905081158015610caa575080155b15610cc85760405163f92ee8a960e01b815260040160405180910390fd5b845467ffffffffffffffff191660011785558315610cf257845460ff60401b1916600160401b1785555b6001600160a01b038616610d405760405162461bcd60e51b8152602060048201526015602482015274546f6b656e2061646472657373206973207a65726f60581b604482015260640161030f565b600080546001600160a01b0319166001600160a01b038816179055610d64336112ff565b8315610daa57845460ff60401b19168555604051600181527fc7f505b2f371ae2175ee4913f4499e1f2633a7b5936321eed1cdaeb6115181d29060200160405180910390a15b505050505050565b610dba61120a565b60005b81811015610ffc576000838383818110610dd957610dd9611577565b9050602002016020810190610dee9190611395565b6001600160a01b03811660009081526003602052604090205490915060ff1615610e185750610ff4565b604051631797e22d60e31b81526001600160a01b0382811660048301526000919087169063bcbf116890602401600060405180830381865afa158015610e62573d6000803e3d6000fd5b505050506040513d6000823e601f3d908101601f19168201604052610e8a9190810190611664565b905060005b8151811015610fcf576000828281518110610eac57610eac611577565b6020908102919091018101516001600160a01b038616600081815260018085526040808320815160a081018352815480825287890151828a01908152848901519483019485526060808a01519084019081526080808b0151151590850190815283880186558589528b8920945160059094029094019283559051828701559351600282015592516003840155516004909201805460ff191692151592909217909155929091529283905254909250610f6491906115f7565b846001600160a01b03167fc1126f780558d178a12a5cf08c087496f33400d9b431b6530eb0001f3c34fa99836020015184604001518560600151604051610fbe939291909283526020830191909152604082015260600190565b60405180910390a350600101610e8f565b50506001600160a01b03166000908152600360205260409020805460ff191660011790555b600101610dbd565b50505050565b6001600160a01b038316600090815260016020526040902080546060919080851061108d5760408051600080825260208201909252906109ef565b6110716040518060a00160405280600081526020016000815260200160008152602001600081526020016000151581525090565b81526020019060019003908161103d5790505092505050610b18565b600061109985876115a3565b9050818111156110a65750805b60006110b287836115f7565b67ffffffffffffffff8111156110ca576110ca6115e1565b60405190808252806020026020018201604052801561112f57816020015b61111c6040518060a00160405280600081526020016000815260200160008152602001600081526020016000151581525090565b8152602001906001900390816110e85790505b509050865b82811015610b115784818154811061114e5761114e611577565b60009182526020918290206040805160a0810182526005909302909101805483526001810154938301939093526002830154908201526003820154606082015260049091015460ff1615156080820152826111a98a846115f7565b815181106111b9576111b9611577565b6020908102919091010152600101611134565b6111d461120a565b6001600160a01b0381166111fe57604051631e4fbdf760e01b81526000600482015260240161030f565b61120781611265565b50565b3361123c7f9016d09d72d40fdae2fd8ceac6b6234c7706214fd39c1cd1e609a0528c199300546001600160a01b031690565b6001600160a01b03161461097b5760405163118cdaa760e01b815233600482015260240161030f565b7f9016d09d72d40fdae2fd8ceac6b6234c7706214fd39c1cd1e609a0528c19930080546001600160a01b031981166001600160a01b03848116918217845560405192169182907f8be0079c531659141344cd1fd0a4f28419497f9722a3daafe3b4186f6b6457e090600090a3505050565b6000807ff0c57e16840df040f15088dc2f81fe391c3923bec73e23a9662efc9c229c6a00610963565b611307611310565b61120781611335565b61131861133d565b61097b57604051631afcd79f60e31b815260040160405180910390fd5b6111d4611310565b60006113476112d6565b54600160401b900460ff16919050565b6000806040838503121561136a57600080fd5b50508035926020909101359150565b80356001600160a01b038116811461139057600080fd5b919050565b6000602082840312156113a757600080fd5b610b1882611379565b6000602082840312156113c257600080fd5b5035919050565b600080604083850312156113dc57600080fd5b6113e583611379565b946020939093013593505050565b60008060006060848603121561140857600080fd5b61141184611379565b95602085013595506040909401359392505050565b602080825282518282018190526000918401906040840190835b8181101561147a57835180518452602081015160208501526040810151604085015250606083019250602084019350600181019050611440565b509095945050505050565b602080825282518282018190526000918401906040840190835b8181101561147a578351805184526020810151602085015260408101516040850152606081015160608501526080810151151560808501525060a08301925060208401935060018101905061149f565b60008060006040848603121561150457600080fd5b61150d84611379565b9250602084013567ffffffffffffffff81111561152957600080fd5b8401601f8101861361153a57600080fd5b803567ffffffffffffffff81111561155157600080fd5b8660208260051b840101111561156657600080fd5b939660209190910195509293505050565b634e487b7160e01b600052603260045260246000fd5b634e487b7160e01b600052601160045260246000fd5b808201808211156109635761096361158d565b8051801515811461139057600080fd5b6000602082840312156115d857600080fd5b610b18826115b6565b634e487b7160e01b600052604160045260246000fd5b818103818111156109635761096361158d565b60405160a0810167ffffffffffffffff8111828210171561162d5761162d6115e1565b60405290565b604051601f8201601f1916810167ffffffffffffffff8111828210171561165c5761165c6115e1565b604052919050565b60006020828403121561167657600080fd5b815167ffffffffffffffff81111561168d57600080fd5b8201601f8101841361169e57600080fd5b805167ffffffffffffffff8111156116b8576116b86115e1565b6116c760208260051b01611633565b80828252602082019150602060a084028501019250868311156116e957600080fd5b6020840193505b828410156117575760a0848803121561170857600080fd5b61171061160a565b8451815260208086015190820152604080860151908201526060808601519082015261173e608086016115b6565b6080820152825260a093909301926020909101906116f0565b969550505050505056fea2646970667358221220a4de63e2ee5f45d557b891fa0135475729688a892a825d1bf571d56f72fca5ea64736f6c634300081e0033",
  "linkReferences": {},
  "deployedLinkReferences": {}
}