{
  "_format": "hh-sol-artifact-1",
  "contractName": "SCLock",
  "sourceName": "SuperChamps/contracts/Metagame/SCLock.sol",
  "abi": [
    {
      "inputs": [],
      "stateMutability": "nonpayable",
      "type": "constructor"
    },
    {
      "inputs": [],
      "name": "InvalidInitialization",
      "type": "error"
    },
    {
      "inputs": [],
      "name": "NotInitializing",
      "type": "error"
    },
    {
      "inputs": [
        {
          "internalType": "address",
          "name": "owner",
          "type": "address"
        }
      ],
      "name": "OwnableInvalidOwner",
      "type": "error"
    },
    {
      "inputs": [
        {
          "internalType": "address",
          "name": "account",
          "type": "address"
        }
      ],
      "name": "OwnableUnauthorizedAccount",
      "type": "error"
    },
    {
      "anonymous": false,
      "inputs": [
        {
          "indexed": true,
          "internalType": "address",
          "name": "user",
          "type": "address"
        },
        {
          "indexed": true,
          "internalType": "uint256",
          "name": "lockId",
          "type": "uint256"
        },
        {
          "indexed": false,
          "internalType": "uint256",
          "name": "amount",
          "type": "uint256"
        },
        {
          "indexed": false,
          "internalType": "uint256",
          "name": "claimedAt",
          "type": "uint256"
        }
      ],
      "name": "Claimed",
      "type": "event"
    },
    {
      "anonymous": false,
      "inputs": [
        {
          "indexed": false,
          "internalType": "uint64",
          "name": "version",
          "type": "uint64"
        }
      ],
      "name": "Initialized",
      "type": "event"
    },
    {
      "anonymous": false,
      "inputs": [
        {
          "indexed": true,
          "internalType": "address",
          "name": "user",
          "type": "address"
        },
        {
          "indexed": true,
          "internalType": "uint256",
          "name": "lockId",
          "type": "uint256"
        },
        {
          "indexed": false,
          "internalType": "uint256",
          "name": "newEndTime",
          "type": "uint256"
        }
      ],
      "name": "LockExtended",
      "type": "event"
    },
    {
      "anonymous": false,
      "inputs": [
        {
          "indexed": true,
          "internalType": "address",
          "name": "user",
          "type": "address"
        },
        {
          "indexed": true,
          "internalType": "uint256",
          "name": "lockId",
          "type": "uint256"
        },
        {
          "indexed": false,
          "internalType": "uint256",
          "name": "amount",
          "type": "uint256"
        },
        {
          "indexed": false,
          "internalType": "uint256",
          "name": "startTime",
          "type": "uint256"
        },
        {
          "indexed": false,
          "internalType": "uint256",
          "name": "endTime",
          "type": "uint256"
        }
      ],
      "name": "Locked",
      "type": "event"
    },
    {
      "anonymous": false,
      "inputs": [
        {
          "indexed": true,
          "internalType": "address",
          "name": "previousOwner",
          "type": "address"
        },
        {
          "indexed": true,
          "internalType": "address",
          "name": "newOwner",
          "type": "address"
        }
      ],
      "name": "OwnershipTransferred",
      "type": "event"
    },
    {
      "inputs": [
        {
          "internalType": "uint256",
          "name": "lockId",
          "type": "uint256"
        }
      ],
      "name": "claim",
      "outputs": [],
      "stateMutability": "nonpayable",
      "type": "function"
    },
    {
      "inputs": [
        {
          "internalType": "uint256",
          "name": "lockId",
          "type": "uint256"
        },
        {
          "internalType": "uint256",
          "name": "additionalSecs",
          "type": "uint256"
        }
      ],
      "name": "extendLock",
      "outputs": [],
      "stateMutability": "nonpayable",
      "type": "function"
    },
    {
      "inputs": [
        {
          "internalType": "address",
          "name": "user",
          "type": "address"
        }
      ],
      "name": "getClaimHistory",
      "outputs": [
        {
          "components": [
            {
              "internalType": "uint256",
              "name": "lockId",
              "type": "uint256"
            },
            {
              "internalType": "uint256",
              "name": "amount",
              "type": "uint256"
            },
            {
              "internalType": "uint256",
              "name": "claimedAt",
              "type": "uint256"
            }
          ],
          "internalType": "struct SCLock.ClaimEvent[]",
          "name": "",
          "type": "tuple[]"
        }
      ],
      "stateMutability": "view",
      "type": "function"
    },
    {
      "inputs": [
        {
          "internalType": "address",
          "name": "user",
          "type": "address"
        },
        {
          "internalType": "uint256",
          "name": "offset",
          "type": "uint256"
        },
        {
          "internalType": "uint256",
          "name": "limit",
          "type": "uint256"
        }
      ],
      "name": "getClaimHistoryPaginated",
      "outputs": [
        {
          "components": [
            {
              "internalType": "uint256",
              "name": "lockId",
              "type": "uint256"
            },
            {
              "internalType": "uint256",
              "name": "amount",
              "type": "uint256"
            },
            {
              "internalType": "uint256",
              "name": "claimedAt",
              "type": "uint256"
            }
          ],
          "internalType": "struct SCLock.ClaimEvent[]",
          "name": "",
          "type": "tuple[]"
        }
      ],
      "stateMutability": "view",
      "type": "function"
    },
    {
      "inputs": [
        {
          "internalType": "address",
          "name": "user",
          "type": "address"
        },
        {
          "internalType": "uint256",
          "name": "lockId",
          "type": "uint256"
        }
      ],
      "name": "getClaimable",
      "outputs": [
        {
          "internalType": "uint256",
          "name": "",
          "type": "uint256"
        }
      ],
      "stateMutability": "view",
      "type": "function"
    },
    {
      "inputs": [
        {
          "internalType": "address",
          "name": "user",
          "type": "address"
        }
      ],
      "name": "getLockHistory",
      "outputs": [
        {
          "components": [
            {
              "internalType": "uint256",
              "name": "lockId",
              "type": "uint256"
            },
            {
              "internalType": "uint256",
              "name": "amount",
              "type": "uint256"
            },
            {
              "internalType": "uint256",
              "name": "startTime",
              "type": "uint256"
            },
            {
              "internalType": "uint256",
              "name": "endTime",
              "type": "uint256"
            },
            {
              "internalType": "bool",
              "name": "isClaimed",
              "type": "bool"
            }
          ],
          "internalType": "struct SCLock.LockEvent[]",
          "name": "",
          "type": "tuple[]"
        }
      ],
      "stateMutability": "view",
      "type": "function"
    },
    {
      "inputs": [
        {
          "internalType": "address",
          "name": "user",
          "type": "address"
        },
        {
          "internalType": "uint256",
          "name": "offset",
          "type": "uint256"
        },
        {
          "internalType": "uint256",
          "name": "limit",
          "type": "uint256"
        }
      ],
      "name": "getLockHistoryPaginated",
      "outputs": [
        {
          "components": [
            {
              "internalType": "uint256",
              "name": "lockId",
              "type": "uint256"
            },
            {
              "internalType": "uint256",
              "name": "amount",
              "type": "uint256"
            },
            {
              "internalType": "uint256",
              "name": "startTime",
              "type": "uint256"
            },
            {
              "internalType": "uint256",
              "name": "endTime",
              "type": "uint256"
            },
            {
              "internalType": "bool",
              "name": "isClaimed",
              "type": "bool"
            }
          ],
          "internalType": "struct SCLock.LockEvent[]",
          "name": "",
          "type": "tuple[]"
        }
      ],
      "stateMutability": "view",
      "type": "function"
    },
    {
      "inputs": [
        {
          "internalType": "address",
          "name": "_token",
          "type": "address"
        }
      ],
      "name": "initialize",
      "outputs": [],
      "stateMutability": "nonpayable",
      "type": "function"
    },
    {
      "inputs": [
        {
          "internalType": "uint256",
          "name": "amount",
          "type": "uint256"
        },
        {
          "internalType": "uint256",
          "name": "durationInSecs",
          "type": "uint256"
        }
      ],
      "name": "lock",
      "outputs": [],
      "stateMutability": "nonpayable",
      "type": "function"
    },
    {
      "inputs": [],
      "name": "owner",
      "outputs": [
        {
          "internalType": "address",
          "name": "",
          "type": "address"
        }
      ],
      "stateMutability": "view",
      "type": "function"
    },
    {
      "inputs": [],
      "name": "renounceOwnership",
      "outputs": [],
      "stateMutability": "nonpayable",
      "type": "function"
    },
    {
      "inputs": [],
      "name": "token",
      "outputs": [
        {
          "internalType": "contract IERC20",
          "name": "",
          "type": "address"
        }
      ],
      "stateMutability": "view",
      "type": "function"
    },
    {
      "inputs": [
        {
          "internalType": "address",
          "name": "newOwner",
          "type": "address"
        }
      ],
      "name": "transferOwnership",
      "outputs": [],
      "stateMutability": "nonpayable",
      "type": "function"
    }
  ],
  "bytecode": "0x6080604052348015600f57600080fd5b506016601a565b60ca565b7ff0c57e16840df040f15088dc2f81fe391c3923bec73e23a9662efc9c229c6a00805468010000000000000000900460ff161560695760405163f92ee8a960e01b815260040160405180910390fd5b80546001600160401b039081161460c75780546001600160401b0319166001600160401b0390811782556040519081527fc7f505b2f371ae2175ee4913f4499e1f2633a7b5936321eed1cdaeb6115181d29060200160405180910390a15b50565b6112c6806100d96000396000f3fe608060405234801561001057600080fd5b50600436106100cf5760003560e01c80638da5cb5b1161008c578063c4d66de811610066578063c4d66de8146101d4578063f08aae0d146101e7578063f2fde38b146101fa578063fc0c546a1461020d57600080fd5b80638da5cb5b1461015d578063a95f4bc1146101a1578063bcbf1168146101b457600080fd5b8063070d66bf146100d45780631338736f146100e9578063379607f5146100fc5780636f5244b11461010f578063715018a614610135578063874b0f7f1461013d575b600080fd5b6100e76100e236600461106e565b610220565b005b6100e76100f736600461106e565b61039b565b6100e761010a366004611090565b6105bf565b61012261011d3660046110c5565b610837565b6040519081526020015b60405180910390f35b6100e76108d0565b61015061014b3660046110ef565b6108e4565b60405161012c9190611122565b7f9016d09d72d40fdae2fd8ceac6b6234c7706214fd39c1cd1e609a0528c199300546001600160a01b03165b6040516001600160a01b03909116815260200161012c565b6101506101af366004611181565b610a86565b6101c76101c2366004611181565b610b19565b60405161012c919061119c565b6100e76101e2366004611181565b610bb4565b6101c76101f53660046110ef565b610d19565b6100e7610208366004611181565b610ee3565b600054610189906001600160a01b031681565b3360009081526001602052604090205482106102755760405162461bcd60e51b815260206004820152600f60248201526e125b9d985b1a59081b1bd8dac81251608a1b60448201526064015b60405180910390fd5b600081116102c55760405162461bcd60e51b815260206004820181905260248201527f4d75737420657874656e64206279206174206c656173742031207365636f6e64604482015260640161026c565b3360009081526001602052604081208054849081106102e6576102e6611206565b60009182526020909120600590910201600481015490915060ff16156103405760405162461bcd60e51b815260206004820152600f60248201526e105b1c9958591e4818db185a5b5959608a1b604482015260640161026c565b818160030160008282546103549190611232565b90915550506003810154604051908152839033907f050932e79e5bc73d7c0e6856f9b80ae760803919f72fdb530c47608b3c2ffbd8906020015b60405180910390a3505050565b600082116103e05760405162461bcd60e51b81526020600482015260126024820152710416d6f756e74206d757374206265203e20360741b604482015260640161026c565b600081116104275760405162461bcd60e51b815260206004820152601460248201527304475726174696f6e206d757374206265203e20360641b604482015260640161026c565b4260006104348383611232565b600080546040516323b872dd60e01b81523360048201523060248201526044810188905292935090916001600160a01b03909116906323b872dd906064016020604051808303816000875af1158015610491573d6000803e3d6000fd5b505050506040513d601f19601f820116820180604052508101906104b59190611245565b9050806104f65760405162461bcd60e51b815260206004820152600f60248201526e151c985b9cd9995c8819985a5b1959608a1b604482015260640161026c565b3360008181526001602081815260408084208054825160a0810184528181528085018d81528185018c815260608084018d8152608085018b8152868b018855968b5299889020935160058602909401938455915197830197909755955160028201559551600387015590516004909501805460ff19169515159590951790945580518a815291820188905281018690529192839290917fc1126f780558d178a12a5cf08c087496f33400d9b431b6530eb0001f3c34fa99910160405180910390a3505050505050565b33600090815260016020526040902054811061060f5760405162461bcd60e51b815260206004820152600f60248201526e125b9d985b1a59081b1bd8dac81251608a1b604482015260640161026c565b33600090815260016020526040812080548390811061063057610630611206565b60009182526020909120600590910201600481015490915060ff161561068a5760405162461bcd60e51b815260206004820152600f60248201526e105b1c9958591e4818db185a5b5959608a1b604482015260640161026c565b80600301544210156106d45760405162461bcd60e51b8152602060048201526013602482015272151bdad95b9cc81cdd1a5b1b081b1bd8dad959606a1b604482015260640161026c565b6004818101805460ff19166001908117909155600080549184015460405163a9059cbb60e01b815233948101949094526024840152916001600160a01b039091169063a9059cbb906044016020604051808303816000875af115801561073e573d6000803e3d6000fd5b505050506040513d601f19601f820116820180604052508101906107629190611245565b9050806107a35760405162461bcd60e51b815260206004820152600f60248201526e151c985b9cd9995c8819985a5b1959608a1b604482015260640161026c565b3360008181526002602081815260408084208151606081018352898152600189810180548387019081524284870181815286548086018855968b52998890209451600390960290940194855551918401919091559551919094015592548351908152908101919091528592917f9cdcf2f7714cca3508c7f0110b04a90a80a3a8dd0e35de99689db74d28c5383e910161038e565b6001600160a01b038216600090815260016020526040812054821061085e575060006108ca565b6001600160a01b038316600090815260016020526040812080548490811061088857610888611206565b60009182526020909120600590910201600481015490915060ff161580156108b4575080600301544210155b156108c4576001015490506108ca565b60009150505b92915050565b6108d8610f21565b6108e26000610f7c565b565b6001600160a01b0383166000908152600260205260409020805460609190808510610960576040805160008082526020820190925290610956565b61094360405180606001604052806000815260200160008152602001600081525090565b81526020019060019003908161091f5790505b5092505050610a7f565b600061096c8587611232565b9050818111156109795750805b6000610985878361127d565b67ffffffffffffffff81111561099d5761099d611267565b6040519080825280602002602001820160405280156109f257816020015b6109df60405180606001604052806000815260200160008152602001600081525090565b8152602001906001900390816109bb5790505b509050865b82811015610a7857848181548110610a1157610a11611206565b90600052602060002090600302016040518060600160405290816000820154815260200160018201548152602001600282015481525050828983610a55919061127d565b81518110610a6557610a65611206565b60209081029190910101526001016109f7565b5093505050505b9392505050565b6001600160a01b0381166000908152600260209081526040808320805482518185028101850190935280835260609492939192909184015b82821015610b0e5783829060005260206000209060030201604051806060016040529081600082015481526020016001820154815260200160028201548152505081526020019060010190610abe565b505050509050919050565b6001600160a01b0381166000908152600160209081526040808320805482518185028101850190935280835260609492939192909184015b82821015610b0e5760008481526020908190206040805160a081018252600586029092018054835260018082015484860152600282015492840192909252600381015460608401526004015460ff16151560808301529083529092019101610b51565b6000610bbe610fed565b805490915060ff600160401b820416159067ffffffffffffffff16600081158015610be65750825b905060008267ffffffffffffffff166001148015610c035750303b155b905081158015610c11575080155b15610c2f5760405163f92ee8a960e01b815260040160405180910390fd5b845467ffffffffffffffff191660011785558315610c5957845460ff60401b1916600160401b1785555b6001600160a01b038616610ca75760405162461bcd60e51b8152602060048201526015602482015274546f6b656e2061646472657373206973207a65726f60581b604482015260640161026c565b600080546001600160a01b0319166001600160a01b038816179055610ccb33611016565b8315610d1157845460ff60401b19168555604051600181527fc7f505b2f371ae2175ee4913f4499e1f2633a7b5936321eed1cdaeb6115181d29060200160405180910390a15b505050505050565b6001600160a01b0383166000908152600160205260409020805460609190808510610da4576040805160008082526020820190925290610956565b610d886040518060a00160405280600081526020016000815260200160008152602001600081526020016000151581525090565b815260200190600190039081610d545790505092505050610a7f565b6000610db08587611232565b905081811115610dbd5750805b6000610dc9878361127d565b67ffffffffffffffff811115610de157610de1611267565b604051908082528060200260200182016040528015610e4657816020015b610e336040518060a00160405280600081526020016000815260200160008152602001600081526020016000151581525090565b815260200190600190039081610dff5790505b509050865b82811015610a7857848181548110610e6557610e65611206565b60009182526020918290206040805160a0810182526005909302909101805483526001810154938301939093526002830154908201526003820154606082015260049091015460ff161515608082015282610ec08a8461127d565b81518110610ed057610ed0611206565b6020908102919091010152600101610e4b565b610eeb610f21565b6001600160a01b038116610f1557604051631e4fbdf760e01b81526000600482015260240161026c565b610f1e81610f7c565b50565b33610f537f9016d09d72d40fdae2fd8ceac6b6234c7706214fd39c1cd1e609a0528c199300546001600160a01b031690565b6001600160a01b0316146108e25760405163118cdaa760e01b815233600482015260240161026c565b7f9016d09d72d40fdae2fd8ceac6b6234c7706214fd39c1cd1e609a0528c19930080546001600160a01b031981166001600160a01b03848116918217845560405192169182907f8be0079c531659141344cd1fd0a4f28419497f9722a3daafe3b4186f6b6457e090600090a3505050565b6000807ff0c57e16840df040f15088dc2f81fe391c3923bec73e23a9662efc9c229c6a006108ca565b61101e611027565b610f1e8161104c565b61102f611054565b6108e257604051631afcd79f60e31b815260040160405180910390fd5b610eeb611027565b600061105e610fed565b54600160401b900460ff16919050565b6000806040838503121561108157600080fd5b50508035926020909101359150565b6000602082840312156110a257600080fd5b5035919050565b80356001600160a01b03811681146110c057600080fd5b919050565b600080604083850312156110d857600080fd5b6110e1836110a9565b946020939093013593505050565b60008060006060848603121561110457600080fd5b61110d846110a9565b95602085013595506040909401359392505050565b602080825282518282018190526000918401906040840190835b818110156111765783518051845260208101516020850152604081015160408501525060608301925060208401935060018101905061113c565b509095945050505050565b60006020828403121561119357600080fd5b610a7f826110a9565b602080825282518282018190526000918401906040840190835b81811015611176578351805184526020810151602085015260408101516040850152606081015160608501526080810151151560808501525060a0830192506020840193506001810190506111b6565b634e487b7160e01b600052603260045260246000fd5b634e487b7160e01b600052601160045260246000fd5b808201808211156108ca576108ca61121c565b60006020828403121561125757600080fd5b81518015158114610a7f57600080fd5b634e487b7160e01b600052604160045260246000fd5b818103818111156108ca576108ca61121c56fea2646970667358221220c9b1ebf13ba690c5555b9413d253f2c54945f1aa0411b5ed041ee46b015c648f64736f6c634300081e0033",
  "linkReferences": {},
  "deployedLinkReferences": {}
}