{
  "_format": "hh-sol-artifact-1",
  "contractName": "SCDeploymentHelper",
  "sourceName": "SuperChamps/contracts/Utils/SCDeploymentHelper.sol",
  "abi": [
    {
      "inputs": [],
      "stateMutability": "nonpayable",
      "type": "constructor"
    },
    {
      "inputs": [],
      "name": "getERC20Address",
      "outputs": [
        {
          "internalType": "address",
          "name": "_result",
          "type": "address"
        }
      ],
      "stateMutability": "view",
      "type": "function"
    },
    {
      "inputs": [],
      "name": "getPermissionManagerAddress",
      "outputs": [
        {
          "internalType": "address",
          "name": "_result",
          "type": "address"
        }
      ],
      "stateMutability": "view",
      "type": "function"
    },
    {
      "inputs": [
        {
          "internalType": "address",
          "name": "treasury_",
          "type": "address"
        },
        {
          "internalType": "uint256",
          "name": "allocation_",
          "type": "uint256"
        },
        {
          "internalType": "uint256",
          "name": "start_time_",
          "type": "uint256"
        }
      ],
      "name": "initializeEmmissions",
      "outputs": [
        {
          "internalType": "address",
          "name": "",
          "type": "address"
        }
      ],
      "stateMutability": "nonpayable",
      "type": "function"
    },
    {
      "inputs": [],
      "name": "permissions",
      "outputs": [
        {
          "internalType": "contract IPermissionsManager",
          "name": "",
          "type": "address"
        }
      ],
      "stateMutability": "view",
      "type": "function"
    },
    {
      "inputs": [
        {
          "internalType": "address",
          "name": "tokenAddress_",
          "type": "address"
        },
        {
          "internalType": "uint256",
          "name": "tokenAmount_",
          "type": "uint256"
        }
      ],
      "name": "recoverERC20",
      "outputs": [],
      "stateMutability": "nonpayable",
      "type": "function"
    },
    {
      "inputs": [],
      "name": "token",
      "outputs": [
        {
          "internalType": "contract SuperChampsToken",
          "name": "",
          "type": "address"
        }
      ],
      "stateMutability": "view",
      "type": "function"
    }
  ],
  "bytecode": "0x60a060405234801561001057600080fd5b5060405161001d90610644565b604051809103906000f080158015610039573d6000803e3d6000fd5b506001600160a01b031660805260408051600280825260608201835260009260208301908036833750506040805160028082526060820183529394506000939092509060208301908036833701905050905073a8cac43b28a7e5f0ee797741195a920e88b8e7eb826000815181106100b3576100b361065e565b60200260200101906001600160a01b031690816001600160a01b03168152505073e11ba2b4d45eaed5996cd0823791e0c93114882d826001815181106100fb576100fb61065e565b60200260200101906001600160a01b031690816001600160a01b0316815250506b0108b2a2c2802909400000008160008151811061013b5761013b61065e565b6020026020010181815250506b02327b99dd505733a8000000816001815181106101675761016761065e565b6020026020010181815250506b033b2e3c9fd0803ce800000060805160405161018f90610651565b6080808252600c908201526b5375706572204368616d707360a01b60a082015260c0602082018190526005908201526404348414d560dc1b60e082015260408101929092526001600160a01b0316606082015261010001604051809103906000f080158015610202573d6000803e3d6000fd5b50600080546001600160a01b0319166001600160a01b03928316179055608051604051630414892760e51b815291169063829124e09061025d9060039073a8cac43b28a7e5f0ee797741195a920e88b8e7eb90600401610674565b600060405180830381600087803b15801561027757600080fd5b505af115801561028b573d6000803e3d6000fd5b5050608051600054604051630414892760e51b81526001600160a01b03928316945063829124e093506102c5926003921690600401610674565b600060405180830381600087803b1580156102df57600080fd5b505af11580156102f3573d6000803e3d6000fd5b505050506080516001600160a01b031663829124e0600173e11ba2b4d45eaed5996cd0823791e0c93114882d6040518363ffffffff1660e01b815260040161033c929190610674565b600060405180830381600087803b15801561035657600080fd5b505af115801561036a573d6000803e3d6000fd5b50506000546040516311a48ab960e31b81526001600160a01b039091169250638d2455c891506103a090859085906004016106ae565b600060405180830381600087803b1580156103ba57600080fd5b505af11580156103ce573d6000803e3d6000fd5b505050506b033b2e3c9fd0803ce800000060008054906101000a90046001600160a01b03166001600160a01b03166318160ddd6040518163ffffffff1660e01b8152600401602060405180830381865afa158015610430573d6000803e3d6000fd5b505050506040513d601f19601f820116820180604052508101906104549190610739565b146104985760405162461bcd60e51b815260206004820152600f60248201526e0a6aaa0a098b2409a92a69a82a8869608b1b60448201526064015b60405180910390fd5b6000546040516370a0823160e01b815273a8cac43b28a7e5f0ee797741195a920e88b8e7eb60048201526b0108b2a2c280290940000000916001600160a01b0316906370a0823190602401602060405180830381865afa158015610500573d6000803e3d6000fd5b505050506040513d601f19601f820116820180604052508101906105249190610739565b146105645760405162461bcd60e51b815260206004820152601060248201526f0949eb2a492888a409a92a69a82a886960831b604482015260640161048f565b6000546040516370a0823160e01b815273e11ba2b4d45eaed5996cd0823791e0c93114882d60048201526b02327b99dd505733a8000000916001600160a01b0316906370a0823190602401602060405180830381865afa1580156105cc573d6000803e3d6000fd5b505050506040513d601f19601f820116820180604052508101906105f09190610739565b1461063d5760405162461bcd60e51b815260206004820152601360248201527f464f554e444154494f4e204d49534d4154434800000000000000000000000000604482015260640161048f565b5050610752565b6105d38061200083390190565b611f86806125d383390190565b634e487b7160e01b600052603260045260246000fd5b60408101600f841061069657634e487b7160e01b600052602160045260246000fd5b9281526001600160a01b039190911660209091015290565b6040808252835190820181905260009060208501906060840190835b818110156106f15783516001600160a01b03168352602093840193909201916001016106ca565b50508381036020808601919091528551808352918101925085019060005b8181101561072d57825184526020938401939092019160010161070f565b50919695505050505050565b60006020828403121561074b57600080fd5b5051919050565b60805161187261078e6000396000818160810152818160e50152818161013301528181610245015281816102cb015261033d01526118726000f3fe608060405234801561001057600080fd5b50600436106100625760003560e01c80638980f11f14610067578063ab8c71c01461007c578063b9f890de146100bf578063c277ee70146100d0578063f2e23d22146100e3578063fc0c546a14610109575b600080fd5b61007a61007536600461056e565b61011c565b005b6100a37f000000000000000000000000000000000000000000000000000000000000000081565b6040516001600160a01b03909116815260200160405180910390f35b6000546001600160a01b03166100a3565b6100a36100de366004610598565b61022b565b7f00000000000000000000000000000000000000000000000000000000000000006100a3565b6000546100a3906001600160a01b031681565b604051634f4bdc7b60e11b81526001600160a01b037f00000000000000000000000000000000000000000000000000000000000000001690639e97b8f69061016b9060019033906004016105cb565b602060405180830381865afa158015610188573d6000803e3d6000fd5b505050506040513d601f19601f820116820180604052508101906101ac9190610605565b6101b557600080fd5b60405163a9059cbb60e01b8152336004820152602481018290526001600160a01b0383169063a9059cbb906044016020604051808303816000875af1158015610202573d6000803e3d6000fd5b505050506040513d601f19601f820116820180604052508101906102269190610605565b505050565b604051634f4bdc7b60e11b81526000906001600160a01b037f00000000000000000000000000000000000000000000000000000000000000001690639e97b8f69061027d9060019033906004016105cb565b602060405180830381865afa15801561029a573d6000803e3d6000fd5b505050506040513d601f19601f820116820180604052508101906102be9190610605565b6102c757600080fd5b60007f00000000000000000000000000000000000000000000000000000000000000006040516102f690610545565b6001600160a01b039091168152602001604051809103906000f080158015610322573d6000803e3d6000fd5b50604051630414892760e51b81529091506001600160a01b037f0000000000000000000000000000000000000000000000000000000000000000169063829124e0906103759060039085906004016105cb565b600060405180830381600087803b15801561038f57600080fd5b505af11580156103a3573d6000803e3d6000fd5b50506000546040516323b872dd60e01b8152336004820152306024820152604481018890526001600160a01b0390911692506323b872dd91506064016020604051808303816000875af11580156103fe573d6000803e3d6000fd5b505050506040513d601f19601f820116820180604052508101906104229190610605565b5060005460405163095ea7b360e01b81526001600160a01b038381166004830152602482018790529091169063095ea7b3906044016020604051808303816000875af1158015610476573d6000803e3d6000fd5b505050506040513d601f19601f8201168201806040525081019061049a9190610605565b5060008054604051630568cad960e31b815260048101929092526001600160a01b03908116602483015286811660448301526064820186905260848201859052614d4d60a483015264e8d4a5100060c4830152821690632b4656c89060e4016020604051808303816000875af1158015610518573d6000803e3d6000fd5b505050506040513d601f19601f8201168201806040525081019061053c9190610605565b50949350505050565b61120e8061062f83390190565b80356001600160a01b038116811461056957600080fd5b919050565b6000806040838503121561058157600080fd5b61058a83610552565b946020939093013593505050565b6000806000606084860312156105ad57600080fd5b6105b684610552565b95602085013595506040909401359392505050565b60408101600f84106105ed57634e487b7160e01b600052602160045260246000fd5b9281526001600160a01b039190911660209091015290565b60006020828403121561061757600080fd5b8151801515811461062757600080fd5b939250505056fe60a060405234801561001057600080fd5b5060405161120e38038061120e83398101604081905261002f91610040565b6001600160a01b0316608052610070565b60006020828403121561005257600080fd5b81516001600160a01b038116811461006957600080fd5b9392505050565b60805161116e6100a0600039600081816101de0152818161047b0152818161064301526107cf015261116e6000f3fe608060405234801561001057600080fd5b50600436106100f55760003560e01c80638956c98311610097578063ab8c71c011610066578063ab8c71c0146101d9578063c69ed68814610200578063cf30901214610220578063fc0c546a1461022857600080fd5b80638956c9831461018b5780638980f11f146101a057806392c2bcb4146101b3578063aad3ec96146101c657600080fd5b8063669416b8116100d3578063669416b81461014657806366d003ac1461014e5780636af904c614610179578063834ee4171461018257600080fd5b8063158ef93e146100fa5780632b4656c81461011c5780633c48a6201461012f575b600080fd5b6006546101079060ff1681565b60405190151581526020015b60405180910390f35b61010761012a366004610f98565b61023b565b61013860045481565b604051908152602001610113565b61013861041d565b600054610161906001600160a01b031681565b6040516001600160a01b039091168152602001610113565b61013860055481565b61013860025481565b61019e610199366004611000565b610440565b005b61019e6101ae36600461101b565b61062c565b61019e6101c1366004611000565b6107b8565b61019e6101d436600461101b565b6108b8565b6101617f000000000000000000000000000000000000000000000000000000000000000081565b60035461020d90600f0b81565b604051600f9190910b8152602001610113565b610138610a06565b600154610161906001600160a01b031681565b600654600090610100900460ff161561025357600080fd5b6006805461ff001981166101001790915560ff161561027157600080fd5b60068054600160ff19909116811790915580546001600160a01b0319166001600160a01b03891617815560028590556102bc906102ad90610a1e565b6102b78585610a3c565b610ad8565b600380546fffffffffffffffffffffffffffffffff19166001600160801b03929092169190911790556001546040516323b872dd60e01b8152336004820152306024820152604481018790526000916001600160a01b0316906323b872dd906064016020604051808303816000875af115801561033d573d6000803e3d6000fd5b505050506040513d601f19601f820116820180604052508101906103619190611045565b9050806103a75760405162461bcd60e51b815260206004820152600f60248201526e1514905394d1915488119052531151608a1b60448201526064015b60405180910390fd5b600080546001600160a01b0319166001600160a01b038916908117909155600487905560408051918252602082018890527fda8220a878ff7a89474ccffdaa31ea1ed1ffbb0207d5051afccc4fbaf81f9bcd910160405180910390a150506006805461ff00191690555060019695505050505050565b600060055461043161042c4290565b610b13565b61043b919061107d565b905090565b600654610100900460ff161561045557600080fd5b6006805461ff001916610100179055604051634f4bdc7b60e11b81526001600160a01b037f00000000000000000000000000000000000000000000000000000000000000001690639e97b8f6906104b3906001903390600401611090565b602060405180830381865afa1580156104d0573d6000803e3d6000fd5b505050506040513d601f19601f820116820180604052508101906104f49190611045565b6105105760405162461bcd60e51b815260040161039e906110ca565b6001546001600160a01b0380831691160361052a57600080fd5b600080546040516370a0823160e01b81523060048201526001600160a01b038481169263a9059cbb9291169083906370a0823190602401602060405180830381865afa15801561057e573d6000803e3d6000fd5b505050506040513d601f19601f820116820180604052508101906105a291906110f6565b6040516001600160e01b031960e085901b1681526001600160a01b03909216600483015260248201526044016020604051808303816000875af11580156105ed573d6000803e3d6000fd5b505050506040513d601f19601f820116820180604052508101906106119190611045565b90508061061d57600080fd5b50506006805461ff0019169055565b604051634f4bdc7b60e11b81526001600160a01b037f00000000000000000000000000000000000000000000000000000000000000001690639e97b8f69061067b906001903390600401611090565b602060405180830381865afa158015610698573d6000803e3d6000fd5b505050506040513d601f19601f820116820180604052508101906106bc9190611045565b6106d85760405162461bcd60e51b815260040161039e906110ca565b6001546001600160a01b03908116908316036107425760405162461bcd60e51b815260206004820152602360248201527f43616e6e6f742077697468647261772074686520656d697373696f6e7320746f60448201526235b2b760e91b606482015260840161039e565b60405163a9059cbb60e01b8152336004820152602481018290526001600160a01b0383169063a9059cbb906044016020604051808303816000875af115801561078f573d6000803e3d6000fd5b505050506040513d601f19601f820116820180604052508101906107b39190611045565b505050565b604051634f4bdc7b60e11b81526001600160a01b037f00000000000000000000000000000000000000000000000000000000000000001690639e97b8f690610807906001903390600401611090565b602060405180830381865afa158015610824573d6000803e3d6000fd5b505050506040513d601f19601f820116820180604052508101906108489190611045565b6108645760405162461bcd60e51b815260040161039e906110ca565b600080546001600160a01b0319166001600160a01b0383169081179091556040519081527fff2d07bd188a9eb41acbc4a7db39e18956c95ab7f54f434d97849bf6206e577c9060200160405180910390a150565b600654610100900460ff16156108cd57600080fd5b6006805461ff0019166101001790556000546001600160a01b038381169116146108f657600080fd5b600061090061041d565b9050811580159061091057508181115b156109185750805b806005600082825461092a919061110f565b909155505060015460405163a9059cbb60e01b81526001600160a01b03858116600483015260248201849052600092169063a9059cbb906044016020604051808303816000875af1158015610983573d6000803e3d6000fd5b505050506040513d601f19601f820116820180604052508101906109a79190611045565b9050806109b357600080fd5b604080516001600160a01b0386168152602081018490527f47cee97cb7acd717b3c0aa1435d004cd5b3c8c57d70dbceb4e4458bbd60e39d4910160405180910390a150506006805461ff00191690555050565b6000610a1142610b13565b60045461043b919061107d565b6000677fffffffffffffff821115610a3557600080fd5b5060401b90565b600081600003610a4b57600080fd5b600080841215610a6057836000039350600190505b6000831215610a725760009290920391155b6000610a7e8585610b84565b90508115610aac576001607f1b816001600160801b03161115610aa057600080fd5b6000039150610ad29050565b60016001607f1b03816001600160801b03161115610ac957600080fd5b9150610ad29050565b92915050565b6000600f82810b9084900b0360016001607f1b03198112801590610b03575060016001607f1b038113155b610b0c57600080fd5b9392505050565b6000600254821015610b2757506000919050565b600060025483610b37919061107d565b600354909150600090610b4d90600f0b83610ce9565b90506000610b5d82600454610f11565b90506004548110610b6d57600080fd5b80600454610b7b919061107d565b95945050505050565b600081600003610b9357600080fd5b60006001600160c01b038411610bbe5782604085901b81610bb657610bb6611122565b049050610cd5565b60c084811c6401000000008110610bd7576020918201911c5b620100008110610be9576010918201911c5b6101008110610bfa576008918201911c5b60108110610c0a576004918201911c5b60048110610c1a576002918201911c5b60028110610c29576001820191505b60bf820360018603901c6001018260ff0387901b81610c4a57610c4a611122565b0492506001600160801b03831115610c6157600080fd5b608085901c83026001600160801b038616840260c088901c604089901b82811015610c8d576001820391505b608084901b92900382811015610ca4576001820391505b829003608084901c8214610cb9576001610cca565b888181610cc857610cc8611122565b045b870196505050505050505b6001600160801b03811115610b0c57600080fd5b600080600084600f0b128015610d025750826001166001145b905060008085600f0b12610d165784610d1b565b846000035b6001600160801b03169050600160801b680100000000000000008211610db557603f82901b91505b8415610dad576001851615610d58578102607f1c5b908002607f1c906002851615610d6e578102607f1c5b908002607f1c906004851615610d84578102607f1c5b908002607f1c906008851615610d9a578102607f1c5b60049490941c93908002607f1c90610d43565b60401c610ecb565b603f600160601b831015610dcf5760209290921b91601f19015b600160701b831015610de75760109290921b91600f19015b600160781b831015610dff5760089290921b91600719015b6001607c1b831015610e175760049290921b91600319015b6001607e1b831015610e2f5760029290921b91600119015b6001607f1b831015610e475760019290921b91600019015b60005b8615610eb45760408210610e5d57600080fd5b6001871615610e8357918302607f1c918101600160801b831115610e8357600192831c92015b928002607f1c9260019190911b90600160801b8410610ea857600193841c9391909101905b600187901c9650610e4a565b60408110610ec157600080fd5b6040039190911c90505b600083610ed85781610edd565b816000035b905060016001607f1b03198112801590610efe575060016001607f1b038113155b610f0757600080fd5b9695505050505050565b600081600003610f2357506000610ad2565b600083600f0b1215610f3457600080fd5b600f83900b6001600160801b038316810260401c90608084901c026001600160c01b03811115610f6357600080fd5b60401b8119811115610f7457600080fd5b019392505050565b80356001600160a01b0381168114610f9357600080fd5b919050565b600080600080600080600060e0888a031215610fb357600080fd5b610fbc88610f7c565b9650610fca60208901610f7c565b9550610fd860408901610f7c565b969995985095966060810135965060808101359560a0820135955060c0909101359350915050565b60006020828403121561101257600080fd5b610b0c82610f7c565b6000806040838503121561102e57600080fd5b61103783610f7c565b946020939093013593505050565b60006020828403121561105757600080fd5b81518015158114610b0c57600080fd5b634e487b7160e01b600052601160045260246000fd5b81810381811115610ad257610ad2611067565b60408101600f84106110b257634e487b7160e01b600052602160045260246000fd5b9281526001600160a01b039190911660209091015290565b6020808252601290820152712737ba10309023b637b130b61020b236b4b760711b604082015260600190565b60006020828403121561110857600080fd5b5051919050565b80820180821115610ad257610ad2611067565b634e487b7160e01b600052601260045260246000fdfea26469706673582212200f2807cb7a6e4e1fd29e6b052eb4cf89189370b47a278ce0e101780fe07bda8164736f6c634300081e0033a2646970667358221220bf4d938f582cdd6c8a2690753e26709b910f8ec93815b8c862ef876096cf950064736f6c634300081e00336080604052348015600f57600080fd5b503360009081526020818152604080832060018085529252909120805460ff1916909117905561058f806100446000396000f3fe608060405234801561001057600080fd5b506004361061004c5760003560e01c8063829124e0146100515780638980f11f146100665780638a1713c6146100795780639e97b8f61461008c575b600080fd5b61006461005f366004610471565b6100b3565b005b6100646100743660046104aa565b6101a7565b610064610087366004610471565b610231565b61009f61009a366004610471565b610394565b604051901515815260200160405180910390f35b6100be600133610394565b6100c757600080fd5b6001600160a01b03811660009081526020819052604081209083600e8111156100f2576100f26104d4565b600e811115610103576101036104d4565b815260208101919091526040016000205460ff166101a3576001600160a01b038116600090815260208190526040812060019184600e811115610148576101486104d4565b600e811115610159576101596104d4565b815260208082019290925260409081016000908120805460ff1916941515949094179093556001600160a01b03841683526001909152812080549161019d83610500565b91905055505b5050565b6101b2600133610394565b6101bb57600080fd5b60405163a9059cbb60e01b8152336004820152602481018290526001600160a01b0383169063a9059cbb906044016020604051808303816000875af1158015610208573d6000803e3d6000fd5b505050506040513d601f19601f8201168201806040525081019061022c9190610519565b505050565b61023c600133610394565b61024557600080fd5b6001600160a01b0381163314158061026f5750600182600e81111561026c5761026c6104d4565b14155b6102bf5760405162461bcd60e51b815260206004820152601d60248201527f43414e27542052454d4f564520474c4f42414c2046524f4d2053454c46000000604482015260640160405180910390fd5b6001600160a01b03811660009081526020819052604081209083600e8111156102ea576102ea6104d4565b600e8111156102fb576102fb6104d4565b815260208101919091526040016000205460ff16156101a3576001600160a01b03811660009081526020819052604081208184600e81111561033f5761033f6104d4565b600e811115610350576103506104d4565b815260208082019290925260409081016000908120805460ff1916941515949094179093556001600160a01b03841683526001909152812080549161019d83610542565b60008083600e8111156103a9576103a96104d4565b036103cf57506001600160a01b038116600090815260016020526040902054151561044f565b6001600160a01b03821660009081526020819052604081209084600e8111156103fa576103fa6104d4565b600e81111561040b5761040b6104d4565b815260208101919091526040016000205460ff168061044c57506001600160a01b0382166000908152602081815260408083206001845290915290205460ff165b90505b92915050565b80356001600160a01b038116811461046c57600080fd5b919050565b6000806040838503121561048457600080fd5b8235600f811061049357600080fd5b91506104a160208401610455565b90509250929050565b600080604083850312156104bd57600080fd5b6104c683610455565b946020939093013593505050565b634e487b7160e01b600052602160045260246000fd5b634e487b7160e01b600052601160045260246000fd5b600060018201610512576105126104ea565b5060010190565b60006020828403121561052b57600080fd5b8151801515811461053b57600080fd5b9392505050565b600081610551576105516104ea565b50600019019056fea264697066735822122004f65f0beb0eb12fe26894959676850bc1fe657bf92c6ea502dd316d085fbebb64736f6c634300081e00336101a060405234801561001157600080fd5b50604051611f86380380611f8683398101604081905261003091610276565b6040805180820190915260018152603160f81b6020820152849081908186600361005a8382610392565b5060046100678282610392565b5061007791508390506005610139565b61012052610086816006610139565b61014052815160208084019190912060e052815190820120610100524660a05261011360e05161010051604080517f8b73c3c69bb8fe3d512ecc4cf759cc79239f7b179b0ffacaa9a75d522b39400f60208201529081019290925260608201524660808201523060a082015260009060c00160405160208183030381529060405280519060200120905090565b60805250503060c05250610180919091526001600160a01b031661016052506104a79050565b60006020835110156101555761014e8361016c565b9050610166565b816101608482610392565b5060ff90505b92915050565b600080829050601f815111156101a0578260405163305a27a960e01b81526004016101979190610450565b60405180910390fd5b80516101ab82610483565b179392505050565b634e487b7160e01b600052604160045260246000fd5b60005b838110156101e45781810151838201526020016101cc565b50506000910152565b600082601f8301126101fe57600080fd5b81516001600160401b03811115610217576102176101b3565b604051601f8201601f19908116603f011681016001600160401b0381118282101715610245576102456101b3565b60405281815283820160200185101561025d57600080fd5b61026e8260208301602087016101c9565b949350505050565b6000806000806080858703121561028c57600080fd5b84516001600160401b038111156102a257600080fd5b6102ae878288016101ed565b602087015190955090506001600160401b038111156102cc57600080fd5b6102d8878288016101ed565b60408701516060880151919550935090506001600160a01b03811681146102fe57600080fd5b939692955090935050565b600181811c9082168061031d57607f821691505b60208210810361033d57634e487b7160e01b600052602260045260246000fd5b50919050565b601f82111561038d57806000526020600020601f840160051c8101602085101561036a5750805b601f840160051c820191505b8181101561038a5760008155600101610376565b50505b505050565b81516001600160401b038111156103ab576103ab6101b3565b6103bf816103b98454610309565b84610343565b6020601f8211600181146103f357600083156103db5750848201515b600019600385901b1c1916600184901b17845561038a565b600084815260208120601f198516915b828110156104235787850151825560209485019460019092019101610403565b50848210156104415786840151600019600387901b60f8161c191681555b50505050600190811b01905550565b602081526000825180602084015261046f8160408501602087016101c9565b601f01601f19169190910160400192915050565b8051602080830151919081101561033d5760001960209190910360031b1b16919050565b60805160a05160c05160e0516101005161012051610140516101605161018051611a306105566000396000818161023c0152610a0a01526000818161027e015281816103bf015281816104900152818161052e0152818161067b0152818161079d015281816108f201528181610ab10152610b4f01526000610ee201526000610eb501526000610e5d01526000610e3501526000610d9001526000610dba01526000610de40152611a306000f3fe608060405234801561001057600080fd5b50600436106101215760003560e01c806383f1211b116100ad57806395d89b411161007157806395d89b411461025e578063a9059cbb14610266578063ab8c71c014610279578063d505accf146102b8578063dd62ed3e146102cb57600080fd5b806383f1211b146101e957806384b0196e146101f65780638980f11f146102115780638d2455c814610224578063902d55a51461023757600080fd5b806323b872dd116100f457806323b872dd14610183578063313ce567146101965780633644e515146101a557806370a08231146101ad5780637ecebe00146101d657600080fd5b806306fdde0314610126578063095ea7b31461014457806318160ddd1461016757806321842be314610179575b600080fd5b61012e610304565b60405161013b9190611563565b60405180910390f35b610157610152366004611592565b610396565b604051901515815260200161013b565b6002545b60405190815260200161013b565b6101816103b0565b005b6101576101913660046115bc565b610471565b6040516012815260200161013b565b61016b6105f9565b61016b6101bb3660046115f9565b6001600160a01b031660009081526020819052604090205490565b61016b6101e43660046115f9565b610608565b6008546101579060ff1681565b6101fe610626565b60405161013b9796959493929190611614565b61018161021f366004611592565b61066c565b610181610232366004611784565b61078e565b61016b7f000000000000000000000000000000000000000000000000000000000000000081565b61012e610a83565b610157610274366004611592565b610a92565b6102a07f000000000000000000000000000000000000000000000000000000000000000081565b6040516001600160a01b03909116815260200161013b565b6101816102c636600461184d565b610c18565b61016b6102d93660046118c0565b6001600160a01b03918216600090815260016020908152604080832093909416825291909152205490565b606060038054610313906118f3565b80601f016020809104026020016040519081016040528092919081815260200182805461033f906118f3565b801561038c5780601f106103615761010080835404028352916020019161038c565b820191906000526020600020905b81548152906001019060200180831161036f57829003601f168201915b5050505050905090565b6000336103a4818585610d52565b60019150505b92915050565b604051634f4bdc7b60e11b81527f00000000000000000000000000000000000000000000000000000000000000006001600160a01b031690639e97b8f6906103ff906001903390600401611943565b602060405180830381865afa15801561041c573d6000803e3d6000fd5b505050506040513d601f19601f82011682018060405250810190610440919061197d565b6104655760405162461bcd60e51b815260040161045c9061199f565b60405180910390fd5b6008805460ff19169055565b60085460009060ff1615806105115750604051634f4bdc7b60e11b81527f00000000000000000000000000000000000000000000000000000000000000006001600160a01b031690639e97b8f6906104d0906003903390600401611943565b602060405180830381865afa1580156104ed573d6000803e3d6000fd5b505050506040513d601f19601f82011682018060405250810190610511919061197d565b806105a75750604051634f4bdc7b60e11b81526001600160a01b037f00000000000000000000000000000000000000000000000000000000000000001690639e97b8f690610566906003903290600401611943565b602060405180830381865afa158015610583573d6000803e3d6000fd5b505050506040513d601f19601f820116820180604052508101906105a7919061197d565b6105e65760405162461bcd60e51b815260206004820152601060248201526f1393d5081651550815539313d0d2d15160821b604482015260640161045c565b6105f1848484610d5f565b949350505050565b6000610603610d83565b905090565b6001600160a01b0381166000908152600760205260408120546103aa565b60006060806000806000606061063a610eae565b610642610edb565b60408051600080825260208201909252600f60f81b9b939a50919850469750309650945092509050565b604051634f4bdc7b60e11b81527f00000000000000000000000000000000000000000000000000000000000000006001600160a01b031690639e97b8f6906106bb906001903390600401611943565b602060405180830381865afa1580156106d8573d6000803e3d6000fd5b505050506040513d601f19601f820116820180604052508101906106fc919061197d565b6107185760405162461bcd60e51b815260040161045c9061199f565b60405163a9059cbb60e01b8152336004820152602481018290526001600160a01b0383169063a9059cbb906044016020604051808303816000875af1158015610765573d6000803e3d6000fd5b505050506040513d601f19601f82011682018060405250810190610789919061197d565b505050565b604051634f4bdc7b60e11b81527f00000000000000000000000000000000000000000000000000000000000000006001600160a01b031690639e97b8f6906107dd906001903390600401611943565b602060405180830381865afa1580156107fa573d6000803e3d6000fd5b505050506040513d601f19601f8201168201806040525081019061081e919061197d565b61083a5760405162461bcd60e51b815260040161045c9061199f565b6002541561088a5760405162461bcd60e51b815260206004820152601760248201527f544f4b454e20414c52454144592047454e455241544544000000000000000000604482015260640161045c565b80518251146108db5760405162461bcd60e51b815260206004820152601760248201527f494e434f525245435420504152414d204c454e47544853000000000000000000604482015260640161045c565b604051634f4bdc7b60e11b81526001600160a01b037f00000000000000000000000000000000000000000000000000000000000000001690639e97b8f69061092a906003903090600401611943565b602060405180830381865afa158015610947573d6000803e3d6000fd5b505050506040513d601f19601f8201168201806040525081019061096b919061197d565b6109b75760405162461bcd60e51b815260206004820152601860248201527f544f4b454e204e4f54205452414e534645522041444d494e0000000000000000604482015260640161045c565b60005b8251811015610a07576109ff8382815181106109d8576109d86119c3565b60200260200101518383815181106109f2576109f26119c3565b6020026020010151610f08565b6001016109ba565b507f0000000000000000000000000000000000000000000000000000000000000000610a3260025490565b14610a725760405162461bcd60e51b815260206004820152601060248201526f494e434f525245435420535550504c5960801b604482015260640161045c565b50506008805460ff19166001179055565b606060048054610313906118f3565b60085460009060ff161580610b325750604051634f4bdc7b60e11b81527f00000000000000000000000000000000000000000000000000000000000000006001600160a01b031690639e97b8f690610af1906003903390600401611943565b602060405180830381865afa158015610b0e573d6000803e3d6000fd5b505050506040513d601f19601f82011682018060405250810190610b32919061197d565b80610bc85750604051634f4bdc7b60e11b81526001600160a01b037f00000000000000000000000000000000000000000000000000000000000000001690639e97b8f690610b87906003903290600401611943565b602060405180830381865afa158015610ba4573d6000803e3d6000fd5b505050506040513d601f19601f82011682018060405250810190610bc8919061197d565b610c075760405162461bcd60e51b815260206004820152601060248201526f1393d5081651550815539313d0d2d15160821b604482015260640161045c565b610c118383610f42565b9392505050565b83421115610c3c5760405163313c898160e11b81526004810185905260240161045c565b60007f6e71edae12b1b97f4d1f60370fef10105fa2faae0126114a169c64845d6126c9888888610c898c6001600160a01b0316600090815260076020526040902080546001810190915590565b6040805160208101969096526001600160a01b0394851690860152929091166060840152608083015260a082015260c0810186905260e0016040516020818303038152906040528051906020012090506000610ce482610f50565b90506000610cf482878787610f7d565b9050896001600160a01b0316816001600160a01b031614610d3b576040516325c0072360e11b81526001600160a01b0380831660048301528b16602482015260440161045c565b610d468a8a8a610d52565b50505050505050505050565b6107898383836001610fab565b600033610d6d858285611081565b610d788585856110fa565b506001949350505050565b6000306001600160a01b037f000000000000000000000000000000000000000000000000000000000000000016148015610ddc57507f000000000000000000000000000000000000000000000000000000000000000046145b15610e0657507f000000000000000000000000000000000000000000000000000000000000000090565b610603604080517f8b73c3c69bb8fe3d512ecc4cf759cc79239f7b179b0ffacaa9a75d522b39400f60208201527f0000000000000000000000000000000000000000000000000000000000000000918101919091527f000000000000000000000000000000000000000000000000000000000000000060608201524660808201523060a082015260009060c00160405160208183030381529060405280519060200120905090565b60606106037f00000000000000000000000000000000000000000000000000000000000000006005611159565b60606106037f00000000000000000000000000000000000000000000000000000000000000006006611159565b6001600160a01b038216610f325760405163ec442f0560e01b81526000600482015260240161045c565b610f3e60008383611204565b5050565b6000336103a48185856110fa565b60006103aa610f5d610d83565b8360405161190160f01b8152600281019290925260228201526042902090565b600080600080610f8f8888888861132e565b925092509250610f9f82826113fd565b50909695505050505050565b6001600160a01b038416610fd55760405163e602df0560e01b81526000600482015260240161045c565b6001600160a01b038316610fff57604051634a1406b160e11b81526000600482015260240161045c565b6001600160a01b038085166000908152600160209081526040808320938716835292905220829055801561107b57826001600160a01b0316846001600160a01b03167f8c5be1e5ebec7d5bd14f71427d1e84f3dd0314c0f7b2291e5b200ac8c7c3b9258460405161107291815260200190565b60405180910390a35b50505050565b6001600160a01b0383811660009081526001602090815260408083209386168352929052205460001981101561107b57818110156110eb57604051637dc7a0d960e11b81526001600160a01b0384166004820152602481018290526044810183905260640161045c565b61107b84848484036000610fab565b6001600160a01b03831661112457604051634b637e8f60e11b81526000600482015260240161045c565b6001600160a01b03821661114e5760405163ec442f0560e01b81526000600482015260240161045c565b610789838383611204565b606060ff83146111735761116c836114b6565b90506103aa565b81805461117f906118f3565b80601f01602080910402602001604051908101604052809291908181526020018280546111ab906118f3565b80156111f85780601f106111cd576101008083540402835291602001916111f8565b820191906000526020600020905b8154815290600101906020018083116111db57829003601f168201915b505050505090506103aa565b6001600160a01b03831661122f57806002600082825461122491906119d9565b909155506112a19050565b6001600160a01b038316600090815260208190526040902054818110156112825760405163391434e360e21b81526001600160a01b0385166004820152602481018290526044810183905260640161045c565b6001600160a01b03841660009081526020819052604090209082900390555b6001600160a01b0382166112bd576002805482900390556112dc565b6001600160a01b03821660009081526020819052604090208054820190555b816001600160a01b0316836001600160a01b03167fddf252ad1be2c89b69c2b068fc378daa952ba7f163c4a11628f55a4df523b3ef8360405161132191815260200190565b60405180910390a3505050565b600080807f7fffffffffffffffffffffffffffffff5d576e7357a4501ddfe92f46681b20a084111561136957506000915060039050826113f3565b604080516000808252602082018084528a905260ff891692820192909252606081018790526080810186905260019060a0016020604051602081039080840390855afa1580156113bd573d6000803e3d6000fd5b5050604051601f1901519150506001600160a01b0381166113e9575060009250600191508290506113f3565b9250600091508190505b9450945094915050565b60008260038111156114115761141161192d565b0361141a575050565b600182600381111561142e5761142e61192d565b0361144c5760405163f645eedf60e01b815260040160405180910390fd5b60028260038111156114605761146061192d565b036114815760405163fce698f760e01b81526004810182905260240161045c565b60038260038111156114955761149561192d565b03610f3e576040516335e2f38360e21b81526004810182905260240161045c565b606060006114c3836114f5565b604080516020808252818301909252919250600091906020820181803683375050509182525060208101929092525090565b600060ff8216601f8111156103aa57604051632cd44ac360e21b815260040160405180910390fd5b6000815180845260005b8181101561154357602081850181015186830182015201611527565b506000602082860101526020601f19601f83011685010191505092915050565b602081526000610c11602083018461151d565b80356001600160a01b038116811461158d57600080fd5b919050565b600080604083850312156115a557600080fd5b6115ae83611576565b946020939093013593505050565b6000806000606084860312156115d157600080fd5b6115da84611576565b92506115e860208501611576565b929592945050506040919091013590565b60006020828403121561160b57600080fd5b610c1182611576565b60ff60f81b8816815260e06020820152600061163360e083018961151d565b8281036040840152611645818961151d565b606084018890526001600160a01b038716608085015260a0840186905283810360c08501528451808252602080870193509091019060005b8181101561169b57835183526020938401939092019160010161167d565b50909b9a5050505050505050505050565b634e487b7160e01b600052604160045260246000fd5b604051601f8201601f1916810167ffffffffffffffff811182821017156116eb576116eb6116ac565b604052919050565b600067ffffffffffffffff82111561170d5761170d6116ac565b5060051b60200190565b600082601f83011261172857600080fd5b813561173b611736826116f3565b6116c2565b8082825260208201915060208360051b86010192508583111561175d57600080fd5b602085015b8381101561177a578035835260209283019201611762565b5095945050505050565b6000806040838503121561179757600080fd5b823567ffffffffffffffff8111156117ae57600080fd5b8301601f810185136117bf57600080fd5b80356117cd611736826116f3565b8082825260208201915060208360051b8501019250878311156117ef57600080fd5b6020840193505b828410156118185761180784611576565b8252602093840193909101906117f6565b9450505050602083013567ffffffffffffffff81111561183757600080fd5b61184385828601611717565b9150509250929050565b600080600080600080600060e0888a03121561186857600080fd5b61187188611576565b965061187f60208901611576565b95506040880135945060608801359350608088013560ff811681146118a357600080fd5b9699959850939692959460a0840135945060c09093013592915050565b600080604083850312156118d357600080fd5b6118dc83611576565b91506118ea60208401611576565b90509250929050565b600181811c9082168061190757607f821691505b60208210810361192757634e487b7160e01b600052602260045260246000fd5b50919050565b634e487b7160e01b600052602160045260246000fd5b60408101600f841061196557634e487b7160e01b600052602160045260246000fd5b9281526001600160a01b039190911660209091015290565b60006020828403121561198f57600080fd5b81518015158114610c1157600080fd5b6020808252600a908201526941444d494e204f4e4c5960b01b604082015260600190565b634e487b7160e01b600052603260045260246000fd5b808201808211156103aa57634e487b7160e01b600052601160045260246000fdfea2646970667358221220de6c1053c5b4f3568c748e64d805c58dc17fb7801194e56a6259b334ee2d3b2b64736f6c634300081e0033",
  "linkReferences": {},
  "deployedLinkReferences": {}
}