{
  "_format": "hh-sol-artifact-1",
  "contractName": "SCSeasonRewards",
  "sourceName": "SuperChamps/contracts/Seasons/SCSeasonRewards.sol",
  "abi": [
    {
      "inputs": [
        {
          "internalType": "address",
          "name": "permissions_",
          "type": "address"
        },
        {
          "internalType": "address",
          "name": "token_",
          "type": "address"
        },
        {
          "internalType": "address",
          "name": "treasury_",
          "type": "address"
        },
        {
          "internalType": "address",
          "name": "access_pass_",
          "type": "address"
        },
        {
          "internalType": "address",
          "name": "staking_pool_",
          "type": "address"
        }
      ],
      "stateMutability": "nonpayable",
      "type": "constructor"
    },
    {
      "anonymous": false,
      "inputs": [
        {
          "indexed": false,
          "internalType": "address",
          "name": "staker",
          "type": "address"
        },
        {
          "indexed": false,
          "internalType": "uint256",
          "name": "rewards",
          "type": "uint256"
        }
      ],
      "name": "StakedRewards",
      "type": "event"
    },
    {
      "anonymous": false,
      "inputs": [
        {
          "indexed": false,
          "internalType": "address",
          "name": "treasury",
          "type": "address"
        }
      ],
      "name": "TreasurySet",
      "type": "event"
    },
    {
      "inputs": [],
      "name": "access_pass",
      "outputs": [
        {
          "internalType": "contract ISCAccessPass",
          "name": "",
          "type": "address"
        }
      ],
      "stateMutability": "view",
      "type": "function"
    },
    {
      "inputs": [
        {
          "internalType": "uint256",
          "name": "season_id_",
          "type": "uint256"
        }
      ],
      "name": "claimReward",
      "outputs": [],
      "stateMutability": "nonpayable",
      "type": "function"
    },
    {
      "inputs": [
        {
          "internalType": "uint256",
          "name": "",
          "type": "uint256"
        },
        {
          "internalType": "address",
          "name": "",
          "type": "address"
        }
      ],
      "name": "claimed_rewards",
      "outputs": [
        {
          "internalType": "uint256",
          "name": "",
          "type": "uint256"
        }
      ],
      "stateMutability": "view",
      "type": "function"
    },
    {
      "inputs": [
        {
          "internalType": "uint256",
          "name": "id_",
          "type": "uint256"
        }
      ],
      "name": "endSeason",
      "outputs": [],
      "stateMutability": "nonpayable",
      "type": "function"
    },
    {
      "inputs": [
        {
          "internalType": "uint256",
          "name": "id_",
          "type": "uint256"
        },
        {
          "internalType": "uint256",
          "name": "reward_amount_",
          "type": "uint256"
        },
        {
          "internalType": "uint256",
          "name": "claim_duration_",
          "type": "uint256"
        }
      ],
      "name": "finalize",
      "outputs": [],
      "stateMutability": "nonpayable",
      "type": "function"
    },
    {
      "inputs": [
        {
          "internalType": "uint256",
          "name": "season_id_",
          "type": "uint256"
        }
      ],
      "name": "getClaimableReward",
      "outputs": [
        {
          "internalType": "uint256",
          "name": "_reward",
          "type": "uint256"
        }
      ],
      "stateMutability": "view",
      "type": "function"
    },
    {
      "inputs": [
        {
          "components": [
            {
              "internalType": "uint256",
              "name": "id",
              "type": "uint256"
            },
            {
              "internalType": "uint256",
              "name": "start_time",
              "type": "uint256"
            },
            {
              "internalType": "uint256",
              "name": "end_time",
              "type": "uint256"
            },
            {
              "internalType": "uint256",
              "name": "reward_amount",
              "type": "uint256"
            },
            {
              "internalType": "uint256",
              "name": "remaining_reward_amount",
              "type": "uint256"
            },
            {
              "internalType": "uint256",
              "name": "claim_end_time",
              "type": "uint256"
            }
          ],
          "internalType": "struct ISCSeasonRewards.Season",
          "name": "season_",
          "type": "tuple"
        },
        {
          "internalType": "uint256",
          "name": "timestamp_",
          "type": "uint256"
        }
      ],
      "name": "isSeasonActive",
      "outputs": [
        {
          "internalType": "bool",
          "name": "_active",
          "type": "bool"
        }
      ],
      "stateMutability": "pure",
      "type": "function"
    },
    {
      "inputs": [
        {
          "components": [
            {
              "internalType": "uint256",
              "name": "id",
              "type": "uint256"
            },
            {
              "internalType": "uint256",
              "name": "start_time",
              "type": "uint256"
            },
            {
              "internalType": "uint256",
              "name": "end_time",
              "type": "uint256"
            },
            {
              "internalType": "uint256",
              "name": "reward_amount",
              "type": "uint256"
            },
            {
              "internalType": "uint256",
              "name": "remaining_reward_amount",
              "type": "uint256"
            },
            {
              "internalType": "uint256",
              "name": "claim_end_time",
              "type": "uint256"
            }
          ],
          "internalType": "struct ISCSeasonRewards.Season",
          "name": "season_",
          "type": "tuple"
        },
        {
          "internalType": "uint256",
          "name": "timestamp_",
          "type": "uint256"
        }
      ],
      "name": "isSeasonClaimingActive",
      "outputs": [
        {
          "internalType": "bool",
          "name": "_active",
          "type": "bool"
        }
      ],
      "stateMutability": "pure",
      "type": "function"
    },
    {
      "inputs": [
        {
          "components": [
            {
              "internalType": "uint256",
              "name": "id",
              "type": "uint256"
            },
            {
              "internalType": "uint256",
              "name": "start_time",
              "type": "uint256"
            },
            {
              "internalType": "uint256",
              "name": "end_time",
              "type": "uint256"
            },
            {
              "internalType": "uint256",
              "name": "reward_amount",
              "type": "uint256"
            },
            {
              "internalType": "uint256",
              "name": "remaining_reward_amount",
              "type": "uint256"
            },
            {
              "internalType": "uint256",
              "name": "claim_end_time",
              "type": "uint256"
            }
          ],
          "internalType": "struct ISCSeasonRewards.Season",
          "name": "season_",
          "type": "tuple"
        },
        {
          "internalType": "uint256",
          "name": "timestamp_",
          "type": "uint256"
        }
      ],
      "name": "isSeasonClaimingEnded",
      "outputs": [
        {
          "internalType": "bool",
          "name": "_ended",
          "type": "bool"
        }
      ],
      "stateMutability": "pure",
      "type": "function"
    },
    {
      "inputs": [
        {
          "components": [
            {
              "internalType": "uint256",
              "name": "id",
              "type": "uint256"
            },
            {
              "internalType": "uint256",
              "name": "start_time",
              "type": "uint256"
            },
            {
              "internalType": "uint256",
              "name": "end_time",
              "type": "uint256"
            },
            {
              "internalType": "uint256",
              "name": "reward_amount",
              "type": "uint256"
            },
            {
              "internalType": "uint256",
              "name": "remaining_reward_amount",
              "type": "uint256"
            },
            {
              "internalType": "uint256",
              "name": "claim_end_time",
              "type": "uint256"
            }
          ],
          "internalType": "struct ISCSeasonRewards.Season",
          "name": "season_",
          "type": "tuple"
        },
        {
          "internalType": "uint256",
          "name": "timestamp_",
          "type": "uint256"
        }
      ],
      "name": "isSeasonEnded",
      "outputs": [
        {
          "internalType": "bool",
          "name": "_ended",
          "type": "bool"
        }
      ],
      "stateMutability": "pure",
      "type": "function"
    },
    {
      "inputs": [
        {
          "components": [
            {
              "internalType": "uint256",
              "name": "id",
              "type": "uint256"
            },
            {
              "internalType": "uint256",
              "name": "start_time",
              "type": "uint256"
            },
            {
              "internalType": "uint256",
              "name": "end_time",
              "type": "uint256"
            },
            {
              "internalType": "uint256",
              "name": "reward_amount",
              "type": "uint256"
            },
            {
              "internalType": "uint256",
              "name": "remaining_reward_amount",
              "type": "uint256"
            },
            {
              "internalType": "uint256",
              "name": "claim_end_time",
              "type": "uint256"
            }
          ],
          "internalType": "struct ISCSeasonRewards.Season",
          "name": "season_",
          "type": "tuple"
        }
      ],
      "name": "isSeasonFinalized",
      "outputs": [
        {
          "internalType": "bool",
          "name": "_finalized",
          "type": "bool"
        }
      ],
      "stateMutability": "pure",
      "type": "function"
    },
    {
      "inputs": [],
      "name": "permissions",
      "outputs": [
        {
          "internalType": "contract IPermissionsManager",
          "name": "",
          "type": "address"
        }
      ],
      "stateMutability": "view",
      "type": "function"
    },
    {
      "inputs": [
        {
          "internalType": "address",
          "name": "",
          "type": "address"
        }
      ],
      "name": "player_last_signature_timestamp",
      "outputs": [
        {
          "internalType": "uint256",
          "name": "",
          "type": "uint256"
        }
      ],
      "stateMutability": "view",
      "type": "function"
    },
    {
      "inputs": [
        {
          "internalType": "address",
          "name": "tokenAddress_",
          "type": "address"
        },
        {
          "internalType": "uint256",
          "name": "tokenAmount_",
          "type": "uint256"
        }
      ],
      "name": "recoverERC20",
      "outputs": [],
      "stateMutability": "nonpayable",
      "type": "function"
    },
    {
      "inputs": [
        {
          "internalType": "uint256",
          "name": "season_id_",
          "type": "uint256"
        },
        {
          "internalType": "address[]",
          "name": "players_",
          "type": "address[]"
        },
        {
          "internalType": "uint256[]",
          "name": "rewards_",
          "type": "uint256[]"
        }
      ],
      "name": "reportRewards",
      "outputs": [],
      "stateMutability": "nonpayable",
      "type": "function"
    },
    {
      "inputs": [
        {
          "internalType": "uint256",
          "name": "id_",
          "type": "uint256"
        }
      ],
      "name": "revokeUnclaimedReward",
      "outputs": [],
      "stateMutability": "nonpayable",
      "type": "function"
    },
    {
      "inputs": [
        {
          "internalType": "uint256",
          "name": "",
          "type": "uint256"
        },
        {
          "internalType": "address",
          "name": "",
          "type": "address"
        }
      ],
      "name": "season_rewards",
      "outputs": [
        {
          "internalType": "uint256",
          "name": "",
          "type": "uint256"
        }
      ],
      "stateMutability": "view",
      "type": "function"
    },
    {
      "inputs": [
        {
          "internalType": "uint256",
          "name": "",
          "type": "uint256"
        }
      ],
      "name": "seasons",
      "outputs": [
        {
          "internalType": "uint256",
          "name": "id",
          "type": "uint256"
        },
        {
          "internalType": "uint256",
          "name": "start_time",
          "type": "uint256"
        },
        {
          "internalType": "uint256",
          "name": "end_time",
          "type": "uint256"
        },
        {
          "internalType": "uint256",
          "name": "reward_amount",
          "type": "uint256"
        },
        {
          "internalType": "uint256",
          "name": "remaining_reward_amount",
          "type": "uint256"
        },
        {
          "internalType": "uint256",
          "name": "claim_end_time",
          "type": "uint256"
        }
      ],
      "stateMutability": "view",
      "type": "function"
    },
    {
      "inputs": [
        {
          "internalType": "address",
          "name": "treasury_",
          "type": "address"
        }
      ],
      "name": "setTreasury",
      "outputs": [],
      "stateMutability": "nonpayable",
      "type": "function"
    },
    {
      "inputs": [
        {
          "internalType": "uint256",
          "name": "season_id_",
          "type": "uint256"
        }
      ],
      "name": "stakeReward",
      "outputs": [],
      "stateMutability": "nonpayable",
      "type": "function"
    },
    {
      "inputs": [],
      "name": "staking_pool",
      "outputs": [
        {
          "internalType": "contract ISCMetagamePool",
          "name": "",
          "type": "address"
        }
      ],
      "stateMutability": "view",
      "type": "function"
    },
    {
      "inputs": [
        {
          "internalType": "uint256",
          "name": "start_time_",
          "type": "uint256"
        }
      ],
      "name": "startSeason",
      "outputs": [
        {
          "components": [
            {
              "internalType": "uint256",
              "name": "id",
              "type": "uint256"
            },
            {
              "internalType": "uint256",
              "name": "start_time",
              "type": "uint256"
            },
            {
              "internalType": "uint256",
              "name": "end_time",
              "type": "uint256"
            },
            {
              "internalType": "uint256",
              "name": "reward_amount",
              "type": "uint256"
            },
            {
              "internalType": "uint256",
              "name": "remaining_reward_amount",
              "type": "uint256"
            },
            {
              "internalType": "uint256",
              "name": "claim_end_time",
              "type": "uint256"
            }
          ],
          "internalType": "struct ISCSeasonRewards.Season",
          "name": "season_",
          "type": "tuple"
        }
      ],
      "stateMutability": "nonpayable",
      "type": "function"
    }
  ],
  "bytecode": "0x60c060405234801561001057600080fd5b50604051611def380380611def83398101604081905261002f91610097565b6001600160a01b0394851660805292841660a052600080549285166001600160a01b031993841617905560018054918516918316919091179055600280549290931691161790556100fc565b80516001600160a01b038116811461009257600080fd5b919050565b600080600080600060a086880312156100af57600080fd5b6100b88661007b565b94506100c66020870161007b565b93506100d46040870161007b565b92506100e26060870161007b565b91506100f06080870161007b565b90509295509295909350565b60805160a051611c886101676000396000818161089201528181610dc60152818161109001526111860152600081816102f201528181610435015281816105c80152818161099001528181610ba201528181610ea7015281816112ad01526115ae0152611c886000f3fe608060405234801561001057600080fd5b50600436106101425760003560e01c80638ee624a9116100b8578063d3924ddd1161007c578063d3924ddd1461034d578063dc72bb9714610360578063e48dd15614610373578063f0f4426014610386578063f5d709a114610399578063f96d92e5146103d957600080fd5b80638ee624a9146102da578063ab8c71c0146102ed578063ae169a5014610314578063af51d8fb14610327578063bcfdce351461033a57600080fd5b8063776bda521161010a578063776bda521461020d5780637c9367d11461024657806388b50b5f1461025e5780638980f11f146102895780638c25be3d1461029c5780638ea3a4f3146102af57600080fd5b80630ebce0c114610147578063345f5f3e146101735780635330d4f9146101865780635b206ec51461019b578063703dbfe4146101ae575b600080fd5b61015e61015536600461193a565b60a00151151590565b60405190151581526020015b60405180910390f35b61015e610181366004611956565b6103f9565b610199610194366004611981565b61041e565b005b6101996101a936600461199a565b6105b1565b6101c16101bc366004611981565b610940565b60405161016a9190600060c082019050825182526020830151602083015260408301516040830152606083015160608301526080830151608083015260a083015160a083015292915050565b61023861021b3660046119e2565b600560209081526000928352604080842090915290825290205481565b60405190815260200161016a565b61015e610254366004611956565b6040909101511090565b600154610271906001600160a01b031681565b6040516001600160a01b03909116815260200161016a565b610199610297366004611a0e565b610b8b565b6102386102aa366004611981565b610cd2565b6102386102bd3660046119e2565b600460209081526000928352604080842090915290825290205481565b600254610271906001600160a01b031681565b6102717f000000000000000000000000000000000000000000000000000000000000000081565b610199610322366004611981565b610d91565b61015e610335366004611956565b610e52565b61015e610348366004611956565b610e74565b61019961035b366004611981565b610e90565b61019961036e366004611981565b61114f565b610199610381366004611a84565b611296565b610199610394366004611b03565b611597565b6103ac6103a7366004611981565b6116bc565b604080519687526020870195909552938501929092526060840152608083015260a082015260c00161016a565b6102386103e7366004611b03565b60076020526000908152604090205481565b60006104088360a00151151590565b80156104175750818360a00151105b9392505050565b604051634f4bdc7b60e11b81526001600160a01b037f00000000000000000000000000000000000000000000000000000000000000001690639e97b8f69061046c9060049033908201611b1e565b602060405180830381865afa158015610489573d6000803e3d6000fd5b505050506040513d601f19601f820116820180604052508101906104ad9190611b58565b6104d25760405162461bcd60e51b81526004016104c990611b7a565b60405180910390fd5b6000600382815481106104e7576104e7611ba7565b90600052602060002090600602019050600081600101541161051b5760405162461bcd60e51b81526004016104c990611bbd565b6040805160c08101825282548152600183015460208201526002830154918101919091526003820154606082015260048201546080820152600582015460a08201526105679042610e74565b6105a75760405162461bcd60e51b8152602060048201526011602482015270534541534f4e204e4f542041435449564560781b60448201526064016104c9565b4260029091015550565b604051634f4bdc7b60e11b81526001600160a01b037f00000000000000000000000000000000000000000000000000000000000000001690639e97b8f6906105ff9060049033908201611b1e565b602060405180830381865afa15801561061c573d6000803e3d6000fd5b505050506040513d601f19601f820116820180604052508101906106409190611b58565b61065c5760405162461bcd60e51b81526004016104c990611b7a565b60006003848154811061067157610671611ba7565b9060005260206000209060060201905060008160010154116106a55760405162461bcd60e51b81526004016104c990611bbd565b6040805160c081018252825481526001830154602082015260028301549181018290526003830154606082015260048301546080820152600583015460a09091015242116107285760405162461bcd60e51b815260206004820152601060248201526f14d15054d3d397d393d517d15391115160821b60448201526064016104c9565b6040805160c08101825282548152600183015460208201526002830154918101919091526003820154606082015260048201546080820152600582015460a0909101819052156107ad5760405162461bcd60e51b815260206004820152601060248201526f14d15054d3d397d1925390531256915160821b60448201526064016104c9565b806003015483146108005760405162461bcd60e51b815260206004820152601b60248201527f52455741524420414d4f554e5420444f45534e2754204d41544348000000000060448201526064016104c9565b62093a80821015801561081657506305265c0082105b6108625760405162461bcd60e51b815260206004820152601c60248201527f434c41494d204455524154494f4e204f5554204f4620424f554e44530000000060448201526064016104c9565b600080546040516323b872dd60e01b81526001600160a01b039182166004820152306024820152604481018690527f0000000000000000000000000000000000000000000000000000000000000000909116906323b872dd906064016020604051808303816000875af11580156108dd573d6000803e3d6000fd5b505050506040513d601f19601f820116820180604052508101906109019190611b58565b9050806109205760405162461bcd60e51b81526004016104c990611be7565b600482018490556109318342611c26565b82600501819055505050505050565b6109796040518060c001604052806000815260200160008152602001600081526020016000815260200160008152602001600081525090565b604051634f4bdc7b60e11b81526001600160a01b037f00000000000000000000000000000000000000000000000000000000000000001690639e97b8f6906109c79060049033908201611b1e565b602060405180830381865afa1580156109e4573d6000803e3d6000fd5b505050506040513d601f19601f82011682018060405250810190610a089190611b58565b610a245760405162461bcd60e51b81526004016104c990611b7a565b60008211610a685760405162461bcd60e51b8152602060048201526011602482015270043414e4e4f54205354415254204154203607c1b60448201526064016104c9565b60208101918252600019604082019081526003805463ffffffff8116845260018101825560009190915282517fc2575a0e9e593c00f959f8c92f12db2869c3395a3b0502d05e2516446f71f85b60069092029182015592517fc2575a0e9e593c00f959f8c92f12db2869c3395a3b0502d05e2516446f71f85c840155517fc2575a0e9e593c00f959f8c92f12db2869c3395a3b0502d05e2516446f71f85d83015560608101517fc2575a0e9e593c00f959f8c92f12db2869c3395a3b0502d05e2516446f71f85e83015560808101517fc2575a0e9e593c00f959f8c92f12db2869c3395a3b0502d05e2516446f71f85f83015560a08101517fc2575a0e9e593c00f959f8c92f12db2869c3395a3b0502d05e2516446f71f8609092019190915590565b604051634f4bdc7b60e11b81526001600160a01b037f00000000000000000000000000000000000000000000000000000000000000001690639e97b8f690610bda906001903390600401611b1e565b602060405180830381865afa158015610bf7573d6000803e3d6000fd5b505050506040513d601f19601f82011682018060405250810190610c1b9190611b58565b610c5c5760405162461bcd60e51b81526020600482015260126024820152712737ba10309023b637b130b61020b236b4b760711b60448201526064016104c9565b60405163a9059cbb60e01b8152336004820152602481018290526001600160a01b0383169063a9059cbb906044016020604051808303816000875af1158015610ca9573d6000803e3d6000fd5b505050506040513d601f19601f82011682018060405250810190610ccd9190611b58565b505050565b60008181526005602090815260408083203380855290835281842054858552600484528285209185529252822054610d0a9190611c3f565b9050600060038381548110610d2157610d21611ba7565b90600052602060002090600602019050610d82816040518060c0016040529081600082015481526020016001820154815260200160028201548152602001600382015481526020016004820154815260200160058201548152505042610e52565b610d8b57600091505b50919050565b6000610d9c82611702565b60405163a9059cbb60e01b8152336004820152602481018290529091506000906001600160a01b037f0000000000000000000000000000000000000000000000000000000000000000169063a9059cbb906044016020604051808303816000875af1158015610e0f573d6000803e3d6000fd5b505050506040513d601f19601f82011682018060405250810190610e339190611b58565b905080610ccd5760405162461bcd60e51b81526004016104c990611be7565b6000610e618360a00151151590565b801561041757505060a090910151101590565b6000818360400151101580156104175750506020909101511090565b604051634f4bdc7b60e11b81526001600160a01b037f00000000000000000000000000000000000000000000000000000000000000001690639e97b8f690610ede9060049033908201611b1e565b602060405180830381865afa158015610efb573d6000803e3d6000fd5b505050506040513d601f19601f82011682018060405250810190610f1f9190611b58565b610f3b5760405162461bcd60e51b81526004016104c990611b7a565b600060038281548110610f5057610f50611ba7565b906000526020600020906006020190506000816004015490506000826001015411610f8d5760405162461bcd60e51b81526004016104c990611bbd565b6040805160c08101825283548152600184015460208201526002840154918101919091526003830154606082015260048301546080820152600583015460a0820152610fd990426103f9565b61101e5760405162461bcd60e51b815260206004820152601660248201527514d15054d3d397d0d310525357d393d517d15391115160521b60448201526064016104c9565b600081116110665760405162461bcd60e51b815260206004820152601560248201527416915493d7d49153505253925391d7d05353d55395605a1b60448201526064016104c9565b6000805460405163a9059cbb60e01b81526001600160a01b039182166004820152602481018490527f00000000000000000000000000000000000000000000000000000000000000009091169063a9059cbb906044016020604051808303816000875af11580156110db573d6000803e3d6000fd5b505050506040513d601f19601f820116820180604052508101906110ff9190611b58565b90508061111e5760405162461bcd60e51b81526004016104c990611be7565b816fffffffffffffffffffffffffffffffff168360040160008282546111449190611c3f565b909155505050505050565b600061115a82611702565b60025460405163095ea7b360e01b81526001600160a01b039182166004820152602481018390529192507f0000000000000000000000000000000000000000000000000000000000000000169063095ea7b3906044016020604051808303816000875af11580156111cf573d6000803e3d6000fd5b505050506040513d601f19601f820116820180604052508101906111f39190611b58565b506002546040516305dc812160e31b8152336004820152602481018390526001600160a01b0390911690632ee4090890604401600060405180830381600087803b15801561124057600080fd5b505af1158015611254573d6000803e3d6000fd5b505060408051338152602081018590527f29531f524cf81428cc32c9c3c6c66d0a81f2900ab11138c1c859836bc963f884935001905060405180910390a15050565b604051634f4bdc7b60e11b81526001600160a01b037f00000000000000000000000000000000000000000000000000000000000000001690639e97b8f6906112e49060049033908201611b1e565b602060405180830381865afa158015611301573d6000803e3d6000fd5b505050506040513d601f19601f820116820180604052508101906113259190611b58565b6113415760405162461bcd60e51b81526004016104c990611b7a565b8281146113835760405162461bcd60e51b815260206004820152601060248201526f082a4a482b2a640409a92a69a82a886960831b60448201526064016104c9565b60006003868154811061139857611398611ba7565b9060005260206000209060060201905060008160010154116113cc5760405162461bcd60e51b81526004016104c990611bbd565b6040805160c08101825282548152600183015460208201526002830154918101919091526003820154606082015260048201546080820152600582015460a0909101819052156114515760405162461bcd60e51b815260206004820152601060248201526f14d15054d3d38811925390531256915160821b60448201526064016104c9565b60008060005b868110156115585785858281811061147157611471611ba7565b90506020020135836114839190611c26565b60008a81526004602052604081209194508989848181106114a6576114a6611ba7565b90506020020160208101906114bb9190611b03565b6001600160a01b031681526020810191909152604001600020546114df9083611c26565b91508585828181106114f3576114f3611ba7565b90506020020135600460008b815260200190815260200160002060008a8a8581811061152157611521611ba7565b90506020020160208101906115369190611b03565b6001600160a01b03168152602081019190915260400160002055600101611457565b508183600301600082825461156d9190611c26565b92505081905550808360030160008282546115889190611c3f565b90915550505050505050505050565b604051634f4bdc7b60e11b81526001600160a01b037f00000000000000000000000000000000000000000000000000000000000000001690639e97b8f6906115e6906001903390600401611b1e565b602060405180830381865afa158015611603573d6000803e3d6000fd5b505050506040513d601f19601f820116820180604052508101906116279190611b58565b6116685760405162461bcd60e51b81526020600482015260126024820152712737ba10309023b637b130b61020b236b4b760711b60448201526064016104c9565b600080546001600160a01b0319166001600160a01b0383169081179091556040519081527f3c864541ef71378c6229510ed90f376565ee42d9c5e0904a984a9e863e6db44f9060200160405180910390a150565b600381815481106116cc57600080fd5b60009182526020909120600690910201805460018201546002830154600384015460048501546005909501549395509193909286565b60008181526005602090815260408083203384529091528120541561175a5760405162461bcd60e51b815260206004820152600e60248201526d149155d054910810d3105253515160921b60448201526064016104c9565b60006003838154811061176f5761176f611ba7565b906000526020600020906006020190506117d0816040518060c0016040529081600082015481526020016001820154815260200160028201548152602001600382015481526020016004820154815260200160058201548152505042610e52565b6118115760405162461bcd60e51b815260206004820152601260248201527114d15054d3d397d0d310525357d15391115160721b60448201526064016104c9565b6000838152600460209081526040808320338452909152902054806118785760405162461bcd60e51b815260206004820152601b60248201527f4d55535420484156452041204e4f4e205a45524f20524557415244000000000060448201526064016104c9565b8082600401600082825461188c9190611c3f565b909155505060009384526005602090815260408086203387529091529093208390555090919050565b600060c082840312156118c757600080fd5b60405160c0810181811067ffffffffffffffff821117156118f857634e487b7160e01b600052604160045260246000fd5b604090815283358252602080850135908301528381013590820152606080840135908201526080808401359082015260a0928301359281019290925250919050565b600060c0828403121561194c57600080fd5b61041783836118b5565b60008060e0838503121561196957600080fd5b61197384846118b5565b9460c0939093013593505050565b60006020828403121561199357600080fd5b5035919050565b6000806000606084860312156119af57600080fd5b505081359360208301359350604090920135919050565b80356001600160a01b03811681146119dd57600080fd5b919050565b600080604083850312156119f557600080fd5b82359150611a05602084016119c6565b90509250929050565b60008060408385031215611a2157600080fd5b611a2a836119c6565b946020939093013593505050565b60008083601f840112611a4a57600080fd5b50813567ffffffffffffffff811115611a6257600080fd5b6020830191508360208260051b8501011115611a7d57600080fd5b9250929050565b600080600080600060608688031215611a9c57600080fd5b85359450602086013567ffffffffffffffff811115611aba57600080fd5b611ac688828901611a38565b909550935050604086013567ffffffffffffffff811115611ae657600080fd5b611af288828901611a38565b969995985093965092949392505050565b600060208284031215611b1557600080fd5b610417826119c6565b60408101600f8410611b4057634e487b7160e01b600052602160045260246000fd5b9281526001600160a01b039190911660209091015290565b600060208284031215611b6a57600080fd5b8151801515811461041757600080fd5b6020808252601390820152722737ba10309029bcb9ba32b6b99020b236b4b760691b604082015260600190565b634e487b7160e01b600052603260045260246000fd5b60208082526010908201526f14d15054d3d3881393d5081193d5539160821b604082015260600190565b6020808252600f908201526e2320a4a622a2102a2920a729a322a960891b604082015260600190565b634e487b7160e01b600052601160045260246000fd5b80820180821115611c3957611c39611c10565b92915050565b81810381811115611c3957611c39611c1056fea2646970667358221220830189c7b1095359738f95e0eba3f094860cf772940096377f42765e8bec4b5f64736f6c634300081e0033",
  "linkReferences": {},
  "deployedLinkReferences": {}
}