{
  "_format": "hh-sol-artifact-1",
  "contractName": "SCSeasonRewards",
  "sourceName": "SuperChamps/contracts/Seasons/SCSeasonRewards.sol",
  "abi": [
    {
      "inputs": [
        {
          "internalType": "address",
          "name": "permissions_",
          "type": "address"
        },
        {
          "internalType": "address",
          "name": "token_",
          "type": "address"
        },
        {
          "internalType": "address",
          "name": "treasury_",
          "type": "address"
        },
        {
          "internalType": "address",
          "name": "staking_pool_",
          "type": "address"
        }
      ],
      "stateMutability": "nonpayable",
      "type": "constructor"
    },
    {
      "anonymous": false,
      "inputs": [
        {
          "indexed": true,
          "internalType": "uint256",
          "name": "id",
          "type": "uint256"
        },
        {
          "indexed": false,
          "internalType": "uint256",
          "name": "end_time",
          "type": "uint256"
        }
      ],
      "name": "EndSeason",
      "type": "event"
    },
    {
      "anonymous": false,
      "inputs": [
        {
          "indexed": true,
          "internalType": "uint256",
          "name": "seasonId",
          "type": "uint256"
        },
        {
          "indexed": false,
          "internalType": "address[]",
          "name": "players",
          "type": "address[]"
        },
        {
          "indexed": false,
          "internalType": "uint256[]",
          "name": "rewards",
          "type": "uint256[]"
        }
      ],
      "name": "RewardsReported",
      "type": "event"
    },
    {
      "anonymous": false,
      "inputs": [
        {
          "indexed": true,
          "internalType": "uint256",
          "name": "seasonId",
          "type": "uint256"
        },
        {
          "indexed": false,
          "internalType": "uint256",
          "name": "rewardAmount",
          "type": "uint256"
        },
        {
          "indexed": false,
          "internalType": "uint256",
          "name": "claimEndTime",
          "type": "uint256"
        }
      ],
      "name": "SeasonFinalized",
      "type": "event"
    },
    {
      "anonymous": false,
      "inputs": [
        {
          "indexed": true,
          "internalType": "address",
          "name": "staker",
          "type": "address"
        },
        {
          "indexed": false,
          "internalType": "uint256",
          "name": "rewards",
          "type": "uint256"
        }
      ],
      "name": "StakedRewards",
      "type": "event"
    },
    {
      "anonymous": false,
      "inputs": [
        {
          "indexed": true,
          "internalType": "address",
          "name": "stakingPool",
          "type": "address"
        }
      ],
      "name": "StakingPoolSet",
      "type": "event"
    },
    {
      "anonymous": false,
      "inputs": [
        {
          "indexed": true,
          "internalType": "uint256",
          "name": "id",
          "type": "uint256"
        },
        {
          "indexed": false,
          "internalType": "uint256",
          "name": "start_time",
          "type": "uint256"
        }
      ],
      "name": "StartSeason",
      "type": "event"
    },
    {
      "anonymous": false,
      "inputs": [
        {
          "indexed": true,
          "internalType": "address",
          "name": "treasury",
          "type": "address"
        }
      ],
      "name": "TreasurySet",
      "type": "event"
    },
    {
      "anonymous": false,
      "inputs": [
        {
          "indexed": true,
          "internalType": "uint256",
          "name": "seasonId",
          "type": "uint256"
        },
        {
          "indexed": false,
          "internalType": "uint256",
          "name": "amount",
          "type": "uint256"
        },
        {
          "indexed": false,
          "internalType": "address",
          "name": "treasury",
          "type": "address"
        }
      ],
      "name": "UnclaimedRewardRevoked",
      "type": "event"
    },
    {
      "inputs": [
        {
          "internalType": "uint256",
          "name": "season_id_",
          "type": "uint256"
        }
      ],
      "name": "claimReward",
      "outputs": [],
      "stateMutability": "nonpayable",
      "type": "function"
    },
    {
      "inputs": [
        {
          "internalType": "uint256",
          "name": "",
          "type": "uint256"
        },
        {
          "internalType": "address",
          "name": "",
          "type": "address"
        }
      ],
      "name": "claimed_rewards",
      "outputs": [
        {
          "internalType": "uint256",
          "name": "",
          "type": "uint256"
        }
      ],
      "stateMutability": "view",
      "type": "function"
    },
    {
      "inputs": [
        {
          "internalType": "uint256",
          "name": "id_",
          "type": "uint256"
        }
      ],
      "name": "endSeason",
      "outputs": [],
      "stateMutability": "nonpayable",
      "type": "function"
    },
    {
      "inputs": [
        {
          "internalType": "uint256",
          "name": "id_",
          "type": "uint256"
        },
        {
          "internalType": "uint256",
          "name": "reward_amount_",
          "type": "uint256"
        },
        {
          "internalType": "uint256",
          "name": "claim_duration_",
          "type": "uint256"
        }
      ],
      "name": "finalize",
      "outputs": [],
      "stateMutability": "nonpayable",
      "type": "function"
    },
    {
      "inputs": [
        {
          "internalType": "uint256",
          "name": "season_id_",
          "type": "uint256"
        }
      ],
      "name": "getClaimableReward",
      "outputs": [
        {
          "internalType": "uint256",
          "name": "_reward",
          "type": "uint256"
        }
      ],
      "stateMutability": "view",
      "type": "function"
    },
    {
      "inputs": [
        {
          "components": [
            {
              "internalType": "uint256",
              "name": "id",
              "type": "uint256"
            },
            {
              "internalType": "uint256",
              "name": "start_time",
              "type": "uint256"
            },
            {
              "internalType": "uint256",
              "name": "end_time",
              "type": "uint256"
            },
            {
              "internalType": "uint256",
              "name": "reward_amount",
              "type": "uint256"
            },
            {
              "internalType": "uint256",
              "name": "remaining_reward_amount",
              "type": "uint256"
            },
            {
              "internalType": "uint256",
              "name": "claim_end_time",
              "type": "uint256"
            }
          ],
          "internalType": "struct ISCSeasonRewards.Season",
          "name": "season_",
          "type": "tuple"
        }
      ],
      "name": "isSeasonActive",
      "outputs": [
        {
          "internalType": "bool",
          "name": "_active",
          "type": "bool"
        }
      ],
      "stateMutability": "view",
      "type": "function"
    },
    {
      "inputs": [
        {
          "components": [
            {
              "internalType": "uint256",
              "name": "id",
              "type": "uint256"
            },
            {
              "internalType": "uint256",
              "name": "start_time",
              "type": "uint256"
            },
            {
              "internalType": "uint256",
              "name": "end_time",
              "type": "uint256"
            },
            {
              "internalType": "uint256",
              "name": "reward_amount",
              "type": "uint256"
            },
            {
              "internalType": "uint256",
              "name": "remaining_reward_amount",
              "type": "uint256"
            },
            {
              "internalType": "uint256",
              "name": "claim_end_time",
              "type": "uint256"
            }
          ],
          "internalType": "struct ISCSeasonRewards.Season",
          "name": "season_",
          "type": "tuple"
        }
      ],
      "name": "isSeasonClaimingActive",
      "outputs": [
        {
          "internalType": "bool",
          "name": "_active",
          "type": "bool"
        }
      ],
      "stateMutability": "view",
      "type": "function"
    },
    {
      "inputs": [
        {
          "components": [
            {
              "internalType": "uint256",
              "name": "id",
              "type": "uint256"
            },
            {
              "internalType": "uint256",
              "name": "start_time",
              "type": "uint256"
            },
            {
              "internalType": "uint256",
              "name": "end_time",
              "type": "uint256"
            },
            {
              "internalType": "uint256",
              "name": "reward_amount",
              "type": "uint256"
            },
            {
              "internalType": "uint256",
              "name": "remaining_reward_amount",
              "type": "uint256"
            },
            {
              "internalType": "uint256",
              "name": "claim_end_time",
              "type": "uint256"
            }
          ],
          "internalType": "struct ISCSeasonRewards.Season",
          "name": "season_",
          "type": "tuple"
        }
      ],
      "name": "isSeasonClaimingEnded",
      "outputs": [
        {
          "internalType": "bool",
          "name": "_ended",
          "type": "bool"
        }
      ],
      "stateMutability": "view",
      "type": "function"
    },
    {
      "inputs": [
        {
          "components": [
            {
              "internalType": "uint256",
              "name": "id",
              "type": "uint256"
            },
            {
              "internalType": "uint256",
              "name": "start_time",
              "type": "uint256"
            },
            {
              "internalType": "uint256",
              "name": "end_time",
              "type": "uint256"
            },
            {
              "internalType": "uint256",
              "name": "reward_amount",
              "type": "uint256"
            },
            {
              "internalType": "uint256",
              "name": "remaining_reward_amount",
              "type": "uint256"
            },
            {
              "internalType": "uint256",
              "name": "claim_end_time",
              "type": "uint256"
            }
          ],
          "internalType": "struct ISCSeasonRewards.Season",
          "name": "season_",
          "type": "tuple"
        }
      ],
      "name": "isSeasonEnded",
      "outputs": [
        {
          "internalType": "bool",
          "name": "_ended",
          "type": "bool"
        }
      ],
      "stateMutability": "view",
      "type": "function"
    },
    {
      "inputs": [
        {
          "components": [
            {
              "internalType": "uint256",
              "name": "id",
              "type": "uint256"
            },
            {
              "internalType": "uint256",
              "name": "start_time",
              "type": "uint256"
            },
            {
              "internalType": "uint256",
              "name": "end_time",
              "type": "uint256"
            },
            {
              "internalType": "uint256",
              "name": "reward_amount",
              "type": "uint256"
            },
            {
              "internalType": "uint256",
              "name": "remaining_reward_amount",
              "type": "uint256"
            },
            {
              "internalType": "uint256",
              "name": "claim_end_time",
              "type": "uint256"
            }
          ],
          "internalType": "struct ISCSeasonRewards.Season",
          "name": "season_",
          "type": "tuple"
        }
      ],
      "name": "isSeasonFinalized",
      "outputs": [
        {
          "internalType": "bool",
          "name": "_finalized",
          "type": "bool"
        }
      ],
      "stateMutability": "pure",
      "type": "function"
    },
    {
      "inputs": [],
      "name": "permissions",
      "outputs": [
        {
          "internalType": "contract IPermissionsManager",
          "name": "",
          "type": "address"
        }
      ],
      "stateMutability": "view",
      "type": "function"
    },
    {
      "inputs": [
        {
          "internalType": "address",
          "name": "tokenAddress_",
          "type": "address"
        },
        {
          "internalType": "uint256",
          "name": "tokenAmount_",
          "type": "uint256"
        }
      ],
      "name": "recoverERC20",
      "outputs": [],
      "stateMutability": "nonpayable",
      "type": "function"
    },
    {
      "inputs": [
        {
          "internalType": "uint256",
          "name": "season_id_",
          "type": "uint256"
        },
        {
          "internalType": "address[]",
          "name": "players_",
          "type": "address[]"
        },
        {
          "internalType": "uint256[]",
          "name": "rewards_",
          "type": "uint256[]"
        }
      ],
      "name": "reportRewards",
      "outputs": [],
      "stateMutability": "nonpayable",
      "type": "function"
    },
    {
      "inputs": [
        {
          "internalType": "uint256",
          "name": "id_",
          "type": "uint256"
        }
      ],
      "name": "revokeUnclaimedReward",
      "outputs": [],
      "stateMutability": "nonpayable",
      "type": "function"
    },
    {
      "inputs": [
        {
          "internalType": "uint256",
          "name": "",
          "type": "uint256"
        },
        {
          "internalType": "address",
          "name": "",
          "type": "address"
        }
      ],
      "name": "season_rewards",
      "outputs": [
        {
          "internalType": "uint256",
          "name": "",
          "type": "uint256"
        }
      ],
      "stateMutability": "view",
      "type": "function"
    },
    {
      "inputs": [
        {
          "internalType": "uint256",
          "name": "",
          "type": "uint256"
        }
      ],
      "name": "seasons",
      "outputs": [
        {
          "internalType": "uint256",
          "name": "id",
          "type": "uint256"
        },
        {
          "internalType": "uint256",
          "name": "start_time",
          "type": "uint256"
        },
        {
          "internalType": "uint256",
          "name": "end_time",
          "type": "uint256"
        },
        {
          "internalType": "uint256",
          "name": "reward_amount",
          "type": "uint256"
        },
        {
          "internalType": "uint256",
          "name": "remaining_reward_amount",
          "type": "uint256"
        },
        {
          "internalType": "uint256",
          "name": "claim_end_time",
          "type": "uint256"
        }
      ],
      "stateMutability": "view",
      "type": "function"
    },
    {
      "inputs": [
        {
          "internalType": "address",
          "name": "stakingPool_",
          "type": "address"
        }
      ],
      "name": "setStakingPool",
      "outputs": [],
      "stateMutability": "nonpayable",
      "type": "function"
    },
    {
      "inputs": [
        {
          "internalType": "address",
          "name": "treasury_",
          "type": "address"
        }
      ],
      "name": "setTreasury",
      "outputs": [],
      "stateMutability": "nonpayable",
      "type": "function"
    },
    {
      "inputs": [
        {
          "internalType": "uint256",
          "name": "season_id_",
          "type": "uint256"
        }
      ],
      "name": "stakeReward",
      "outputs": [],
      "stateMutability": "nonpayable",
      "type": "function"
    },
    {
      "inputs": [],
      "name": "staking_pool",
      "outputs": [
        {
          "internalType": "contract ISCMetagamePool",
          "name": "",
          "type": "address"
        }
      ],
      "stateMutability": "view",
      "type": "function"
    },
    {
      "inputs": [
        {
          "internalType": "uint256",
          "name": "start_time_",
          "type": "uint256"
        }
      ],
      "name": "startSeason",
      "outputs": [
        {
          "components": [
            {
              "internalType": "uint256",
              "name": "id",
              "type": "uint256"
            },
            {
              "internalType": "uint256",
              "name": "start_time",
              "type": "uint256"
            },
            {
              "internalType": "uint256",
              "name": "end_time",
              "type": "uint256"
            },
            {
              "internalType": "uint256",
              "name": "reward_amount",
              "type": "uint256"
            },
            {
              "internalType": "uint256",
              "name": "remaining_reward_amount",
              "type": "uint256"
            },
            {
              "internalType": "uint256",
              "name": "claim_end_time",
              "type": "uint256"
            }
          ],
          "internalType": "struct ISCSeasonRewards.Season",
          "name": "season_",
          "type": "tuple"
        }
      ],
      "stateMutability": "nonpayable",
      "type": "function"
    }
  ],
  "bytecode": "0x60c06040523480156200001157600080fd5b5060405162001feb38038062001feb83398101604081905262000034916200008e565b6001600160a01b0393841660805291831660a052600080549184166001600160a01b031992831617905560018054929093169116179055620000eb565b80516001600160a01b03811681146200008957600080fd5b919050565b60008060008060808587031215620000a557600080fd5b620000b08562000071565b9350620000c06020860162000071565b9250620000d06040860162000071565b9150620000e06060860162000071565b905092959194509250565b60805160a051611e8d6200015e60003960008181610a0b01528181610f8b015281816111e0015261134d0152600081816102fe015281816103e90152818161053e015281816106ff01528181610b2a01528181610d9201528181610ff90152818161146801526117a90152611e8d6000f3fe608060405234801561001057600080fd5b50600436106101375760003560e01c80638ea3a4f3116100b8578063d1a507431161007c578063d1a5074314610333578063d3924ddd14610346578063dc72bb9714610359578063e48dd1561461036c578063f0f442601461037f578063f5d709a11461039257600080fd5b80638ea3a4f31461028c5780638ee624a9146102b7578063a4466198146102e2578063ab8c71c0146102f9578063ae169a501461032057600080fd5b806370ddb269116100ff57806370ddb2691461020257806375f41e801461021a578063776bda521461022d5780638980f11f146102665780638c25be3d1461027957600080fd5b80630ebce0c11461013c5780633028f63a146101685780635330d4f91461017d5780635b206ec514610190578063703dbfe4146101a3575b600080fd5b61015361014a366004611a83565b60a00151151590565b60405190151581526020015b60405180910390f35b61017b610176366004611b27565b6103d2565b005b61017b61018b366004611b49565b610527565b61017b61019e366004611b62565b6106e8565b6101b66101b1366004611b49565b610ada565b60405161015f9190600060c082019050825182526020830151602083015260408301516040830152606083015160608301526080830151608083015260a083015160a083015292915050565b610153610210366004611a83565b60a0015142111590565b610153610228366004611a83565b610d5c565b61025861023b366004611b8e565b600460209081526000928352604080842090915290825290205481565b60405190815260200161015f565b61017b610274366004611bba565b610d7b565b610258610287366004611b49565b610e9e565b61025861029a366004611b8e565b600360209081526000928352604080842090915290825290205481565b6001546102ca906001600160a01b031681565b6040516001600160a01b03909116815260200161015f565b6101536102f0366004611a83565b60400151421190565b6102ca7f000000000000000000000000000000000000000000000000000000000000000081565b61017b61032e366004611b49565b610f61565b610153610341366004611a83565b610fc2565b61017b610354366004611b49565b610fe2565b61017b610367366004611b49565b6112c7565b61017b61037a366004611c30565b611451565b61017b61038d366004611b27565b611792565b6103a56103a0366004611b49565b611886565b604080519687526020870195909552938501929092526060840152608083015260a082015260c00161015f565b604051634f4bdc7b60e11b81526001600160a01b037f00000000000000000000000000000000000000000000000000000000000000001690639e97b8f690610421906001903390600401611caa565b602060405180830381865afa15801561043e573d6000803e3d6000fd5b505050506040513d601f19601f820116820180604052508101906104629190611ce4565b6104875760405162461bcd60e51b815260040161047e90611d06565b60405180910390fd5b6001600160a01b0381166104dd5760405162461bcd60e51b815260206004820152601c60248201527f496e76616c6964207374616b696e6720706f6f6c206164647265737300000000604482015260640161047e565b600180546001600160a01b0319166001600160a01b0383169081179091556040517f6fca2e06bb34845f84427e65445730e7e00faf72ad37f6485b24de98f103bb0690600090a250565b604051634f4bdc7b60e11b81526001600160a01b037f00000000000000000000000000000000000000000000000000000000000000001690639e97b8f6906105759060049033908201611caa565b602060405180830381865afa158015610592573d6000803e3d6000fd5b505050506040513d601f19601f820116820180604052508101906105b69190611ce4565b6105d25760405162461bcd60e51b815260040161047e90611d32565b6000600282815481106105e7576105e7611d5f565b90600052602060002090600602019050600081600101541161061b5760405162461bcd60e51b815260040161047e90611d75565b6040805160c08101825282548152600183015460208201526002830154918101919091526003820154606082015260048201546080820152600582015460a082015261066690610d5c565b6106a65760405162461bcd60e51b8152602060048201526011602482015270534541534f4e204e4f542041435449564560781b604482015260640161047e565b426002820181905560405190815282907f8a0f67d6ef832e7d503ccad4c1f317a166c2f02fde9b8ce87824503602c896c4906020015b60405180910390a25050565b604051634f4bdc7b60e11b81526001600160a01b037f00000000000000000000000000000000000000000000000000000000000000001690639e97b8f6906107369060049033908201611caa565b602060405180830381865afa158015610753573d6000803e3d6000fd5b505050506040513d601f19601f820116820180604052508101906107779190611ce4565b6107935760405162461bcd60e51b815260040161047e90611d32565b6000600284815481106107a8576107a8611d5f565b9060005260206000209060060201905060008160010154116107dc5760405162461bcd60e51b815260040161047e90611d75565b6040805160c081018252825481526001830154602082015260028301549181018290526003830154606082015260048301546080820152600583015460a090910152421161085f5760405162461bcd60e51b815260206004820152601060248201526f14d15054d3d397d393d517d15391115160821b604482015260640161047e565b6040805160c08101825282548152600183015460208201526002830154918101919091526003820154606082015260048201546080820152600582015460a0909101819052156108e45760405162461bcd60e51b815260206004820152601060248201526f14d15054d3d397d1925390531256915160821b604482015260640161047e565b600081600301541161092e5760405162461bcd60e51b81526020600482015260136024820152721393c8149155d0549114c814915413d4951151606a1b604482015260640161047e565b8060030154831461097a5760405162461bcd60e51b81526020600482015260166024820152750a48aae82a48840829a9eaa9ca8409a92a69a82a886960531b604482015260640161047e565b62093a80821015801561099057506305265c0082105b6109dc5760405162461bcd60e51b815260206004820152601c60248201527f434c41494d204455524154494f4e204f5554204f4620424f554e445300000000604482015260640161047e565b6000546040516323b872dd60e01b81526001600160a01b039182166004820152306024820152604481018590527f0000000000000000000000000000000000000000000000000000000000000000909116906323b872dd906064016020604051808303816000875af1158015610a56573d6000803e3d6000fd5b505050506040513d601f19601f82011682018060405250810190610a7a9190611ce4565b5060048101839055610a8c8242611db5565b6005820181905560405185917f6894149c45f639d591811ae2111538f7059ecc516761c2a736f159a7e3a6dfef91610acc91878252602082015260400190565b60405180910390a250505050565b610b136040518060c001604052806000815260200160008152602001600081526020016000815260200160008152602001600081525090565b604051634f4bdc7b60e11b81526001600160a01b037f00000000000000000000000000000000000000000000000000000000000000001690639e97b8f690610b619060049033908201611caa565b602060405180830381865afa158015610b7e573d6000803e3d6000fd5b505050506040513d601f19601f82011682018060405250810190610ba29190611ce4565b610bbe5760405162461bcd60e51b815260040161047e90611d32565b60008211610c025760405162461bcd60e51b8152602060048201526011602482015270043414e4e4f54205354415254204154203607c1b604482015260640161047e565b602081810183815260001960408085019182526002805463ffffffff8116875260018101825560009190915285517f405787fa12a823e0f2b7631cc41b3ba8828b3321ca811111fa75cd3aa3bb5ace600690920291820181905593517f405787fa12a823e0f2b7631cc41b3ba8828b3321ca811111fa75cd3aa3bb5acf820181905592517f405787fa12a823e0f2b7631cc41b3ba8828b3321ca811111fa75cd3aa3bb5ad082015560608601517f405787fa12a823e0f2b7631cc41b3ba8828b3321ca811111fa75cd3aa3bb5ad182015560808601517f405787fa12a823e0f2b7631cc41b3ba8828b3321ca811111fa75cd3aa3bb5ad282015560a08601517f405787fa12a823e0f2b7631cc41b3ba8828b3321ca811111fa75cd3aa3bb5ad3909101555190815290917f9b492ca62dd845faf66276dbd14ed82e0d819d8b172cb51433ffe4268ab3dd9e910160405180910390a2919050565b600042826040015110158015610d755750816020015142115b92915050565b604051634f4bdc7b60e11b81526001600160a01b037f00000000000000000000000000000000000000000000000000000000000000001690639e97b8f690610dca906001903390600401611caa565b602060405180830381865afa158015610de7573d6000803e3d6000fd5b505050506040513d601f19601f82011682018060405250810190610e0b9190611ce4565b610e275760405162461bcd60e51b815260040161047e90611d06565b60405163a9059cbb60e01b8152336004820152602481018290526001600160a01b0383169063a9059cbb906044015b6020604051808303816000875af1158015610e75573d6000803e3d6000fd5b505050506040513d601f19601f82011682018060405250810190610e999190611ce4565b505050565b60008181526004602090815260408083203380855290835281842054858552600384528285209185529252822054610ed69190611dc8565b9050600060028381548110610eed57610eed611d5f565b90600052602060002090600602019050610f52816040518060c0016040529081600082015481526020016001820154815260200160028201548152602001600382015481526020016004820154815260200160058201548152505060a0015142111590565b610f5b57600091505b50919050565b6000610f6c826118cc565b60405163a9059cbb60e01b8152336004820152602481018290529091507f00000000000000000000000000000000000000000000000000000000000000006001600160a01b03169063a9059cbb90604401610e56565b6000610fd18260a00151151590565b8015610d7557505060a00151421190565b604051634f4bdc7b60e11b81526001600160a01b037f00000000000000000000000000000000000000000000000000000000000000001690639e97b8f6906110309060049033908201611caa565b602060405180830381865afa15801561104d573d6000803e3d6000fd5b505050506040513d601f19601f820116820180604052508101906110719190611ce4565b61108d5760405162461bcd60e51b815260040161047e90611d32565b6000600282815481106110a2576110a2611d5f565b9060005260206000209060060201905060008160040154905060008260010154116110df5760405162461bcd60e51b815260040161047e90611d75565b6040805160c08101825283548152600184015460208201526002840154918101919091526003830154606082015260048301546080820152600583015460a082015261112a90610fc2565b61116f5760405162461bcd60e51b815260206004820152601660248201527514d15054d3d397d0d310525357d393d517d15391115160521b604482015260640161047e565b600081116111b75760405162461bcd60e51b815260206004820152601560248201527416915493d7d49153505253925391d7d05353d55395605a1b604482015260640161047e565b60005460405163a9059cbb60e01b81526001600160a01b039182166004820152602481018390527f00000000000000000000000000000000000000000000000000000000000000009091169063a9059cbb906044016020604051808303816000875af115801561122b573d6000803e3d6000fd5b505050506040513d601f19601f8201168201806040525081019061124f9190611ce4565b50806fffffffffffffffffffffffffffffffff168260040160008282546112769190611dc8565b9091555050600054604080518381526001600160a01b03909216602083015284917f5b40e90c65e6ded3c36891ac37f02c16c07f0e25f5893ce111460fb7715078f5910160405180910390a2505050565b6001546001600160a01b03166113165760405162461bcd60e51b815260206004820152601460248201527314dd185ada5b99c81c1bdbdb081b9bdd081cd95d60621b604482015260640161047e565b6000611321826118cc565b60015460405163095ea7b360e01b81526001600160a01b039182166004820152602481018390529192507f0000000000000000000000000000000000000000000000000000000000000000169063095ea7b3906044016020604051808303816000875af1158015611396573d6000803e3d6000fd5b505050506040513d601f19601f820116820180604052508101906113ba9190611ce4565b506001546040516305dc812160e31b8152336004820152602481018390526001600160a01b0390911690632ee4090890604401600060405180830381600087803b15801561140757600080fd5b505af115801561141b573d6000803e3d6000fd5b50506040518381523392507f29531f524cf81428cc32c9c3c6c66d0a81f2900ab11138c1c859836bc963f88491506020016106dc565b604051634f4bdc7b60e11b81526001600160a01b037f00000000000000000000000000000000000000000000000000000000000000001690639e97b8f69061149f9060049033908201611caa565b602060405180830381865afa1580156114bc573d6000803e3d6000fd5b505050506040513d601f19601f820116820180604052508101906114e09190611ce4565b6114fc5760405162461bcd60e51b815260040161047e90611d32565b82811461153e5760405162461bcd60e51b815260206004820152601060248201526f082a4a482b2a640409a92a69a82a886960831b604482015260640161047e565b60006002868154811061155357611553611d5f565b9060005260206000209060060201905060008160010154116115875760405162461bcd60e51b815260040161047e90611d75565b6040805160c08101825282548152600183015460208201526002830154918101919091526003820154606082015260048201546080820152600582015460a09091018190521561160c5760405162461bcd60e51b815260206004820152601060248201526f14d15054d3d38811925390531256915160821b604482015260640161047e565b60008060005b868110156117135785858281811061162c5761162c611d5f565b905060200201358361163e9190611db5565b60008a815260036020526040812091945089898481811061166157611661611d5f565b90506020020160208101906116769190611b27565b6001600160a01b0316815260208101919091526040016000205461169a9083611db5565b91508585828181106116ae576116ae611d5f565b90506020020135600360008b815260200190815260200160002060008a8a858181106116dc576116dc611d5f565b90506020020160208101906116f19190611b27565b6001600160a01b03168152602081019190915260400160002055600101611612565b50818360030160008282546117289190611db5565b92505081905550808360030160008282546117439190611dc8565b92505081905550877f21a8ad3cb312852df01c53816e400ae281387eaf22297410ca95e80071d6ff0c888888886040516117809493929190611ddb565b60405180910390a25050505050505050565b604051634f4bdc7b60e11b81526001600160a01b037f00000000000000000000000000000000000000000000000000000000000000001690639e97b8f6906117e1906001903390600401611caa565b602060405180830381865afa1580156117fe573d6000803e3d6000fd5b505050506040513d601f19601f820116820180604052508101906118229190611ce4565b61183e5760405162461bcd60e51b815260040161047e90611d06565b600080546001600160a01b0319166001600160a01b038316908117825560405190917f3c864541ef71378c6229510ed90f376565ee42d9c5e0904a984a9e863e6db44f91a250565b6002818154811061189657600080fd5b60009182526020909120600690910201805460018201546002830154600384015460048501546005909501549395509193909286565b6000818152600460209081526040808320338452909152812054156119245760405162461bcd60e51b815260206004820152600e60248201526d149155d054910810d3105253515160921b604482015260640161047e565b60006002838154811061193957611939611d5f565b9060005260206000209060060201905061199e816040518060c0016040529081600082015481526020016001820154815260200160028201548152602001600382015481526020016004820154815260200160058201548152505060a0015142111590565b6119df5760405162461bcd60e51b815260206004820152601260248201527114d15054d3d397d0d310525357d15391115160721b604482015260640161047e565b600083815260036020908152604080832033845290915290205480611a465760405162461bcd60e51b815260206004820152601b60248201527f4d55535420484156452041204e4f4e205a45524f205245574152440000000000604482015260640161047e565b80826004016000828254611a5a9190611dc8565b909155505060009384526004602090815260408086203387529091529093208390555090919050565b600060c08284031215611a9557600080fd5b60405160c0810181811067ffffffffffffffff82111715611ac657634e487b7160e01b600052604160045260246000fd5b8060405250823581526020830135602082015260408301356040820152606083013560608201526080830135608082015260a083013560a08201528091505092915050565b80356001600160a01b0381168114611b2257600080fd5b919050565b600060208284031215611b3957600080fd5b611b4282611b0b565b9392505050565b600060208284031215611b5b57600080fd5b5035919050565b600080600060608486031215611b7757600080fd5b505081359360208301359350604090920135919050565b60008060408385031215611ba157600080fd5b82359150611bb160208401611b0b565b90509250929050565b60008060408385031215611bcd57600080fd5b611bd683611b0b565b946020939093013593505050565b60008083601f840112611bf657600080fd5b50813567ffffffffffffffff811115611c0e57600080fd5b6020830191508360208260051b8501011115611c2957600080fd5b9250929050565b600080600080600060608688031215611c4857600080fd5b85359450602086013567ffffffffffffffff80821115611c6757600080fd5b611c7389838a01611be4565b90965094506040880135915080821115611c8c57600080fd5b50611c9988828901611be4565b969995985093965092949392505050565b60408101600f8410611ccc57634e487b7160e01b600052602160045260246000fd5b9281526001600160a01b039190911660209091015290565b600060208284031215611cf657600080fd5b81518015158114611b4257600080fd5b6020808252601290820152712737ba10309023b637b130b61020b236b4b760711b604082015260600190565b6020808252601390820152722737ba10309029bcb9ba32b6b99020b236b4b760691b604082015260600190565b634e487b7160e01b600052603260045260246000fd5b60208082526010908201526f14d15054d3d3881393d5081193d5539160821b604082015260600190565b634e487b7160e01b600052601160045260246000fd5b80820180821115610d7557610d75611d9f565b81810381811115610d7557610d75611d9f565b6040808252810184905260008560608301825b87811015611e1c576001600160a01b03611e0784611b0b565b16825260209283019290910190600101611dee565b5083810360208501528481526001600160fb1b03851115611e3c57600080fd5b8460051b91508186602083013701602001969550505050505056fea2646970667358221220575c5ad78a2d1724c6af7d443521d78e1a4b7053ee4d8492493544cacd53836d64736f6c63430008180033",
  "linkReferences": {},
  "deployedLinkReferences": {}
}