{
  "_format": "hh-sol-artifact-1",
  "contractName": "SCSeasonRewards",
  "sourceName": "SuperChamps/contracts/Seasons/SCSeasonRewards.sol",
  "abi": [
    {
      "inputs": [
        {
          "internalType": "address",
          "name": "permissions_",
          "type": "address"
        },
        {
          "internalType": "address",
          "name": "token_",
          "type": "address"
        },
        {
          "internalType": "address",
          "name": "treasury_",
          "type": "address"
        },
        {
          "internalType": "address",
          "name": "access_pass_",
          "type": "address"
        },
        {
          "internalType": "address",
          "name": "staking_pool_",
          "type": "address"
        }
      ],
      "stateMutability": "nonpayable",
      "type": "constructor"
    },
    {
      "anonymous": false,
      "inputs": [
        {
          "indexed": false,
          "internalType": "address",
          "name": "staker",
          "type": "address"
        },
        {
          "indexed": false,
          "internalType": "uint256",
          "name": "rewards",
          "type": "uint256"
        }
      ],
      "name": "StakedRewards",
      "type": "event"
    },
    {
      "anonymous": false,
      "inputs": [
        {
          "indexed": false,
          "internalType": "address",
          "name": "treasury",
          "type": "address"
        }
      ],
      "name": "TreasurySet",
      "type": "event"
    },
    {
      "inputs": [],
      "name": "access_pass",
      "outputs": [
        {
          "internalType": "contract ISCAccessPass",
          "name": "",
          "type": "address"
        }
      ],
      "stateMutability": "view",
      "type": "function"
    },
    {
      "inputs": [
        {
          "internalType": "uint256",
          "name": "season_id_",
          "type": "uint256"
        }
      ],
      "name": "claimReward",
      "outputs": [],
      "stateMutability": "nonpayable",
      "type": "function"
    },
    {
      "inputs": [
        {
          "internalType": "uint256",
          "name": "",
          "type": "uint256"
        },
        {
          "internalType": "address",
          "name": "",
          "type": "address"
        }
      ],
      "name": "claimed_rewards",
      "outputs": [
        {
          "internalType": "uint256",
          "name": "",
          "type": "uint256"
        }
      ],
      "stateMutability": "view",
      "type": "function"
    },
    {
      "inputs": [
        {
          "internalType": "uint256",
          "name": "id_",
          "type": "uint256"
        }
      ],
      "name": "endSeason",
      "outputs": [],
      "stateMutability": "nonpayable",
      "type": "function"
    },
    {
      "inputs": [
        {
          "internalType": "uint256",
          "name": "id_",
          "type": "uint256"
        },
        {
          "internalType": "uint256",
          "name": "reward_amount_",
          "type": "uint256"
        },
        {
          "internalType": "uint256",
          "name": "claim_duration_",
          "type": "uint256"
        }
      ],
      "name": "finalize",
      "outputs": [],
      "stateMutability": "nonpayable",
      "type": "function"
    },
    {
      "inputs": [
        {
          "internalType": "uint256",
          "name": "season_id_",
          "type": "uint256"
        }
      ],
      "name": "getClaimableReward",
      "outputs": [
        {
          "internalType": "uint256",
          "name": "_reward",
          "type": "uint256"
        }
      ],
      "stateMutability": "view",
      "type": "function"
    },
    {
      "inputs": [
        {
          "components": [
            {
              "internalType": "uint256",
              "name": "id",
              "type": "uint256"
            },
            {
              "internalType": "uint256",
              "name": "start_time",
              "type": "uint256"
            },
            {
              "internalType": "uint256",
              "name": "end_time",
              "type": "uint256"
            },
            {
              "internalType": "uint256",
              "name": "reward_amount",
              "type": "uint256"
            },
            {
              "internalType": "uint256",
              "name": "remaining_reward_amount",
              "type": "uint256"
            },
            {
              "internalType": "uint256",
              "name": "claim_end_time",
              "type": "uint256"
            }
          ],
          "internalType": "struct ISCSeasonRewards.Season",
          "name": "season_",
          "type": "tuple"
        },
        {
          "internalType": "uint256",
          "name": "timestamp_",
          "type": "uint256"
        }
      ],
      "name": "isSeasonActive",
      "outputs": [
        {
          "internalType": "bool",
          "name": "_active",
          "type": "bool"
        }
      ],
      "stateMutability": "pure",
      "type": "function"
    },
    {
      "inputs": [
        {
          "components": [
            {
              "internalType": "uint256",
              "name": "id",
              "type": "uint256"
            },
            {
              "internalType": "uint256",
              "name": "start_time",
              "type": "uint256"
            },
            {
              "internalType": "uint256",
              "name": "end_time",
              "type": "uint256"
            },
            {
              "internalType": "uint256",
              "name": "reward_amount",
              "type": "uint256"
            },
            {
              "internalType": "uint256",
              "name": "remaining_reward_amount",
              "type": "uint256"
            },
            {
              "internalType": "uint256",
              "name": "claim_end_time",
              "type": "uint256"
            }
          ],
          "internalType": "struct ISCSeasonRewards.Season",
          "name": "season_",
          "type": "tuple"
        },
        {
          "internalType": "uint256",
          "name": "timestamp_",
          "type": "uint256"
        }
      ],
      "name": "isSeasonClaimingActive",
      "outputs": [
        {
          "internalType": "bool",
          "name": "_active",
          "type": "bool"
        }
      ],
      "stateMutability": "pure",
      "type": "function"
    },
    {
      "inputs": [
        {
          "components": [
            {
              "internalType": "uint256",
              "name": "id",
              "type": "uint256"
            },
            {
              "internalType": "uint256",
              "name": "start_time",
              "type": "uint256"
            },
            {
              "internalType": "uint256",
              "name": "end_time",
              "type": "uint256"
            },
            {
              "internalType": "uint256",
              "name": "reward_amount",
              "type": "uint256"
            },
            {
              "internalType": "uint256",
              "name": "remaining_reward_amount",
              "type": "uint256"
            },
            {
              "internalType": "uint256",
              "name": "claim_end_time",
              "type": "uint256"
            }
          ],
          "internalType": "struct ISCSeasonRewards.Season",
          "name": "season_",
          "type": "tuple"
        },
        {
          "internalType": "uint256",
          "name": "timestamp_",
          "type": "uint256"
        }
      ],
      "name": "isSeasonClaimingEnded",
      "outputs": [
        {
          "internalType": "bool",
          "name": "_ended",
          "type": "bool"
        }
      ],
      "stateMutability": "pure",
      "type": "function"
    },
    {
      "inputs": [
        {
          "components": [
            {
              "internalType": "uint256",
              "name": "id",
              "type": "uint256"
            },
            {
              "internalType": "uint256",
              "name": "start_time",
              "type": "uint256"
            },
            {
              "internalType": "uint256",
              "name": "end_time",
              "type": "uint256"
            },
            {
              "internalType": "uint256",
              "name": "reward_amount",
              "type": "uint256"
            },
            {
              "internalType": "uint256",
              "name": "remaining_reward_amount",
              "type": "uint256"
            },
            {
              "internalType": "uint256",
              "name": "claim_end_time",
              "type": "uint256"
            }
          ],
          "internalType": "struct ISCSeasonRewards.Season",
          "name": "season_",
          "type": "tuple"
        },
        {
          "internalType": "uint256",
          "name": "timestamp_",
          "type": "uint256"
        }
      ],
      "name": "isSeasonEnded",
      "outputs": [
        {
          "internalType": "bool",
          "name": "_ended",
          "type": "bool"
        }
      ],
      "stateMutability": "pure",
      "type": "function"
    },
    {
      "inputs": [
        {
          "components": [
            {
              "internalType": "uint256",
              "name": "id",
              "type": "uint256"
            },
            {
              "internalType": "uint256",
              "name": "start_time",
              "type": "uint256"
            },
            {
              "internalType": "uint256",
              "name": "end_time",
              "type": "uint256"
            },
            {
              "internalType": "uint256",
              "name": "reward_amount",
              "type": "uint256"
            },
            {
              "internalType": "uint256",
              "name": "remaining_reward_amount",
              "type": "uint256"
            },
            {
              "internalType": "uint256",
              "name": "claim_end_time",
              "type": "uint256"
            }
          ],
          "internalType": "struct ISCSeasonRewards.Season",
          "name": "season_",
          "type": "tuple"
        }
      ],
      "name": "isSeasonFinalized",
      "outputs": [
        {
          "internalType": "bool",
          "name": "_finalized",
          "type": "bool"
        }
      ],
      "stateMutability": "pure",
      "type": "function"
    },
    {
      "inputs": [],
      "name": "permissions",
      "outputs": [
        {
          "internalType": "contract IPermissionsManager",
          "name": "",
          "type": "address"
        }
      ],
      "stateMutability": "view",
      "type": "function"
    },
    {
      "inputs": [
        {
          "internalType": "address",
          "name": "",
          "type": "address"
        }
      ],
      "name": "player_last_signature_timestamp",
      "outputs": [
        {
          "internalType": "uint256",
          "name": "",
          "type": "uint256"
        }
      ],
      "stateMutability": "view",
      "type": "function"
    },
    {
      "inputs": [
        {
          "internalType": "address",
          "name": "tokenAddress_",
          "type": "address"
        },
        {
          "internalType": "uint256",
          "name": "tokenAmount_",
          "type": "uint256"
        }
      ],
      "name": "recoverERC20",
      "outputs": [],
      "stateMutability": "nonpayable",
      "type": "function"
    },
    {
      "inputs": [
        {
          "internalType": "uint256",
          "name": "season_id_",
          "type": "uint256"
        },
        {
          "internalType": "address[]",
          "name": "players_",
          "type": "address[]"
        },
        {
          "internalType": "uint256[]",
          "name": "rewards_",
          "type": "uint256[]"
        }
      ],
      "name": "reportRewards",
      "outputs": [],
      "stateMutability": "nonpayable",
      "type": "function"
    },
    {
      "inputs": [
        {
          "internalType": "uint256",
          "name": "id_",
          "type": "uint256"
        }
      ],
      "name": "revokeUnclaimedReward",
      "outputs": [],
      "stateMutability": "nonpayable",
      "type": "function"
    },
    {
      "inputs": [
        {
          "internalType": "uint256",
          "name": "",
          "type": "uint256"
        },
        {
          "internalType": "address",
          "name": "",
          "type": "address"
        }
      ],
      "name": "season_rewards",
      "outputs": [
        {
          "internalType": "uint256",
          "name": "",
          "type": "uint256"
        }
      ],
      "stateMutability": "view",
      "type": "function"
    },
    {
      "inputs": [
        {
          "internalType": "uint256",
          "name": "",
          "type": "uint256"
        }
      ],
      "name": "seasons",
      "outputs": [
        {
          "internalType": "uint256",
          "name": "id",
          "type": "uint256"
        },
        {
          "internalType": "uint256",
          "name": "start_time",
          "type": "uint256"
        },
        {
          "internalType": "uint256",
          "name": "end_time",
          "type": "uint256"
        },
        {
          "internalType": "uint256",
          "name": "reward_amount",
          "type": "uint256"
        },
        {
          "internalType": "uint256",
          "name": "remaining_reward_amount",
          "type": "uint256"
        },
        {
          "internalType": "uint256",
          "name": "claim_end_time",
          "type": "uint256"
        }
      ],
      "stateMutability": "view",
      "type": "function"
    },
    {
      "inputs": [
        {
          "internalType": "address",
          "name": "stakingPool_",
          "type": "address"
        }
      ],
      "name": "setStakingPool",
      "outputs": [],
      "stateMutability": "nonpayable",
      "type": "function"
    },
    {
      "inputs": [
        {
          "internalType": "address",
          "name": "treasury_",
          "type": "address"
        }
      ],
      "name": "setTreasury",
      "outputs": [],
      "stateMutability": "nonpayable",
      "type": "function"
    },
    {
      "inputs": [
        {
          "internalType": "uint256",
          "name": "season_id_",
          "type": "uint256"
        }
      ],
      "name": "stakeReward",
      "outputs": [],
      "stateMutability": "nonpayable",
      "type": "function"
    },
    {
      "inputs": [],
      "name": "staking_pool",
      "outputs": [
        {
          "internalType": "contract ISCMetagamePool",
          "name": "",
          "type": "address"
        }
      ],
      "stateMutability": "view",
      "type": "function"
    },
    {
      "inputs": [
        {
          "internalType": "uint256",
          "name": "start_time_",
          "type": "uint256"
        }
      ],
      "name": "startSeason",
      "outputs": [
        {
          "components": [
            {
              "internalType": "uint256",
              "name": "id",
              "type": "uint256"
            },
            {
              "internalType": "uint256",
              "name": "start_time",
              "type": "uint256"
            },
            {
              "internalType": "uint256",
              "name": "end_time",
              "type": "uint256"
            },
            {
              "internalType": "uint256",
              "name": "reward_amount",
              "type": "uint256"
            },
            {
              "internalType": "uint256",
              "name": "remaining_reward_amount",
              "type": "uint256"
            },
            {
              "internalType": "uint256",
              "name": "claim_end_time",
              "type": "uint256"
            }
          ],
          "internalType": "struct ISCSeasonRewards.Season",
          "name": "season_",
          "type": "tuple"
        }
      ],
      "stateMutability": "nonpayable",
      "type": "function"
    }
  ],
  "bytecode": "0x60c06040523480156200001157600080fd5b5060405162001f7a38038062001f7a83398101604081905262000034916200009e565b6001600160a01b0394851660805292841660a052600080549285166001600160a01b031993841617905560018054918516918316919091179055600280549290931691161790556200010e565b80516001600160a01b03811681146200009957600080fd5b919050565b600080600080600060a08688031215620000b757600080fd5b620000c28662000081565b9450620000d26020870162000081565b9350620000e26040870162000081565b9250620000f26060870162000081565b9150620001026080870162000081565b90509295509295909350565b60805160a051611df962000181600039600081816109d401528181610ee3015281816111ad01526112f20152600081816103100152818161042e015281816105800152818161070a01528181610ad201528181610ce401528181610fc401528181611419015261171a0152611df96000f3fe608060405234801561001057600080fd5b506004361061014d5760003560e01c80638ea3a4f3116100c3578063d3924ddd1161007c578063d3924ddd1461036b578063dc72bb971461037e578063e48dd15614610391578063f0f44260146103a4578063f5d709a1146103b7578063f96d92e5146103f757600080fd5b80638ea3a4f3146102cd5780638ee624a9146102f8578063ab8c71c01461030b578063ae169a5014610332578063af51d8fb14610345578063bcfdce351461035857600080fd5b8063703dbfe411610115578063703dbfe4146101cc578063776bda521461022b5780637c9367d11461026457806388b50b5f1461027c5780638980f11f146102a75780638c25be3d146102ba57600080fd5b80630ebce0c1146101525780633028f63a1461017e578063345f5f3e146101935780635330d4f9146101a65780635b206ec5146101b9575b600080fd5b610169610160366004611a84565b60a00151151590565b60405190151581526020015b60405180910390f35b61019161018c366004611abc565b610417565b005b6101696101a1366004611ad7565b610544565b6101916101b4366004611b02565b610569565b6101916101c7366004611b1b565b6106f3565b6101df6101da366004611b02565b610a82565b6040516101759190600060c082019050825182526020830151602083015260408301516040830152606083015160608301526080830151608083015260a083015160a083015292915050565b610256610239366004611b47565b600560209081526000928352604080842090915290825290205481565b604051908152602001610175565b610169610272366004611ad7565b6040909101511090565b60015461028f906001600160a01b031681565b6040516001600160a01b039091168152602001610175565b6101916102b5366004611b73565b610ccd565b6102566102c8366004611b02565b610def565b6102566102db366004611b47565b600460209081526000928352604080842090915290825290205481565b60025461028f906001600160a01b031681565b61028f7f000000000000000000000000000000000000000000000000000000000000000081565b610191610340366004611b02565b610eae565b610169610353366004611ad7565b610f6f565b610169610366366004611ad7565b610f91565b610191610379366004611b02565b610fad565b61019161038c366004611b02565b61126c565b61019161039f366004611be9565b611402565b6101916103b2366004611abc565b611703565b6103ca6103c5366004611b02565b611803565b604080519687526020870195909552938501929092526060840152608083015260a082015260c001610175565b610256610405366004611abc565b60076020526000908152604090205481565b604051634f4bdc7b60e11b81526001600160a01b037f00000000000000000000000000000000000000000000000000000000000000001690639e97b8f690610466906001903390600401611c63565b602060405180830381865afa158015610483573d6000803e3d6000fd5b505050506040513d601f19601f820116820180604052508101906104a79190611c9d565b6104cc5760405162461bcd60e51b81526004016104c390611cbf565b60405180910390fd5b6001600160a01b0381166105225760405162461bcd60e51b815260206004820152601c60248201527f496e76616c6964207374616b696e6720706f6f6c20616464726573730000000060448201526064016104c3565b600280546001600160a01b0319166001600160a01b0392909216919091179055565b60006105538360a00151151590565b80156105625750818360a00151105b9392505050565b604051634f4bdc7b60e11b81526001600160a01b037f00000000000000000000000000000000000000000000000000000000000000001690639e97b8f6906105b79060049033908201611c63565b602060405180830381865afa1580156105d4573d6000803e3d6000fd5b505050506040513d601f19601f820116820180604052508101906105f89190611c9d565b6106145760405162461bcd60e51b81526004016104c390611ceb565b60006003828154811061062957610629611d18565b90600052602060002090600602019050600081600101541161065d5760405162461bcd60e51b81526004016104c390611d2e565b6040805160c08101825282548152600183015460208201526002830154918101919091526003820154606082015260048201546080820152600582015460a08201526106a99042610f91565b6106e95760405162461bcd60e51b8152602060048201526011602482015270534541534f4e204e4f542041435449564560781b60448201526064016104c3565b4260029091015550565b604051634f4bdc7b60e11b81526001600160a01b037f00000000000000000000000000000000000000000000000000000000000000001690639e97b8f6906107419060049033908201611c63565b602060405180830381865afa15801561075e573d6000803e3d6000fd5b505050506040513d601f19601f820116820180604052508101906107829190611c9d565b61079e5760405162461bcd60e51b81526004016104c390611ceb565b6000600384815481106107b3576107b3611d18565b9060005260206000209060060201905060008160010154116107e75760405162461bcd60e51b81526004016104c390611d2e565b6040805160c081018252825481526001830154602082015260028301549181018290526003830154606082015260048301546080820152600583015460a090910152421161086a5760405162461bcd60e51b815260206004820152601060248201526f14d15054d3d397d393d517d15391115160821b60448201526064016104c3565b6040805160c08101825282548152600183015460208201526002830154918101919091526003820154606082015260048201546080820152600582015460a0909101819052156108ef5760405162461bcd60e51b815260206004820152601060248201526f14d15054d3d397d1925390531256915160821b60448201526064016104c3565b806003015483146109425760405162461bcd60e51b815260206004820152601b60248201527f52455741524420414d4f554e5420444f45534e2754204d41544348000000000060448201526064016104c3565b62093a80821015801561095857506305265c0082105b6109a45760405162461bcd60e51b815260206004820152601c60248201527f434c41494d204455524154494f4e204f5554204f4620424f554e44530000000060448201526064016104c3565b600080546040516323b872dd60e01b81526001600160a01b039182166004820152306024820152604481018690527f0000000000000000000000000000000000000000000000000000000000000000909116906323b872dd906064016020604051808303816000875af1158015610a1f573d6000803e3d6000fd5b505050506040513d601f19601f82011682018060405250810190610a439190611c9d565b905080610a625760405162461bcd60e51b81526004016104c390611d58565b60048201849055610a738342611d97565b82600501819055505050505050565b610abb6040518060c001604052806000815260200160008152602001600081526020016000815260200160008152602001600081525090565b604051634f4bdc7b60e11b81526001600160a01b037f00000000000000000000000000000000000000000000000000000000000000001690639e97b8f690610b099060049033908201611c63565b602060405180830381865afa158015610b26573d6000803e3d6000fd5b505050506040513d601f19601f82011682018060405250810190610b4a9190611c9d565b610b665760405162461bcd60e51b81526004016104c390611ceb565b60008211610baa5760405162461bcd60e51b8152602060048201526011602482015270043414e4e4f54205354415254204154203607c1b60448201526064016104c3565b60208101918252600019604082019081526003805463ffffffff8116845260018101825560009190915282517fc2575a0e9e593c00f959f8c92f12db2869c3395a3b0502d05e2516446f71f85b60069092029182015592517fc2575a0e9e593c00f959f8c92f12db2869c3395a3b0502d05e2516446f71f85c840155517fc2575a0e9e593c00f959f8c92f12db2869c3395a3b0502d05e2516446f71f85d83015560608101517fc2575a0e9e593c00f959f8c92f12db2869c3395a3b0502d05e2516446f71f85e83015560808101517fc2575a0e9e593c00f959f8c92f12db2869c3395a3b0502d05e2516446f71f85f83015560a08101517fc2575a0e9e593c00f959f8c92f12db2869c3395a3b0502d05e2516446f71f8609092019190915590565b604051634f4bdc7b60e11b81526001600160a01b037f00000000000000000000000000000000000000000000000000000000000000001690639e97b8f690610d1c906001903390600401611c63565b602060405180830381865afa158015610d39573d6000803e3d6000fd5b505050506040513d601f19601f82011682018060405250810190610d5d9190611c9d565b610d795760405162461bcd60e51b81526004016104c390611cbf565b60405163a9059cbb60e01b8152336004820152602481018290526001600160a01b0383169063a9059cbb906044016020604051808303816000875af1158015610dc6573d6000803e3d6000fd5b505050506040513d601f19601f82011682018060405250810190610dea9190611c9d565b505050565b60008181526005602090815260408083203380855290835281842054858552600484528285209185529252822054610e279190611db0565b9050600060038381548110610e3e57610e3e611d18565b90600052602060002090600602019050610e9f816040518060c0016040529081600082015481526020016001820154815260200160028201548152602001600382015481526020016004820154815260200160058201548152505042610f6f565b610ea857600091505b50919050565b6000610eb982611849565b60405163a9059cbb60e01b8152336004820152602481018290529091506000906001600160a01b037f0000000000000000000000000000000000000000000000000000000000000000169063a9059cbb906044016020604051808303816000875af1158015610f2c573d6000803e3d6000fd5b505050506040513d601f19601f82011682018060405250810190610f509190611c9d565b905080610dea5760405162461bcd60e51b81526004016104c390611d58565b6000610f7e8360a00151151590565b801561056257505060a090910151101590565b6000818360400151101580156105625750506020909101511090565b604051634f4bdc7b60e11b81526001600160a01b037f00000000000000000000000000000000000000000000000000000000000000001690639e97b8f690610ffb9060049033908201611c63565b602060405180830381865afa158015611018573d6000803e3d6000fd5b505050506040513d601f19601f8201168201806040525081019061103c9190611c9d565b6110585760405162461bcd60e51b81526004016104c390611ceb565b60006003828154811061106d5761106d611d18565b9060005260206000209060060201905060008160040154905060008260010154116110aa5760405162461bcd60e51b81526004016104c390611d2e565b6040805160c08101825283548152600184015460208201526002840154918101919091526003830154606082015260048301546080820152600583015460a08201526110f69042610544565b61113b5760405162461bcd60e51b815260206004820152601660248201527514d15054d3d397d0d310525357d393d517d15391115160521b60448201526064016104c3565b600081116111835760405162461bcd60e51b815260206004820152601560248201527416915493d7d49153505253925391d7d05353d55395605a1b60448201526064016104c3565b6000805460405163a9059cbb60e01b81526001600160a01b039182166004820152602481018490527f00000000000000000000000000000000000000000000000000000000000000009091169063a9059cbb906044016020604051808303816000875af11580156111f8573d6000803e3d6000fd5b505050506040513d601f19601f8201168201806040525081019061121c9190611c9d565b90508061123b5760405162461bcd60e51b81526004016104c390611d58565b816fffffffffffffffffffffffffffffffff168360040160008282546112619190611db0565b909155505050505050565b6002546001600160a01b03166112bb5760405162461bcd60e51b815260206004820152601460248201527314dd185ada5b99c81c1bdbdb081b9bdd081cd95d60621b60448201526064016104c3565b60006112c682611849565b60025460405163095ea7b360e01b81526001600160a01b039182166004820152602481018390529192507f0000000000000000000000000000000000000000000000000000000000000000169063095ea7b3906044016020604051808303816000875af115801561133b573d6000803e3d6000fd5b505050506040513d601f19601f8201168201806040525081019061135f9190611c9d565b506002546040516305dc812160e31b8152336004820152602481018390526001600160a01b0390911690632ee4090890604401600060405180830381600087803b1580156113ac57600080fd5b505af11580156113c0573d6000803e3d6000fd5b505060408051338152602081018590527f29531f524cf81428cc32c9c3c6c66d0a81f2900ab11138c1c859836bc963f884935001905060405180910390a15050565b604051634f4bdc7b60e11b81526001600160a01b037f00000000000000000000000000000000000000000000000000000000000000001690639e97b8f6906114509060049033908201611c63565b602060405180830381865afa15801561146d573d6000803e3d6000fd5b505050506040513d601f19601f820116820180604052508101906114919190611c9d565b6114ad5760405162461bcd60e51b81526004016104c390611ceb565b8281146114ef5760405162461bcd60e51b815260206004820152601060248201526f082a4a482b2a640409a92a69a82a886960831b60448201526064016104c3565b60006003868154811061150457611504611d18565b9060005260206000209060060201905060008160010154116115385760405162461bcd60e51b81526004016104c390611d2e565b6040805160c08101825282548152600183015460208201526002830154918101919091526003820154606082015260048201546080820152600582015460a0909101819052156115bd5760405162461bcd60e51b815260206004820152601060248201526f14d15054d3d38811925390531256915160821b60448201526064016104c3565b60008060005b868110156116c4578585828181106115dd576115dd611d18565b90506020020135836115ef9190611d97565b60008a815260046020526040812091945089898481811061161257611612611d18565b90506020020160208101906116279190611abc565b6001600160a01b0316815260208101919091526040016000205461164b9083611d97565b915085858281811061165f5761165f611d18565b90506020020135600460008b815260200190815260200160002060008a8a8581811061168d5761168d611d18565b90506020020160208101906116a29190611abc565b6001600160a01b031681526020810191909152604001600020556001016115c3565b50818360030160008282546116d99190611d97565b92505081905550808360030160008282546116f49190611db0565b90915550505050505050505050565b604051634f4bdc7b60e11b81526001600160a01b037f00000000000000000000000000000000000000000000000000000000000000001690639e97b8f690611752906001903390600401611c63565b602060405180830381865afa15801561176f573d6000803e3d6000fd5b505050506040513d601f19601f820116820180604052508101906117939190611c9d565b6117af5760405162461bcd60e51b81526004016104c390611cbf565b600080546001600160a01b0319166001600160a01b0383169081179091556040519081527f3c864541ef71378c6229510ed90f376565ee42d9c5e0904a984a9e863e6db44f9060200160405180910390a150565b6003818154811061181357600080fd5b60009182526020909120600690910201805460018201546002830154600384015460048501546005909501549395509193909286565b6000818152600560209081526040808320338452909152812054156118a15760405162461bcd60e51b815260206004820152600e60248201526d149155d054910810d3105253515160921b60448201526064016104c3565b6000600383815481106118b6576118b6611d18565b90600052602060002090600602019050611917816040518060c0016040529081600082015481526020016001820154815260200160028201548152602001600382015481526020016004820154815260200160058201548152505042610f6f565b6119585760405162461bcd60e51b815260206004820152601260248201527114d15054d3d397d0d310525357d15391115160721b60448201526064016104c3565b6000838152600460209081526040808320338452909152902054806119bf5760405162461bcd60e51b815260206004820152601b60248201527f4d55535420484156452041204e4f4e205a45524f20524557415244000000000060448201526064016104c3565b808260040160008282546119d39190611db0565b909155505060009384526005602090815260408086203387529091529093208390555090919050565b600060c08284031215611a0e57600080fd5b60405160c0810181811067ffffffffffffffff82111715611a3f57634e487b7160e01b600052604160045260246000fd5b8060405250809150823581526020830135602082015260408301356040820152606083013560608201526080830135608082015260a083013560a08201525092915050565b600060c08284031215611a9657600080fd5b61056283836119fc565b80356001600160a01b0381168114611ab757600080fd5b919050565b600060208284031215611ace57600080fd5b61056282611aa0565b60008060e08385031215611aea57600080fd5b611af484846119fc565b9460c0939093013593505050565b600060208284031215611b1457600080fd5b5035919050565b600080600060608486031215611b3057600080fd5b505081359360208301359350604090920135919050565b60008060408385031215611b5a57600080fd5b82359150611b6a60208401611aa0565b90509250929050565b60008060408385031215611b8657600080fd5b611b8f83611aa0565b946020939093013593505050565b60008083601f840112611baf57600080fd5b50813567ffffffffffffffff811115611bc757600080fd5b6020830191508360208260051b8501011115611be257600080fd5b9250929050565b600080600080600060608688031215611c0157600080fd5b85359450602086013567ffffffffffffffff80821115611c2057600080fd5b611c2c89838a01611b9d565b90965094506040880135915080821115611c4557600080fd5b50611c5288828901611b9d565b969995985093965092949392505050565b60408101600f8410611c8557634e487b7160e01b600052602160045260246000fd5b9281526001600160a01b039190911660209091015290565b600060208284031215611caf57600080fd5b8151801515811461056257600080fd5b6020808252601290820152712737ba10309023b637b130b61020b236b4b760711b604082015260600190565b6020808252601390820152722737ba10309029bcb9ba32b6b99020b236b4b760691b604082015260600190565b634e487b7160e01b600052603260045260246000fd5b60208082526010908201526f14d15054d3d3881393d5081193d5539160821b604082015260600190565b6020808252600f908201526e2320a4a622a2102a2920a729a322a960891b604082015260600190565b634e487b7160e01b600052601160045260246000fd5b80820180821115611daa57611daa611d81565b92915050565b81810381811115611daa57611daa611d8156fea264697066735822122089b9ec15c95882a566ff89510f1c9ba1378c67e715a51cf60c42a7eb4a8d30ab64736f6c63430008180033",
  "linkReferences": {},
  "deployedLinkReferences": {}
}