{
  "_format": "hh-sol-artifact-1",
  "contractName": "KiguEmission",
  "sourceName": "SuperChamps/contracts/Token/KiguEmission.sol",
  "abi": [
    {
      "inputs": [
        {
          "internalType": "address",
          "name": "_token",
          "type": "address"
        }
      ],
      "stateMutability": "nonpayable",
      "type": "constructor"
    },
    {
      "inputs": [
        {
          "internalType": "address",
          "name": "owner",
          "type": "address"
        }
      ],
      "name": "OwnableInvalidOwner",
      "type": "error"
    },
    {
      "inputs": [
        {
          "internalType": "address",
          "name": "account",
          "type": "address"
        }
      ],
      "name": "OwnableUnauthorizedAccount",
      "type": "error"
    },
    {
      "anonymous": false,
      "inputs": [
        {
          "indexed": true,
          "internalType": "uint256",
          "name": "epoch",
          "type": "uint256"
        },
        {
          "indexed": false,
          "internalType": "uint256",
          "name": "emission",
          "type": "uint256"
        }
      ],
      "name": "Distributed",
      "type": "event"
    },
    {
      "anonymous": false,
      "inputs": [
        {
          "indexed": true,
          "internalType": "address",
          "name": "previousOwner",
          "type": "address"
        },
        {
          "indexed": true,
          "internalType": "address",
          "name": "newOwner",
          "type": "address"
        }
      ],
      "name": "OwnershipTransferred",
      "type": "event"
    },
    {
      "anonymous": false,
      "inputs": [
        {
          "indexed": true,
          "internalType": "address",
          "name": "oldMinter",
          "type": "address"
        },
        {
          "indexed": true,
          "internalType": "address",
          "name": "newMinter",
          "type": "address"
        }
      ],
      "name": "SetMinter",
      "type": "event"
    },
    {
      "anonymous": false,
      "inputs": [
        {
          "indexed": true,
          "internalType": "address[4]",
          "name": "wallets",
          "type": "address[4]"
        },
        {
          "indexed": true,
          "internalType": "uint256[4]",
          "name": "percents",
          "type": "uint256[4]"
        }
      ],
      "name": "WalletsAndPercentsUpdated",
      "type": "event"
    },
    {
      "inputs": [],
      "name": "WEEK",
      "outputs": [
        {
          "internalType": "uint256",
          "name": "",
          "type": "uint256"
        }
      ],
      "stateMutability": "view",
      "type": "function"
    },
    {
      "inputs": [],
      "name": "emissionManager",
      "outputs": [
        {
          "internalType": "address",
          "name": "",
          "type": "address"
        }
      ],
      "stateMutability": "view",
      "type": "function"
    },
    {
      "inputs": [],
      "name": "kiguToken",
      "outputs": [
        {
          "internalType": "contract IERC20",
          "name": "",
          "type": "address"
        }
      ],
      "stateMutability": "view",
      "type": "function"
    },
    {
      "inputs": [],
      "name": "mintTokenAndDistribute",
      "outputs": [],
      "stateMutability": "nonpayable",
      "type": "function"
    },
    {
      "inputs": [],
      "name": "minter",
      "outputs": [
        {
          "internalType": "contract IKiguMinter",
          "name": "",
          "type": "address"
        }
      ],
      "stateMutability": "view",
      "type": "function"
    },
    {
      "inputs": [],
      "name": "owner",
      "outputs": [
        {
          "internalType": "address",
          "name": "",
          "type": "address"
        }
      ],
      "stateMutability": "view",
      "type": "function"
    },
    {
      "inputs": [
        {
          "internalType": "uint256",
          "name": "",
          "type": "uint256"
        }
      ],
      "name": "percents",
      "outputs": [
        {
          "internalType": "uint256",
          "name": "",
          "type": "uint256"
        }
      ],
      "stateMutability": "view",
      "type": "function"
    },
    {
      "inputs": [],
      "name": "renounceOwnership",
      "outputs": [],
      "stateMutability": "nonpayable",
      "type": "function"
    },
    {
      "inputs": [
        {
          "internalType": "address",
          "name": "_emissionManager",
          "type": "address"
        }
      ],
      "name": "setEmissionManager",
      "outputs": [],
      "stateMutability": "nonpayable",
      "type": "function"
    },
    {
      "inputs": [
        {
          "internalType": "address",
          "name": "_minter",
          "type": "address"
        }
      ],
      "name": "setMinter",
      "outputs": [],
      "stateMutability": "nonpayable",
      "type": "function"
    },
    {
      "inputs": [
        {
          "internalType": "address[4]",
          "name": "_wallets",
          "type": "address[4]"
        },
        {
          "internalType": "uint256[4]",
          "name": "_percents",
          "type": "uint256[4]"
        }
      ],
      "name": "setWalletsAndPercents",
      "outputs": [],
      "stateMutability": "nonpayable",
      "type": "function"
    },
    {
      "inputs": [
        {
          "internalType": "address",
          "name": "newOwner",
          "type": "address"
        }
      ],
      "name": "transferOwnership",
      "outputs": [],
      "stateMutability": "nonpayable",
      "type": "function"
    },
    {
      "inputs": [],
      "name": "version",
      "outputs": [
        {
          "internalType": "string",
          "name": "",
          "type": "string"
        }
      ],
      "stateMutability": "pure",
      "type": "function"
    },
    {
      "inputs": [],
      "name": "wallet_length",
      "outputs": [
        {
          "internalType": "uint8",
          "name": "",
          "type": "uint8"
        }
      ],
      "stateMutability": "view",
      "type": "function"
    },
    {
      "inputs": [
        {
          "internalType": "uint256",
          "name": "",
          "type": "uint256"
        }
      ],
      "name": "wallets",
      "outputs": [
        {
          "internalType": "address",
          "name": "",
          "type": "address"
        }
      ],
      "stateMutability": "view",
      "type": "function"
    }
  ],
  "bytecode": "0x608060405234801561001057600080fd5b50604051610b42380380610b4283398101604081905261002f916100d4565b338061005557604051631e4fbdf760e01b81526000600482015260240160405180910390fd5b61005e81610084565b50600180546001600160a01b0319166001600160a01b0392909216919091179055610104565b600080546001600160a01b038381166001600160a01b0319831681178455604051919092169283917f8be0079c531659141344cd1fd0a4f28419497f9722a3daafe3b4186f6b6457e09190a35050565b6000602082840312156100e657600080fd5b81516001600160a01b03811681146100fd57600080fd5b9392505050565b610a2f806101136000396000f3fe608060405234801561001057600080fd5b50600436106100f55760003560e01c80638db1342d11610097578063e6644cb711610066578063e6644cb714610213578063f2fde38b14610226578063f4359ce514610239578063fca3b5aa1461024357600080fd5b80638db1342d146101b2578063a1267c4d146101d3578063e16e51ef146101ed578063e307c9521461020057600080fd5b806354fd4d50116100d357806354fd4d5014610147578063715018a6146101865780637ad71f721461018e5780638da5cb5b146101a157600080fd5b806307546172146100fa5780634c3423f51461012a5780634f7459d514610134575b600080fd5b60025461010d906001600160a01b031681565b6040516001600160a01b0390911681526020015b60405180910390f35b610132610256565b005b61013261014236600461081d565b610457565b604080518082018252601a81527f456d697373696f6e5570677261646561626c652076302e302e3100000000000060208201529051610121919061083f565b610132610481565b61010d61019c36600461088e565b610495565b6000546001600160a01b031661010d565b6101c56101c036600461088e565b6104b5565b604051908152602001610121565b6101db600481565b60405160ff9091168152602001610121565b6101326101fb3660046108be565b6104cc565b600b5461010d906001600160a01b031681565b60015461010d906001600160a01b031681565b61013261023436600461081d565b610653565b6101c562093a8081565b61013261025136600461081d565b610691565b600b546001600160a01b031633148061027957506000546001600160a01b031633145b6102bb5760405162461bcd60e51b815260206004820152600e60248201526d139bdd08185d5d1a1bdc9a5e995960921b60448201526064015b60405180910390fd5b600254604080516316981bdf60e01b815290516000926001600160a01b0316916316981bdf916004808301926020929190829003018187875af1158015610306573d6000803e3d6000fd5b505050506040513d601f19601f8201168201806040525081019061032a91906108f4565b905060005b600460ff8216101561041357600061271060078360ff16600481106103565761035661090d565b01546103629085610939565b61036c9190610950565b6001549091506001600160a01b031663a9059cbb600360ff8516600481106103965761039661090d565b015460405160e083901b6001600160e01b03191681526001600160a01b039091166004820152602481018490526044016020604051808303816000875af11580156103e5573d6000803e3d6000fd5b505050506040513d601f19601f820116820180604052508101906104099190610972565b505060010161032f565b5061042162093a8042610950565b6040518281527f97791d3ac1343e05805a2f905fa80b249c2ca58cf9fef455d4fa7ec13ce583219060200160405180910390a250565b61045f6106eb565b600b80546001600160a01b0319166001600160a01b0392909216919091179055565b6104896106eb565b6104936000610718565b565b600381600481106104a557600080fd5b01546001600160a01b0316905081565b600781600481106104c557600080fd5b0154905081565b6104d46106eb565b606081013560408201356104ed60208401358435610994565b6104f79190610994565b6105019190610994565b612710146105475760405162461bcd60e51b8152602060048201526013602482015272496e76616c69642070657263656e746167657360681b60448201526064016102b2565b60005b600460ff821610156105de5760008360ff83166004811061056d5761056d61090d565b602002016020810190610580919061081d565b6001600160a01b0316036105d65760405162461bcd60e51b815260206004820152601d60248201527f57616c6c65742063616e6e6f74206265207a65726f206164647265737300000060448201526064016102b2565b60010161054a565b506105ec6003836004610768565b506105fa60078260046107be565b508060405161060991906109a7565b60405180910390208260405161061f91906109b4565b604051908190038120907ff5ad73ed42044afad6ec86c517580f3aedfa57afd8344253f194654ffecfa09e90600090a35050565b61065b6106eb565b6001600160a01b03811661068557604051631e4fbdf760e01b8152600060048201526024016102b2565b61068e81610718565b50565b6106996106eb565b600280546001600160a01b038381166001600160a01b0319831681179093556040519116919082907fe490d3138e32f1f66ef3971a3c73c7f7704ba0c1d1000f1e2c3df6fc0376610b90600090a35050565b6000546001600160a01b031633146104935760405163118cdaa760e01b81523360048201526024016102b2565b600080546001600160a01b038381166001600160a01b0319831681178455604051919092169283917f8be0079c531659141344cd1fd0a4f28419497f9722a3daafe3b4186f6b6457e09190a35050565b82600481019282156107ae579160200282015b828111156107ae5781546001600160a01b0319166001600160a01b0384351617825560209092019160019091019061077b565b506107ba9291506107ec565b5090565b82600481019282156107ae579160200282015b828111156107ae5782358255916020019190600101906107d1565b5b808211156107ba57600081556001016107ed565b80356001600160a01b038116811461081857600080fd5b919050565b60006020828403121561082f57600080fd5b61083882610801565b9392505050565b60006020808352835180602085015260005b8181101561086d57858101830151858201604001528201610851565b506000604082860101526040601f19601f8301168501019250505092915050565b6000602082840312156108a057600080fd5b5035919050565b80608081018310156108b857600080fd5b92915050565b60008061010083850312156108d257600080fd5b6108dc84846108a7565b91506108eb84608085016108a7565b90509250929050565b60006020828403121561090657600080fd5b5051919050565b634e487b7160e01b600052603260045260246000fd5b634e487b7160e01b600052601160045260246000fd5b80820281158282048414176108b8576108b8610923565b60008261096d57634e487b7160e01b600052601260045260246000fd5b500490565b60006020828403121561098457600080fd5b8151801515811461083857600080fd5b808201808211156108b8576108b8610923565b6080828237608001919050565b60008183825b60048110156109ea576001600160a01b036109d483610801565b16835260209283019291909101906001016109ba565b5050506080820190509291505056fea26469706673582212207140ee9e68ac11d6bde2342299714acbb1cd02ab1a96710d85508447348874dc64736f6c63430008180033",
  "linkReferences": {},
  "deployedLinkReferences": {}
}