{
  "_format": "hh-sol-artifact-1",
  "contractName": "KiguEmission",
  "sourceName": "SuperChamps/contracts/Token/KiguEmission.sol",
  "abi": [
    {
      "inputs": [
        {
          "internalType": "address",
          "name": "_token",
          "type": "address"
        }
      ],
      "stateMutability": "nonpayable",
      "type": "constructor"
    },
    {
      "inputs": [
        {
          "internalType": "address",
          "name": "owner",
          "type": "address"
        }
      ],
      "name": "OwnableInvalidOwner",
      "type": "error"
    },
    {
      "inputs": [
        {
          "internalType": "address",
          "name": "account",
          "type": "address"
        }
      ],
      "name": "OwnableUnauthorizedAccount",
      "type": "error"
    },
    {
      "anonymous": false,
      "inputs": [
        {
          "indexed": true,
          "internalType": "uint256",
          "name": "epoch",
          "type": "uint256"
        },
        {
          "indexed": false,
          "internalType": "uint256",
          "name": "emission",
          "type": "uint256"
        }
      ],
      "name": "Distributed",
      "type": "event"
    },
    {
      "anonymous": false,
      "inputs": [
        {
          "indexed": true,
          "internalType": "address",
          "name": "previousOwner",
          "type": "address"
        },
        {
          "indexed": true,
          "internalType": "address",
          "name": "newOwner",
          "type": "address"
        }
      ],
      "name": "OwnershipTransferred",
      "type": "event"
    },
    {
      "anonymous": false,
      "inputs": [
        {
          "indexed": true,
          "internalType": "address",
          "name": "oldMinter",
          "type": "address"
        },
        {
          "indexed": true,
          "internalType": "address",
          "name": "newMinter",
          "type": "address"
        }
      ],
      "name": "SetMinter",
      "type": "event"
    },
    {
      "anonymous": false,
      "inputs": [
        {
          "indexed": true,
          "internalType": "address[4]",
          "name": "wallets",
          "type": "address[4]"
        },
        {
          "indexed": true,
          "internalType": "uint256[4]",
          "name": "percents",
          "type": "uint256[4]"
        }
      ],
      "name": "WalletsAndPercentsUpdated",
      "type": "event"
    },
    {
      "inputs": [],
      "name": "WEEK",
      "outputs": [
        {
          "internalType": "uint256",
          "name": "",
          "type": "uint256"
        }
      ],
      "stateMutability": "view",
      "type": "function"
    },
    {
      "inputs": [],
      "name": "emissionManager",
      "outputs": [
        {
          "internalType": "address",
          "name": "",
          "type": "address"
        }
      ],
      "stateMutability": "view",
      "type": "function"
    },
    {
      "inputs": [],
      "name": "kiguToken",
      "outputs": [
        {
          "internalType": "contract IERC20",
          "name": "",
          "type": "address"
        }
      ],
      "stateMutability": "view",
      "type": "function"
    },
    {
      "inputs": [],
      "name": "mintTokenAndDistribute",
      "outputs": [],
      "stateMutability": "nonpayable",
      "type": "function"
    },
    {
      "inputs": [],
      "name": "minter",
      "outputs": [
        {
          "internalType": "contract IKiguMinter",
          "name": "",
          "type": "address"
        }
      ],
      "stateMutability": "view",
      "type": "function"
    },
    {
      "inputs": [],
      "name": "owner",
      "outputs": [
        {
          "internalType": "address",
          "name": "",
          "type": "address"
        }
      ],
      "stateMutability": "view",
      "type": "function"
    },
    {
      "inputs": [
        {
          "internalType": "uint256",
          "name": "",
          "type": "uint256"
        }
      ],
      "name": "percents",
      "outputs": [
        {
          "internalType": "uint256",
          "name": "",
          "type": "uint256"
        }
      ],
      "stateMutability": "view",
      "type": "function"
    },
    {
      "inputs": [],
      "name": "renounceOwnership",
      "outputs": [],
      "stateMutability": "nonpayable",
      "type": "function"
    },
    {
      "inputs": [
        {
          "internalType": "address",
          "name": "_emissionManager",
          "type": "address"
        }
      ],
      "name": "setEmissionManager",
      "outputs": [],
      "stateMutability": "nonpayable",
      "type": "function"
    },
    {
      "inputs": [
        {
          "internalType": "address",
          "name": "_minter",
          "type": "address"
        }
      ],
      "name": "setMinter",
      "outputs": [],
      "stateMutability": "nonpayable",
      "type": "function"
    },
    {
      "inputs": [
        {
          "internalType": "address[4]",
          "name": "_wallets",
          "type": "address[4]"
        },
        {
          "internalType": "uint256[4]",
          "name": "_percents",
          "type": "uint256[4]"
        }
      ],
      "name": "setWalletsAndPercents",
      "outputs": [],
      "stateMutability": "nonpayable",
      "type": "function"
    },
    {
      "inputs": [
        {
          "internalType": "address",
          "name": "newOwner",
          "type": "address"
        }
      ],
      "name": "transferOwnership",
      "outputs": [],
      "stateMutability": "nonpayable",
      "type": "function"
    },
    {
      "inputs": [],
      "name": "version",
      "outputs": [
        {
          "internalType": "string",
          "name": "",
          "type": "string"
        }
      ],
      "stateMutability": "pure",
      "type": "function"
    },
    {
      "inputs": [],
      "name": "wallet_length",
      "outputs": [
        {
          "internalType": "uint8",
          "name": "",
          "type": "uint8"
        }
      ],
      "stateMutability": "view",
      "type": "function"
    },
    {
      "inputs": [
        {
          "internalType": "uint256",
          "name": "",
          "type": "uint256"
        }
      ],
      "name": "wallets",
      "outputs": [
        {
          "internalType": "address",
          "name": "",
          "type": "address"
        }
      ],
      "stateMutability": "view",
      "type": "function"
    }
  ],
  "bytecode": "0x608060405234801561001057600080fd5b50604051610bd6380380610bd683398101604081905261002f916100d4565b338061005557604051631e4fbdf760e01b81526000600482015260240160405180910390fd5b61005e81610084565b50600180546001600160a01b0319166001600160a01b0392909216919091179055610104565b600080546001600160a01b038381166001600160a01b0319831681178455604051919092169283917f8be0079c531659141344cd1fd0a4f28419497f9722a3daafe3b4186f6b6457e09190a35050565b6000602082840312156100e657600080fd5b81516001600160a01b03811681146100fd57600080fd5b9392505050565b610ac3806101136000396000f3fe608060405234801561001057600080fd5b50600436106100f55760003560e01c80638db1342d11610097578063e6644cb711610066578063e6644cb714610213578063f2fde38b14610226578063f4359ce514610239578063fca3b5aa1461024357600080fd5b80638db1342d146101b2578063a1267c4d146101d3578063e16e51ef146101ed578063e307c9521461020057600080fd5b806354fd4d50116100d357806354fd4d5014610147578063715018a6146101865780637ad71f721461018e5780638da5cb5b146101a157600080fd5b806307546172146100fa5780634c3423f51461012a5780634f7459d514610134575b600080fd5b60025461010d906001600160a01b031681565b6040516001600160a01b0390911681526020015b60405180910390f35b610132610256565b005b6101326101423660046108b1565b6104eb565b604080518082018252601a81527f456d697373696f6e5570677261646561626c652076302e302e310000000000006020820152905161012191906108d3565b610132610515565b61010d61019c366004610922565b610529565b6000546001600160a01b031661010d565b6101c56101c0366004610922565b610549565b604051908152602001610121565b6101db600481565b60405160ff9091168152602001610121565b6101326101fb366004610952565b610560565b600b5461010d906001600160a01b031681565b60015461010d906001600160a01b031681565b6101326102343660046108b1565b6106e7565b6101c562093a8081565b6101326102513660046108b1565b610725565b600b546001600160a01b031633148061027957506000546001600160a01b031633145b6102bb5760405162461bcd60e51b815260206004820152600e60248201526d139bdd08185d5d1a1bdc9a5e995960921b60448201526064015b60405180910390fd5b6003546001600160a01b0316158015906102df57506004546001600160a01b031615155b80156102f557506005546001600160a01b031615155b801561030b57506006546001600160a01b031615155b61034f5760405162461bcd60e51b81526020600482015260156024820152741cd95d15d85b1b195d11195d185a5b1cd19a5c9cdd605a1b60448201526064016102b2565b600254604080516316981bdf60e01b815290516000926001600160a01b0316916316981bdf916004808301926020929190829003018187875af115801561039a573d6000803e3d6000fd5b505050506040513d601f19601f820116820180604052508101906103be919061099e565b905060005b600460ff821610156104a757600061271060078360ff16600481106103ea576103ea610988565b01546103f690856109cd565b61040091906109e4565b6001549091506001600160a01b031663a9059cbb600360ff85166004811061042a5761042a610988565b015460405160e083901b6001600160e01b03191681526001600160a01b039091166004820152602481018490526044016020604051808303816000875af1158015610479573d6000803e3d6000fd5b505050506040513d601f19601f8201168201806040525081019061049d9190610a06565b50506001016103c3565b506104b562093a80426109e4565b6040518281527f97791d3ac1343e05805a2f905fa80b249c2ca58cf9fef455d4fa7ec13ce583219060200160405180910390a250565b6104f361077f565b600b80546001600160a01b0319166001600160a01b0392909216919091179055565b61051d61077f565b61052760006107ac565b565b6003816004811061053957600080fd5b01546001600160a01b0316905081565b6007816004811061055957600080fd5b0154905081565b61056861077f565b6060810135604082013561058160208401358435610a28565b61058b9190610a28565b6105959190610a28565b612710146105db5760405162461bcd60e51b8152602060048201526013602482015272496e76616c69642070657263656e746167657360681b60448201526064016102b2565b60005b600460ff821610156106725760008360ff83166004811061060157610601610988565b60200201602081019061061491906108b1565b6001600160a01b03160361066a5760405162461bcd60e51b815260206004820152601d60248201527f57616c6c65742063616e6e6f74206265207a65726f206164647265737300000060448201526064016102b2565b6001016105de565b5061068060038360046107fc565b5061068e6007826004610852565b508060405161069d9190610a3b565b6040518091039020826040516106b39190610a48565b604051908190038120907ff5ad73ed42044afad6ec86c517580f3aedfa57afd8344253f194654ffecfa09e90600090a35050565b6106ef61077f565b6001600160a01b03811661071957604051631e4fbdf760e01b8152600060048201526024016102b2565b610722816107ac565b50565b61072d61077f565b600280546001600160a01b038381166001600160a01b0319831681179093556040519116919082907fe490d3138e32f1f66ef3971a3c73c7f7704ba0c1d1000f1e2c3df6fc0376610b90600090a35050565b6000546001600160a01b031633146105275760405163118cdaa760e01b81523360048201526024016102b2565b600080546001600160a01b038381166001600160a01b0319831681178455604051919092169283917f8be0079c531659141344cd1fd0a4f28419497f9722a3daafe3b4186f6b6457e09190a35050565b8260048101928215610842579160200282015b828111156108425781546001600160a01b0319166001600160a01b0384351617825560209092019160019091019061080f565b5061084e929150610880565b5090565b8260048101928215610842579160200282015b82811115610842578235825591602001919060010190610865565b5b8082111561084e5760008155600101610881565b80356001600160a01b03811681146108ac57600080fd5b919050565b6000602082840312156108c357600080fd5b6108cc82610895565b9392505050565b60006020808352835180602085015260005b81811015610901578581018301518582016040015282016108e5565b506000604082860101526040601f19601f8301168501019250505092915050565b60006020828403121561093457600080fd5b5035919050565b806080810183101561094c57600080fd5b92915050565b600080610100838503121561096657600080fd5b610970848461093b565b915061097f846080850161093b565b90509250929050565b634e487b7160e01b600052603260045260246000fd5b6000602082840312156109b057600080fd5b5051919050565b634e487b7160e01b600052601160045260246000fd5b808202811582820484141761094c5761094c6109b7565b600082610a0157634e487b7160e01b600052601260045260246000fd5b500490565b600060208284031215610a1857600080fd5b815180151581146108cc57600080fd5b8082018082111561094c5761094c6109b7565b6080828237608001919050565b60008183825b6004811015610a7e576001600160a01b03610a6883610895565b1683526020928301929190910190600101610a4e565b5050506080820190509291505056fea26469706673582212207ccdb5c27db0d95b786020767267104009267269d0421ff2dd3c2148d210882164736f6c63430008180033",
  "linkReferences": {},
  "deployedLinkReferences": {}
}