{
  "_format": "hh-sol-artifact-1",
  "contractName": "DeployGnosisProxies",
  "sourceName": "SuperChamps/contracts/Utils/DeployGnosisProxies.sol",
  "abi": [
    {
      "anonymous": false,
      "inputs": [
        {
          "indexed": false,
          "internalType": "address[]",
          "name": "signers",
          "type": "address[]"
        },
        {
          "indexed": false,
          "internalType": "address[]",
          "name": "safes",
          "type": "address[]"
        }
      ],
      "name": "SafesCreated",
      "type": "event"
    },
    {
      "inputs": [
        {
          "internalType": "address[]",
          "name": "signers_",
          "type": "address[]"
        }
      ],
      "name": "createSafes",
      "outputs": [
        {
          "internalType": "address[]",
          "name": "_safes_",
          "type": "address[]"
        }
      ],
      "stateMutability": "nonpayable",
      "type": "function"
    }
  ],
  "bytecode": "0x6080604052600080546001600160a01b03191673c22834581ebc8527d974f8a1c97e1bea4ef910bc179055348015603557600080fd5b506105b1806100456000396000f3fe608060405234801561001057600080fd5b506004361061002b5760003560e01c80632ad3a60914610030575b600080fd5b61004361003e3660046102f9565b610059565b604051610050919061040e565b60405180910390f35b6060815167ffffffffffffffff811115610075576100756102bb565b60405190808252806020026020018201604052801561009e578160200160208202803683370190505b5060408051602081019091526000808252919250905b835181101561027b57604080516001808252818301909252600091602080830190803683370190505090508482815181106100f1576100f1610428565b60200260200101518160008151811061010c5761010c610428565b60200260200101906001600160a01b031690816001600160a01b03168152505060007fb63e800d34f56a9238e5b86a8547a23865164bec371bede606e899182da118bf82600160008773017062a1de2fe6b99be3d9d37841fed19f5738046000806000604051602401610186989796959493929190610484565b60408051601f198184030181529181526020820180516001600160e01b03166001600160e01b0319909416939093179092526000549151631688f0b960e01b81529092506001600160a01b0390911690631688f0b9906102049073fb1bffc9d739b8d520daf37df666da4c687191ea908590613039906004016104fc565b6020604051808303816000875af1158015610223573d6000803e3d6000fd5b505050506040513d601f19601f820116820180604052508101906102479190610530565b85848151811061025957610259610428565b6001600160a01b039092166020928302919091019091015250506001016100b4565b507ff2bc13746ef74bda2ee14c9c1f9c053e156418603cb8b0e58c918a677b2806ca83836040516102ad92919061054d565b60405180910390a150919050565b634e487b7160e01b600052604160045260246000fd5b6001600160a01b03811681146102e657600080fd5b50565b80356102f4816102d1565b919050565b60006020828403121561030b57600080fd5b813567ffffffffffffffff81111561032257600080fd5b8201601f8101841361033357600080fd5b803567ffffffffffffffff81111561034d5761034d6102bb565b8060051b604051601f19603f830116810181811067ffffffffffffffff8211171561037a5761037a6102bb565b60405291825260208184018101929081018784111561039857600080fd5b6020850194505b838510156103be576103b0856102e9565b81526020948501940161039f565b509695505050505050565b600081518084526020840193506020830160005b828110156104045781516001600160a01b03168652602095860195909101906001016103dd565b5093949350505050565b60208152600061042160208301846103c9565b9392505050565b634e487b7160e01b600052603260045260246000fd5b6000815180845260005b8181101561046457602081850181015186830182015201610448565b506000602082860101526020601f19601f83011685010191505092915050565b6101008152600061049961010083018b6103c9565b60ff8a1660208401526001600160a01b038916604084015282810360608401526104c3818961043e565b6001600160a01b03978816608085015295871660a0840152505060ff9290921660c083015290921660e090920191909152949350505050565b6001600160a01b03841681526060602082018190526000906105209083018561043e565b9050826040830152949350505050565b60006020828403121561054257600080fd5b8151610421816102d1565b60408152600061056060408301856103c9565b828103602084015261057281856103c9565b9594505050505056fea2646970667358221220de1243001d15fc874183c92c2a42bd365b63d123965ebd0fa26f1a56247408af64736f6c634300081e0033",
  "linkReferences": {},
  "deployedLinkReferences": {}
}