{
  "_format": "hh-sol-artifact-1",
  "contractName": "DeployGnosisProxies",
  "sourceName": "SuperChamps/contracts/Utils/DeployGnosisProxies.sol",
  "abi": [
    {
      "anonymous": false,
      "inputs": [
        {
          "indexed": false,
          "internalType": "address[]",
          "name": "signers",
          "type": "address[]"
        },
        {
          "indexed": false,
          "internalType": "address[]",
          "name": "safes",
          "type": "address[]"
        }
      ],
      "name": "SafesCreated",
      "type": "event"
    },
    {
      "inputs": [
        {
          "internalType": "address[]",
          "name": "signers_",
          "type": "address[]"
        }
      ],
      "name": "createSafes",
      "outputs": [
        {
          "internalType": "address[]",
          "name": "_safes_",
          "type": "address[]"
        }
      ],
      "stateMutability": "nonpayable",
      "type": "function"
    }
  ],
  "bytecode": "0x6080604052600080546001600160a01b03191673c22834581ebc8527d974f8a1c97e1bea4ef910bc17905534801561003657600080fd5b5061059e806100466000396000f3fe608060405234801561001057600080fd5b506004361061002b5760003560e01c80632ad3a60914610030575b600080fd5b61004361003e3660046102f9565b610059565b6040516100509190610403565b60405180910390f35b6060815167ffffffffffffffff811115610075576100756102bb565b60405190808252806020026020018201604052801561009e578160200160208202803683370190505b5060408051602081019091526000808252919250905b835181101561027b57604080516001808252818301909252600091602080830190803683370190505090508482815181106100f1576100f161041d565b60200260200101518160008151811061010c5761010c61041d565b60200260200101906001600160a01b031690816001600160a01b03168152505060007fb63e800d34f56a9238e5b86a8547a23865164bec371bede606e899182da118bf82600160008773017062a1de2fe6b99be3d9d37841fed19f5738046000806000604051602401610186989796959493929190610479565b60408051601f198184030181529181526020820180516001600160e01b03166001600160e01b0319909416939093179092526000549151631688f0b960e01b81529092506001600160a01b0390911690631688f0b9906102049073fb1bffc9d739b8d520daf37df666da4c687191ea908590613039906004016104e9565b6020604051808303816000875af1158015610223573d6000803e3d6000fd5b505050506040513d601f19601f82011682018060405250810190610247919061051d565b8584815181106102595761025961041d565b6001600160a01b039092166020928302919091019091015250506001016100b4565b507ff2bc13746ef74bda2ee14c9c1f9c053e156418603cb8b0e58c918a677b2806ca83836040516102ad92919061053a565b60405180910390a150919050565b634e487b7160e01b600052604160045260246000fd5b6001600160a01b03811681146102e657600080fd5b50565b80356102f4816102d1565b919050565b6000602080838503121561030c57600080fd5b823567ffffffffffffffff8082111561032457600080fd5b818501915085601f83011261033857600080fd5b81358181111561034a5761034a6102bb565b8060051b604051601f19603f8301168101818110858211171561036f5761036f6102bb565b60405291825284820192508381018501918883111561038d57600080fd5b938501935b828510156103b2576103a3856102e9565b84529385019392850192610392565b98975050505050505050565b60008151808452602080850194506020840160005b838110156103f85781516001600160a01b0316875295820195908201906001016103d3565b509495945050505050565b60208152600061041660208301846103be565b9392505050565b634e487b7160e01b600052603260045260246000fd5b6000815180845260005b818110156104595760208185018101518683018201520161043d565b506000602082860101526020601f19601f83011685010191505092915050565b600061010080835261048d8184018c6103be565b60ff8b1660208501526001600160a01b038a8116604086015284820360608601529091506104bb828a610433565b978116608085015295861660a0840152505060ff9290921660c083015290911660e090910152949350505050565b6001600160a01b038416815260606020820181905260009061050d90830185610433565b9050826040830152949350505050565b60006020828403121561052f57600080fd5b8151610416816102d1565b60408152600061054d60408301856103be565b828103602084015261055f81856103be565b9594505050505056fea2646970667358221220542e0172b6c6856eb20d6125ade67067f62297a0b9d69b4fcd84cec3e277593c64736f6c63430008180033",
  "linkReferences": {},
  "deployedLinkReferences": {}
}