{
  "_format": "hh-sol-artifact-1",
  "contractName": "RewardsDistributionRecipient",
  "sourceName": "Synthetix/contracts/RewardsDistributionRecipient.sol",
  "abi": [
    {
      "inputs": [
        {
          "internalType": "address",
          "name": "owner",
          "type": "address"
        }
      ],
      "stateMutability": "nonpayable",
      "type": "constructor"
    },
    {
      "anonymous": false,
      "inputs": [
        {
          "indexed": false,
          "internalType": "address",
          "name": "oldOwner",
          "type": "address"
        },
        {
          "indexed": false,
          "internalType": "address",
          "name": "newOwner",
          "type": "address"
        }
      ],
      "name": "OwnerChanged",
      "type": "event"
    },
    {
      "anonymous": false,
      "inputs": [
        {
          "indexed": false,
          "internalType": "address",
          "name": "newOwner",
          "type": "address"
        }
      ],
      "name": "OwnerNominated",
      "type": "event"
    },
    {
      "inputs": [],
      "name": "acceptOwnership",
      "outputs": [],
      "stateMutability": "nonpayable",
      "type": "function"
    },
    {
      "inputs": [
        {
          "internalType": "address",
          "name": "_owner",
          "type": "address"
        }
      ],
      "name": "nominateNewOwner",
      "outputs": [],
      "stateMutability": "nonpayable",
      "type": "function"
    },
    {
      "inputs": [],
      "name": "nominatedOwner",
      "outputs": [
        {
          "internalType": "address",
          "name": "",
          "type": "address"
        }
      ],
      "stateMutability": "view",
      "type": "function"
    },
    {
      "inputs": [
        {
          "internalType": "uint256",
          "name": "reward",
          "type": "uint256"
        }
      ],
      "name": "notifyRewardAmount",
      "outputs": [],
      "stateMutability": "nonpayable",
      "type": "function"
    },
    {
      "inputs": [],
      "name": "owner",
      "outputs": [
        {
          "internalType": "address",
          "name": "",
          "type": "address"
        }
      ],
      "stateMutability": "view",
      "type": "function"
    },
    {
      "inputs": [],
      "name": "rewardsDistribution",
      "outputs": [
        {
          "internalType": "address",
          "name": "",
          "type": "address"
        }
      ],
      "stateMutability": "view",
      "type": "function"
    },
    {
      "inputs": [
        {
          "internalType": "address",
          "name": "_rewardsDistribution",
          "type": "address"
        }
      ],
      "name": "setRewardsDistribution",
      "outputs": [],
      "stateMutability": "nonpayable",
      "type": "function"
    }
  ],
  "bytecode": "0x608060405234801561001057600080fd5b506040516104a73803806104a783398101604081905261002f916100e8565b806001600160a01b03811661008a5760405162461bcd60e51b815260206004820152601960248201527f4f776e657220616464726573732063616e6e6f74206265203000000000000000604482015260640160405180910390fd5b600080546001600160a01b0319166001600160a01b03831690811782556040805192835260208301919091527fb532073b38c83145e3e5135377a08bf9aab55bc0fd7c1179cd4fb995d2a5159c910160405180910390a15050610118565b6000602082840312156100fa57600080fd5b81516001600160a01b038116811461011157600080fd5b9392505050565b610380806101276000396000f3fe608060405234801561001057600080fd5b506004361061007d5760003560e01c80633fc6df6e1161005b5780633fc6df6e146100bb57806353a47bb7146100ea57806379ba5097146100fd5780638da5cb5b1461010557600080fd5b80631627540c1461008257806319762143146100975780633c6b16ab146100aa575b600080fd5b610095610090366004610301565b610118565b005b6100956100a5366004610301565b610174565b6100956100b8366004610331565b50565b6002546100ce906001600160a01b031681565b6040516001600160a01b03909116815260200160405180910390f35b6001546100ce906001600160a01b031681565b61009561019e565b6000546100ce906001600160a01b031681565b61012061028d565b600180546001600160a01b0319166001600160a01b0383169081179091556040519081527f906a1c6bd7e3091ea86693dd029a831c19049ce77f1dce2ce0bab1cacbabce229060200160405180910390a150565b61017c61028d565b600280546001600160a01b0319166001600160a01b0392909216919091179055565b6001546001600160a01b0316331461021b5760405162461bcd60e51b815260206004820152603560248201527f596f75206d757374206265206e6f6d696e61746564206265666f726520796f7560448201527402063616e20616363657074206f776e65727368697605c1b60648201526084015b60405180910390fd5b600054600154604080516001600160a01b0393841681529290911660208301527fb532073b38c83145e3e5135377a08bf9aab55bc0fd7c1179cd4fb995d2a5159c910160405180910390a160018054600080546001600160a01b03199081166001600160a01b03841617909155169055565b6000546001600160a01b031633146102ff5760405162461bcd60e51b815260206004820152602f60248201527f4f6e6c792074686520636f6e7472616374206f776e6572206d6179207065726660448201526e37b936903a3434b99030b1ba34b7b760891b6064820152608401610212565b565b60006020828403121561031357600080fd5b81356001600160a01b038116811461032a57600080fd5b9392505050565b60006020828403121561034357600080fd5b503591905056fea264697066735822122031af545f04f4b2df5205cc239cce616ccfe1c08343e9d14f5c2c532b74a6f1b564736f6c634300081e0033",
  "linkReferences": {},
  "deployedLinkReferences": {}
}