{
  "_format": "hh-sol-artifact-1",
  "contractName": "SCGenericRenderer",
  "sourceName": "SuperChamps/contracts/NFTs/SCGenericRenderer.sol",
  "abi": [
    {
      "inputs": [
        {
          "internalType": "contract IPermissionsManager",
          "name": "permissions_",
          "type": "address"
        },
        {
          "internalType": "string",
          "name": "name_",
          "type": "string"
        },
        {
          "internalType": "string",
          "name": "symbol_",
          "type": "string"
        },
        {
          "internalType": "string",
          "name": "uri_",
          "type": "string"
        }
      ],
      "stateMutability": "nonpayable",
      "type": "constructor"
    },
    {
      "inputs": [],
      "name": "name",
      "outputs": [
        {
          "internalType": "string",
          "name": "",
          "type": "string"
        }
      ],
      "stateMutability": "view",
      "type": "function"
    },
    {
      "inputs": [
        {
          "internalType": "string",
          "name": "uri_",
          "type": "string"
        },
        {
          "internalType": "bool",
          "name": "concatenate_ids_",
          "type": "bool"
        }
      ],
      "name": "setURI",
      "outputs": [],
      "stateMutability": "nonpayable",
      "type": "function"
    },
    {
      "inputs": [],
      "name": "symbol",
      "outputs": [
        {
          "internalType": "string",
          "name": "",
          "type": "string"
        }
      ],
      "stateMutability": "view",
      "type": "function"
    },
    {
      "inputs": [
        {
          "internalType": "uint256[]",
          "name": "token_id_elements_",
          "type": "uint256[]"
        }
      ],
      "name": "tokenURI",
      "outputs": [
        {
          "internalType": "string",
          "name": "_uri_",
          "type": "string"
        }
      ],
      "stateMutability": "view",
      "type": "function"
    },
    {
      "inputs": [
        {
          "internalType": "uint256",
          "name": "token_id_",
          "type": "uint256"
        }
      ],
      "name": "tokenURI",
      "outputs": [
        {
          "internalType": "string",
          "name": "_uri_",
          "type": "string"
        }
      ],
      "stateMutability": "view",
      "type": "function"
    }
  ],
  "bytecode": "0x60a06040526003805460ff1916600117905534801561001d57600080fd5b50604051610dbd380380610dbd83398101604081905261003c91610132565b6001600160a01b03841660805260006100558482610270565b5060016100628382610270565b50600261006f8282610270565b505050505061032e565b634e487b7160e01b600052604160045260246000fd5b600082601f8301126100a057600080fd5b81516001600160401b038111156100b9576100b9610079565b604051601f8201601f19908116603f011681016001600160401b03811182821017156100e7576100e7610079565b6040528181528382016020018510156100ff57600080fd5b60005b8281101561011e57602081860181015183830182015201610102565b506000918101602001919091529392505050565b6000806000806080858703121561014857600080fd5b84516001600160a01b038116811461015f57600080fd5b60208601519094506001600160401b0381111561017b57600080fd5b6101878782880161008f565b604087015190945090506001600160401b038111156101a557600080fd5b6101b18782880161008f565b606087015190935090506001600160401b038111156101cf57600080fd5b6101db8782880161008f565b91505092959194509250565b600181811c908216806101fb57607f821691505b60208210810361021b57634e487b7160e01b600052602260045260246000fd5b50919050565b601f82111561026b57806000526020600020601f840160051c810160208510156102485750805b601f840160051c820191505b818110156102685760008155600101610254565b50505b505050565b81516001600160401b0381111561028957610289610079565b61029d8161029784546101e7565b84610221565b6020601f8211600181146102d157600083156102b95750848201515b600019600385901b1c1916600184901b178455610268565b600084815260208120601f198516915b8281101561030157878501518255602094850194600190920191016102e1565b508482101561031f5786840151600019600387901b60f8161c191681555b50505050600190811b01905550565b608051610a7461034960003960006103230152610a746000f3fe608060405234801561001057600080fd5b50600436106100575760003560e01c806306fdde031461005c57806310d4fe081461007a578063876a4cdc1461008d57806395d89b41146100a2578063c87b56dd146100aa575b600080fd5b6100646100bd565b60405161007191906105bb565b60405180910390f35b610064610088366004610635565b61014f565b6100a061009b366004610702565b61030c565b005b6100646103c5565b6100646100b83660046107ad565b6103d4565b6060600080546100cc906107c6565b80601f01602080910402602001604051908101604052809291908181526020018280546100f8906107c6565b80156101455780601f1061011a57610100808354040283529160200191610145565b820191906000526020600020905b81548152906001019060200180831161012857829003601f168201915b5050505050905090565b60035460609060ff16156102755760006002805461016c906107c6565b905011156102615760028054610181906107c6565b80601f01602080910402602001604051908101604052809291908181526020018280546101ad906107c6565b80156101fa5780601f106101cf576101008083540402835291602001916101fa565b820191906000526020600020905b8154815290600101906020018083116101dd57829003601f168201915b5050505050905060005b825181101561025b5781610230848381518110610223576102236107fa565b602002602001015161042b565b604051602001610241929190610810565b60408051601f198184030181529190529150600101610204565b50919050565b505060408051602081019091526000815290565b60028054610282906107c6565b80601f01602080910402602001604051908101604052809291908181526020018280546102ae906107c6565b80156102fb5780601f106102d0576101008083540402835291602001916102fb565b820191906000526020600020905b8154815290600101906020018083116102de57829003601f168201915b50505050509050919050565b919050565b604051634f4bdc7b60e11b81526001600160a01b037f00000000000000000000000000000000000000000000000000000000000000001690639e97b8f69061035a906004903390820161084c565b602060405180830381865afa158015610377573d6000803e3d6000fd5b505050506040513d601f19601f8201168201806040525081019061039b9190610886565b6103a457600080fd5b60026103b083826108f9565b506003805460ff191691151591909117905550565b6060600180546100cc906107c6565b60035460609060ff1615610275576000600280546103f1906107c6565b905011156102615760026104048361042b565b6040516020016104159291906109b8565b6040516020818303038152906040529050919050565b60606000610438836104be565b600101905060008167ffffffffffffffff811115610458576104586105ee565b6040519080825280601f01601f191660200182016040528015610482576020820181803683370190505b5090508181016020015b600019016f181899199a1a9b1b9c1cb0b131b232b360811b600a86061a8153600a850494508461048c57509392505050565b60008072184f03e93ff9f4daa797ed6e38ed64bf6a1f0160401b83106104fd5772184f03e93ff9f4daa797ed6e38ed64bf6a1f0160401b830492506040015b6d04ee2d6d415b85acef81000000008310610529576d04ee2d6d415b85acef8100000000830492506020015b662386f26fc10000831061054757662386f26fc10000830492506010015b6305f5e100831061055f576305f5e100830492506008015b612710831061057357612710830492506004015b60648310610585576064830492506002015b600a8310610591576001015b92915050565b60005b838110156105b257818101518382015260200161059a565b50506000910152565b60208152600082518060208401526105da816040850160208701610597565b601f01601f19169190910160400192915050565b634e487b7160e01b600052604160045260246000fd5b604051601f8201601f1916810167ffffffffffffffff8111828210171561062d5761062d6105ee565b604052919050565b60006020828403121561064757600080fd5b813567ffffffffffffffff81111561065e57600080fd5b8201601f8101841361066f57600080fd5b803567ffffffffffffffff811115610689576106896105ee565b8060051b61069960208201610604565b918252602081840181019290810190878411156106b557600080fd5b6020850194505b838510156106db578435808352602095860195909350909101906106bc565b979650505050505050565b80151581146106f457600080fd5b50565b8035610307816106e6565b6000806040838503121561071557600080fd5b823567ffffffffffffffff81111561072c57600080fd5b8301601f8101851361073d57600080fd5b803567ffffffffffffffff811115610757576107576105ee565b61076a601f8201601f1916602001610604565b81815286602083850101111561077f57600080fd5b816020840160208301376000602083830101528094505050506107a4602084016106f7565b90509250929050565b6000602082840312156107bf57600080fd5b5035919050565b600181811c908216806107da57607f821691505b60208210810361025b57634e487b7160e01b600052602260045260246000fd5b634e487b7160e01b600052603260045260246000fd5b60008351610822818460208801610597565b602f60f81b9083019081528351610840816001840160208801610597565b01600101949350505050565b60408101600f841061086e57634e487b7160e01b600052602160045260246000fd5b9281526001600160a01b039190911660209091015290565b60006020828403121561089857600080fd5b81516108a3816106e6565b9392505050565b601f8211156108f457806000526020600020601f840160051c810160208510156108d15750805b601f840160051c820191505b818110156108f157600081556001016108dd565b50505b505050565b815167ffffffffffffffff811115610913576109136105ee565b6109278161092184546107c6565b846108aa565b6020601f82116001811461095b57600083156109435750848201515b600019600385901b1c1916600184901b1784556108f1565b600084815260208120601f198516915b8281101561098b578785015182556020948501946001909201910161096b565b50848210156109a95786840151600019600387901b60f8161c191681555b50505050600190811b01905550565b60008084546109c6816107c6565b6001821680156109dd57600181146109f257610a22565b60ff1983168652811515820286019350610a22565b87600052602060002060005b83811015610a1a578154888201526001909101906020016109fe565b505081860193505b5050508351610a35818360208801610597565b0194935050505056fea26469706673582212206ecaf23c38acd084a16174b9389b03d6e7e3f641e438f65992a26c5a2e61bf9e64736f6c634300081e0033",
  "linkReferences": {},
  "deployedLinkReferences": {}
}