{
  "_format": "hh-sol-artifact-1",
  "contractName": "SCGenericRenderer",
  "sourceName": "SuperChamps/contracts/NFTs/SCGenericRenderer.sol",
  "abi": [
    {
      "inputs": [
        {
          "internalType": "contract IPermissionsManager",
          "name": "permissions_",
          "type": "address"
        },
        {
          "internalType": "string",
          "name": "name_",
          "type": "string"
        },
        {
          "internalType": "string",
          "name": "symbol_",
          "type": "string"
        },
        {
          "internalType": "string",
          "name": "uri_",
          "type": "string"
        }
      ],
      "stateMutability": "nonpayable",
      "type": "constructor"
    },
    {
      "inputs": [],
      "name": "name",
      "outputs": [
        {
          "internalType": "string",
          "name": "",
          "type": "string"
        }
      ],
      "stateMutability": "view",
      "type": "function"
    },
    {
      "inputs": [
        {
          "internalType": "string",
          "name": "uri_",
          "type": "string"
        },
        {
          "internalType": "bool",
          "name": "concatenate_ids_",
          "type": "bool"
        }
      ],
      "name": "setURI",
      "outputs": [],
      "stateMutability": "nonpayable",
      "type": "function"
    },
    {
      "inputs": [],
      "name": "symbol",
      "outputs": [
        {
          "internalType": "string",
          "name": "",
          "type": "string"
        }
      ],
      "stateMutability": "view",
      "type": "function"
    },
    {
      "inputs": [
        {
          "internalType": "uint256[]",
          "name": "token_id_elements_",
          "type": "uint256[]"
        }
      ],
      "name": "tokenURI",
      "outputs": [
        {
          "internalType": "string",
          "name": "_uri_",
          "type": "string"
        }
      ],
      "stateMutability": "view",
      "type": "function"
    },
    {
      "inputs": [
        {
          "internalType": "uint256",
          "name": "token_id_",
          "type": "uint256"
        }
      ],
      "name": "tokenURI",
      "outputs": [
        {
          "internalType": "string",
          "name": "_uri_",
          "type": "string"
        }
      ],
      "stateMutability": "view",
      "type": "function"
    }
  ],
  "bytecode": "0x60a06040526003805460ff191660011790553480156200001e57600080fd5b5060405162000de038038062000de083398101604081905262000041916200014d565b6001600160a01b03841660805260006200005c848262000290565b5060016200006b838262000290565b5060026200007a828262000290565b50505050506200035c565b634e487b7160e01b600052604160045260246000fd5b600082601f830112620000ad57600080fd5b81516001600160401b0380821115620000ca57620000ca62000085565b604051601f8301601f19908116603f01168101908282118183101715620000f557620000f562000085565b81604052838152602092508660208588010111156200011357600080fd5b600091505b8382101562000137578582018301518183018401529082019062000118565b6000602085830101528094505050505092915050565b600080600080608085870312156200016457600080fd5b84516001600160a01b03811681146200017c57600080fd5b60208601519094506001600160401b03808211156200019a57600080fd5b620001a8888389016200009b565b94506040870151915080821115620001bf57600080fd5b620001cd888389016200009b565b93506060870151915080821115620001e457600080fd5b50620001f3878288016200009b565b91505092959194509250565b600181811c908216806200021457607f821691505b6020821081036200023557634e487b7160e01b600052602260045260246000fd5b50919050565b601f8211156200028b576000816000526020600020601f850160051c81016020861015620002665750805b601f850160051c820191505b81811015620002875782815560010162000272565b5050505b505050565b81516001600160401b03811115620002ac57620002ac62000085565b620002c481620002bd8454620001ff565b846200023b565b602080601f831160018114620002fc5760008415620002e35750858301515b600019600386901b1c1916600185901b17855562000287565b600085815260208120601f198616915b828110156200032d578886015182559484019460019091019084016200030c565b50858210156200034c5787850151600019600388901b60f8161c191681555b5050505050600190811b01905550565b608051610a686200037860003960006103230152610a686000f3fe608060405234801561001057600080fd5b50600436106100575760003560e01c806306fdde031461005c57806310d4fe081461007a578063876a4cdc1461008d57806395d89b41146100a2578063c87b56dd146100aa575b600080fd5b6100646100bd565b60405161007191906105bb565b60405180910390f35b610064610088366004610635565b61014f565b6100a061009b3660046106f7565b61030c565b005b6100646103c5565b6100646100b836600461079d565b6103d4565b6060600080546100cc906107b6565b80601f01602080910402602001604051908101604052809291908181526020018280546100f8906107b6565b80156101455780601f1061011a57610100808354040283529160200191610145565b820191906000526020600020905b81548152906001019060200180831161012857829003601f168201915b5050505050905090565b60035460609060ff16156102755760006002805461016c906107b6565b905011156102615760028054610181906107b6565b80601f01602080910402602001604051908101604052809291908181526020018280546101ad906107b6565b80156101fa5780601f106101cf576101008083540402835291602001916101fa565b820191906000526020600020905b8154815290600101906020018083116101dd57829003601f168201915b5050505050905060005b825181101561025b5781610230848381518110610223576102236107ea565b602002602001015161042b565b604051602001610241929190610800565b60408051601f198184030181529190529150600101610204565b50919050565b505060408051602081019091526000815290565b60028054610282906107b6565b80601f01602080910402602001604051908101604052809291908181526020018280546102ae906107b6565b80156102fb5780601f106102d0576101008083540402835291602001916102fb565b820191906000526020600020905b8154815290600101906020018083116102de57829003601f168201915b50505050509050919050565b919050565b604051634f4bdc7b60e11b81526001600160a01b037f00000000000000000000000000000000000000000000000000000000000000001690639e97b8f69061035a906004903390820161083c565b602060405180830381865afa158015610377573d6000803e3d6000fd5b505050506040513d601f19601f8201168201806040525081019061039b9190610876565b6103a457600080fd5b60026103b083826108eb565b506003805460ff191691151591909117905550565b6060600180546100cc906107b6565b60035460609060ff1615610275576000600280546103f1906107b6565b905011156102615760026104048361042b565b6040516020016104159291906109ab565b6040516020818303038152906040529050919050565b60606000610438836104be565b600101905060008167ffffffffffffffff811115610458576104586105ee565b6040519080825280601f01601f191660200182016040528015610482576020820181803683370190505b5090508181016020015b600019016f181899199a1a9b1b9c1cb0b131b232b360811b600a86061a8153600a850494508461048c57509392505050565b60008072184f03e93ff9f4daa797ed6e38ed64bf6a1f0160401b83106104fd5772184f03e93ff9f4daa797ed6e38ed64bf6a1f0160401b830492506040015b6d04ee2d6d415b85acef81000000008310610529576d04ee2d6d415b85acef8100000000830492506020015b662386f26fc10000831061054757662386f26fc10000830492506010015b6305f5e100831061055f576305f5e100830492506008015b612710831061057357612710830492506004015b60648310610585576064830492506002015b600a8310610591576001015b92915050565b60005b838110156105b257818101518382015260200161059a565b50506000910152565b60208152600082518060208401526105da816040850160208701610597565b601f01601f19169190910160400192915050565b634e487b7160e01b600052604160045260246000fd5b604051601f8201601f1916810167ffffffffffffffff8111828210171561062d5761062d6105ee565b604052919050565b6000602080838503121561064857600080fd5b823567ffffffffffffffff8082111561066057600080fd5b818501915085601f83011261067457600080fd5b813581811115610686576106866105ee565b8060051b9150610697848301610604565b81815291830184019184810190888411156106b157600080fd5b938501935b838510156106cf578435825293850193908501906106b6565b98975050505050505050565b80151581146106e957600080fd5b50565b8035610307816106db565b6000806040838503121561070a57600080fd5b823567ffffffffffffffff8082111561072257600080fd5b818501915085601f83011261073657600080fd5b813560208282111561074a5761074a6105ee565b61075c601f8301601f19168201610604565b9250818352878183860101111561077257600080fd5b818185018285013760008183850101528295506107908188016106ec565b9450505050509250929050565b6000602082840312156107af57600080fd5b5035919050565b600181811c908216806107ca57607f821691505b60208210810361025b57634e487b7160e01b600052602260045260246000fd5b634e487b7160e01b600052603260045260246000fd5b60008351610812818460208801610597565b602f60f81b9083019081528351610830816001840160208801610597565b01600101949350505050565b60408101600f841061085e57634e487b7160e01b600052602160045260246000fd5b9281526001600160a01b039190911660209091015290565b60006020828403121561088857600080fd5b8151610893816106db565b9392505050565b601f8211156108e6576000816000526020600020601f850160051c810160208610156108c35750805b601f850160051c820191505b818110156108e2578281556001016108cf565b5050505b505050565b815167ffffffffffffffff811115610905576109056105ee565b6109198161091384546107b6565b8461089a565b602080601f83116001811461094e57600084156109365750858301515b600019600386901b1c1916600185901b1785556108e2565b600085815260208120601f198616915b8281101561097d5788860151825594840194600190910190840161095e565b508582101561099b5787850151600019600388901b60f8161c191681555b5050505050600190811b01905550565b60008084546109b9816107b6565b600182811680156109d157600181146109e657610a15565b60ff1984168752821515830287019450610a15565b8860005260208060002060005b85811015610a0c5781548a8201529084019082016109f3565b50505082870194505b505050508351610a29818360208801610597565b0194935050505056fea2646970667358221220cc91420d718922ecdd8eaa5e90abc20c36284f65745d9dc792449a150378507764736f6c63430008180033",
  "linkReferences": {},
  "deployedLinkReferences": {}
}