{
  "_format": "hh-sol-artifact-1",
  "contractName": "SuperChampsToken",
  "sourceName": "SuperChamps/contracts/Token/SuperChampsToken.sol",
  "abi": [
    {
      "inputs": [
        {
          "internalType": "string",
          "name": "name_",
          "type": "string"
        },
        {
          "internalType": "string",
          "name": "symbol_",
          "type": "string"
        },
        {
          "internalType": "uint256",
          "name": "total_supply_",
          "type": "uint256"
        },
        {
          "internalType": "contract IPermissionsManager",
          "name": "permissions_",
          "type": "address"
        }
      ],
      "stateMutability": "nonpayable",
      "type": "constructor"
    },
    {
      "inputs": [],
      "name": "ECDSAInvalidSignature",
      "type": "error"
    },
    {
      "inputs": [
        {
          "internalType": "uint256",
          "name": "length",
          "type": "uint256"
        }
      ],
      "name": "ECDSAInvalidSignatureLength",
      "type": "error"
    },
    {
      "inputs": [
        {
          "internalType": "bytes32",
          "name": "s",
          "type": "bytes32"
        }
      ],
      "name": "ECDSAInvalidSignatureS",
      "type": "error"
    },
    {
      "inputs": [
        {
          "internalType": "address",
          "name": "spender",
          "type": "address"
        },
        {
          "internalType": "uint256",
          "name": "allowance",
          "type": "uint256"
        },
        {
          "internalType": "uint256",
          "name": "needed",
          "type": "uint256"
        }
      ],
      "name": "ERC20InsufficientAllowance",
      "type": "error"
    },
    {
      "inputs": [
        {
          "internalType": "address",
          "name": "sender",
          "type": "address"
        },
        {
          "internalType": "uint256",
          "name": "balance",
          "type": "uint256"
        },
        {
          "internalType": "uint256",
          "name": "needed",
          "type": "uint256"
        }
      ],
      "name": "ERC20InsufficientBalance",
      "type": "error"
    },
    {
      "inputs": [
        {
          "internalType": "address",
          "name": "approver",
          "type": "address"
        }
      ],
      "name": "ERC20InvalidApprover",
      "type": "error"
    },
    {
      "inputs": [
        {
          "internalType": "address",
          "name": "receiver",
          "type": "address"
        }
      ],
      "name": "ERC20InvalidReceiver",
      "type": "error"
    },
    {
      "inputs": [
        {
          "internalType": "address",
          "name": "sender",
          "type": "address"
        }
      ],
      "name": "ERC20InvalidSender",
      "type": "error"
    },
    {
      "inputs": [
        {
          "internalType": "address",
          "name": "spender",
          "type": "address"
        }
      ],
      "name": "ERC20InvalidSpender",
      "type": "error"
    },
    {
      "inputs": [
        {
          "internalType": "uint256",
          "name": "deadline",
          "type": "uint256"
        }
      ],
      "name": "ERC2612ExpiredSignature",
      "type": "error"
    },
    {
      "inputs": [
        {
          "internalType": "address",
          "name": "signer",
          "type": "address"
        },
        {
          "internalType": "address",
          "name": "owner",
          "type": "address"
        }
      ],
      "name": "ERC2612InvalidSigner",
      "type": "error"
    },
    {
      "inputs": [
        {
          "internalType": "address",
          "name": "account",
          "type": "address"
        },
        {
          "internalType": "uint256",
          "name": "currentNonce",
          "type": "uint256"
        }
      ],
      "name": "InvalidAccountNonce",
      "type": "error"
    },
    {
      "inputs": [],
      "name": "InvalidShortString",
      "type": "error"
    },
    {
      "inputs": [
        {
          "internalType": "string",
          "name": "str",
          "type": "string"
        }
      ],
      "name": "StringTooLong",
      "type": "error"
    },
    {
      "anonymous": false,
      "inputs": [
        {
          "indexed": true,
          "internalType": "address",
          "name": "owner",
          "type": "address"
        },
        {
          "indexed": true,
          "internalType": "address",
          "name": "spender",
          "type": "address"
        },
        {
          "indexed": false,
          "internalType": "uint256",
          "name": "value",
          "type": "uint256"
        }
      ],
      "name": "Approval",
      "type": "event"
    },
    {
      "anonymous": false,
      "inputs": [],
      "name": "EIP712DomainChanged",
      "type": "event"
    },
    {
      "anonymous": false,
      "inputs": [
        {
          "indexed": true,
          "internalType": "address",
          "name": "from",
          "type": "address"
        },
        {
          "indexed": true,
          "internalType": "address",
          "name": "to",
          "type": "address"
        },
        {
          "indexed": false,
          "internalType": "uint256",
          "name": "value",
          "type": "uint256"
        }
      ],
      "name": "Transfer",
      "type": "event"
    },
    {
      "inputs": [],
      "name": "DOMAIN_SEPARATOR",
      "outputs": [
        {
          "internalType": "bytes32",
          "name": "",
          "type": "bytes32"
        }
      ],
      "stateMutability": "view",
      "type": "function"
    },
    {
      "inputs": [],
      "name": "TOTAL_SUPPLY",
      "outputs": [
        {
          "internalType": "uint256",
          "name": "",
          "type": "uint256"
        }
      ],
      "stateMutability": "view",
      "type": "function"
    },
    {
      "inputs": [
        {
          "internalType": "address",
          "name": "owner",
          "type": "address"
        },
        {
          "internalType": "address",
          "name": "spender",
          "type": "address"
        }
      ],
      "name": "allowance",
      "outputs": [
        {
          "internalType": "uint256",
          "name": "",
          "type": "uint256"
        }
      ],
      "stateMutability": "view",
      "type": "function"
    },
    {
      "inputs": [
        {
          "internalType": "address",
          "name": "spender",
          "type": "address"
        },
        {
          "internalType": "uint256",
          "name": "value",
          "type": "uint256"
        }
      ],
      "name": "approve",
      "outputs": [
        {
          "internalType": "bool",
          "name": "",
          "type": "bool"
        }
      ],
      "stateMutability": "nonpayable",
      "type": "function"
    },
    {
      "inputs": [
        {
          "internalType": "address",
          "name": "account",
          "type": "address"
        }
      ],
      "name": "balanceOf",
      "outputs": [
        {
          "internalType": "uint256",
          "name": "",
          "type": "uint256"
        }
      ],
      "stateMutability": "view",
      "type": "function"
    },
    {
      "inputs": [],
      "name": "decimals",
      "outputs": [
        {
          "internalType": "uint8",
          "name": "",
          "type": "uint8"
        }
      ],
      "stateMutability": "view",
      "type": "function"
    },
    {
      "inputs": [],
      "name": "eip712Domain",
      "outputs": [
        {
          "internalType": "bytes1",
          "name": "fields",
          "type": "bytes1"
        },
        {
          "internalType": "string",
          "name": "name",
          "type": "string"
        },
        {
          "internalType": "string",
          "name": "version",
          "type": "string"
        },
        {
          "internalType": "uint256",
          "name": "chainId",
          "type": "uint256"
        },
        {
          "internalType": "address",
          "name": "verifyingContract",
          "type": "address"
        },
        {
          "internalType": "bytes32",
          "name": "salt",
          "type": "bytes32"
        },
        {
          "internalType": "uint256[]",
          "name": "extensions",
          "type": "uint256[]"
        }
      ],
      "stateMutability": "view",
      "type": "function"
    },
    {
      "inputs": [],
      "name": "name",
      "outputs": [
        {
          "internalType": "string",
          "name": "",
          "type": "string"
        }
      ],
      "stateMutability": "view",
      "type": "function"
    },
    {
      "inputs": [
        {
          "internalType": "address",
          "name": "owner",
          "type": "address"
        }
      ],
      "name": "nonces",
      "outputs": [
        {
          "internalType": "uint256",
          "name": "",
          "type": "uint256"
        }
      ],
      "stateMutability": "view",
      "type": "function"
    },
    {
      "inputs": [],
      "name": "permissions",
      "outputs": [
        {
          "internalType": "contract IPermissionsManager",
          "name": "",
          "type": "address"
        }
      ],
      "stateMutability": "view",
      "type": "function"
    },
    {
      "inputs": [
        {
          "internalType": "address",
          "name": "owner",
          "type": "address"
        },
        {
          "internalType": "address",
          "name": "spender",
          "type": "address"
        },
        {
          "internalType": "uint256",
          "name": "value",
          "type": "uint256"
        },
        {
          "internalType": "uint256",
          "name": "deadline",
          "type": "uint256"
        },
        {
          "internalType": "uint8",
          "name": "v",
          "type": "uint8"
        },
        {
          "internalType": "bytes32",
          "name": "r",
          "type": "bytes32"
        },
        {
          "internalType": "bytes32",
          "name": "s",
          "type": "bytes32"
        }
      ],
      "name": "permit",
      "outputs": [],
      "stateMutability": "nonpayable",
      "type": "function"
    },
    {
      "inputs": [
        {
          "internalType": "address",
          "name": "tokenAddress_",
          "type": "address"
        },
        {
          "internalType": "uint256",
          "name": "tokenAmount_",
          "type": "uint256"
        }
      ],
      "name": "recoverERC20",
      "outputs": [],
      "stateMutability": "nonpayable",
      "type": "function"
    },
    {
      "inputs": [],
      "name": "symbol",
      "outputs": [
        {
          "internalType": "string",
          "name": "",
          "type": "string"
        }
      ],
      "stateMutability": "view",
      "type": "function"
    },
    {
      "inputs": [
        {
          "internalType": "address[]",
          "name": "mint_recipients_",
          "type": "address[]"
        },
        {
          "internalType": "uint256[]",
          "name": "mint_quantities_",
          "type": "uint256[]"
        }
      ],
      "name": "tokenGenerationEvent",
      "outputs": [],
      "stateMutability": "nonpayable",
      "type": "function"
    },
    {
      "inputs": [],
      "name": "totalSupply",
      "outputs": [
        {
          "internalType": "uint256",
          "name": "",
          "type": "uint256"
        }
      ],
      "stateMutability": "view",
      "type": "function"
    },
    {
      "inputs": [
        {
          "internalType": "address",
          "name": "to",
          "type": "address"
        },
        {
          "internalType": "uint256",
          "name": "amount",
          "type": "uint256"
        }
      ],
      "name": "transfer",
      "outputs": [
        {
          "internalType": "bool",
          "name": "",
          "type": "bool"
        }
      ],
      "stateMutability": "nonpayable",
      "type": "function"
    },
    {
      "inputs": [
        {
          "internalType": "address",
          "name": "from",
          "type": "address"
        },
        {
          "internalType": "address",
          "name": "to",
          "type": "address"
        },
        {
          "internalType": "uint256",
          "name": "amount",
          "type": "uint256"
        }
      ],
      "name": "transferFrom",
      "outputs": [
        {
          "internalType": "bool",
          "name": "",
          "type": "bool"
        }
      ],
      "stateMutability": "nonpayable",
      "type": "function"
    },
    {
      "inputs": [],
      "name": "transfersLocked",
      "outputs": [
        {
          "internalType": "bool",
          "name": "",
          "type": "bool"
        }
      ],
      "stateMutability": "view",
      "type": "function"
    },
    {
      "inputs": [],
      "name": "unlockTransfers",
      "outputs": [],
      "stateMutability": "nonpayable",
      "type": "function"
    }
  ],
  "bytecode": "0x6101a060405234801561001157600080fd5b50604051611f86380380611f8683398101604081905261003091610276565b6040805180820190915260018152603160f81b6020820152849081908186600361005a8382610392565b5060046100678282610392565b5061007791508390506005610139565b61012052610086816006610139565b61014052815160208084019190912060e052815190820120610100524660a05261011360e05161010051604080517f8b73c3c69bb8fe3d512ecc4cf759cc79239f7b179b0ffacaa9a75d522b39400f60208201529081019290925260608201524660808201523060a082015260009060c00160405160208183030381529060405280519060200120905090565b60805250503060c05250610180919091526001600160a01b031661016052506104a79050565b60006020835110156101555761014e8361016c565b9050610166565b816101608482610392565b5060ff90505b92915050565b600080829050601f815111156101a0578260405163305a27a960e01b81526004016101979190610450565b60405180910390fd5b80516101ab82610483565b179392505050565b634e487b7160e01b600052604160045260246000fd5b60005b838110156101e45781810151838201526020016101cc565b50506000910152565b600082601f8301126101fe57600080fd5b81516001600160401b03811115610217576102176101b3565b604051601f8201601f19908116603f011681016001600160401b0381118282101715610245576102456101b3565b60405281815283820160200185101561025d57600080fd5b61026e8260208301602087016101c9565b949350505050565b6000806000806080858703121561028c57600080fd5b84516001600160401b038111156102a257600080fd5b6102ae878288016101ed565b602087015190955090506001600160401b038111156102cc57600080fd5b6102d8878288016101ed565b60408701516060880151919550935090506001600160a01b03811681146102fe57600080fd5b939692955090935050565b600181811c9082168061031d57607f821691505b60208210810361033d57634e487b7160e01b600052602260045260246000fd5b50919050565b601f82111561038d57806000526020600020601f840160051c8101602085101561036a5750805b601f840160051c820191505b8181101561038a5760008155600101610376565b50505b505050565b81516001600160401b038111156103ab576103ab6101b3565b6103bf816103b98454610309565b84610343565b6020601f8211600181146103f357600083156103db5750848201515b600019600385901b1c1916600184901b17845561038a565b600084815260208120601f198516915b828110156104235787850151825560209485019460019092019101610403565b50848210156104415786840151600019600387901b60f8161c191681555b50505050600190811b01905550565b602081526000825180602084015261046f8160408501602087016101c9565b601f01601f19169190910160400192915050565b8051602080830151919081101561033d5760001960209190910360031b1b16919050565b60805160a05160c05160e0516101005161012051610140516101605161018051611a306105566000396000818161023c0152610a0a01526000818161027e015281816103bf015281816104900152818161052e0152818161067b0152818161079d015281816108f201528181610ab10152610b4f01526000610ee201526000610eb501526000610e5d01526000610e3501526000610d9001526000610dba01526000610de40152611a306000f3fe608060405234801561001057600080fd5b50600436106101215760003560e01c806383f1211b116100ad57806395d89b411161007157806395d89b411461025e578063a9059cbb14610266578063ab8c71c014610279578063d505accf146102b8578063dd62ed3e146102cb57600080fd5b806383f1211b146101e957806384b0196e146101f65780638980f11f146102115780638d2455c814610224578063902d55a51461023757600080fd5b806323b872dd116100f457806323b872dd14610183578063313ce567146101965780633644e515146101a557806370a08231146101ad5780637ecebe00146101d657600080fd5b806306fdde0314610126578063095ea7b31461014457806318160ddd1461016757806321842be314610179575b600080fd5b61012e610304565b60405161013b9190611563565b60405180910390f35b610157610152366004611592565b610396565b604051901515815260200161013b565b6002545b60405190815260200161013b565b6101816103b0565b005b6101576101913660046115bc565b610471565b6040516012815260200161013b565b61016b6105f9565b61016b6101bb3660046115f9565b6001600160a01b031660009081526020819052604090205490565b61016b6101e43660046115f9565b610608565b6008546101579060ff1681565b6101fe610626565b60405161013b9796959493929190611614565b61018161021f366004611592565b61066c565b610181610232366004611784565b61078e565b61016b7f000000000000000000000000000000000000000000000000000000000000000081565b61012e610a83565b610157610274366004611592565b610a92565b6102a07f000000000000000000000000000000000000000000000000000000000000000081565b6040516001600160a01b03909116815260200161013b565b6101816102c636600461184d565b610c18565b61016b6102d93660046118c0565b6001600160a01b03918216600090815260016020908152604080832093909416825291909152205490565b606060038054610313906118f3565b80601f016020809104026020016040519081016040528092919081815260200182805461033f906118f3565b801561038c5780601f106103615761010080835404028352916020019161038c565b820191906000526020600020905b81548152906001019060200180831161036f57829003601f168201915b5050505050905090565b6000336103a4818585610d52565b60019150505b92915050565b604051634f4bdc7b60e11b81527f00000000000000000000000000000000000000000000000000000000000000006001600160a01b031690639e97b8f6906103ff906001903390600401611943565b602060405180830381865afa15801561041c573d6000803e3d6000fd5b505050506040513d601f19601f82011682018060405250810190610440919061197d565b6104655760405162461bcd60e51b815260040161045c9061199f565b60405180910390fd5b6008805460ff19169055565b60085460009060ff1615806105115750604051634f4bdc7b60e11b81527f00000000000000000000000000000000000000000000000000000000000000006001600160a01b031690639e97b8f6906104d0906003903390600401611943565b602060405180830381865afa1580156104ed573d6000803e3d6000fd5b505050506040513d601f19601f82011682018060405250810190610511919061197d565b806105a75750604051634f4bdc7b60e11b81526001600160a01b037f00000000000000000000000000000000000000000000000000000000000000001690639e97b8f690610566906003903290600401611943565b602060405180830381865afa158015610583573d6000803e3d6000fd5b505050506040513d601f19601f820116820180604052508101906105a7919061197d565b6105e65760405162461bcd60e51b815260206004820152601060248201526f1393d5081651550815539313d0d2d15160821b604482015260640161045c565b6105f1848484610d5f565b949350505050565b6000610603610d83565b905090565b6001600160a01b0381166000908152600760205260408120546103aa565b60006060806000806000606061063a610eae565b610642610edb565b60408051600080825260208201909252600f60f81b9b939a50919850469750309650945092509050565b604051634f4bdc7b60e11b81527f00000000000000000000000000000000000000000000000000000000000000006001600160a01b031690639e97b8f6906106bb906001903390600401611943565b602060405180830381865afa1580156106d8573d6000803e3d6000fd5b505050506040513d601f19601f820116820180604052508101906106fc919061197d565b6107185760405162461bcd60e51b815260040161045c9061199f565b60405163a9059cbb60e01b8152336004820152602481018290526001600160a01b0383169063a9059cbb906044016020604051808303816000875af1158015610765573d6000803e3d6000fd5b505050506040513d601f19601f82011682018060405250810190610789919061197d565b505050565b604051634f4bdc7b60e11b81527f00000000000000000000000000000000000000000000000000000000000000006001600160a01b031690639e97b8f6906107dd906001903390600401611943565b602060405180830381865afa1580156107fa573d6000803e3d6000fd5b505050506040513d601f19601f8201168201806040525081019061081e919061197d565b61083a5760405162461bcd60e51b815260040161045c9061199f565b6002541561088a5760405162461bcd60e51b815260206004820152601760248201527f544f4b454e20414c52454144592047454e455241544544000000000000000000604482015260640161045c565b80518251146108db5760405162461bcd60e51b815260206004820152601760248201527f494e434f525245435420504152414d204c454e47544853000000000000000000604482015260640161045c565b604051634f4bdc7b60e11b81526001600160a01b037f00000000000000000000000000000000000000000000000000000000000000001690639e97b8f69061092a906003903090600401611943565b602060405180830381865afa158015610947573d6000803e3d6000fd5b505050506040513d601f19601f8201168201806040525081019061096b919061197d565b6109b75760405162461bcd60e51b815260206004820152601860248201527f544f4b454e204e4f54205452414e534645522041444d494e0000000000000000604482015260640161045c565b60005b8251811015610a07576109ff8382815181106109d8576109d86119c3565b60200260200101518383815181106109f2576109f26119c3565b6020026020010151610f08565b6001016109ba565b507f0000000000000000000000000000000000000000000000000000000000000000610a3260025490565b14610a725760405162461bcd60e51b815260206004820152601060248201526f494e434f525245435420535550504c5960801b604482015260640161045c565b50506008805460ff19166001179055565b606060048054610313906118f3565b60085460009060ff161580610b325750604051634f4bdc7b60e11b81527f00000000000000000000000000000000000000000000000000000000000000006001600160a01b031690639e97b8f690610af1906003903390600401611943565b602060405180830381865afa158015610b0e573d6000803e3d6000fd5b505050506040513d601f19601f82011682018060405250810190610b32919061197d565b80610bc85750604051634f4bdc7b60e11b81526001600160a01b037f00000000000000000000000000000000000000000000000000000000000000001690639e97b8f690610b87906003903290600401611943565b602060405180830381865afa158015610ba4573d6000803e3d6000fd5b505050506040513d601f19601f82011682018060405250810190610bc8919061197d565b610c075760405162461bcd60e51b815260206004820152601060248201526f1393d5081651550815539313d0d2d15160821b604482015260640161045c565b610c118383610f42565b9392505050565b83421115610c3c5760405163313c898160e11b81526004810185905260240161045c565b60007f6e71edae12b1b97f4d1f60370fef10105fa2faae0126114a169c64845d6126c9888888610c898c6001600160a01b0316600090815260076020526040902080546001810190915590565b6040805160208101969096526001600160a01b0394851690860152929091166060840152608083015260a082015260c0810186905260e0016040516020818303038152906040528051906020012090506000610ce482610f50565b90506000610cf482878787610f7d565b9050896001600160a01b0316816001600160a01b031614610d3b576040516325c0072360e11b81526001600160a01b0380831660048301528b16602482015260440161045c565b610d468a8a8a610d52565b50505050505050505050565b6107898383836001610fab565b600033610d6d858285611081565b610d788585856110fa565b506001949350505050565b6000306001600160a01b037f000000000000000000000000000000000000000000000000000000000000000016148015610ddc57507f000000000000000000000000000000000000000000000000000000000000000046145b15610e0657507f000000000000000000000000000000000000000000000000000000000000000090565b610603604080517f8b73c3c69bb8fe3d512ecc4cf759cc79239f7b179b0ffacaa9a75d522b39400f60208201527f0000000000000000000000000000000000000000000000000000000000000000918101919091527f000000000000000000000000000000000000000000000000000000000000000060608201524660808201523060a082015260009060c00160405160208183030381529060405280519060200120905090565b60606106037f00000000000000000000000000000000000000000000000000000000000000006005611159565b60606106037f00000000000000000000000000000000000000000000000000000000000000006006611159565b6001600160a01b038216610f325760405163ec442f0560e01b81526000600482015260240161045c565b610f3e60008383611204565b5050565b6000336103a48185856110fa565b60006103aa610f5d610d83565b8360405161190160f01b8152600281019290925260228201526042902090565b600080600080610f8f8888888861132e565b925092509250610f9f82826113fd565b50909695505050505050565b6001600160a01b038416610fd55760405163e602df0560e01b81526000600482015260240161045c565b6001600160a01b038316610fff57604051634a1406b160e11b81526000600482015260240161045c565b6001600160a01b038085166000908152600160209081526040808320938716835292905220829055801561107b57826001600160a01b0316846001600160a01b03167f8c5be1e5ebec7d5bd14f71427d1e84f3dd0314c0f7b2291e5b200ac8c7c3b9258460405161107291815260200190565b60405180910390a35b50505050565b6001600160a01b0383811660009081526001602090815260408083209386168352929052205460001981101561107b57818110156110eb57604051637dc7a0d960e11b81526001600160a01b0384166004820152602481018290526044810183905260640161045c565b61107b84848484036000610fab565b6001600160a01b03831661112457604051634b637e8f60e11b81526000600482015260240161045c565b6001600160a01b03821661114e5760405163ec442f0560e01b81526000600482015260240161045c565b610789838383611204565b606060ff83146111735761116c836114b6565b90506103aa565b81805461117f906118f3565b80601f01602080910402602001604051908101604052809291908181526020018280546111ab906118f3565b80156111f85780601f106111cd576101008083540402835291602001916111f8565b820191906000526020600020905b8154815290600101906020018083116111db57829003601f168201915b505050505090506103aa565b6001600160a01b03831661122f57806002600082825461122491906119d9565b909155506112a19050565b6001600160a01b038316600090815260208190526040902054818110156112825760405163391434e360e21b81526001600160a01b0385166004820152602481018290526044810183905260640161045c565b6001600160a01b03841660009081526020819052604090209082900390555b6001600160a01b0382166112bd576002805482900390556112dc565b6001600160a01b03821660009081526020819052604090208054820190555b816001600160a01b0316836001600160a01b03167fddf252ad1be2c89b69c2b068fc378daa952ba7f163c4a11628f55a4df523b3ef8360405161132191815260200190565b60405180910390a3505050565b600080807f7fffffffffffffffffffffffffffffff5d576e7357a4501ddfe92f46681b20a084111561136957506000915060039050826113f3565b604080516000808252602082018084528a905260ff891692820192909252606081018790526080810186905260019060a0016020604051602081039080840390855afa1580156113bd573d6000803e3d6000fd5b5050604051601f1901519150506001600160a01b0381166113e9575060009250600191508290506113f3565b9250600091508190505b9450945094915050565b60008260038111156114115761141161192d565b0361141a575050565b600182600381111561142e5761142e61192d565b0361144c5760405163f645eedf60e01b815260040160405180910390fd5b60028260038111156114605761146061192d565b036114815760405163fce698f760e01b81526004810182905260240161045c565b60038260038111156114955761149561192d565b03610f3e576040516335e2f38360e21b81526004810182905260240161045c565b606060006114c3836114f5565b604080516020808252818301909252919250600091906020820181803683375050509182525060208101929092525090565b600060ff8216601f8111156103aa57604051632cd44ac360e21b815260040160405180910390fd5b6000815180845260005b8181101561154357602081850181015186830182015201611527565b506000602082860101526020601f19601f83011685010191505092915050565b602081526000610c11602083018461151d565b80356001600160a01b038116811461158d57600080fd5b919050565b600080604083850312156115a557600080fd5b6115ae83611576565b946020939093013593505050565b6000806000606084860312156115d157600080fd5b6115da84611576565b92506115e860208501611576565b929592945050506040919091013590565b60006020828403121561160b57600080fd5b610c1182611576565b60ff60f81b8816815260e06020820152600061163360e083018961151d565b8281036040840152611645818961151d565b606084018890526001600160a01b038716608085015260a0840186905283810360c08501528451808252602080870193509091019060005b8181101561169b57835183526020938401939092019160010161167d565b50909b9a5050505050505050505050565b634e487b7160e01b600052604160045260246000fd5b604051601f8201601f1916810167ffffffffffffffff811182821017156116eb576116eb6116ac565b604052919050565b600067ffffffffffffffff82111561170d5761170d6116ac565b5060051b60200190565b600082601f83011261172857600080fd5b813561173b611736826116f3565b6116c2565b8082825260208201915060208360051b86010192508583111561175d57600080fd5b602085015b8381101561177a578035835260209283019201611762565b5095945050505050565b6000806040838503121561179757600080fd5b823567ffffffffffffffff8111156117ae57600080fd5b8301601f810185136117bf57600080fd5b80356117cd611736826116f3565b8082825260208201915060208360051b8501019250878311156117ef57600080fd5b6020840193505b828410156118185761180784611576565b8252602093840193909101906117f6565b9450505050602083013567ffffffffffffffff81111561183757600080fd5b61184385828601611717565b9150509250929050565b600080600080600080600060e0888a03121561186857600080fd5b61187188611576565b965061187f60208901611576565b95506040880135945060608801359350608088013560ff811681146118a357600080fd5b9699959850939692959460a0840135945060c09093013592915050565b600080604083850312156118d357600080fd5b6118dc83611576565b91506118ea60208401611576565b90509250929050565b600181811c9082168061190757607f821691505b60208210810361192757634e487b7160e01b600052602260045260246000fd5b50919050565b634e487b7160e01b600052602160045260246000fd5b60408101600f841061196557634e487b7160e01b600052602160045260246000fd5b9281526001600160a01b039190911660209091015290565b60006020828403121561198f57600080fd5b81518015158114610c1157600080fd5b6020808252600a908201526941444d494e204f4e4c5960b01b604082015260600190565b634e487b7160e01b600052603260045260246000fd5b808201808211156103aa57634e487b7160e01b600052601160045260246000fdfea2646970667358221220de6c1053c5b4f3568c748e64d805c58dc17fb7801194e56a6259b334ee2d3b2b64736f6c634300081e0033",
  "linkReferences": {},
  "deployedLinkReferences": {}
}