{
  "_format": "hh-sol-artifact-1",
  "contractName": "StakingRewards",
  "sourceName": "Synthetix/contracts/StakingRewards.sol",
  "abi": [
    {
      "inputs": [
        {
          "internalType": "address",
          "name": "_owner",
          "type": "address"
        },
        {
          "internalType": "address",
          "name": "_rewardsDistribution",
          "type": "address"
        },
        {
          "internalType": "address",
          "name": "_rewardsToken",
          "type": "address"
        },
        {
          "internalType": "address",
          "name": "_stakingToken",
          "type": "address"
        }
      ],
      "stateMutability": "nonpayable",
      "type": "constructor"
    },
    {
      "inputs": [],
      "name": "ReentrancyGuardReentrantCall",
      "type": "error"
    },
    {
      "anonymous": false,
      "inputs": [
        {
          "indexed": false,
          "internalType": "address",
          "name": "oldOwner",
          "type": "address"
        },
        {
          "indexed": false,
          "internalType": "address",
          "name": "newOwner",
          "type": "address"
        }
      ],
      "name": "OwnerChanged",
      "type": "event"
    },
    {
      "anonymous": false,
      "inputs": [
        {
          "indexed": false,
          "internalType": "address",
          "name": "newOwner",
          "type": "address"
        }
      ],
      "name": "OwnerNominated",
      "type": "event"
    },
    {
      "anonymous": false,
      "inputs": [
        {
          "indexed": false,
          "internalType": "bool",
          "name": "isPaused",
          "type": "bool"
        }
      ],
      "name": "PauseChanged",
      "type": "event"
    },
    {
      "anonymous": false,
      "inputs": [
        {
          "indexed": false,
          "internalType": "address",
          "name": "token",
          "type": "address"
        },
        {
          "indexed": false,
          "internalType": "uint256",
          "name": "amount",
          "type": "uint256"
        }
      ],
      "name": "Recovered",
      "type": "event"
    },
    {
      "anonymous": false,
      "inputs": [
        {
          "indexed": false,
          "internalType": "uint256",
          "name": "reward",
          "type": "uint256"
        }
      ],
      "name": "RewardAdded",
      "type": "event"
    },
    {
      "anonymous": false,
      "inputs": [
        {
          "indexed": true,
          "internalType": "address",
          "name": "user",
          "type": "address"
        },
        {
          "indexed": false,
          "internalType": "uint256",
          "name": "reward",
          "type": "uint256"
        }
      ],
      "name": "RewardPaid",
      "type": "event"
    },
    {
      "anonymous": false,
      "inputs": [
        {
          "indexed": false,
          "internalType": "uint256",
          "name": "newDuration",
          "type": "uint256"
        }
      ],
      "name": "RewardsDurationUpdated",
      "type": "event"
    },
    {
      "anonymous": false,
      "inputs": [
        {
          "indexed": true,
          "internalType": "address",
          "name": "user",
          "type": "address"
        },
        {
          "indexed": false,
          "internalType": "uint256",
          "name": "amount",
          "type": "uint256"
        }
      ],
      "name": "Staked",
      "type": "event"
    },
    {
      "anonymous": false,
      "inputs": [
        {
          "indexed": true,
          "internalType": "address",
          "name": "user",
          "type": "address"
        },
        {
          "indexed": false,
          "internalType": "uint256",
          "name": "amount",
          "type": "uint256"
        }
      ],
      "name": "Withdrawn",
      "type": "event"
    },
    {
      "inputs": [],
      "name": "acceptOwnership",
      "outputs": [],
      "stateMutability": "nonpayable",
      "type": "function"
    },
    {
      "inputs": [
        {
          "internalType": "address",
          "name": "account",
          "type": "address"
        }
      ],
      "name": "balanceOf",
      "outputs": [
        {
          "internalType": "uint256",
          "name": "",
          "type": "uint256"
        }
      ],
      "stateMutability": "view",
      "type": "function"
    },
    {
      "inputs": [
        {
          "internalType": "address",
          "name": "account",
          "type": "address"
        }
      ],
      "name": "earned",
      "outputs": [
        {
          "internalType": "uint256",
          "name": "",
          "type": "uint256"
        }
      ],
      "stateMutability": "view",
      "type": "function"
    },
    {
      "inputs": [],
      "name": "exit",
      "outputs": [],
      "stateMutability": "nonpayable",
      "type": "function"
    },
    {
      "inputs": [],
      "name": "getReward",
      "outputs": [],
      "stateMutability": "nonpayable",
      "type": "function"
    },
    {
      "inputs": [],
      "name": "getRewardForDuration",
      "outputs": [
        {
          "internalType": "uint256",
          "name": "",
          "type": "uint256"
        }
      ],
      "stateMutability": "view",
      "type": "function"
    },
    {
      "inputs": [],
      "name": "lastPauseTime",
      "outputs": [
        {
          "internalType": "uint256",
          "name": "",
          "type": "uint256"
        }
      ],
      "stateMutability": "view",
      "type": "function"
    },
    {
      "inputs": [],
      "name": "lastTimeRewardApplicable",
      "outputs": [
        {
          "internalType": "uint256",
          "name": "",
          "type": "uint256"
        }
      ],
      "stateMutability": "view",
      "type": "function"
    },
    {
      "inputs": [],
      "name": "lastUpdateTime",
      "outputs": [
        {
          "internalType": "uint256",
          "name": "",
          "type": "uint256"
        }
      ],
      "stateMutability": "view",
      "type": "function"
    },
    {
      "inputs": [
        {
          "internalType": "address",
          "name": "_owner",
          "type": "address"
        }
      ],
      "name": "nominateNewOwner",
      "outputs": [],
      "stateMutability": "nonpayable",
      "type": "function"
    },
    {
      "inputs": [],
      "name": "nominatedOwner",
      "outputs": [
        {
          "internalType": "address",
          "name": "",
          "type": "address"
        }
      ],
      "stateMutability": "view",
      "type": "function"
    },
    {
      "inputs": [
        {
          "internalType": "uint256",
          "name": "reward",
          "type": "uint256"
        }
      ],
      "name": "notifyRewardAmount",
      "outputs": [],
      "stateMutability": "nonpayable",
      "type": "function"
    },
    {
      "inputs": [],
      "name": "owner",
      "outputs": [
        {
          "internalType": "address",
          "name": "",
          "type": "address"
        }
      ],
      "stateMutability": "view",
      "type": "function"
    },
    {
      "inputs": [],
      "name": "paused",
      "outputs": [
        {
          "internalType": "bool",
          "name": "",
          "type": "bool"
        }
      ],
      "stateMutability": "view",
      "type": "function"
    },
    {
      "inputs": [],
      "name": "periodFinish",
      "outputs": [
        {
          "internalType": "uint256",
          "name": "",
          "type": "uint256"
        }
      ],
      "stateMutability": "view",
      "type": "function"
    },
    {
      "inputs": [
        {
          "internalType": "address",
          "name": "tokenAddress",
          "type": "address"
        },
        {
          "internalType": "uint256",
          "name": "tokenAmount",
          "type": "uint256"
        }
      ],
      "name": "recoverERC20",
      "outputs": [],
      "stateMutability": "nonpayable",
      "type": "function"
    },
    {
      "inputs": [],
      "name": "rewardPerToken",
      "outputs": [
        {
          "internalType": "uint256",
          "name": "",
          "type": "uint256"
        }
      ],
      "stateMutability": "view",
      "type": "function"
    },
    {
      "inputs": [],
      "name": "rewardPerTokenStored",
      "outputs": [
        {
          "internalType": "uint256",
          "name": "",
          "type": "uint256"
        }
      ],
      "stateMutability": "view",
      "type": "function"
    },
    {
      "inputs": [],
      "name": "rewardRate",
      "outputs": [
        {
          "internalType": "uint256",
          "name": "",
          "type": "uint256"
        }
      ],
      "stateMutability": "view",
      "type": "function"
    },
    {
      "inputs": [
        {
          "internalType": "address",
          "name": "",
          "type": "address"
        }
      ],
      "name": "rewards",
      "outputs": [
        {
          "internalType": "uint256",
          "name": "",
          "type": "uint256"
        }
      ],
      "stateMutability": "view",
      "type": "function"
    },
    {
      "inputs": [],
      "name": "rewardsDistribution",
      "outputs": [
        {
          "internalType": "address",
          "name": "",
          "type": "address"
        }
      ],
      "stateMutability": "view",
      "type": "function"
    },
    {
      "inputs": [],
      "name": "rewardsDuration",
      "outputs": [
        {
          "internalType": "uint256",
          "name": "",
          "type": "uint256"
        }
      ],
      "stateMutability": "view",
      "type": "function"
    },
    {
      "inputs": [],
      "name": "rewardsToken",
      "outputs": [
        {
          "internalType": "contract IERC20",
          "name": "",
          "type": "address"
        }
      ],
      "stateMutability": "view",
      "type": "function"
    },
    {
      "inputs": [
        {
          "internalType": "bool",
          "name": "_paused",
          "type": "bool"
        }
      ],
      "name": "setPaused",
      "outputs": [],
      "stateMutability": "nonpayable",
      "type": "function"
    },
    {
      "inputs": [
        {
          "internalType": "address",
          "name": "_rewardsDistribution",
          "type": "address"
        }
      ],
      "name": "setRewardsDistribution",
      "outputs": [],
      "stateMutability": "nonpayable",
      "type": "function"
    },
    {
      "inputs": [
        {
          "internalType": "uint256",
          "name": "_rewardsDuration",
          "type": "uint256"
        }
      ],
      "name": "setRewardsDuration",
      "outputs": [],
      "stateMutability": "nonpayable",
      "type": "function"
    },
    {
      "inputs": [
        {
          "internalType": "uint256",
          "name": "amount",
          "type": "uint256"
        }
      ],
      "name": "stake",
      "outputs": [],
      "stateMutability": "nonpayable",
      "type": "function"
    },
    {
      "inputs": [],
      "name": "stakingToken",
      "outputs": [
        {
          "internalType": "contract IERC20",
          "name": "",
          "type": "address"
        }
      ],
      "stateMutability": "view",
      "type": "function"
    },
    {
      "inputs": [],
      "name": "totalSupply",
      "outputs": [
        {
          "internalType": "uint256",
          "name": "",
          "type": "uint256"
        }
      ],
      "stateMutability": "view",
      "type": "function"
    },
    {
      "inputs": [
        {
          "internalType": "address",
          "name": "",
          "type": "address"
        }
      ],
      "name": "userRewardPerTokenPaid",
      "outputs": [
        {
          "internalType": "uint256",
          "name": "",
          "type": "uint256"
        }
      ],
      "stateMutability": "view",
      "type": "function"
    },
    {
      "inputs": [
        {
          "internalType": "uint256",
          "name": "amount",
          "type": "uint256"
        }
      ],
      "name": "withdraw",
      "outputs": [],
      "stateMutability": "nonpayable",
      "type": "function"
    }
  ],
  "bytecode": "0x60806040526000600755600060085562093a806009553480156200002257600080fd5b50604051620014cf380380620014cf8339810160408190526200004591620001bc565b83806001600160a01b038116620000a35760405162461bcd60e51b815260206004820152601960248201527f4f776e657220616464726573732063616e6e6f7420626520300000000000000060448201526064015b60405180910390fd5b600080546001600160a01b0319166001600160a01b03831690811782556040805192835260208301919091527fb532073b38c83145e3e5135377a08bf9aab55bc0fd7c1179cd4fb995d2a5159c910160405180910390a1505060016003556000546001600160a01b03166200014f5760405162461bcd60e51b815260206004820152601160248201527013dddb995c881b5d5cdd081899481cd95d607a1b60448201526064016200009a565b600580546001600160a01b0393841661010002610100600160a81b0319909116179055600680549183166001600160a01b0319928316179055600280549390921692169190911790555062000219565b80516001600160a01b0381168114620001b757600080fd5b919050565b60008060008060808587031215620001d357600080fd5b620001de856200019f565b9350620001ee602086016200019f565b9250620001fe604086016200019f565b91506200020e606086016200019f565b905092959194509250565b6112a680620002296000396000f3fe608060405234801561001057600080fd5b50600436106101e45760003560e01c806372f702f31161010f578063a694fc3a116100a2578063d1af0c7d11610071578063d1af0c7d146103e7578063df136d65146103ff578063e9fad8ee14610408578063ebe2b12b1461041057600080fd5b8063a694fc3a146103b0578063c8f33c91146103c3578063cc1a378f146103cc578063cd3daf9d146103df57600080fd5b80638980f11f116100de5780638980f11f146103615780638b876347146103745780638da5cb5b1461039457806391b4ded9146103a757600080fd5b806372f702f31461033557806379ba5097146103485780637b0a47ee1461035057806380faa57d1461035957600080fd5b80632e1a7d4d116101875780633fc6df6e116101565780633fc6df6e146102b157806353a47bb7146102dc5780635c975abb146102ef57806370a082311461030c57600080fd5b80632e1a7d4d1461027a578063386a95251461028d5780633c6b16ab146102965780633d18b912146102a957600080fd5b806316c38b3c116101c357806316c38b3c1461024457806318160ddd14610257578063197621431461025f5780631c1f78eb1461027257600080fd5b80628cc262146101e95780630700037d1461020f5780631627540c1461022f575b600080fd5b6101fc6101f7366004611135565b610419565b6040519081526020015b60405180910390f35b6101fc61021d366004611135565b600d6020526000908152604090205481565b61024261023d366004611135565b610496565b005b610242610252366004611165565b6104f3565b600e546101fc565b61024261026d366004611135565b610565565b6101fc61058f565b610242610288366004611182565b6105a6565b6101fc60095481565b6102426102a4366004611182565b61074b565b610242610994565b6002546102c4906001600160a01b031681565b6040516001600160a01b039091168152602001610206565b6001546102c4906001600160a01b031681565b6005546102fc9060ff1681565b6040519015158152602001610206565b6101fc61031a366004611135565b6001600160a01b03166000908152600f602052604090205490565b6006546102c4906001600160a01b031681565b610242610adf565b6101fc60085481565b6101fc610bc9565b61024261036f36600461119b565b610be6565b6101fc610382366004611135565b600c6020526000908152604090205481565b6000546102c4906001600160a01b031681565b6101fc60045481565b6102426103be366004611182565b610d14565b6101fc600a5481565b6102426103da366004611182565b610f21565b6101fc610ffb565b6005546102c49061010090046001600160a01b031681565b6101fc600b5481565b61024261105c565b6101fc60075481565b6001600160a01b0381166000908152600d6020908152604080832054600c909252822054670de0b6b3a76400009061044f610ffb565b61045991906111db565b6001600160a01b0385166000908152600f602052604090205461047c91906111ee565b6104869190611205565b6104909190611227565b92915050565b61049e61107d565b600180546001600160a01b0319166001600160a01b0383169081179091556040519081527f906a1c6bd7e3091ea86693dd029a831c19049ce77f1dce2ce0bab1cacbabce22906020015b60405180910390a150565b6104fb61107d565b60055460ff16151581151514610562576005805460ff191682151590811790915560ff161561052957426004555b60055460405160ff909116151581527f8fb6c181ee25a520cf3dd6565006ef91229fcfe5a989566c2a3b8c115570cec5906020016104e8565b50565b61056d61107d565b600280546001600160a01b0319166001600160a01b0392909216919091179055565b60006009546008546105a191906111ee565b905090565b6105ae6110ef565b336105b7610ffb565b600b556105c2610bc9565b600a556001600160a01b03811615610609576105dd81610419565b6001600160a01b0382166000908152600d6020908152604080832093909355600b54600c909152919020555b600082116106525760405162461bcd60e51b8152602060048201526011602482015270043616e6e6f74207769746864726177203607c1b60448201526064015b60405180910390fd5b81600e5461066091906111db565b600e55336000908152600f602052604090205461067e9083906111db565b336000818152600f60205260409081902092909255600654915163a9059cbb60e01b81526004810191909152602481018490526001600160a01b039091169063a9059cbb906044016020604051808303816000875af11580156106e5573d6000803e3d6000fd5b505050506040513d601f19601f82011682018060405250810190610709919061123a565b5060405182815233907f7084f5476618d8e60b11ef0d7d3f06914655adb8793e28ff7f018d4c76d505d5906020015b60405180910390a2506105626001600355565b6002546001600160a01b031633146107b85760405162461bcd60e51b815260206004820152602a60248201527f43616c6c6572206973206e6f742052657761726473446973747269627574696f6044820152691b8818dbdb9d1c9858dd60b21b6064820152608401610649565b60006107c2610ffb565b600b556107cd610bc9565b600a556001600160a01b03811615610814576107e881610419565b6001600160a01b0382166000908152600d6020908152604080832093909355600b54600c909152919020555b60075442106108325760095461082a9083611205565b600855610874565b60004260075461084291906111db565b905060006008548261085491906111ee565b6009549091506108648286611227565b61086e9190611205565b60085550505b6005546040516370a0823160e01b815230600482015260009161010090046001600160a01b0316906370a0823190602401602060405180830381865afa1580156108c2573d6000803e3d6000fd5b505050506040513d601f19601f820116820180604052508101906108e69190611257565b9050600954816108f69190611205565b60085411156109475760405162461bcd60e51b815260206004820152601860248201527f50726f76696465642072657761726420746f6f206869676800000000000000006044820152606401610649565b42600a55600954426109599190611227565b6007556040518381527fde88a922e0d3b88b24e9623efeb464919c6bf9f66857a65e2bfcf2ce87a9433d9060200160405180910390a1505050565b61099c6110ef565b336109a5610ffb565b600b556109b0610bc9565b600a556001600160a01b038116156109f7576109cb81610419565b6001600160a01b0382166000908152600d6020908152604080832093909355600b54600c909152919020555b336000908152600d60205260409020548015610ad157336000818152600d602052604080822091909155600554905163a9059cbb60e01b815260048101929092526024820183905261010090046001600160a01b03169063a9059cbb906044016020604051808303816000875af1158015610a76573d6000803e3d6000fd5b505050506040513d601f19601f82011682018060405250810190610a9a919061123a565b5060405181815233907fe2403640ba68fed3a2f88b7557551d1993f84b99bb10ff833f0cf8db0c5e04869060200160405180910390a25b5050610add6001600355565b565b6001546001600160a01b03163314610b575760405162461bcd60e51b815260206004820152603560248201527f596f75206d757374206265206e6f6d696e61746564206265666f726520796f7560448201527402063616e20616363657074206f776e65727368697605c1b6064820152608401610649565b600054600154604080516001600160a01b0393841681529290911660208301527fb532073b38c83145e3e5135377a08bf9aab55bc0fd7c1179cd4fb995d2a5159c910160405180910390a160018054600080546001600160a01b03199081166001600160a01b03841617909155169055565b6000600754610bd54290565b10610be1575060075490565b504290565b610bee61107d565b6006546001600160a01b0390811690831603610c565760405162461bcd60e51b815260206004820152602160248201527f43616e6e6f7420776974686472617720746865207374616b696e6720746f6b656044820152603760f91b6064820152608401610649565b60005460405163a9059cbb60e01b81526001600160a01b039182166004820152602481018390529083169063a9059cbb906044016020604051808303816000875af1158015610ca9573d6000803e3d6000fd5b505050506040513d601f19601f82011682018060405250810190610ccd919061123a565b50604080516001600160a01b0384168152602081018390527f8c1256b8896378cd5044f80c202f9772b9d77dc85c8a6eb51967210b09bfaa28910160405180910390a15050565b610d1c6110ef565b60055460ff1615610d955760405162461bcd60e51b815260206004820152603c60248201527f5468697320616374696f6e2063616e6e6f7420626520706572666f726d65642060448201527f7768696c652074686520636f6e747261637420697320706175736564000000006064820152608401610649565b33610d9e610ffb565b600b55610da9610bc9565b600a556001600160a01b03811615610df057610dc481610419565b6001600160a01b0382166000908152600d6020908152604080832093909355600b54600c909152919020555b60008211610e315760405162461bcd60e51b815260206004820152600e60248201526d043616e6e6f74207374616b6520360941b6044820152606401610649565b81600e54610e3f9190611227565b600e55336000908152600f6020526040902054610e5d908390611227565b336000818152600f6020526040908190209290925560065491516323b872dd60e01b81526004810191909152306024820152604481018490526001600160a01b03909116906323b872dd906064016020604051808303816000875af1158015610eca573d6000803e3d6000fd5b505050506040513d601f19601f82011682018060405250810190610eee919061123a565b5060405182815233907f9e71bc8eea02a63969f509818f2dafb9254532904319f9dbda79b67bd34a5f3d90602001610738565b610f2961107d565b6007544211610fc65760405162461bcd60e51b815260206004820152605860248201527f50726576696f7573207265776172647320706572696f64206d7573742062652060448201527f636f6d706c657465206265666f7265206368616e67696e67207468652064757260648201527f6174696f6e20666f7220746865206e657720706572696f640000000000000000608482015260a401610649565b60098190556040518181527ffb46ca5a5e06d4540d6387b930a7c978bce0db5f449ec6b3f5d07c6e1d44f2d3906020016104e8565b6000600e5460000361100e5750600b5490565b600e54600854600a5461101f610bc9565b61102991906111db565b61103391906111ee565b61104590670de0b6b3a76400006111ee565b61104f9190611205565b600b546105a19190611227565b336000908152600f6020526040902054611075906105a6565b610add610994565b6000546001600160a01b03163314610add5760405162461bcd60e51b815260206004820152602f60248201527f4f6e6c792074686520636f6e7472616374206f776e6572206d6179207065726660448201526e37b936903a3434b99030b1ba34b7b760891b6064820152608401610649565b60026003540361111257604051633ee5aeb560e01b815260040160405180910390fd5b6002600355565b80356001600160a01b038116811461113057600080fd5b919050565b60006020828403121561114757600080fd5b61115082611119565b9392505050565b801515811461056257600080fd5b60006020828403121561117757600080fd5b813561115081611157565b60006020828403121561119457600080fd5b5035919050565b600080604083850312156111ae57600080fd5b6111b783611119565b946020939093013593505050565b634e487b7160e01b600052601160045260246000fd5b81810381811115610490576104906111c5565b8082028115828204841417610490576104906111c5565b60008261122257634e487b7160e01b600052601260045260246000fd5b500490565b80820180821115610490576104906111c5565b60006020828403121561124c57600080fd5b815161115081611157565b60006020828403121561126957600080fd5b505191905056fea2646970667358221220b2a89b3191933e677dedef17e50ab9471edb90c6fb1895a3be1660dd4205424964736f6c63430008180033",
  "linkReferences": {},
  "deployedLinkReferences": {}
}