{
  "_format": "hh-sol-artifact-1",
  "contractName": "PermissionsManager",
  "sourceName": "SuperChamps/contracts/Utils/PermissionsManager.sol",
  "abi": [
    {
      "inputs": [],
      "stateMutability": "nonpayable",
      "type": "constructor"
    },
    {
      "inputs": [
        {
          "internalType": "enum IPermissionsManager.Role",
          "name": "role_",
          "type": "uint8"
        },
        {
          "internalType": "address",
          "name": "account_",
          "type": "address"
        }
      ],
      "name": "addRole",
      "outputs": [],
      "stateMutability": "nonpayable",
      "type": "function"
    },
    {
      "inputs": [
        {
          "internalType": "enum IPermissionsManager.Role",
          "name": "role_",
          "type": "uint8"
        },
        {
          "internalType": "address",
          "name": "account_",
          "type": "address"
        }
      ],
      "name": "hasRole",
      "outputs": [
        {
          "internalType": "bool",
          "name": "",
          "type": "bool"
        }
      ],
      "stateMutability": "view",
      "type": "function"
    },
    {
      "inputs": [
        {
          "internalType": "address",
          "name": "tokenAddress_",
          "type": "address"
        },
        {
          "internalType": "uint256",
          "name": "tokenAmount_",
          "type": "uint256"
        }
      ],
      "name": "recoverERC20",
      "outputs": [],
      "stateMutability": "nonpayable",
      "type": "function"
    },
    {
      "inputs": [
        {
          "internalType": "enum IPermissionsManager.Role",
          "name": "role_",
          "type": "uint8"
        },
        {
          "internalType": "address",
          "name": "account_",
          "type": "address"
        }
      ],
      "name": "removeRole",
      "outputs": [],
      "stateMutability": "nonpayable",
      "type": "function"
    }
  ],
  "bytecode": "0x6080604052348015600f57600080fd5b503360009081526020818152604080832060018085529252909120805460ff1916909117905561058f806100446000396000f3fe608060405234801561001057600080fd5b506004361061004c5760003560e01c8063829124e0146100515780638980f11f146100665780638a1713c6146100795780639e97b8f61461008c575b600080fd5b61006461005f366004610471565b6100b3565b005b6100646100743660046104aa565b6101a7565b610064610087366004610471565b610231565b61009f61009a366004610471565b610394565b604051901515815260200160405180910390f35b6100be600133610394565b6100c757600080fd5b6001600160a01b03811660009081526020819052604081209083600e8111156100f2576100f26104d4565b600e811115610103576101036104d4565b815260208101919091526040016000205460ff166101a3576001600160a01b038116600090815260208190526040812060019184600e811115610148576101486104d4565b600e811115610159576101596104d4565b815260208082019290925260409081016000908120805460ff1916941515949094179093556001600160a01b03841683526001909152812080549161019d83610500565b91905055505b5050565b6101b2600133610394565b6101bb57600080fd5b60405163a9059cbb60e01b8152336004820152602481018290526001600160a01b0383169063a9059cbb906044016020604051808303816000875af1158015610208573d6000803e3d6000fd5b505050506040513d601f19601f8201168201806040525081019061022c9190610519565b505050565b61023c600133610394565b61024557600080fd5b6001600160a01b0381163314158061026f5750600182600e81111561026c5761026c6104d4565b14155b6102bf5760405162461bcd60e51b815260206004820152601d60248201527f43414e27542052454d4f564520474c4f42414c2046524f4d2053454c46000000604482015260640160405180910390fd5b6001600160a01b03811660009081526020819052604081209083600e8111156102ea576102ea6104d4565b600e8111156102fb576102fb6104d4565b815260208101919091526040016000205460ff16156101a3576001600160a01b03811660009081526020819052604081208184600e81111561033f5761033f6104d4565b600e811115610350576103506104d4565b815260208082019290925260409081016000908120805460ff1916941515949094179093556001600160a01b03841683526001909152812080549161019d83610542565b60008083600e8111156103a9576103a96104d4565b036103cf57506001600160a01b038116600090815260016020526040902054151561044f565b6001600160a01b03821660009081526020819052604081209084600e8111156103fa576103fa6104d4565b600e81111561040b5761040b6104d4565b815260208101919091526040016000205460ff168061044c57506001600160a01b0382166000908152602081815260408083206001845290915290205460ff165b90505b92915050565b80356001600160a01b038116811461046c57600080fd5b919050565b6000806040838503121561048457600080fd5b8235600f811061049357600080fd5b91506104a160208401610455565b90509250929050565b600080604083850312156104bd57600080fd5b6104c683610455565b946020939093013593505050565b634e487b7160e01b600052602160045260246000fd5b634e487b7160e01b600052601160045260246000fd5b600060018201610512576105126104ea565b5060010190565b60006020828403121561052b57600080fd5b8151801515811461053b57600080fd5b9392505050565b600081610551576105516104ea565b50600019019056fea264697066735822122004f65f0beb0eb12fe26894959676850bc1fe657bf92c6ea502dd316d085fbebb64736f6c634300081e0033",
  "linkReferences": {},
  "deployedLinkReferences": {}
}