{
  "_format": "hh-sol-artifact-1",
  "contractName": "SCPermissionedAccess",
  "sourceName": "SuperChamps/contracts/Utils/SCPermissionedAccess.sol",
  "abi": [
    {
      "inputs": [
        {
          "internalType": "address",
          "name": "_permissions",
          "type": "address"
        }
      ],
      "stateMutability": "nonpayable",
      "type": "constructor"
    },
    {
      "inputs": [],
      "name": "permissions",
      "outputs": [
        {
          "internalType": "contract IPermissionsManager",
          "name": "",
          "type": "address"
        }
      ],
      "stateMutability": "view",
      "type": "function"
    }
  ],
  "bytecode": "0x60a060405234801561001057600080fd5b5060405161012d38038061012d83398101604081905261002f91610040565b6001600160a01b0316608052610070565b60006020828403121561005257600080fd5b81516001600160a01b038116811461006957600080fd5b9392505050565b60805160a561008860003960006031015260a56000f3fe6080604052348015600f57600080fd5b506004361060285760003560e01c8063ab8c71c014602d575b600080fd5b60537f000000000000000000000000000000000000000000000000000000000000000081565b6040516001600160a01b03909116815260200160405180910390f3fea2646970667358221220345c3267c11efef4a92b7cbf771b8bc04bf8a3cdabe67e4d0fbf80cb0fd659b564736f6c63430008180033",
  "linkReferences": {},
  "deployedLinkReferences": {}
}