{
  "_format": "hh-sol-artifact-1",
  "contractName": "SCPermissionedAccess",
  "sourceName": "SuperChamps/contracts/Utils/SCPermissionedAccess.sol",
  "abi": [
    {
      "inputs": [
        {
          "internalType": "address",
          "name": "_permissions",
          "type": "address"
        }
      ],
      "stateMutability": "nonpayable",
      "type": "constructor"
    },
    {
      "inputs": [],
      "name": "permissions",
      "outputs": [
        {
          "internalType": "contract IPermissionsManager",
          "name": "",
          "type": "address"
        }
      ],
      "stateMutability": "view",
      "type": "function"
    }
  ],
  "bytecode": "0x60a0604052348015600f57600080fd5b50604051610127380380610127833981016040819052602c91603c565b6001600160a01b0316608052606a565b600060208284031215604d57600080fd5b81516001600160a01b0381168114606357600080fd5b9392505050565b60805160a561008260003960006031015260a56000f3fe6080604052348015600f57600080fd5b506004361060285760003560e01c8063ab8c71c014602d575b600080fd5b60537f000000000000000000000000000000000000000000000000000000000000000081565b6040516001600160a01b03909116815260200160405180910390f3fea26469706673582212204ef53186d5b6b33220ce778de91c47c04beea6a2f813bdf27fb0e26940526f0b64736f6c634300081e0033",
  "linkReferences": {},
  "deployedLinkReferences": {}
}