{
  "_format": "hh-sol-artifact-1",
  "contractName": "SCRewardsDispenser",
  "sourceName": "SuperChamps/contracts/Token/SCRewardsDispenser.sol",
  "abi": [
    {
      "inputs": [
        {
          "internalType": "address",
          "name": "permissions_",
          "type": "address"
        },
        {
          "internalType": "address",
          "name": "token_",
          "type": "address"
        }
      ],
      "stateMutability": "nonpayable",
      "type": "constructor"
    },
    {
      "inputs": [],
      "name": "ECDSAInvalidSignature",
      "type": "error"
    },
    {
      "inputs": [
        {
          "internalType": "uint256",
          "name": "length",
          "type": "uint256"
        }
      ],
      "name": "ECDSAInvalidSignatureLength",
      "type": "error"
    },
    {
      "inputs": [
        {
          "internalType": "bytes32",
          "name": "s",
          "type": "bytes32"
        }
      ],
      "name": "ECDSAInvalidSignatureS",
      "type": "error"
    },
    {
      "inputs": [],
      "name": "InvalidShortString",
      "type": "error"
    },
    {
      "inputs": [
        {
          "internalType": "string",
          "name": "str",
          "type": "string"
        }
      ],
      "name": "StringTooLong",
      "type": "error"
    },
    {
      "anonymous": false,
      "inputs": [],
      "name": "EIP712DomainChanged",
      "type": "event"
    },
    {
      "anonymous": false,
      "inputs": [
        {
          "indexed": false,
          "internalType": "address",
          "name": "recipient",
          "type": "address"
        },
        {
          "indexed": false,
          "internalType": "uint256",
          "name": "amount",
          "type": "uint256"
        }
      ],
      "name": "rewardClaimed",
      "type": "event"
    },
    {
      "inputs": [
        {
          "components": [
            {
              "internalType": "uint256",
              "name": "amount_",
              "type": "uint256"
            },
            {
              "internalType": "uint256",
              "name": "signature_expiry_ts_",
              "type": "uint256"
            }
          ],
          "internalType": "struct SCRewardsDispenser.Claim",
          "name": "claim_",
          "type": "tuple"
        },
        {
          "internalType": "bytes",
          "name": "signature_",
          "type": "bytes"
        }
      ],
      "name": "claim",
      "outputs": [],
      "stateMutability": "nonpayable",
      "type": "function"
    },
    {
      "inputs": [],
      "name": "eip712Domain",
      "outputs": [
        {
          "internalType": "bytes1",
          "name": "fields",
          "type": "bytes1"
        },
        {
          "internalType": "string",
          "name": "name",
          "type": "string"
        },
        {
          "internalType": "string",
          "name": "version",
          "type": "string"
        },
        {
          "internalType": "uint256",
          "name": "chainId",
          "type": "uint256"
        },
        {
          "internalType": "address",
          "name": "verifyingContract",
          "type": "address"
        },
        {
          "internalType": "bytes32",
          "name": "salt",
          "type": "bytes32"
        },
        {
          "internalType": "uint256[]",
          "name": "extensions",
          "type": "uint256[]"
        }
      ],
      "stateMutability": "view",
      "type": "function"
    },
    {
      "inputs": [
        {
          "internalType": "uint256",
          "name": "amount_",
          "type": "uint256"
        },
        {
          "internalType": "uint256",
          "name": "signature_expiry_ts_",
          "type": "uint256"
        },
        {
          "internalType": "bytes",
          "name": "signature_",
          "type": "bytes"
        }
      ],
      "name": "extractSigner712",
      "outputs": [
        {
          "internalType": "address",
          "name": "",
          "type": "address"
        }
      ],
      "stateMutability": "view",
      "type": "function"
    },
    {
      "inputs": [],
      "name": "permissions",
      "outputs": [
        {
          "internalType": "contract IPermissionsManager",
          "name": "",
          "type": "address"
        }
      ],
      "stateMutability": "view",
      "type": "function"
    },
    {
      "inputs": [
        {
          "internalType": "address",
          "name": "tokenAddress_",
          "type": "address"
        },
        {
          "internalType": "uint256",
          "name": "tokenAmount_",
          "type": "uint256"
        }
      ],
      "name": "recoverERC20",
      "outputs": [],
      "stateMutability": "nonpayable",
      "type": "function"
    },
    {
      "inputs": [],
      "name": "withdraw",
      "outputs": [],
      "stateMutability": "nonpayable",
      "type": "function"
    }
  ],
  "bytecode": "0x6101a060405234801561001157600080fd5b50604051611478380380611478833981016040819052610030916101d8565b604080518082018252601281527129a1a932bbb0b93239a234b9b832b739b7b960711b6020808301919091528251808401909352600683526553435244763160d01b908301528391610083826000610142565b61012052610092816001610142565b61014052815160208084019190912060e052815190820120610100524660a05261011f60e05161010051604080517f8b73c3c69bb8fe3d512ecc4cf759cc79239f7b179b0ffacaa9a75d522b39400f60208201529081019290925260608201524660808201523060a082015260009060c00160405160208183030381529060405280519060200120905090565b60805250503060c0526001600160a01b03908116610160521661018052506103da565b600060208351101561015e5761015783610175565b905061016f565b8161016984826102aa565b5060ff90505b92915050565b600080829050601f815111156101a9578260405163305a27a960e01b81526004016101a09190610368565b60405180910390fd5b80516101b4826103b6565b179392505050565b80516001600160a01b03811681146101d357600080fd5b919050565b600080604083850312156101eb57600080fd5b6101f4836101bc565b9150610202602084016101bc565b90509250929050565b634e487b7160e01b600052604160045260246000fd5b600181811c9082168061023557607f821691505b60208210810361025557634e487b7160e01b600052602260045260246000fd5b50919050565b601f8211156102a557806000526020600020601f840160051c810160208510156102825750805b601f840160051c820191505b818110156102a2576000815560010161028e565b50505b505050565b81516001600160401b038111156102c3576102c361020b565b6102d7816102d18454610221565b8461025b565b6020601f82116001811461030b57600083156102f35750848201515b600019600385901b1c1916600184901b1784556102a2565b600084815260208120601f198516915b8281101561033b578785015182556020948501946001909201910161031b565b50848210156103595786840151600019600387901b60f8161c191681555b50505050600190811b01905550565b602081526000825180602084015260005b818110156103965760208186018101516040868401015201610379565b506000604082850101526040601f19601f83011684010191505092915050565b805160208083015191908110156102555760001960209190910360031b1b16919050565b60805160a05160c05160e0516101005161012051610140516101605161018051611013610465600039600081816101f8015261065701526000818160ad01528181610124015281816103440152610583015260006107bd0152600061078b015260006109c50152600061099d015260006108f8015260006109220152600061094c01526110136000f3fe608060405234801561001057600080fd5b50600436106100625760003560e01c80633ccfd60b1461006757806384b0196e146100715780638980f11f14610095578063ab8c71c0146100a8578063ed3553ba146100e7578063f9de0403146100fa575b600080fd5b61006f61010d565b005b6100796102e7565b60405161008c9796959493929190610ca6565b60405180910390f35b61006f6100a3366004610d3e565b61032d565b6100cf7f000000000000000000000000000000000000000000000000000000000000000081565b6040516001600160a01b03909116815260200161008c565b61006f6100f5366004610e1b565b610474565b6100cf610108366004610ea5565b61070e565b604051634f4bdc7b60e11b81526001600160a01b037f00000000000000000000000000000000000000000000000000000000000000001690639e97b8f69061015c906001903390600401610f0b565b602060405180830381865afa158015610179573d6000803e3d6000fd5b505050506040513d601f19601f8201168201806040525081019061019d9190610f45565b6101e35760405162461bcd60e51b81526020600482015260126024820152712737ba10309023b637b130b61020b236b4b760711b60448201526064015b60405180910390fd5b6040516370a0823160e01b81523060048201527f00000000000000000000000000000000000000000000000000000000000000006001600160a01b03169063a9059cbb90339083906370a0823190602401602060405180830381865afa158015610251573d6000803e3d6000fd5b505050506040513d601f19601f820116820180604052508101906102759190610f6e565b6040516001600160e01b031960e085901b1681526001600160a01b03909216600483015260248201526044016020604051808303816000875af11580156102c0573d6000803e3d6000fd5b505050506040513d601f19601f820116820180604052508101906102e49190610f45565b50565b6000606080600080600060606102fb610784565b6103036107b6565b60408051600080825260208201909252600f60f81b9b939a50919850469750309650945092509050565b604051634f4bdc7b60e11b81526001600160a01b037f00000000000000000000000000000000000000000000000000000000000000001690639e97b8f69061037c906001903390600401610f0b565b602060405180830381865afa158015610399573d6000803e3d6000fd5b505050506040513d601f19601f820116820180604052508101906103bd9190610f45565b6103fe5760405162461bcd60e51b81526020600482015260126024820152712737ba10309023b637b130b61020b236b4b760711b60448201526064016101da565b60405163a9059cbb60e01b8152336004820152602481018290526001600160a01b0383169063a9059cbb906044016020604051808303816000875af115801561044b573d6000803e3d6000fd5b505050506040513d601f19601f8201168201806040525081019061046f9190610f45565b505050565b428260200151116104b85760405162461bcd60e51b815260206004820152600e60248201526d494e56414c49442045585049525960901b60448201526064016101da565b6002816040516104c89190610f87565b9081526040519081900360200190205460ff161561051d5760405162461bcd60e51b8152602060048201526012602482015271434f4e53554d4544205349474e415455524560701b60448201526064016101da565b600160028260405161052f9190610f87565b908152602001604051809103902060006101000a81548160ff0219169083151502179055506000610569836000015184602001518461070e565b604051634f4bdc7b60e11b81529091506001600160a01b037f00000000000000000000000000000000000000000000000000000000000000001690639e97b8f6906105ba9060049085908201610f0b565b602060405180830381865afa1580156105d7573d6000803e3d6000fd5b505050506040513d601f19601f820116820180604052508101906105fb9190610f45565b6106385760405162461bcd60e51b815260206004820152600e60248201526d24a72b20a624a21029a4a3a722a960911b60448201526064016101da565b825160405163a9059cbb60e01b815233600482015260248101919091527f00000000000000000000000000000000000000000000000000000000000000006001600160a01b03169063a9059cbb906044016020604051808303816000875af11580156106a8573d6000803e3d6000fd5b505050506040513d601f19601f820116820180604052508101906106cc9190610f45565b5082516040805133815260208101929092527f83b78188b13346b2ffb484da70d42ee27de7fbf9f2bd8045269e10ed643ccd76910160405180910390a1505050565b604080517f50f94c11e55bf37f382e6b3791d8c9a33f3bd42f6a0b904d070077043a568073602082015290810184905260608101839052600090819061076c90608001604051602081830303815290604052805190602001206107e3565b9050600061077a8285610816565b9695505050505050565b60606107b17f00000000000000000000000000000000000000000000000000000000000000006000610840565b905090565b60606107b17f00000000000000000000000000000000000000000000000000000000000000006001610840565b60006108106107f06108eb565b8360405161190160f01b8152600281019290925260228201526042902090565b92915050565b6000806000806108268686610a16565b9250925092506108368282610a63565b5090949350505050565b606060ff831461085a5761085383610b20565b9050610810565b81805461086690610fa3565b80601f016020809104026020016040519081016040528092919081815260200182805461089290610fa3565b80156108df5780601f106108b4576101008083540402835291602001916108df565b820191906000526020600020905b8154815290600101906020018083116108c257829003601f168201915b50505050509050610810565b6000306001600160a01b037f00000000000000000000000000000000000000000000000000000000000000001614801561094457507f000000000000000000000000000000000000000000000000000000000000000046145b1561096e57507f000000000000000000000000000000000000000000000000000000000000000090565b6107b1604080517f8b73c3c69bb8fe3d512ecc4cf759cc79239f7b179b0ffacaa9a75d522b39400f60208201527f0000000000000000000000000000000000000000000000000000000000000000918101919091527f000000000000000000000000000000000000000000000000000000000000000060608201524660808201523060a082015260009060c00160405160208183030381529060405280519060200120905090565b60008060008351604103610a505760208401516040850151606086015160001a610a4288828585610b5f565b955095509550505050610a5c565b50508151600091506002905b9250925092565b6000826003811115610a7757610a77610ef5565b03610a80575050565b6001826003811115610a9457610a94610ef5565b03610ab25760405163f645eedf60e01b815260040160405180910390fd5b6002826003811115610ac657610ac6610ef5565b03610ae75760405163fce698f760e01b8152600481018290526024016101da565b6003826003811115610afb57610afb610ef5565b03610b1c576040516335e2f38360e21b8152600481018290526024016101da565b5050565b60606000610b2d83610c2e565b604080516020808252818301909252919250600091906020820181803683375050509182525060208101929092525090565b600080807f7fffffffffffffffffffffffffffffff5d576e7357a4501ddfe92f46681b20a0841115610b9a5750600091506003905082610c24565b604080516000808252602082018084528a905260ff891692820192909252606081018790526080810186905260019060a0016020604051602081039080840390855afa158015610bee573d6000803e3d6000fd5b5050604051601f1901519150506001600160a01b038116610c1a57506000925060019150829050610c24565b9250600091508190505b9450945094915050565b600060ff8216601f81111561081057604051632cd44ac360e21b815260040160405180910390fd5b60005b83811015610c71578181015183820152602001610c59565b50506000910152565b60008151808452610c92816020860160208601610c56565b601f01601f19169290920160200192915050565b60ff60f81b8816815260e060208201526000610cc560e0830189610c7a565b8281036040840152610cd78189610c7a565b606084018890526001600160a01b038716608085015260a0840186905283810360c08501528451808252602080870193509091019060005b81811015610d2d578351835260209384019390920191600101610d0f565b50909b9a5050505050505050505050565b60008060408385031215610d5157600080fd5b82356001600160a01b0381168114610d6857600080fd5b946020939093013593505050565b634e487b7160e01b600052604160045260246000fd5b600082601f830112610d9d57600080fd5b813567ffffffffffffffff811115610db757610db7610d76565b604051601f8201601f19908116603f0116810167ffffffffffffffff81118282101715610de657610de6610d76565b604052818152838201602001851015610dfe57600080fd5b816020850160208301376000918101602001919091529392505050565b6000808284036060811215610e2f57600080fd5b6040811215610e3d57600080fd5b506040805190810167ffffffffffffffff81118282101715610e6157610e61610d76565b6040908152843582526020808601359083015290925083013567ffffffffffffffff811115610e8f57600080fd5b610e9b85828601610d8c565b9150509250929050565b600080600060608486031215610eba57600080fd5b8335925060208401359150604084013567ffffffffffffffff811115610edf57600080fd5b610eeb86828701610d8c565b9150509250925092565b634e487b7160e01b600052602160045260246000fd5b60408101600f8410610f2d57634e487b7160e01b600052602160045260246000fd5b9281526001600160a01b039190911660209091015290565b600060208284031215610f5757600080fd5b81518015158114610f6757600080fd5b9392505050565b600060208284031215610f8057600080fd5b5051919050565b60008251610f99818460208701610c56565b9190910192915050565b600181811c90821680610fb757607f821691505b602082108103610fd757634e487b7160e01b600052602260045260246000fd5b5091905056fea2646970667358221220e821555f92ac127c9ede79876abb6579b4d3d9aaee7b047eaab8ca5ba7c9115764736f6c634300081e0033",
  "linkReferences": {},
  "deployedLinkReferences": {}
}