{
  "_format": "hh-sol-artifact-1",
  "contractName": "SCRewardsDispenser",
  "sourceName": "SuperChamps/contracts/Token/SCRewardsDispenser.sol",
  "abi": [
    {
      "inputs": [
        {
          "internalType": "address",
          "name": "permissions_",
          "type": "address"
        },
        {
          "internalType": "address",
          "name": "token_",
          "type": "address"
        }
      ],
      "stateMutability": "nonpayable",
      "type": "constructor"
    },
    {
      "inputs": [],
      "name": "ECDSAInvalidSignature",
      "type": "error"
    },
    {
      "inputs": [
        {
          "internalType": "uint256",
          "name": "length",
          "type": "uint256"
        }
      ],
      "name": "ECDSAInvalidSignatureLength",
      "type": "error"
    },
    {
      "inputs": [
        {
          "internalType": "bytes32",
          "name": "s",
          "type": "bytes32"
        }
      ],
      "name": "ECDSAInvalidSignatureS",
      "type": "error"
    },
    {
      "inputs": [],
      "name": "InvalidShortString",
      "type": "error"
    },
    {
      "inputs": [
        {
          "internalType": "string",
          "name": "str",
          "type": "string"
        }
      ],
      "name": "StringTooLong",
      "type": "error"
    },
    {
      "anonymous": false,
      "inputs": [],
      "name": "EIP712DomainChanged",
      "type": "event"
    },
    {
      "anonymous": false,
      "inputs": [
        {
          "indexed": false,
          "internalType": "address",
          "name": "recipient",
          "type": "address"
        },
        {
          "indexed": false,
          "internalType": "uint256",
          "name": "amount",
          "type": "uint256"
        }
      ],
      "name": "rewardClaimed",
      "type": "event"
    },
    {
      "inputs": [
        {
          "components": [
            {
              "internalType": "uint256",
              "name": "amount_",
              "type": "uint256"
            },
            {
              "internalType": "uint256",
              "name": "signature_expiry_ts_",
              "type": "uint256"
            }
          ],
          "internalType": "struct SCRewardsDispenser.Claim",
          "name": "claim_",
          "type": "tuple"
        },
        {
          "internalType": "bytes",
          "name": "signature_",
          "type": "bytes"
        }
      ],
      "name": "claim",
      "outputs": [],
      "stateMutability": "nonpayable",
      "type": "function"
    },
    {
      "inputs": [],
      "name": "eip712Domain",
      "outputs": [
        {
          "internalType": "bytes1",
          "name": "fields",
          "type": "bytes1"
        },
        {
          "internalType": "string",
          "name": "name",
          "type": "string"
        },
        {
          "internalType": "string",
          "name": "version",
          "type": "string"
        },
        {
          "internalType": "uint256",
          "name": "chainId",
          "type": "uint256"
        },
        {
          "internalType": "address",
          "name": "verifyingContract",
          "type": "address"
        },
        {
          "internalType": "bytes32",
          "name": "salt",
          "type": "bytes32"
        },
        {
          "internalType": "uint256[]",
          "name": "extensions",
          "type": "uint256[]"
        }
      ],
      "stateMutability": "view",
      "type": "function"
    },
    {
      "inputs": [
        {
          "internalType": "uint256",
          "name": "amount_",
          "type": "uint256"
        },
        {
          "internalType": "uint256",
          "name": "signature_expiry_ts_",
          "type": "uint256"
        },
        {
          "internalType": "bytes",
          "name": "signature_",
          "type": "bytes"
        }
      ],
      "name": "extractSigner712",
      "outputs": [
        {
          "internalType": "address",
          "name": "",
          "type": "address"
        }
      ],
      "stateMutability": "view",
      "type": "function"
    },
    {
      "inputs": [],
      "name": "permissions",
      "outputs": [
        {
          "internalType": "contract IPermissionsManager",
          "name": "",
          "type": "address"
        }
      ],
      "stateMutability": "view",
      "type": "function"
    },
    {
      "inputs": [
        {
          "internalType": "address",
          "name": "tokenAddress_",
          "type": "address"
        },
        {
          "internalType": "uint256",
          "name": "tokenAmount_",
          "type": "uint256"
        }
      ],
      "name": "recoverERC20",
      "outputs": [],
      "stateMutability": "nonpayable",
      "type": "function"
    },
    {
      "inputs": [],
      "name": "withdraw",
      "outputs": [],
      "stateMutability": "nonpayable",
      "type": "function"
    }
  ],
  "bytecode": "0x6101a06040523480156200001257600080fd5b50604051620014ac380380620014ac8339810160408190526200003591620001ef565b604080518082018252601281527129a1a932bbb0b93239a234b9b832b739b7b960711b6020808301919091528251808401909352600683526553435244763160d01b9083015283916200008a8260006200014d565b610120526200009b8160016200014d565b61014052815160208084019190912060e052815190820120610100524660a0526200012960e05161010051604080517f8b73c3c69bb8fe3d512ecc4cf759cc79239f7b179b0ffacaa9a75d522b39400f60208201529081019290925260608201524660808201523060a082015260009060c00160405160208183030381529060405280519060200120905090565b60805250503060c0526001600160a01b039081166101605216610180525062000410565b60006020835110156200016d57620001658362000186565b905062000180565b816200017a8482620002ce565b5060ff90505b92915050565b600080829050601f81511115620001bd578260405163305a27a960e01b8152600401620001b491906200039a565b60405180910390fd5b8051620001ca82620003eb565b179392505050565b80516001600160a01b0381168114620001ea57600080fd5b919050565b600080604083850312156200020357600080fd5b6200020e83620001d2565b91506200021e60208401620001d2565b90509250929050565b634e487b7160e01b600052604160045260246000fd5b600181811c908216806200025257607f821691505b6020821081036200027357634e487b7160e01b600052602260045260246000fd5b50919050565b601f821115620002c9576000816000526020600020601f850160051c81016020861015620002a45750805b601f850160051c820191505b81811015620002c557828155600101620002b0565b5050505b505050565b81516001600160401b03811115620002ea57620002ea62000227565b6200030281620002fb84546200023d565b8462000279565b602080601f8311600181146200033a5760008415620003215750858301515b600019600386901b1c1916600185901b178555620002c5565b600085815260208120601f198616915b828110156200036b578886015182559484019460019091019084016200034a565b50858210156200038a5787850151600019600388901b60f8161c191681555b5050505050600190811b01905550565b60006020808352835180602085015260005b81811015620003ca57858101830151858201604001528201620003ac565b506000604082860101526040601f19601f8301168501019250505092915050565b80516020808301519190811015620002735760001960209190910360031b1b16919050565b60805160a05160c05160e05161010051610120516101405161016051610180516110106200049c600039600081816101f8015261065701526000818160ad01528181610124015281816103440152610583015260006107bd0152600061078b015260006109c50152600061099d015260006108f8015260006109220152600061094c01526110106000f3fe608060405234801561001057600080fd5b50600436106100625760003560e01c80633ccfd60b1461006757806384b0196e146100715780638980f11f14610095578063ab8c71c0146100a8578063ed3553ba146100e7578063f9de0403146100fa575b600080fd5b61006f61010d565b005b6100796102e7565b60405161008c9796959493929190610ca6565b60405180910390f35b61006f6100a3366004610d3f565b61032d565b6100cf7f000000000000000000000000000000000000000000000000000000000000000081565b6040516001600160a01b03909116815260200161008c565b61006f6100f5366004610e1a565b610474565b6100cf610108366004610ea2565b61070e565b604051634f4bdc7b60e11b81526001600160a01b037f00000000000000000000000000000000000000000000000000000000000000001690639e97b8f69061015c906001903390600401610f08565b602060405180830381865afa158015610179573d6000803e3d6000fd5b505050506040513d601f19601f8201168201806040525081019061019d9190610f42565b6101e35760405162461bcd60e51b81526020600482015260126024820152712737ba10309023b637b130b61020b236b4b760711b60448201526064015b60405180910390fd5b6040516370a0823160e01b81523060048201527f00000000000000000000000000000000000000000000000000000000000000006001600160a01b03169063a9059cbb90339083906370a0823190602401602060405180830381865afa158015610251573d6000803e3d6000fd5b505050506040513d601f19601f820116820180604052508101906102759190610f6b565b6040516001600160e01b031960e085901b1681526001600160a01b03909216600483015260248201526044016020604051808303816000875af11580156102c0573d6000803e3d6000fd5b505050506040513d601f19601f820116820180604052508101906102e49190610f42565b50565b6000606080600080600060606102fb610784565b6103036107b6565b60408051600080825260208201909252600f60f81b9b939a50919850469750309650945092509050565b604051634f4bdc7b60e11b81526001600160a01b037f00000000000000000000000000000000000000000000000000000000000000001690639e97b8f69061037c906001903390600401610f08565b602060405180830381865afa158015610399573d6000803e3d6000fd5b505050506040513d601f19601f820116820180604052508101906103bd9190610f42565b6103fe5760405162461bcd60e51b81526020600482015260126024820152712737ba10309023b637b130b61020b236b4b760711b60448201526064016101da565b60405163a9059cbb60e01b8152336004820152602481018290526001600160a01b0383169063a9059cbb906044016020604051808303816000875af115801561044b573d6000803e3d6000fd5b505050506040513d601f19601f8201168201806040525081019061046f9190610f42565b505050565b428260200151116104b85760405162461bcd60e51b815260206004820152600e60248201526d494e56414c49442045585049525960901b60448201526064016101da565b6002816040516104c89190610f84565b9081526040519081900360200190205460ff161561051d5760405162461bcd60e51b8152602060048201526012602482015271434f4e53554d4544205349474e415455524560701b60448201526064016101da565b600160028260405161052f9190610f84565b908152602001604051809103902060006101000a81548160ff0219169083151502179055506000610569836000015184602001518461070e565b604051634f4bdc7b60e11b81529091506001600160a01b037f00000000000000000000000000000000000000000000000000000000000000001690639e97b8f6906105ba9060049085908201610f08565b602060405180830381865afa1580156105d7573d6000803e3d6000fd5b505050506040513d601f19601f820116820180604052508101906105fb9190610f42565b6106385760405162461bcd60e51b815260206004820152600e60248201526d24a72b20a624a21029a4a3a722a960911b60448201526064016101da565b825160405163a9059cbb60e01b815233600482015260248101919091527f00000000000000000000000000000000000000000000000000000000000000006001600160a01b03169063a9059cbb906044016020604051808303816000875af11580156106a8573d6000803e3d6000fd5b505050506040513d601f19601f820116820180604052508101906106cc9190610f42565b5082516040805133815260208101929092527f83b78188b13346b2ffb484da70d42ee27de7fbf9f2bd8045269e10ed643ccd76910160405180910390a1505050565b604080517f50f94c11e55bf37f382e6b3791d8c9a33f3bd42f6a0b904d070077043a568073602082015290810184905260608101839052600090819061076c90608001604051602081830303815290604052805190602001206107e3565b9050600061077a8285610816565b9695505050505050565b60606107b17f00000000000000000000000000000000000000000000000000000000000000006000610840565b905090565b60606107b17f00000000000000000000000000000000000000000000000000000000000000006001610840565b60006108106107f06108eb565b8360405161190160f01b8152600281019290925260228201526042902090565b92915050565b6000806000806108268686610a16565b9250925092506108368282610a63565b5090949350505050565b606060ff831461085a5761085383610b20565b9050610810565b81805461086690610fa0565b80601f016020809104026020016040519081016040528092919081815260200182805461089290610fa0565b80156108df5780601f106108b4576101008083540402835291602001916108df565b820191906000526020600020905b8154815290600101906020018083116108c257829003601f168201915b50505050509050610810565b6000306001600160a01b037f00000000000000000000000000000000000000000000000000000000000000001614801561094457507f000000000000000000000000000000000000000000000000000000000000000046145b1561096e57507f000000000000000000000000000000000000000000000000000000000000000090565b6107b1604080517f8b73c3c69bb8fe3d512ecc4cf759cc79239f7b179b0ffacaa9a75d522b39400f60208201527f0000000000000000000000000000000000000000000000000000000000000000918101919091527f000000000000000000000000000000000000000000000000000000000000000060608201524660808201523060a082015260009060c00160405160208183030381529060405280519060200120905090565b60008060008351604103610a505760208401516040850151606086015160001a610a4288828585610b5f565b955095509550505050610a5c565b50508151600091506002905b9250925092565b6000826003811115610a7757610a77610ef2565b03610a80575050565b6001826003811115610a9457610a94610ef2565b03610ab25760405163f645eedf60e01b815260040160405180910390fd5b6002826003811115610ac657610ac6610ef2565b03610ae75760405163fce698f760e01b8152600481018290526024016101da565b6003826003811115610afb57610afb610ef2565b03610b1c576040516335e2f38360e21b8152600481018290526024016101da565b5050565b60606000610b2d83610c2e565b604080516020808252818301909252919250600091906020820181803683375050509182525060208101929092525090565b600080807f7fffffffffffffffffffffffffffffff5d576e7357a4501ddfe92f46681b20a0841115610b9a5750600091506003905082610c24565b604080516000808252602082018084528a905260ff891692820192909252606081018790526080810186905260019060a0016020604051602081039080840390855afa158015610bee573d6000803e3d6000fd5b5050604051601f1901519150506001600160a01b038116610c1a57506000925060019150829050610c24565b9250600091508190505b9450945094915050565b600060ff8216601f81111561081057604051632cd44ac360e21b815260040160405180910390fd5b60005b83811015610c71578181015183820152602001610c59565b50506000910152565b60008151808452610c92816020860160208601610c56565b601f01601f19169290920160200192915050565b60ff60f81b881681526000602060e06020840152610cc760e084018a610c7a565b8381036040850152610cd9818a610c7a565b606085018990526001600160a01b038816608086015260a0850187905284810360c08601528551808252602080880193509091019060005b81811015610d2d57835183529284019291840191600101610d11565b50909c9b505050505050505050505050565b60008060408385031215610d5257600080fd5b82356001600160a01b0381168114610d6957600080fd5b946020939093013593505050565b634e487b7160e01b600052604160045260246000fd5b600082601f830112610d9e57600080fd5b813567ffffffffffffffff80821115610db957610db9610d77565b604051601f8301601f19908116603f01168101908282118183101715610de157610de1610d77565b81604052838152866020858801011115610dfa57600080fd5b836020870160208301376000602085830101528094505050505092915050565b6000808284036060811215610e2e57600080fd5b6040811215610e3c57600080fd5b506040516040810167ffffffffffffffff8282108183111715610e6157610e61610d77565b8160405285358352602086013560208401528294506040860135925080831115610e8a57600080fd5b5050610e9885828601610d8d565b9150509250929050565b600080600060608486031215610eb757600080fd5b8335925060208401359150604084013567ffffffffffffffff811115610edc57600080fd5b610ee886828701610d8d565b9150509250925092565b634e487b7160e01b600052602160045260246000fd5b60408101600f8410610f2a57634e487b7160e01b600052602160045260246000fd5b9281526001600160a01b039190911660209091015290565b600060208284031215610f5457600080fd5b81518015158114610f6457600080fd5b9392505050565b600060208284031215610f7d57600080fd5b5051919050565b60008251610f96818460208701610c56565b9190910192915050565b600181811c90821680610fb457607f821691505b602082108103610fd457634e487b7160e01b600052602260045260246000fd5b5091905056fea26469706673582212206fdbbc2eae5160040e5e3cf526c13d1e02994010dd1cf0edc43e1d8ee9f9a44664736f6c63430008180033",
  "linkReferences": {},
  "deployedLinkReferences": {}
}