{
  "_format": "hh-sol-artifact-1",
  "contractName": "ExponentialVestingEscrow",
  "sourceName": "SuperChamps/contracts/Token/ExponentialVestingEscrow.sol",
  "abi": [
    {
      "inputs": [
        {
          "internalType": "address",
          "name": "permissions_",
          "type": "address"
        }
      ],
      "stateMutability": "nonpayable",
      "type": "constructor"
    },
    {
      "anonymous": false,
      "inputs": [
        {
          "indexed": false,
          "internalType": "address",
          "name": "recipient",
          "type": "address"
        },
        {
          "indexed": false,
          "internalType": "uint256",
          "name": "claimed",
          "type": "uint256"
        }
      ],
      "name": "Claim",
      "type": "event"
    },
    {
      "anonymous": false,
      "inputs": [
        {
          "indexed": false,
          "internalType": "address",
          "name": "recipient",
          "type": "address"
        },
        {
          "indexed": false,
          "internalType": "uint256",
          "name": "amount",
          "type": "uint256"
        }
      ],
      "name": "Fund",
      "type": "event"
    },
    {
      "anonymous": false,
      "inputs": [
        {
          "indexed": false,
          "internalType": "address",
          "name": "recipient",
          "type": "address"
        }
      ],
      "name": "RecipientChanged",
      "type": "event"
    },
    {
      "inputs": [
        {
          "internalType": "address",
          "name": "newRecipient_",
          "type": "address"
        }
      ],
      "name": "changeRecipient",
      "outputs": [],
      "stateMutability": "nonpayable",
      "type": "function"
    },
    {
      "inputs": [
        {
          "internalType": "address",
          "name": "beneficiary_",
          "type": "address"
        },
        {
          "internalType": "uint256",
          "name": "amount_",
          "type": "uint256"
        }
      ],
      "name": "claim",
      "outputs": [],
      "stateMutability": "nonpayable",
      "type": "function"
    },
    {
      "inputs": [
        {
          "internalType": "address",
          "name": "token_",
          "type": "address"
        }
      ],
      "name": "collect_dust",
      "outputs": [],
      "stateMutability": "nonpayable",
      "type": "function"
    },
    {
      "inputs": [
        {
          "internalType": "address",
          "name": "",
          "type": "address"
        },
        {
          "internalType": "address",
          "name": "token_",
          "type": "address"
        },
        {
          "internalType": "address",
          "name": "recipient_",
          "type": "address"
        },
        {
          "internalType": "uint256",
          "name": "amount_",
          "type": "uint256"
        },
        {
          "internalType": "uint256",
          "name": "start_time_",
          "type": "uint256"
        },
        {
          "internalType": "uint256",
          "name": "rate_per_second_numerator_",
          "type": "uint256"
        },
        {
          "internalType": "uint256",
          "name": "rate_per_second_denominator_",
          "type": "uint256"
        }
      ],
      "name": "initialize",
      "outputs": [
        {
          "internalType": "bool",
          "name": "",
          "type": "bool"
        }
      ],
      "stateMutability": "nonpayable",
      "type": "function"
    },
    {
      "inputs": [],
      "name": "initialized",
      "outputs": [
        {
          "internalType": "bool",
          "name": "",
          "type": "bool"
        }
      ],
      "stateMutability": "view",
      "type": "function"
    },
    {
      "inputs": [],
      "name": "locked",
      "outputs": [
        {
          "internalType": "uint256",
          "name": "",
          "type": "uint256"
        }
      ],
      "stateMutability": "view",
      "type": "function"
    },
    {
      "inputs": [],
      "name": "permissions",
      "outputs": [
        {
          "internalType": "contract IPermissionsManager",
          "name": "",
          "type": "address"
        }
      ],
      "stateMutability": "view",
      "type": "function"
    },
    {
      "inputs": [],
      "name": "rate_per_second",
      "outputs": [
        {
          "internalType": "int128",
          "name": "",
          "type": "int128"
        }
      ],
      "stateMutability": "view",
      "type": "function"
    },
    {
      "inputs": [],
      "name": "recipient",
      "outputs": [
        {
          "internalType": "address",
          "name": "",
          "type": "address"
        }
      ],
      "stateMutability": "view",
      "type": "function"
    },
    {
      "inputs": [
        {
          "internalType": "address",
          "name": "tokenAddress_",
          "type": "address"
        },
        {
          "internalType": "uint256",
          "name": "tokenAmount_",
          "type": "uint256"
        }
      ],
      "name": "recoverERC20",
      "outputs": [],
      "stateMutability": "nonpayable",
      "type": "function"
    },
    {
      "inputs": [],
      "name": "start_time",
      "outputs": [
        {
          "internalType": "uint256",
          "name": "",
          "type": "uint256"
        }
      ],
      "stateMutability": "view",
      "type": "function"
    },
    {
      "inputs": [],
      "name": "token",
      "outputs": [
        {
          "internalType": "contract IERC20",
          "name": "",
          "type": "address"
        }
      ],
      "stateMutability": "view",
      "type": "function"
    },
    {
      "inputs": [],
      "name": "total_claimed",
      "outputs": [
        {
          "internalType": "uint256",
          "name": "",
          "type": "uint256"
        }
      ],
      "stateMutability": "view",
      "type": "function"
    },
    {
      "inputs": [],
      "name": "total_locked",
      "outputs": [
        {
          "internalType": "uint256",
          "name": "",
          "type": "uint256"
        }
      ],
      "stateMutability": "view",
      "type": "function"
    },
    {
      "inputs": [],
      "name": "unclaimed",
      "outputs": [
        {
          "internalType": "uint256",
          "name": "",
          "type": "uint256"
        }
      ],
      "stateMutability": "view",
      "type": "function"
    }
  ],
  "bytecode": "0x60a060405234801561001057600080fd5b5060405161120e38038061120e83398101604081905261002f91610040565b6001600160a01b0316608052610070565b60006020828403121561005257600080fd5b81516001600160a01b038116811461006957600080fd5b9392505050565b60805161116e6100a0600039600081816101de0152818161047b0152818161064301526107cf015261116e6000f3fe608060405234801561001057600080fd5b50600436106100f55760003560e01c80638956c98311610097578063ab8c71c011610066578063ab8c71c0146101d9578063c69ed68814610200578063cf30901214610220578063fc0c546a1461022857600080fd5b80638956c9831461018b5780638980f11f146101a057806392c2bcb4146101b3578063aad3ec96146101c657600080fd5b8063669416b8116100d3578063669416b81461014657806366d003ac1461014e5780636af904c614610179578063834ee4171461018257600080fd5b8063158ef93e146100fa5780632b4656c81461011c5780633c48a6201461012f575b600080fd5b6006546101079060ff1681565b60405190151581526020015b60405180910390f35b61010761012a366004610f98565b61023b565b61013860045481565b604051908152602001610113565b61013861041d565b600054610161906001600160a01b031681565b6040516001600160a01b039091168152602001610113565b61013860055481565b61013860025481565b61019e610199366004611000565b610440565b005b61019e6101ae36600461101b565b61062c565b61019e6101c1366004611000565b6107b8565b61019e6101d436600461101b565b6108b8565b6101617f000000000000000000000000000000000000000000000000000000000000000081565b60035461020d90600f0b81565b604051600f9190910b8152602001610113565b610138610a06565b600154610161906001600160a01b031681565b600654600090610100900460ff161561025357600080fd5b6006805461ff001981166101001790915560ff161561027157600080fd5b60068054600160ff19909116811790915580546001600160a01b0319166001600160a01b03891617815560028590556102bc906102ad90610a1e565b6102b78585610a3c565b610ad8565b600380546fffffffffffffffffffffffffffffffff19166001600160801b03929092169190911790556001546040516323b872dd60e01b8152336004820152306024820152604481018790526000916001600160a01b0316906323b872dd906064016020604051808303816000875af115801561033d573d6000803e3d6000fd5b505050506040513d601f19601f820116820180604052508101906103619190611045565b9050806103a75760405162461bcd60e51b815260206004820152600f60248201526e1514905394d1915488119052531151608a1b60448201526064015b60405180910390fd5b600080546001600160a01b0319166001600160a01b038916908117909155600487905560408051918252602082018890527fda8220a878ff7a89474ccffdaa31ea1ed1ffbb0207d5051afccc4fbaf81f9bcd910160405180910390a150506006805461ff00191690555060019695505050505050565b600060055461043161042c4290565b610b13565b61043b919061107d565b905090565b600654610100900460ff161561045557600080fd5b6006805461ff001916610100179055604051634f4bdc7b60e11b81526001600160a01b037f00000000000000000000000000000000000000000000000000000000000000001690639e97b8f6906104b3906001903390600401611090565b602060405180830381865afa1580156104d0573d6000803e3d6000fd5b505050506040513d601f19601f820116820180604052508101906104f49190611045565b6105105760405162461bcd60e51b815260040161039e906110ca565b6001546001600160a01b0380831691160361052a57600080fd5b600080546040516370a0823160e01b81523060048201526001600160a01b038481169263a9059cbb9291169083906370a0823190602401602060405180830381865afa15801561057e573d6000803e3d6000fd5b505050506040513d601f19601f820116820180604052508101906105a291906110f6565b6040516001600160e01b031960e085901b1681526001600160a01b03909216600483015260248201526044016020604051808303816000875af11580156105ed573d6000803e3d6000fd5b505050506040513d601f19601f820116820180604052508101906106119190611045565b90508061061d57600080fd5b50506006805461ff0019169055565b604051634f4bdc7b60e11b81526001600160a01b037f00000000000000000000000000000000000000000000000000000000000000001690639e97b8f69061067b906001903390600401611090565b602060405180830381865afa158015610698573d6000803e3d6000fd5b505050506040513d601f19601f820116820180604052508101906106bc9190611045565b6106d85760405162461bcd60e51b815260040161039e906110ca565b6001546001600160a01b03908116908316036107425760405162461bcd60e51b815260206004820152602360248201527f43616e6e6f742077697468647261772074686520656d697373696f6e7320746f60448201526235b2b760e91b606482015260840161039e565b60405163a9059cbb60e01b8152336004820152602481018290526001600160a01b0383169063a9059cbb906044016020604051808303816000875af115801561078f573d6000803e3d6000fd5b505050506040513d601f19601f820116820180604052508101906107b39190611045565b505050565b604051634f4bdc7b60e11b81526001600160a01b037f00000000000000000000000000000000000000000000000000000000000000001690639e97b8f690610807906001903390600401611090565b602060405180830381865afa158015610824573d6000803e3d6000fd5b505050506040513d601f19601f820116820180604052508101906108489190611045565b6108645760405162461bcd60e51b815260040161039e906110ca565b600080546001600160a01b0319166001600160a01b0383169081179091556040519081527fff2d07bd188a9eb41acbc4a7db39e18956c95ab7f54f434d97849bf6206e577c9060200160405180910390a150565b600654610100900460ff16156108cd57600080fd5b6006805461ff0019166101001790556000546001600160a01b038381169116146108f657600080fd5b600061090061041d565b9050811580159061091057508181115b156109185750805b806005600082825461092a919061110f565b909155505060015460405163a9059cbb60e01b81526001600160a01b03858116600483015260248201849052600092169063a9059cbb906044016020604051808303816000875af1158015610983573d6000803e3d6000fd5b505050506040513d601f19601f820116820180604052508101906109a79190611045565b9050806109b357600080fd5b604080516001600160a01b0386168152602081018490527f47cee97cb7acd717b3c0aa1435d004cd5b3c8c57d70dbceb4e4458bbd60e39d4910160405180910390a150506006805461ff00191690555050565b6000610a1142610b13565b60045461043b919061107d565b6000677fffffffffffffff821115610a3557600080fd5b5060401b90565b600081600003610a4b57600080fd5b600080841215610a6057836000039350600190505b6000831215610a725760009290920391155b6000610a7e8585610b84565b90508115610aac576001607f1b816001600160801b03161115610aa057600080fd5b6000039150610ad29050565b60016001607f1b03816001600160801b03161115610ac957600080fd5b9150610ad29050565b92915050565b6000600f82810b9084900b0360016001607f1b03198112801590610b03575060016001607f1b038113155b610b0c57600080fd5b9392505050565b6000600254821015610b2757506000919050565b600060025483610b37919061107d565b600354909150600090610b4d90600f0b83610ce9565b90506000610b5d82600454610f11565b90506004548110610b6d57600080fd5b80600454610b7b919061107d565b95945050505050565b600081600003610b9357600080fd5b60006001600160c01b038411610bbe5782604085901b81610bb657610bb6611122565b049050610cd5565b60c084811c6401000000008110610bd7576020918201911c5b620100008110610be9576010918201911c5b6101008110610bfa576008918201911c5b60108110610c0a576004918201911c5b60048110610c1a576002918201911c5b60028110610c29576001820191505b60bf820360018603901c6001018260ff0387901b81610c4a57610c4a611122565b0492506001600160801b03831115610c6157600080fd5b608085901c83026001600160801b038616840260c088901c604089901b82811015610c8d576001820391505b608084901b92900382811015610ca4576001820391505b829003608084901c8214610cb9576001610cca565b888181610cc857610cc8611122565b045b870196505050505050505b6001600160801b03811115610b0c57600080fd5b600080600084600f0b128015610d025750826001166001145b905060008085600f0b12610d165784610d1b565b846000035b6001600160801b03169050600160801b680100000000000000008211610db557603f82901b91505b8415610dad576001851615610d58578102607f1c5b908002607f1c906002851615610d6e578102607f1c5b908002607f1c906004851615610d84578102607f1c5b908002607f1c906008851615610d9a578102607f1c5b60049490941c93908002607f1c90610d43565b60401c610ecb565b603f600160601b831015610dcf5760209290921b91601f19015b600160701b831015610de75760109290921b91600f19015b600160781b831015610dff5760089290921b91600719015b6001607c1b831015610e175760049290921b91600319015b6001607e1b831015610e2f5760029290921b91600119015b6001607f1b831015610e475760019290921b91600019015b60005b8615610eb45760408210610e5d57600080fd5b6001871615610e8357918302607f1c918101600160801b831115610e8357600192831c92015b928002607f1c9260019190911b90600160801b8410610ea857600193841c9391909101905b600187901c9650610e4a565b60408110610ec157600080fd5b6040039190911c90505b600083610ed85781610edd565b816000035b905060016001607f1b03198112801590610efe575060016001607f1b038113155b610f0757600080fd5b9695505050505050565b600081600003610f2357506000610ad2565b600083600f0b1215610f3457600080fd5b600f83900b6001600160801b038316810260401c90608084901c026001600160c01b03811115610f6357600080fd5b60401b8119811115610f7457600080fd5b019392505050565b80356001600160a01b0381168114610f9357600080fd5b919050565b600080600080600080600060e0888a031215610fb357600080fd5b610fbc88610f7c565b9650610fca60208901610f7c565b9550610fd860408901610f7c565b969995985095966060810135965060808101359560a0820135955060c0909101359350915050565b60006020828403121561101257600080fd5b610b0c82610f7c565b6000806040838503121561102e57600080fd5b61103783610f7c565b946020939093013593505050565b60006020828403121561105757600080fd5b81518015158114610b0c57600080fd5b634e487b7160e01b600052601160045260246000fd5b81810381811115610ad257610ad2611067565b60408101600f84106110b257634e487b7160e01b600052602160045260246000fd5b9281526001600160a01b039190911660209091015290565b6020808252601290820152712737ba10309023b637b130b61020b236b4b760711b604082015260600190565b60006020828403121561110857600080fd5b5051919050565b80820180821115610ad257610ad2611067565b634e487b7160e01b600052601260045260246000fdfea264697066735822122032aa428f127d494ac6bd10f41a4d6549107ba1e98776bd180741c23a9936b2ee64736f6c63430008180033",
  "linkReferences": {},
  "deployedLinkReferences": {}
}