{
  "_format": "hh-sol-artifact-1",
  "contractName": "SCMetagameLocations",
  "sourceName": "SuperChamps/contracts/Metagame/SCMetagameLocations.sol",
  "abi": [
    {
      "inputs": [
        {
          "internalType": "address",
          "name": "permissions_",
          "type": "address"
        },
        {
          "internalType": "address",
          "name": "token_",
          "type": "address"
        },
        {
          "internalType": "address",
          "name": "metadata_",
          "type": "address"
        },
        {
          "internalType": "address",
          "name": "treasury_",
          "type": "address"
        },
        {
          "internalType": "address",
          "name": "access_pass_",
          "type": "address"
        },
        {
          "internalType": "address",
          "name": "data_view_",
          "type": "address"
        }
      ],
      "stateMutability": "nonpayable",
      "type": "constructor"
    },
    {
      "anonymous": false,
      "inputs": [
        {
          "indexed": false,
          "internalType": "string",
          "name": "location",
          "type": "string"
        }
      ],
      "name": "LocationAdded",
      "type": "event"
    },
    {
      "inputs": [],
      "name": "EPOCH",
      "outputs": [
        {
          "internalType": "uint256",
          "name": "",
          "type": "uint256"
        }
      ],
      "stateMutability": "view",
      "type": "function"
    },
    {
      "inputs": [],
      "name": "access_pass",
      "outputs": [
        {
          "internalType": "contract ISCAccessPass",
          "name": "",
          "type": "address"
        }
      ],
      "stateMutability": "view",
      "type": "function"
    },
    {
      "inputs": [
        {
          "internalType": "string",
          "name": "location_name_",
          "type": "string"
        }
      ],
      "name": "addLocation",
      "outputs": [],
      "stateMutability": "nonpayable",
      "type": "function"
    },
    {
      "inputs": [
        {
          "internalType": "uint256",
          "name": "",
          "type": "uint256"
        }
      ],
      "name": "award_tiers_bps",
      "outputs": [
        {
          "internalType": "uint256",
          "name": "",
          "type": "uint256"
        }
      ],
      "stateMutability": "view",
      "type": "function"
    },
    {
      "inputs": [],
      "name": "current_epoch",
      "outputs": [
        {
          "internalType": "uint256",
          "name": "",
          "type": "uint256"
        }
      ],
      "stateMutability": "view",
      "type": "function"
    },
    {
      "inputs": [],
      "name": "data_view",
      "outputs": [
        {
          "internalType": "contract ISCMetagameDataSource",
          "name": "",
          "type": "address"
        }
      ],
      "stateMutability": "view",
      "type": "function"
    },
    {
      "inputs": [
        {
          "internalType": "uint256",
          "name": "epoch_",
          "type": "uint256"
        },
        {
          "internalType": "string[]",
          "name": "locations_",
          "type": "string[]"
        },
        {
          "internalType": "uint256[]",
          "name": "location_reward_shares_",
          "type": "uint256[]"
        }
      ],
      "name": "distributeRewards",
      "outputs": [],
      "stateMutability": "nonpayable",
      "type": "function"
    },
    {
      "inputs": [
        {
          "internalType": "string",
          "name": "location_name_",
          "type": "string"
        }
      ],
      "name": "getLocationRewardsStaker",
      "outputs": [
        {
          "internalType": "address",
          "name": "",
          "type": "address"
        }
      ],
      "stateMutability": "view",
      "type": "function"
    },
    {
      "inputs": [
        {
          "internalType": "address",
          "name": "addr_",
          "type": "address"
        },
        {
          "internalType": "string",
          "name": "location_",
          "type": "string"
        }
      ],
      "name": "getMembership",
      "outputs": [
        {
          "internalType": "bool",
          "name": "",
          "type": "bool"
        }
      ],
      "stateMutability": "view",
      "type": "function"
    },
    {
      "inputs": [
        {
          "internalType": "address",
          "name": "addr_",
          "type": "address"
        },
        {
          "internalType": "string",
          "name": "location_",
          "type": "string"
        }
      ],
      "name": "getMultiplier",
      "outputs": [
        {
          "internalType": "uint256",
          "name": "",
          "type": "uint256"
        }
      ],
      "stateMutability": "view",
      "type": "function"
    },
    {
      "inputs": [],
      "name": "locationCount",
      "outputs": [
        {
          "internalType": "uint256",
          "name": "count",
          "type": "uint256"
        }
      ],
      "stateMutability": "view",
      "type": "function"
    },
    {
      "inputs": [
        {
          "internalType": "string",
          "name": "",
          "type": "string"
        }
      ],
      "name": "location_rewards",
      "outputs": [
        {
          "internalType": "contract SCMetagameLocationRewards",
          "name": "",
          "type": "address"
        }
      ],
      "stateMutability": "view",
      "type": "function"
    },
    {
      "inputs": [
        {
          "internalType": "uint256",
          "name": "",
          "type": "uint256"
        }
      ],
      "name": "locations",
      "outputs": [
        {
          "internalType": "string",
          "name": "",
          "type": "string"
        }
      ],
      "stateMutability": "view",
      "type": "function"
    },
    {
      "inputs": [],
      "name": "metadata",
      "outputs": [
        {
          "internalType": "contract ISCMetagameRegistry",
          "name": "",
          "type": "address"
        }
      ],
      "stateMutability": "view",
      "type": "function"
    },
    {
      "inputs": [],
      "name": "next_epoch",
      "outputs": [
        {
          "internalType": "uint256",
          "name": "",
          "type": "uint256"
        }
      ],
      "stateMutability": "view",
      "type": "function"
    },
    {
      "inputs": [],
      "name": "permissions",
      "outputs": [
        {
          "internalType": "contract IPermissionsManager",
          "name": "",
          "type": "address"
        }
      ],
      "stateMutability": "view",
      "type": "function"
    },
    {
      "inputs": [
        {
          "internalType": "address",
          "name": "tokenAddress_",
          "type": "address"
        },
        {
          "internalType": "uint256",
          "name": "tokenAmount_",
          "type": "uint256"
        }
      ],
      "name": "recoverERC20",
      "outputs": [],
      "stateMutability": "nonpayable",
      "type": "function"
    },
    {
      "inputs": [
        {
          "internalType": "string",
          "name": "location_",
          "type": "string"
        },
        {
          "internalType": "address",
          "name": "tokenAddress_",
          "type": "address"
        },
        {
          "internalType": "uint256",
          "name": "tokenAmount_",
          "type": "uint256"
        }
      ],
      "name": "recoverERC20FromLocation",
      "outputs": [],
      "stateMutability": "nonpayable",
      "type": "function"
    },
    {
      "inputs": [
        {
          "internalType": "address",
          "name": "data_view_",
          "type": "address"
        }
      ],
      "name": "setDataView",
      "outputs": [],
      "stateMutability": "nonpayable",
      "type": "function"
    },
    {
      "inputs": [
        {
          "internalType": "uint256",
          "name": "duration_",
          "type": "uint256"
        }
      ],
      "name": "setEpochDuration",
      "outputs": [],
      "stateMutability": "nonpayable",
      "type": "function"
    },
    {
      "inputs": [
        {
          "internalType": "address",
          "name": "treasury_",
          "type": "address"
        }
      ],
      "name": "setTreasury",
      "outputs": [],
      "stateMutability": "nonpayable",
      "type": "function"
    },
    {
      "inputs": [],
      "name": "token",
      "outputs": [
        {
          "internalType": "contract IERC20",
          "name": "",
          "type": "address"
        }
      ],
      "stateMutability": "view",
      "type": "function"
    },
    {
      "inputs": [],
      "name": "treasury",
      "outputs": [
        {
          "internalType": "address",
          "name": "",
          "type": "address"
        }
      ],
      "stateMutability": "view",
      "type": "function"
    }
  ],
  "bytecode": "0x60e060405262093a80600355600060075560006008553480156200002257600080fd5b5060405162003c6638038062003c668339810160408190526200004591620000b6565b6001600160a01b0395861660805293851660c05291841660a052600280549185166001600160a01b031992831617905560018054928516928216929092179091556000805492909316911617905562000137565b80516001600160a01b0381168114620000b157600080fd5b919050565b60008060008060008060c08789031215620000d057600080fd5b620000db8762000099565b9550620000eb6020880162000099565b9450620000fb6040880162000099565b93506200010b6060880162000099565b92506200011b6080880162000099565b91506200012b60a0880162000099565b90509295509295509295565b60805160a05160c051613aab620001bb600039600081816103c0015281816106830152818161086f01528181610eb401528181610fa6015261125c015260006101e70152600081816102d0015281816104ae0152818161056f015281816107d00152818161097601528181610b6901528181610cd901526113b40152613aab6000f3fe60806040523480156200001157600080fd5b5060043610620001695760003560e01c806396a7f73a11620000d3578063d23614b11162000086578063d23614b11462000343578063d30c4445146200036b578063e01476401462000375578063ecadafe3146200038c578063f0f4426014620003a3578063fc0c546a14620003ba57600080fd5b806396a7f73a14620002a9578063a0dc275814620002c0578063ab8c71c014620002ca578063b00f14dc14620002f2578063b9e0db351462000306578063ce18933b146200032c57600080fd5b80635fddb088116200012c5780635fddb088146200024057806361d027b3146200025757806388703254146200026b57806388b50b5f14620002745780638980f11f14620002885780639372b4e4146200029f57600080fd5b80631167b5d4146200016e578063274d8cc814620001a257806330024dfe14620001c8578063392f37e914620001e15780633ca022591462000209575b600080fd5b620001856200017f36600462001542565b620003e2565b6040516001600160a01b0390911681526020015b60405180910390f35b620001b9620001b3366004620015a0565b62000415565b60405190815260200162000199565b620001df620001d9366004620015f4565b62000497565b005b620001857f000000000000000000000000000000000000000000000000000000000000000081565b620001856200021a36600462001542565b80516020818301810180516004825292820191909301209152546001600160a01b031681565b620001df620002513660046200165a565b62000558565b60025462000185906001600160a01b031681565b600554620001b9565b60015462000185906001600160a01b031681565b620001df62000299366004620016a0565b620007b9565b620001b960075481565b620001df620002ba366004620016cd565b6200095f565b620001b960035481565b620001857f000000000000000000000000000000000000000000000000000000000000000081565b60005462000185906001600160a01b031681565b6200031d62000317366004620015f4565b62000a9d565b60405162000199919062001783565b620001df6200033d36600462001798565b62000b52565b6200035a62000354366004620015a0565b62000c27565b604051901515815260200162000199565b620001b960085481565b620001b962000386366004620015f4565b62000ca0565b620001df6200039d36600462001854565b62000cc2565b620001df620003b436600462001798565b6200139d565b620001857f000000000000000000000000000000000000000000000000000000000000000081565b6000600482604051620003f6919062001942565b908152604051908190036020019020546001600160a01b031692915050565b600080546040516304e9b19960e31b81526001600160a01b039091169063274d8cc8906200044a908690869060040162001960565b602060405180830381865afa15801562000468573d6000803e3d6000fd5b505050506040513d601f19601f820116820180604052508101906200048e919062001986565b90505b92915050565b604051634f4bdc7b60e11b81526001600160a01b037f00000000000000000000000000000000000000000000000000000000000000001690639e97b8f690620004e79060049033908201620019a0565b602060405180830381865afa15801562000505573d6000803e3d6000fd5b505050506040513d601f19601f820116820180604052508101906200052b9190620019db565b620005535760405162461bcd60e51b81526004016200054a9062001a06565b60405180910390fd5b600355565b604051634f4bdc7b60e11b81526001600160a01b037f00000000000000000000000000000000000000000000000000000000000000001690639e97b8f690620005a89060049033908201620019a0565b602060405180830381865afa158015620005c6573d6000803e3d6000fd5b505050506040513d601f19601f82011682018060405250810190620005ec9190620019db565b6200060b5760405162461bcd60e51b81526004016200054a9062001a06565b60006001600160a01b0316600483836040516200062a92919062001a33565b908152604051908190036020019020546001600160a01b031614620006815760405162461bcd60e51b815260206004820152600c60248201526b484f5553452045584953545360a01b60448201526064016200054a565b7f0000000000000000000000000000000000000000000000000000000000000000308383600160009054906101000a90046001600160a01b0316604051620006c99062001473565b620006d995949392919062001a6c565b604051809103906000f080158015620006f6573d6000803e3d6000fd5b50600483836040516200070b92919062001a33565b90815260405190819003602001902080546001600160a01b03929092166001600160a01b0319909216919091179055600580546001810182556000919091527f036b6384b5eca791c62761152d0c79bb0604c104a5fb6f4eb0703f3154bb3db0016200077982848362001b3e565b507f290f6f4d7e1481b6ad9b90bea1df5f5f1651ecb2e468e47e09297c11efbe44c38282604051620007ad92919062001c0c565b60405180910390a15050565b604051634f4bdc7b60e11b81526001600160a01b037f00000000000000000000000000000000000000000000000000000000000000001690639e97b8f6906200080a906001903390600401620019a0565b602060405180830381865afa15801562000828573d6000803e3d6000fd5b505050506040513d601f19601f820116820180604052508101906200084e9190620019db565b6200086d5760405162461bcd60e51b81526004016200054a9062001c22565b7f00000000000000000000000000000000000000000000000000000000000000006001600160a01b0316826001600160a01b031603620008e65760405162461bcd60e51b8152602060048201526013602482015272043414e54205749544844524157204348414d5606c1b60448201526064016200054a565b60405163a9059cbb60e01b8152336004820152602481018290526001600160a01b0383169063a9059cbb906044016020604051808303816000875af115801562000934573d6000803e3d6000fd5b505050506040513d601f19601f820116820180604052508101906200095a9190620019db565b505050565b604051634f4bdc7b60e11b81526001600160a01b037f00000000000000000000000000000000000000000000000000000000000000001690639e97b8f690620009b0906001903390600401620019a0565b602060405180830381865afa158015620009ce573d6000803e3d6000fd5b505050506040513d601f19601f82011682018060405250810190620009f49190620019db565b62000a135760405162461bcd60e51b81526004016200054a9062001c22565b6004848460405162000a2792919062001a33565b90815260405190819003602001812054638980f11f60e01b82526001600160a01b038481166004840152602483018490521690638980f11f90604401600060405180830381600087803b15801562000a7e57600080fd5b505af115801562000a93573d6000803e3d6000fd5b5050505050505050565b6005818154811062000aae57600080fd5b90600052602060002001600091509050805462000acb9062001aae565b80601f016020809104026020016040519081016040528092919081815260200182805462000af99062001aae565b801562000b4a5780601f1062000b1e5761010080835404028352916020019162000b4a565b820191906000526020600020905b81548152906001019060200180831162000b2c57829003601f168201915b505050505081565b604051634f4bdc7b60e11b81526001600160a01b037f00000000000000000000000000000000000000000000000000000000000000001690639e97b8f69062000ba29060049033908201620019a0565b602060405180830381865afa15801562000bc0573d6000803e3d6000fd5b505050506040513d601f19601f8201168201806040525081019062000be69190620019db565b62000c055760405162461bcd60e51b81526004016200054a9062001a06565b600080546001600160a01b0319166001600160a01b0392909216919091179055565b6000805460405163d23614b160e01b81526001600160a01b039091169063d23614b19062000c5c908690869060040162001960565b602060405180830381865afa15801562000c7a573d6000803e3d6000fd5b505050506040513d601f19601f820116820180604052508101906200048e9190620019db565b6006818154811062000cb157600080fd5b600091825260209091200154905081565b604051634f4bdc7b60e11b81526001600160a01b037f00000000000000000000000000000000000000000000000000000000000000001690639e97b8f69062000d129060049033908201620019a0565b602060405180830381865afa15801562000d30573d6000803e3d6000fd5b505050506040513d601f19601f8201168201806040525081019062000d569190620019db565b62000d755760405162461bcd60e51b81526004016200054a9062001a06565b600754831462000dba5760405162461bcd60e51b815260206004820152600f60248201526e0929c869ea4a48a86a8408aa09e869608b1b60448201526064016200054a565b6008544281111562000e045760405162461bcd60e51b815260206004820152601260248201527109c9ea840b28aa8409c8ab0a8408aa09e86960731b60448201526064016200054a565b82518251811462000e495760405162461bcd60e51b815260206004820152600e60248201526d0929ca0aaa8409a92a69a82a886960931b60448201526064016200054a565b6000805b8281101562000e8b5784818151811062000e6b5762000e6b62001c4e565b60200260200101518262000e80919062001c7a565b915060010162000e4d565b50600254604051636eb1769f60e11b81526001600160a01b0391821660048201523060248201527f00000000000000000000000000000000000000000000000000000000000000009091169063dd62ed3e90604401602060405180830381865afa15801562000efe573d6000803e3d6000fd5b505050506040513d601f19601f8201168201806040525081019062000f24919062001986565b811162000f745760405162461bcd60e51b815260206004820152601860248201527f4e4f5420454e4f55474820544f2044495354524942555445000000000000000060448201526064016200054a565b6002546040516323b872dd60e01b81526001600160a01b039182166004820152306024820152604481018390526000917f000000000000000000000000000000000000000000000000000000000000000016906323b872dd906064016020604051808303816000875af115801562000ff0573d6000803e3d6000fd5b505050506040513d601f19601f82011682018060405250810190620010169190620019db565b9050806200102357600080fd5b6003544262001033828762001c7a565b111562001056574262001047828762001c7a565b62001053919062001c90565b90505b865160005b818110156200137d5760008982815181106200107b576200107b62001c4e565b60200260200101519050600060048260405162001099919062001942565b908152604051908190036020019020546001600160a01b0316905080620010fb5760405162461bcd60e51b81526020600482015260156024820152741313d0d0551253d3881113d154d3950811561254d5605a1b60448201526064016200054a565b42816001600160a01b031663ebe2b12b6040518163ffffffff1660e01b8152600401602060405180830381865afa1580156200113b573d6000803e3d6000fd5b505050506040513d601f19601f8201168201806040525081019062001161919062001986565b10620011b05760405162461bcd60e51b815260206004820152601c60248201527f4c4f434154494f4e2053545245414d204e4f542046494e49534845440000000060448201526064016200054a565b60008a8481518110620011c757620011c762001c4e565b60200260200101519050816001600160a01b031663cc1a378f876040518263ffffffff1660e01b81526004016200120091815260200190565b600060405180830381600087803b1580156200121b57600080fd5b505af115801562001230573d6000803e3d6000fd5b505060405163a9059cbb60e01b81526001600160a01b03858116600483015260248201859052600093507f000000000000000000000000000000000000000000000000000000000000000016915063a9059cbb906044016020604051808303816000875af1158015620012a7573d6000803e3d6000fd5b505050506040513d601f19601f82011682018060405250810190620012cd9190620019db565b905080620013105760405162461bcd60e51b815260206004820152600f60248201526e1514905394d1915488119052531151608a1b60448201526064016200054a565b604051633c6b16ab60e01b8152600481018390526001600160a01b03841690633c6b16ab90602401600060405180830381600087803b1580156200135357600080fd5b505af115801562001368573d6000803e3d6000fd5b5050600190960195506200105b945050505050565b5060078690556200138f824262001c7a565b600855505050505050505050565b604051634f4bdc7b60e11b81526001600160a01b037f00000000000000000000000000000000000000000000000000000000000000001690639e97b8f690620013ee906001903390600401620019a0565b602060405180830381865afa1580156200140c573d6000803e3d6000fd5b505050506040513d601f19601f82011682018060405250810190620014329190620019db565b620014515760405162461bcd60e51b81526004016200054a9062001c22565b600280546001600160a01b0319166001600160a01b0392909216919091179055565b611dcf8062001ca783390190565b634e487b7160e01b600052604160045260246000fd5b604051601f8201601f1916810167ffffffffffffffff81118282101715620014c357620014c362001481565b604052919050565b600082601f830112620014dd57600080fd5b813567ffffffffffffffff811115620014fa57620014fa62001481565b6200150f601f8201601f191660200162001497565b8181528460208386010111156200152557600080fd5b816020850160208301376000918101602001919091529392505050565b6000602082840312156200155557600080fd5b813567ffffffffffffffff8111156200156d57600080fd5b6200157b84828501620014cb565b949350505050565b80356001600160a01b03811681146200159b57600080fd5b919050565b60008060408385031215620015b457600080fd5b620015bf8362001583565b9150602083013567ffffffffffffffff811115620015dc57600080fd5b620015ea85828601620014cb565b9150509250929050565b6000602082840312156200160757600080fd5b5035919050565b60008083601f8401126200162157600080fd5b50813567ffffffffffffffff8111156200163a57600080fd5b6020830191508360208285010111156200165357600080fd5b9250929050565b600080602083850312156200166e57600080fd5b823567ffffffffffffffff8111156200168657600080fd5b62001694858286016200160e565b90969095509350505050565b60008060408385031215620016b457600080fd5b620016bf8362001583565b946020939093013593505050565b60008060008060608587031215620016e457600080fd5b843567ffffffffffffffff811115620016fc57600080fd5b6200170a878288016200160e565b90955093506200171f90506020860162001583565b9396929550929360400135925050565b60005b838110156200174c57818101518382015260200162001732565b50506000910152565b600081518084526200176f8160208601602086016200172f565b601f01601f19169290920160200192915050565b6020815260006200048e602083018462001755565b600060208284031215620017ab57600080fd5b6200048e8262001583565b600067ffffffffffffffff821115620017d357620017d362001481565b5060051b60200190565b600082601f830112620017ef57600080fd5b81356020620018086200180283620017b6565b62001497565b8083825260208201915060208460051b8701019350868411156200182b57600080fd5b602086015b8481101562001849578035835291830191830162001830565b509695505050505050565b6000806000606084860312156200186a57600080fd5b8335925060208085013567ffffffffffffffff808211156200188b57600080fd5b818701915087601f830112620018a057600080fd5b8135620018b16200180282620017b6565b81815260059190911b8301840190848101908a831115620018d157600080fd5b8585015b838110156200190e57803585811115620018ef5760008081fd5b620018ff8d89838a0101620014cb565b845250918601918601620018d5565b509650505060408701359250808311156200192857600080fd5b50506200193886828701620017dd565b9150509250925092565b60008251620019568184602087016200172f565b9190910192915050565b6001600160a01b03831681526040602082018190526000906200157b9083018462001755565b6000602082840312156200199957600080fd5b5051919050565b60408101600f8410620019c357634e487b7160e01b600052602160045260246000fd5b9281526001600160a01b039190911660209091015290565b600060208284031215620019ee57600080fd5b81518015158114620019ff57600080fd5b9392505050565b6020808252601390820152722737ba10309029bcb9ba32b6b99020b236b4b760691b604082015260600190565b8183823760009101908152919050565b81835281816020850137506000828201602090810191909152601f909101601f19169091010190565b600060018060a01b03808816835280871660208401526080604084015262001a9960808401868862001a43565b91508084166060840152509695505050505050565b600181811c9082168062001ac357607f821691505b60208210810362001ae457634e487b7160e01b600052602260045260246000fd5b50919050565b601f8211156200095a576000816000526020600020601f850160051c8101602086101562001b155750805b601f850160051c820191505b8181101562001b365782815560010162001b21565b505050505050565b67ffffffffffffffff83111562001b595762001b5962001481565b62001b718362001b6a835462001aae565b8362001aea565b6000601f84116001811462001ba8576000851562001b8f5750838201355b600019600387901b1c1916600186901b17835562001c05565b600083815260209020601f19861690835b8281101562001bdb578685013582556020948501946001909201910162001bb9565b508682101562001bf95760001960f88860031b161c19848701351681555b505060018560011b0183555b5050505050565b6020815260006200157b60208301848662001a43565b6020808252601290820152712737ba10309023b637b130b61020b236b4b760711b604082015260600190565b634e487b7160e01b600052603260045260246000fd5b634e487b7160e01b600052601160045260246000fd5b8082018082111562000491576200049162001c64565b8181038181111562000491576200049162001c6456fe60a06040526000600755600060085562093a806009553480156200002257600080fd5b5060405162001dcf38038062001dcf83398101604081905262000045916200020b565b338085808280806200009e5760405162461bcd60e51b815260206004820152601960248201527f4f776e657220616464726573732063616e6e6f7420626520300000000000000060448201526064015b60405180910390fd5b600080546001600160a01b0319166001600160a01b03831690811782556040805192835260208301919091527fb532073b38c83145e3e5135377a08bf9aab55bc0fd7c1179cd4fb995d2a5159c910160405180910390a1505060016003556000546001600160a01b03166200014a5760405162461bcd60e51b815260206004820152601160248201527013dddb995c881b5d5cdd081899481cd95d607a1b604482015260640162000095565b600580546001600160a01b0393841661010002610100600160a81b0319909116179055600680549183166001600160a01b03199283161790556002805493831693909116929092179091558416608052506010620001a98382620003a9565b50601180546001600160a01b0319166001600160a01b0392909216919091179055505060006009555062000475565b80516001600160a01b0381168114620001f057600080fd5b919050565b634e487b7160e01b600052604160045260246000fd5b600080600080608085870312156200022257600080fd5b6200022d85620001d8565b935060206200023e818701620001d8565b60408701519094506001600160401b03808211156200025c57600080fd5b818801915088601f8301126200027157600080fd5b815181811115620002865762000286620001f5565b604051601f8201601f19908116603f01168101908382118183101715620002b157620002b1620001f5565b816040528281528b86848701011115620002ca57600080fd5b600093505b82841015620002ee5784840186015181850187015292850192620002cf565b60008684830101528097505050505050506200030d60608601620001d8565b905092959194509250565b600181811c908216806200032d57607f821691505b6020821081036200034e57634e487b7160e01b600052602260045260246000fd5b50919050565b601f821115620003a4576000816000526020600020601f850160051c810160208610156200037f5750805b601f850160051c820191505b81811015620003a0578281556001016200038b565b5050505b505050565b81516001600160401b03811115620003c557620003c5620001f5565b620003dd81620003d6845462000318565b8462000354565b602080601f831160018114620004155760008415620003fc5750858301515b600019600386901b1c1916600185901b178555620003a0565b600085815260208120601f198616915b82811015620004465788860151825594840194600190910190840162000425565b5085821015620004655787850151600019600388901b60f8161c191681555b5050505050600190811b01905550565b60805161193762000498600039600081816105a5015261116e01526119376000f3fe608060405234801561001057600080fd5b506004361061021b5760003560e01c806370a082311161012557806391b4ded9116100ad578063cd3daf9d1161007c578063cd3daf9d1461047a578063d1af0c7d14610482578063df136d651461049a578063e9fad8ee146104a3578063ebe2b12b146104ab57600080fd5b806391b4ded914610442578063a694fc3a1461044b578063c8f33c911461045e578063cc1a378f1461046757600080fd5b806380faa57d116100f457806380faa57d146103e157806388b50b5f146103e95780638980f11f146103fc5780638b8763471461040f5780638da5cb5b1461042f57600080fd5b806370a082311461039457806372f702f3146103bd57806379ba5097146103d05780637b0a47ee146103d857600080fd5b80632e1a7d4d116101a85780633ede0b67116101775780633ede0b671461031b5780633fc6df6e14610324578063455457aa1461034f57806353a47bb7146103645780635c975abb1461037757600080fd5b80632e1a7d4d146102e4578063386a9525146102f75780633c6b16ab146103005780633d18b9121461031357600080fd5b806316c38b3c116101ef57806316c38b3c1461028e57806318160ddd146102a157806319762143146102a95780631c1f78eb146102bc578063263319a5146102c457600080fd5b80628cc262146102205780630700037d146102465780630d773a64146102665780631627540c14610279575b600080fd5b61023361022e366004611682565b6104b4565b6040519081526020015b60405180910390f35b610233610254366004611682565b600d6020526000908152604090205481565b610233610274366004611682565b610531565b61028c610287366004611682565b6106ee565b005b61028c61029c3660046116b2565b61074b565b600e54610233565b61028c6102b7366004611682565b6107bd565b6102336107e7565b6102336102d2366004611682565b60136020526000908152604090205481565b61028c6102f23660046116cf565b6107fe565b61023360095481565b61028c61030e3660046116cf565b6109f7565b61028c610c6d565b61023360125481565b600254610337906001600160a01b031681565b6040516001600160a01b03909116815260200161023d565b610357610db8565b60405161023d91906116e8565b600154610337906001600160a01b031681565b6005546103849060ff1681565b604051901515815260200161023d565b6102336103a2366004611682565b6001600160a01b03166000908152600f602052604090205490565b600654610337906001600160a01b031681565b61028c610e46565b61023360085481565b610233610f30565b601154610337906001600160a01b031681565b61028c61040a366004611737565b610f4d565b61023361041d366004611682565b600c6020526000908152604090205481565b600054610337906001600160a01b031681565b61023360045481565b61028c6104593660046116cf565b61107b565b610233600a5481565b61028c6104753660046116cf565b61146e565b610233611548565b6005546103379061010090046001600160a01b031681565b610233600b5481565b61028c6115a9565b61023360075481565b6001600160a01b0381166000908152600d6020908152604080832054600c909252822054670de0b6b3a7640000906104ea611548565b6104f49190611777565b6001600160a01b0385166000908152600f6020526040902054610517919061178a565b61052191906117a1565b61052b91906117c3565b92915050565b60003361053c611548565b600b55610547610f30565b600a556001600160a01b0381161561058e57610562816104b4565b6001600160a01b0382166000908152600d6020908152604080832093909355600b54600c909152919020555b6040516304e9b19960e31b81526001600160a01b037f0000000000000000000000000000000000000000000000000000000000000000169063274d8cc8906105dd90869060109060040161180a565b602060405180830381865afa1580156105fa573d6000803e3d6000fd5b505050506040513d601f19601f8201168201806040525081019061061e91906118cb565b6001600160a01b03841660009081526014602052604090205490925082146106e8576001600160a01b0383166000908152601460209081526040808320805490869055600f909252822054600e80549293919290919061067f908490611777565b90915550506001600160a01b0384166000908152600f602052604090205481906106aa90859061178a565b6106b491906117a1565b6001600160a01b0385166000908152600f60205260408120829055600e80549091906106e19084906117c3565b9091555050505b50919050565b6106f66115ca565b600180546001600160a01b0319166001600160a01b0383169081179091556040519081527f906a1c6bd7e3091ea86693dd029a831c19049ce77f1dce2ce0bab1cacbabce22906020015b60405180910390a150565b6107536115ca565b60055460ff161515811515146107ba576005805460ff191682151590811790915560ff161561078157426004555b60055460405160ff909116151581527f8fb6c181ee25a520cf3dd6565006ef91229fcfe5a989566c2a3b8c115570cec590602001610740565b50565b6107c56115ca565b600280546001600160a01b0319166001600160a01b0392909216919091179055565b60006009546008546107f9919061178a565b905090565b61080661163c565b3361080f611548565b600b5561081a610f30565b600a556001600160a01b0381161561086157610835816104b4565b6001600160a01b0382166000908152600d6020908152604080832093909355600b54600c909152919020555b600082116108aa5760405162461bcd60e51b8152602060048201526011602482015270043616e6e6f74207769746864726177203607c1b60448201526064015b60405180910390fd5b33600090815260146020526040812054906108c5828561178a565b905080600e60008282546108d99190611777565b9091555050336000908152600f6020526040812080548392906108fd908490611777565b9250508190555083601260008282546109169190611777565b9091555050336000908152601360205260408120805486929061093a908490611777565b909155505060065460405163a9059cbb60e01b8152336004820152602481018690526001600160a01b039091169063a9059cbb906044016020604051808303816000875af1158015610990573d6000803e3d6000fd5b505050506040513d601f19601f820116820180604052508101906109b491906118e4565b5060405184815233907f7084f5476618d8e60b11ef0d7d3f06914655adb8793e28ff7f018d4c76d505d59060200160405180910390a25050506107ba6001600355565b6002546001600160a01b03163314610a645760405162461bcd60e51b815260206004820152602a60248201527f43616c6c6572206973206e6f742052657761726473446973747269627574696f6044820152691b8818dbdb9d1c9858dd60b21b60648201526084016108a1565b6000610a6e611548565b600b55610a79610f30565b600a556001600160a01b03811615610ac057610a94816104b4565b6001600160a01b0382166000908152600d6020908152604080832093909355600b54600c909152919020555b6007544210610ade57600954610ad690836117a1565b600855610b20565b600042600754610aee9190611777565b9050600060085482610b00919061178a565b600954909150610b1082866117c3565b610b1a91906117a1565b60085550505b6005546040516370a0823160e01b815230600482015260009161010090046001600160a01b0316906370a0823190602401602060405180830381865afa158015610b6e573d6000803e3d6000fd5b505050506040513d601f19601f82011682018060405250810190610b9291906118cb565b6005546006549192506001600160a01b036101009091048116911603610bc257601254610bbf9082611777565b90505b600954610bcf90826117a1565b6008541115610c205760405162461bcd60e51b815260206004820152601860248201527f50726f76696465642072657761726420746f6f2068696768000000000000000060448201526064016108a1565b42600a5560095442610c3291906117c3565b6007556040518381527fde88a922e0d3b88b24e9623efeb464919c6bf9f66857a65e2bfcf2ce87a9433d9060200160405180910390a1505050565b610c7561163c565b33610c7e611548565b600b55610c89610f30565b600a556001600160a01b03811615610cd057610ca4816104b4565b6001600160a01b0382166000908152600d6020908152604080832093909355600b54600c909152919020555b336000908152600d60205260409020548015610daa57336000818152600d602052604080822091909155600554905163a9059cbb60e01b815260048101929092526024820183905261010090046001600160a01b03169063a9059cbb906044016020604051808303816000875af1158015610d4f573d6000803e3d6000fd5b505050506040513d601f19601f82011682018060405250810190610d7391906118e4565b5060405181815233907fe2403640ba68fed3a2f88b7557551d1993f84b99bb10ff833f0cf8db0c5e04869060200160405180910390a25b5050610db66001600355565b565b60108054610dc5906117d6565b80601f0160208091040260200160405190810160405280929190818152602001828054610df1906117d6565b8015610e3e5780601f10610e1357610100808354040283529160200191610e3e565b820191906000526020600020905b815481529060010190602001808311610e2157829003601f168201915b505050505081565b6001546001600160a01b03163314610ebe5760405162461bcd60e51b815260206004820152603560248201527f596f75206d757374206265206e6f6d696e61746564206265666f726520796f7560448201527402063616e20616363657074206f776e65727368697605c1b60648201526084016108a1565b600054600154604080516001600160a01b0393841681529290911660208301527fb532073b38c83145e3e5135377a08bf9aab55bc0fd7c1179cd4fb995d2a5159c910160405180910390a160018054600080546001600160a01b03199081166001600160a01b03841617909155169055565b6000600754610f3c4290565b10610f48575060075490565b504290565b610f556115ca565b6006546001600160a01b0390811690831603610fbd5760405162461bcd60e51b815260206004820152602160248201527f43616e6e6f7420776974686472617720746865207374616b696e6720746f6b656044820152603760f91b60648201526084016108a1565b60005460405163a9059cbb60e01b81526001600160a01b039182166004820152602481018390529083169063a9059cbb906044016020604051808303816000875af1158015611010573d6000803e3d6000fd5b505050506040513d601f19601f8201168201806040525081019061103491906118e4565b50604080516001600160a01b0384168152602081018390527f8c1256b8896378cd5044f80c202f9772b9d77dc85c8a6eb51967210b09bfaa28910160405180910390a15050565b61108361163c565b60055460ff16156110fc5760405162461bcd60e51b815260206004820152603c60248201527f5468697320616374696f6e2063616e6e6f7420626520706572666f726d65642060448201527f7768696c652074686520636f6e7472616374206973207061757365640000000060648201526084016108a1565b33611105611548565b600b55611110610f30565b600a556001600160a01b038116156111575761112b816104b4565b6001600160a01b0382166000908152600d6020908152604080832093909355600b54600c909152919020555b60405163d23614b160e01b81526001600160a01b037f0000000000000000000000000000000000000000000000000000000000000000169063d23614b1906111a690339060109060040161180a565b602060405180830381865afa1580156111c3573d6000803e3d6000fd5b505050506040513d601f19601f820116820180604052508101906111e791906118e4565b6112265760405162461bcd60e51b815260206004820152601060248201526f4d55535420424520494e20484f55534560801b60448201526064016108a1565b60115460405163b9209e3360e01b81523360048201526001600160a01b039091169063b9209e3390602401602060405180830381865afa15801561126e573d6000803e3d6000fd5b505050506040513d601f19601f8201168201806040525081019061129291906118e4565b6112de5760405162461bcd60e51b815260206004820152601e60248201527f4d5553542048415645205645524946494544204143434553532050415353000060448201526064016108a1565b6000821161131f5760405162461bcd60e51b815260206004820152600e60248201526d043414e4e4f54205354414b4520360941b60448201526064016108a1565b816012600082825461133191906117c3565b909155505033600090815260136020526040812080548492906113559084906117c3565b909155505033600090815260146020526040812054611374908461178a565b905080600e600082825461138891906117c3565b9091555050336000908152600f6020526040812080548392906113ac9084906117c3565b90915550506006546040516323b872dd60e01b8152336004820152306024820152604481018590526001600160a01b03909116906323b872dd906064016020604051808303816000875af1158015611408573d6000803e3d6000fd5b505050506040513d601f19601f8201168201806040525081019061142c91906118e4565b5060405183815233907f9e71bc8eea02a63969f509818f2dafb9254532904319f9dbda79b67bd34a5f3d9060200160405180910390a250506107ba6001600355565b6114766115ca565b60075442116115135760405162461bcd60e51b815260206004820152605860248201527f50726576696f7573207265776172647320706572696f64206d7573742062652060448201527f636f6d706c657465206265666f7265206368616e67696e67207468652064757260648201527f6174696f6e20666f7220746865206e657720706572696f640000000000000000608482015260a4016108a1565b60098190556040518181527ffb46ca5a5e06d4540d6387b930a7c978bce0db5f449ec6b3f5d07c6e1d44f2d390602001610740565b6000600e5460000361155b5750600b5490565b600e54600854600a5461156c610f30565b6115769190611777565b611580919061178a565b61159290670de0b6b3a764000061178a565b61159c91906117a1565b600b546107f991906117c3565b336000908152601360205260409020546115c2906107fe565b610db6610c6d565b6000546001600160a01b03163314610db65760405162461bcd60e51b815260206004820152602f60248201527f4f6e6c792074686520636f6e7472616374206f776e6572206d6179207065726660448201526e37b936903a3434b99030b1ba34b7b760891b60648201526084016108a1565b60026003540361165f57604051633ee5aeb560e01b815260040160405180910390fd5b6002600355565b80356001600160a01b038116811461167d57600080fd5b919050565b60006020828403121561169457600080fd5b61169d82611666565b9392505050565b80151581146107ba57600080fd5b6000602082840312156116c457600080fd5b813561169d816116a4565b6000602082840312156116e157600080fd5b5035919050565b60006020808352835180602085015260005b81811015611716578581018301518582016040015282016116fa565b506000604082860101526040601f19601f8301168501019250505092915050565b6000806040838503121561174a57600080fd5b61175383611666565b946020939093013593505050565b634e487b7160e01b600052601160045260246000fd5b8181038181111561052b5761052b611761565b808202811582820484141761052b5761052b611761565b6000826117be57634e487b7160e01b600052601260045260246000fd5b500490565b8082018082111561052b5761052b611761565b600181811c908216806117ea57607f821691505b6020821081036106e857634e487b7160e01b600052602260045260246000fd5b60018060a01b03831681526000602060406020840152600084548160018260011c9150600183168061183d57607f831692505b60208310810361185b57634e487b7160e01b85526022600452602485fd5b604088018390526060880181801561187a5760018114611890576118bb565b60ff198616825284151560051b820196506118bb565b60008b81526020902060005b868110156118b55781548482015290850190890161189c565b83019750505b50949a9950505050505050505050565b6000602082840312156118dd57600080fd5b5051919050565b6000602082840312156118f657600080fd5b815161169d816116a456fea2646970667358221220a8982f1c321ab8cd787343bcc3ec827cc110d37ae462de7b4dc4dd131e18df2764736f6c63430008180033a26469706673582212200eab50c4a61339c7f189a4f174c461f6e19924ff1d95028ce8dbbd3dc0bf0aff64736f6c63430008180033",
  "linkReferences": {},
  "deployedLinkReferences": {}
}