{
  "_format": "hh-sol-artifact-1",
  "contractName": "SCMetagameLocations",
  "sourceName": "SuperChamps/contracts/Metagame/SCMetagameLocations.sol",
  "abi": [
    {
      "inputs": [
        {
          "internalType": "address",
          "name": "permissions_",
          "type": "address"
        },
        {
          "internalType": "address",
          "name": "token_",
          "type": "address"
        },
        {
          "internalType": "address",
          "name": "metadata_",
          "type": "address"
        },
        {
          "internalType": "address",
          "name": "treasury_",
          "type": "address"
        },
        {
          "internalType": "address",
          "name": "access_pass_",
          "type": "address"
        },
        {
          "internalType": "address",
          "name": "data_view_",
          "type": "address"
        }
      ],
      "stateMutability": "nonpayable",
      "type": "constructor"
    },
    {
      "anonymous": false,
      "inputs": [
        {
          "indexed": false,
          "internalType": "string",
          "name": "location",
          "type": "string"
        }
      ],
      "name": "LocationAdded",
      "type": "event"
    },
    {
      "inputs": [],
      "name": "EPOCH",
      "outputs": [
        {
          "internalType": "uint256",
          "name": "",
          "type": "uint256"
        }
      ],
      "stateMutability": "view",
      "type": "function"
    },
    {
      "inputs": [],
      "name": "access_pass",
      "outputs": [
        {
          "internalType": "contract ISCAccessPass",
          "name": "",
          "type": "address"
        }
      ],
      "stateMutability": "view",
      "type": "function"
    },
    {
      "inputs": [
        {
          "internalType": "string",
          "name": "location_name_",
          "type": "string"
        }
      ],
      "name": "addLocation",
      "outputs": [],
      "stateMutability": "nonpayable",
      "type": "function"
    },
    {
      "inputs": [
        {
          "internalType": "uint256",
          "name": "",
          "type": "uint256"
        }
      ],
      "name": "award_tiers_bps",
      "outputs": [
        {
          "internalType": "uint256",
          "name": "",
          "type": "uint256"
        }
      ],
      "stateMutability": "view",
      "type": "function"
    },
    {
      "inputs": [],
      "name": "current_epoch",
      "outputs": [
        {
          "internalType": "uint256",
          "name": "",
          "type": "uint256"
        }
      ],
      "stateMutability": "view",
      "type": "function"
    },
    {
      "inputs": [],
      "name": "data_view",
      "outputs": [
        {
          "internalType": "contract ISCMetagameDataSource",
          "name": "",
          "type": "address"
        }
      ],
      "stateMutability": "view",
      "type": "function"
    },
    {
      "inputs": [
        {
          "internalType": "uint256",
          "name": "epoch_",
          "type": "uint256"
        },
        {
          "internalType": "string[]",
          "name": "locations_",
          "type": "string[]"
        },
        {
          "internalType": "uint256[]",
          "name": "location_reward_shares_",
          "type": "uint256[]"
        }
      ],
      "name": "distributeRewards",
      "outputs": [],
      "stateMutability": "nonpayable",
      "type": "function"
    },
    {
      "inputs": [
        {
          "internalType": "string",
          "name": "location_name_",
          "type": "string"
        }
      ],
      "name": "getLocationRewardsStaker",
      "outputs": [
        {
          "internalType": "address",
          "name": "",
          "type": "address"
        }
      ],
      "stateMutability": "view",
      "type": "function"
    },
    {
      "inputs": [
        {
          "internalType": "address",
          "name": "addr_",
          "type": "address"
        },
        {
          "internalType": "string",
          "name": "location_",
          "type": "string"
        }
      ],
      "name": "getMembership",
      "outputs": [
        {
          "internalType": "bool",
          "name": "",
          "type": "bool"
        }
      ],
      "stateMutability": "view",
      "type": "function"
    },
    {
      "inputs": [
        {
          "internalType": "address",
          "name": "addr_",
          "type": "address"
        },
        {
          "internalType": "string",
          "name": "location_",
          "type": "string"
        }
      ],
      "name": "getMultiplier",
      "outputs": [
        {
          "internalType": "uint256",
          "name": "",
          "type": "uint256"
        }
      ],
      "stateMutability": "view",
      "type": "function"
    },
    {
      "inputs": [],
      "name": "locationCount",
      "outputs": [
        {
          "internalType": "uint256",
          "name": "count",
          "type": "uint256"
        }
      ],
      "stateMutability": "view",
      "type": "function"
    },
    {
      "inputs": [
        {
          "internalType": "string",
          "name": "",
          "type": "string"
        }
      ],
      "name": "location_rewards",
      "outputs": [
        {
          "internalType": "contract SCMetagameLocationRewards",
          "name": "",
          "type": "address"
        }
      ],
      "stateMutability": "view",
      "type": "function"
    },
    {
      "inputs": [
        {
          "internalType": "uint256",
          "name": "",
          "type": "uint256"
        }
      ],
      "name": "locations",
      "outputs": [
        {
          "internalType": "string",
          "name": "",
          "type": "string"
        }
      ],
      "stateMutability": "view",
      "type": "function"
    },
    {
      "inputs": [],
      "name": "metadata",
      "outputs": [
        {
          "internalType": "contract ISCMetagameRegistry",
          "name": "",
          "type": "address"
        }
      ],
      "stateMutability": "view",
      "type": "function"
    },
    {
      "inputs": [],
      "name": "next_epoch",
      "outputs": [
        {
          "internalType": "uint256",
          "name": "",
          "type": "uint256"
        }
      ],
      "stateMutability": "view",
      "type": "function"
    },
    {
      "inputs": [],
      "name": "permissions",
      "outputs": [
        {
          "internalType": "contract IPermissionsManager",
          "name": "",
          "type": "address"
        }
      ],
      "stateMutability": "view",
      "type": "function"
    },
    {
      "inputs": [
        {
          "internalType": "address",
          "name": "tokenAddress_",
          "type": "address"
        },
        {
          "internalType": "uint256",
          "name": "tokenAmount_",
          "type": "uint256"
        }
      ],
      "name": "recoverERC20",
      "outputs": [],
      "stateMutability": "nonpayable",
      "type": "function"
    },
    {
      "inputs": [
        {
          "internalType": "string",
          "name": "location_",
          "type": "string"
        },
        {
          "internalType": "address",
          "name": "tokenAddress_",
          "type": "address"
        },
        {
          "internalType": "uint256",
          "name": "tokenAmount_",
          "type": "uint256"
        }
      ],
      "name": "recoverERC20FromLocation",
      "outputs": [],
      "stateMutability": "nonpayable",
      "type": "function"
    },
    {
      "inputs": [
        {
          "internalType": "address",
          "name": "data_view_",
          "type": "address"
        }
      ],
      "name": "setDataView",
      "outputs": [],
      "stateMutability": "nonpayable",
      "type": "function"
    },
    {
      "inputs": [
        {
          "internalType": "uint256",
          "name": "duration_",
          "type": "uint256"
        }
      ],
      "name": "setEpochDuration",
      "outputs": [],
      "stateMutability": "nonpayable",
      "type": "function"
    },
    {
      "inputs": [
        {
          "internalType": "address",
          "name": "treasury_",
          "type": "address"
        }
      ],
      "name": "setTreasury",
      "outputs": [],
      "stateMutability": "nonpayable",
      "type": "function"
    },
    {
      "inputs": [],
      "name": "token",
      "outputs": [
        {
          "internalType": "contract IERC20",
          "name": "",
          "type": "address"
        }
      ],
      "stateMutability": "view",
      "type": "function"
    },
    {
      "inputs": [],
      "name": "treasury",
      "outputs": [
        {
          "internalType": "address",
          "name": "",
          "type": "address"
        }
      ],
      "stateMutability": "view",
      "type": "function"
    }
  ],
  "bytecode": "0x60e060405262093a806003556000600755600060085534801561002157600080fd5b50604051613abe380380613abe833981016040819052610040916100af565b6001600160a01b0395861660805293851660c05291841660a052600280549185166001600160a01b0319928316179055600180549285169282169290921790915560008054929093169116179055610123565b80516001600160a01b03811681146100aa57600080fd5b919050565b60008060008060008060c087890312156100c857600080fd5b6100d187610093565b95506100df60208801610093565b94506100ed60408801610093565b93506100fb60608801610093565b925061010960808801610093565b915061011760a08801610093565b90509295509295509295565b60805160a05160c0516139186101a6600039600081816103630152818161060b015281816107e401528181610dec01528181610ed90152611171015260006101bd0152600081816102910152818161044a015281816105030152818161074d015281816108e601528181610ac401528181610c2601526112bf01526139186000f3fe608060405234801561001057600080fd5b506004361061014d5760003560e01c806396a7f73a116100c3578063d23614b11161007c578063d23614b1146102f9578063d30c44451461031c578063e014764014610325578063ecadafe314610338578063f0f442601461034b578063fc0c546a1461035e57600080fd5b806396a7f73a14610270578063a0dc275814610283578063ab8c71c01461028c578063b00f14dc146102b3578063b9e0db35146102c6578063ce18933b146102e657600080fd5b80635fddb088116101155780635fddb0881461021357806361d027b314610226578063887032541461023957806388b50b5f146102415780638980f11f146102545780639372b4e41461026757600080fd5b80631167b5d414610152578063274d8cc81461018257806330024dfe146101a3578063392f37e9146101b85780633ca02259146101df575b600080fd5b61016561016036600461143a565b610385565b6040516001600160a01b0390911681526020015b60405180910390f35b610195610190366004611493565b6103b6565b604051908152602001610179565b6101b66101b13660046114e1565b610433565b005b6101657f000000000000000000000000000000000000000000000000000000000000000081565b6101656101ed36600461143a565b80516020818301810180516004825292820191909301209152546001600160a01b031681565b6101b6610221366004611543565b6104ec565b600254610165906001600160a01b031681565b600554610195565b600154610165906001600160a01b031681565b6101b6610262366004611585565b610736565b61019560075481565b6101b661027e3660046115af565b6108cf565b61019560035481565b6101657f000000000000000000000000000000000000000000000000000000000000000081565b600054610165906001600160a01b031681565b6102d96102d43660046114e1565b610a01565b604051610179919061165b565b6101b66102f436600461166e565b610aad565b61030c610307366004611493565b610b7a565b6040519015158152602001610179565b61019560085481565b6101956103333660046114e1565b610bee565b6101b661034636600461171a565b610c0f565b6101b661035936600461166e565b6112a8565b6101657f000000000000000000000000000000000000000000000000000000000000000081565b60006004826040516103979190611806565b908152604051908190036020019020546001600160a01b031692915050565b600080546040516304e9b19960e31b81526001600160a01b039091169063274d8cc8906103e99086908690600401611822565b602060405180830381865afa158015610406573d6000803e3d6000fd5b505050506040513d601f19601f8201168201806040525081019061042a9190611846565b90505b92915050565b604051634f4bdc7b60e11b81526001600160a01b037f00000000000000000000000000000000000000000000000000000000000000001690639e97b8f690610481906004903390820161185f565b602060405180830381865afa15801561049e573d6000803e3d6000fd5b505050506040513d601f19601f820116820180604052508101906104c29190611899565b6104e75760405162461bcd60e51b81526004016104de906118c2565b60405180910390fd5b600355565b604051634f4bdc7b60e11b81526001600160a01b037f00000000000000000000000000000000000000000000000000000000000000001690639e97b8f69061053a906004903390820161185f565b602060405180830381865afa158015610557573d6000803e3d6000fd5b505050506040513d601f19601f8201168201806040525081019061057b9190611899565b6105975760405162461bcd60e51b81526004016104de906118c2565b60006001600160a01b0316600483836040516105b49291906118ef565b908152604051908190036020019020546001600160a01b0316146106095760405162461bcd60e51b815260206004820152600c60248201526b484f5553452045584953545360a01b60448201526064016104de565b7f0000000000000000000000000000000000000000000000000000000000000000308383600160009054906101000a90046001600160a01b031660405161064f90611376565b61065d959493929190611928565b604051809103906000f080158015610679573d6000803e3d6000fd5b506004838360405161068c9291906118ef565b90815260405190819003602001902080546001600160a01b03929092166001600160a01b0319909216919091179055600580546001810182556000919091527f036b6384b5eca791c62761152d0c79bb0604c104a5fb6f4eb0703f3154bb3db0016106f88284836119f7565b507f290f6f4d7e1481b6ad9b90bea1df5f5f1651ecb2e468e47e09297c11efbe44c3828260405161072a929190611ab7565b60405180910390a15050565b604051634f4bdc7b60e11b81526001600160a01b037f00000000000000000000000000000000000000000000000000000000000000001690639e97b8f69061078590600190339060040161185f565b602060405180830381865afa1580156107a2573d6000803e3d6000fd5b505050506040513d601f19601f820116820180604052508101906107c69190611899565b6107e25760405162461bcd60e51b81526004016104de90611acb565b7f00000000000000000000000000000000000000000000000000000000000000006001600160a01b0316826001600160a01b0316036108595760405162461bcd60e51b8152602060048201526013602482015272043414e54205749544844524157204348414d5606c1b60448201526064016104de565b60405163a9059cbb60e01b8152336004820152602481018290526001600160a01b0383169063a9059cbb906044016020604051808303816000875af11580156108a6573d6000803e3d6000fd5b505050506040513d601f19601f820116820180604052508101906108ca9190611899565b505050565b604051634f4bdc7b60e11b81526001600160a01b037f00000000000000000000000000000000000000000000000000000000000000001690639e97b8f69061091e90600190339060040161185f565b602060405180830381865afa15801561093b573d6000803e3d6000fd5b505050506040513d601f19601f8201168201806040525081019061095f9190611899565b61097b5760405162461bcd60e51b81526004016104de90611acb565b6004848460405161098d9291906118ef565b90815260405190819003602001812054638980f11f60e01b82526001600160a01b038481166004840152602483018490521690638980f11f90604401600060405180830381600087803b1580156109e357600080fd5b505af11580156109f7573d6000803e3d6000fd5b5050505050505050565b60058181548110610a1157600080fd5b906000526020600020016000915090508054610a2c9061196f565b80601f0160208091040260200160405190810160405280929190818152602001828054610a589061196f565b8015610aa55780601f10610a7a57610100808354040283529160200191610aa5565b820191906000526020600020905b815481529060010190602001808311610a8857829003601f168201915b505050505081565b604051634f4bdc7b60e11b81526001600160a01b037f00000000000000000000000000000000000000000000000000000000000000001690639e97b8f690610afb906004903390820161185f565b602060405180830381865afa158015610b18573d6000803e3d6000fd5b505050506040513d601f19601f82011682018060405250810190610b3c9190611899565b610b585760405162461bcd60e51b81526004016104de906118c2565b600080546001600160a01b0319166001600160a01b0392909216919091179055565b6000805460405163d23614b160e01b81526001600160a01b039091169063d23614b190610bad9086908690600401611822565b602060405180830381865afa158015610bca573d6000803e3d6000fd5b505050506040513d601f19601f8201168201806040525081019061042a9190611899565b60068181548110610bfe57600080fd5b600091825260209091200154905081565b604051634f4bdc7b60e11b81526001600160a01b037f00000000000000000000000000000000000000000000000000000000000000001690639e97b8f690610c5d906004903390820161185f565b602060405180830381865afa158015610c7a573d6000803e3d6000fd5b505050506040513d601f19601f82011682018060405250810190610c9e9190611899565b610cba5760405162461bcd60e51b81526004016104de906118c2565b6007548314610cfd5760405162461bcd60e51b815260206004820152600f60248201526e0929c869ea4a48a86a8408aa09e869608b1b60448201526064016104de565b60085442811115610d455760405162461bcd60e51b815260206004820152601260248201527109c9ea840b28aa8409c8ab0a8408aa09e86960731b60448201526064016104de565b825182518114610d885760405162461bcd60e51b815260206004820152600e60248201526d0929ca0aaa8409a92a69a82a886960931b60448201526064016104de565b6000805b82811015610dc357848181518110610da657610da6611af7565b602002602001015182610db99190611b23565b9150600101610d8c565b50600254604051636eb1769f60e11b81526001600160a01b0391821660048201523060248201527f00000000000000000000000000000000000000000000000000000000000000009091169063dd62ed3e90604401602060405180830381865afa158015610e35573d6000803e3d6000fd5b505050506040513d601f19601f82011682018060405250810190610e599190611846565b8111610ea75760405162461bcd60e51b815260206004820152601860248201527f4e4f5420454e4f55474820544f2044495354524942555445000000000000000060448201526064016104de565b6002546040516323b872dd60e01b81526001600160a01b039182166004820152306024820152604481018390526000917f000000000000000000000000000000000000000000000000000000000000000016906323b872dd906064016020604051808303816000875af1158015610f22573d6000803e3d6000fd5b505050506040513d601f19601f82011682018060405250810190610f469190611899565b905080610f5257600080fd5b60035442610f608287611b23565b1115610f7e5742610f718287611b23565b610f7b9190611b36565b90505b865160005b8181101561128a576000898281518110610f9f57610f9f611af7565b602002602001015190506000600482604051610fbb9190611806565b908152604051908190036020019020546001600160a01b031690508061101b5760405162461bcd60e51b81526020600482015260156024820152741313d0d0551253d3881113d154d3950811561254d5605a1b60448201526064016104de565b42816001600160a01b031663ebe2b12b6040518163ffffffff1660e01b8152600401602060405180830381865afa15801561105a573d6000803e3d6000fd5b505050506040513d601f19601f8201168201806040525081019061107e9190611846565b106110cb5760405162461bcd60e51b815260206004820152601c60248201527f4c4f434154494f4e2053545245414d204e4f542046494e49534845440000000060448201526064016104de565b60008a84815181106110df576110df611af7565b60200260200101519050816001600160a01b031663cc1a378f876040518263ffffffff1660e01b815260040161111791815260200190565b600060405180830381600087803b15801561113157600080fd5b505af1158015611145573d6000803e3d6000fd5b505060405163a9059cbb60e01b81526001600160a01b03858116600483015260248201859052600093507f000000000000000000000000000000000000000000000000000000000000000016915063a9059cbb906044016020604051808303816000875af11580156111bb573d6000803e3d6000fd5b505050506040513d601f19601f820116820180604052508101906111df9190611899565b9050806112205760405162461bcd60e51b815260206004820152600f60248201526e1514905394d1915488119052531151608a1b60448201526064016104de565b604051633c6b16ab60e01b8152600481018390526001600160a01b03841690633c6b16ab90602401600060405180830381600087803b15801561126257600080fd5b505af1158015611276573d6000803e3d6000fd5b505060019096019550610f83945050505050565b50600786905561129a8242611b23565b600855505050505050505050565b604051634f4bdc7b60e11b81526001600160a01b037f00000000000000000000000000000000000000000000000000000000000000001690639e97b8f6906112f790600190339060040161185f565b602060405180830381865afa158015611314573d6000803e3d6000fd5b505050506040513d601f19601f820116820180604052508101906113389190611899565b6113545760405162461bcd60e51b81526004016104de90611acb565b600280546001600160a01b0319166001600160a01b0392909216919091179055565b611d9980611b4a83390190565b634e487b7160e01b600052604160045260246000fd5b604051601f8201601f1916810167ffffffffffffffff811182821017156113c2576113c2611383565b604052919050565b600082601f8301126113db57600080fd5b813567ffffffffffffffff8111156113f5576113f5611383565b611408601f8201601f1916602001611399565b81815284602083860101111561141d57600080fd5b816020850160208301376000918101602001919091529392505050565b60006020828403121561144c57600080fd5b813567ffffffffffffffff81111561146357600080fd5b61146f848285016113ca565b949350505050565b80356001600160a01b038116811461148e57600080fd5b919050565b600080604083850312156114a657600080fd5b6114af83611477565b9150602083013567ffffffffffffffff8111156114cb57600080fd5b6114d7858286016113ca565b9150509250929050565b6000602082840312156114f357600080fd5b5035919050565b60008083601f84011261150c57600080fd5b50813567ffffffffffffffff81111561152457600080fd5b60208301915083602082850101111561153c57600080fd5b9250929050565b6000806020838503121561155657600080fd5b823567ffffffffffffffff81111561156d57600080fd5b611579858286016114fa565b90969095509350505050565b6000806040838503121561159857600080fd5b6115a183611477565b946020939093013593505050565b600080600080606085870312156115c557600080fd5b843567ffffffffffffffff8111156115dc57600080fd5b6115e8878288016114fa565b90955093506115fb905060208601611477565b9396929550929360400135925050565b60005b8381101561162657818101518382015260200161160e565b50506000910152565b6000815180845261164781602086016020860161160b565b601f01601f19169290920160200192915050565b60208152600061042a602083018461162f565b60006020828403121561168057600080fd5b61042a82611477565b600067ffffffffffffffff8211156116a3576116a3611383565b5060051b60200190565b600082601f8301126116be57600080fd5b81356116d16116cc82611689565b611399565b8082825260208201915060208360051b8601019250858311156116f357600080fd5b602085015b838110156117105780358352602092830192016116f8565b5095945050505050565b60008060006060848603121561172f57600080fd5b83359250602084013567ffffffffffffffff81111561174d57600080fd5b8401601f8101861361175e57600080fd5b803561176c6116cc82611689565b8082825260208201915060208360051b85010192508883111561178e57600080fd5b602084015b838110156117d057803567ffffffffffffffff8111156117b257600080fd5b6117c18b6020838901016113ca565b84525060209283019201611793565b509450505050604084013567ffffffffffffffff8111156117f057600080fd5b6117fc868287016116ad565b9150509250925092565b6000825161181881846020870161160b565b9190910192915050565b6001600160a01b038316815260406020820181905260009061146f9083018461162f565b60006020828403121561185857600080fd5b5051919050565b60408101600f841061188157634e487b7160e01b600052602160045260246000fd5b9281526001600160a01b039190911660209091015290565b6000602082840312156118ab57600080fd5b815180151581146118bb57600080fd5b9392505050565b6020808252601390820152722737ba10309029bcb9ba32b6b99020b236b4b760691b604082015260600190565b8183823760009101908152919050565b81835281816020850137506000828201602090810191909152601f909101601f19169091010190565b6001600160a01b0386811682528516602082015260806040820181905260009061195590830185876118ff565b905060018060a01b03831660608301529695505050505050565b600181811c9082168061198357607f821691505b6020821081036119a357634e487b7160e01b600052602260045260246000fd5b50919050565b601f8211156108ca57806000526020600020601f840160051c810160208510156119d05750805b601f840160051c820191505b818110156119f057600081556001016119dc565b5050505050565b67ffffffffffffffff831115611a0f57611a0f611383565b611a2383611a1d835461196f565b836119a9565b6000601f841160018114611a575760008515611a3f5750838201355b600019600387901b1c1916600186901b1783556119f0565b600083815260209020601f19861690835b82811015611a885786850135825560209485019460019092019101611a68565b5086821015611aa55760001960f88860031b161c19848701351681555b505060018560011b0183555050505050565b60208152600061146f6020830184866118ff565b6020808252601290820152712737ba10309023b637b130b61020b236b4b760711b604082015260600190565b634e487b7160e01b600052603260045260246000fd5b634e487b7160e01b600052601160045260246000fd5b8082018082111561042d5761042d611b0d565b8181038181111561042d5761042d611b0d56fe60a06040526000600755600060085562093a8060095534801561002157600080fd5b50604051611d99380380611d99833981016040819052610040916101ff565b338085808280806100985760405162461bcd60e51b815260206004820152601960248201527f4f776e657220616464726573732063616e6e6f7420626520300000000000000060448201526064015b60405180910390fd5b600080546001600160a01b0319166001600160a01b03831690811782556040805192835260208301919091527fb532073b38c83145e3e5135377a08bf9aab55bc0fd7c1179cd4fb995d2a5159c910160405180910390a1505060016003556000546001600160a01b03166101425760405162461bcd60e51b815260206004820152601160248201527013dddb995c881b5d5cdd081899481cd95d607a1b604482015260640161008f565b600580546001600160a01b0393841661010002610100600160a81b0319909116179055600680549183166001600160a01b0319928316179055600280549383169390911692909217909155841660805250601061019f8382610387565b50601180546001600160a01b0319166001600160a01b03929092169190911790555050600060095550610445565b80516001600160a01b03811681146101e457600080fd5b919050565b634e487b7160e01b600052604160045260246000fd5b6000806000806080858703121561021557600080fd5b61021e856101cd565b935061022c602086016101cd565b60408601519093506001600160401b0381111561024857600080fd5b8501601f8101871361025957600080fd5b80516001600160401b03811115610272576102726101e9565b604051601f8201601f19908116603f011681016001600160401b03811182821017156102a0576102a06101e9565b6040528181528282016020018910156102b857600080fd5b60005b828110156102d7576020818501810151838301820152016102bb565b506000602083830101528094505050506102f3606086016101cd565b905092959194509250565b600181811c9082168061031257607f821691505b60208210810361033257634e487b7160e01b600052602260045260246000fd5b50919050565b601f82111561038257806000526020600020601f840160051c8101602085101561035f5750805b601f840160051c820191505b8181101561037f576000815560010161036b565b50505b505050565b81516001600160401b038111156103a0576103a06101e9565b6103b4816103ae84546102fe565b84610338565b6020601f8211600181146103e857600083156103d05750848201515b600019600385901b1c1916600184901b17845561037f565b600084815260208120601f198516915b8281101561041857878501518255602094850194600190920191016103f8565b50848210156104365786840151600019600387901b60f8161c191681555b50505050600190811b01905550565b608051611932610467600039600081816105a5015261116e01526119326000f3fe608060405234801561001057600080fd5b506004361061021b5760003560e01c806370a082311161012557806391b4ded9116100ad578063cd3daf9d1161007c578063cd3daf9d1461047a578063d1af0c7d14610482578063df136d651461049a578063e9fad8ee146104a3578063ebe2b12b146104ab57600080fd5b806391b4ded914610442578063a694fc3a1461044b578063c8f33c911461045e578063cc1a378f1461046757600080fd5b806380faa57d116100f457806380faa57d146103e157806388b50b5f146103e95780638980f11f146103fc5780638b8763471461040f5780638da5cb5b1461042f57600080fd5b806370a082311461039457806372f702f3146103bd57806379ba5097146103d05780637b0a47ee146103d857600080fd5b80632e1a7d4d116101a85780633ede0b67116101775780633ede0b671461031b5780633fc6df6e14610324578063455457aa1461034f57806353a47bb7146103645780635c975abb1461037757600080fd5b80632e1a7d4d146102e4578063386a9525146102f75780633c6b16ab146103005780633d18b9121461031357600080fd5b806316c38b3c116101ef57806316c38b3c1461028e57806318160ddd146102a157806319762143146102a95780631c1f78eb146102bc578063263319a5146102c457600080fd5b80628cc262146102205780630700037d146102465780630d773a64146102665780631627540c14610279575b600080fd5b61023361022e366004611682565b6104b4565b6040519081526020015b60405180910390f35b610233610254366004611682565b600d6020526000908152604090205481565b610233610274366004611682565b610531565b61028c610287366004611682565b6106ee565b005b61028c61029c3660046116b2565b61074b565b600e54610233565b61028c6102b7366004611682565b6107bd565b6102336107e7565b6102336102d2366004611682565b60136020526000908152604090205481565b61028c6102f23660046116cf565b6107fe565b61023360095481565b61028c61030e3660046116cf565b6109f7565b61028c610c6d565b61023360125481565b600254610337906001600160a01b031681565b6040516001600160a01b03909116815260200161023d565b610357610db8565b60405161023d91906116e8565b600154610337906001600160a01b031681565b6005546103849060ff1681565b604051901515815260200161023d565b6102336103a2366004611682565b6001600160a01b03166000908152600f602052604090205490565b600654610337906001600160a01b031681565b61028c610e46565b61023360085481565b610233610f30565b601154610337906001600160a01b031681565b61028c61040a366004611736565b610f4d565b61023361041d366004611682565b600c6020526000908152604090205481565b600054610337906001600160a01b031681565b61023360045481565b61028c6104593660046116cf565b61107b565b610233600a5481565b61028c6104753660046116cf565b61146e565b610233611548565b6005546103379061010090046001600160a01b031681565b610233600b5481565b61028c6115a9565b61023360075481565b6001600160a01b0381166000908152600d6020908152604080832054600c909252822054670de0b6b3a7640000906104ea611548565b6104f49190611776565b6001600160a01b0385166000908152600f60205260409020546105179190611789565b61052191906117a0565b61052b91906117c2565b92915050565b60003361053c611548565b600b55610547610f30565b600a556001600160a01b0381161561058e57610562816104b4565b6001600160a01b0382166000908152600d6020908152604080832093909355600b54600c909152919020555b6040516304e9b19960e31b81526001600160a01b037f0000000000000000000000000000000000000000000000000000000000000000169063274d8cc8906105dd908690601090600401611809565b602060405180830381865afa1580156105fa573d6000803e3d6000fd5b505050506040513d601f19601f8201168201806040525081019061061e91906118c6565b6001600160a01b03841660009081526014602052604090205490925082146106e8576001600160a01b0383166000908152601460209081526040808320805490869055600f909252822054600e80549293919290919061067f908490611776565b90915550506001600160a01b0384166000908152600f602052604090205481906106aa908590611789565b6106b491906117a0565b6001600160a01b0385166000908152600f60205260408120829055600e80549091906106e19084906117c2565b9091555050505b50919050565b6106f66115ca565b600180546001600160a01b0319166001600160a01b0383169081179091556040519081527f906a1c6bd7e3091ea86693dd029a831c19049ce77f1dce2ce0bab1cacbabce22906020015b60405180910390a150565b6107536115ca565b60055460ff161515811515146107ba576005805460ff191682151590811790915560ff161561078157426004555b60055460405160ff909116151581527f8fb6c181ee25a520cf3dd6565006ef91229fcfe5a989566c2a3b8c115570cec590602001610740565b50565b6107c56115ca565b600280546001600160a01b0319166001600160a01b0392909216919091179055565b60006009546008546107f99190611789565b905090565b61080661163c565b3361080f611548565b600b5561081a610f30565b600a556001600160a01b0381161561086157610835816104b4565b6001600160a01b0382166000908152600d6020908152604080832093909355600b54600c909152919020555b600082116108aa5760405162461bcd60e51b8152602060048201526011602482015270043616e6e6f74207769746864726177203607c1b60448201526064015b60405180910390fd5b33600090815260146020526040812054906108c58285611789565b905080600e60008282546108d99190611776565b9091555050336000908152600f6020526040812080548392906108fd908490611776565b9250508190555083601260008282546109169190611776565b9091555050336000908152601360205260408120805486929061093a908490611776565b909155505060065460405163a9059cbb60e01b8152336004820152602481018690526001600160a01b039091169063a9059cbb906044016020604051808303816000875af1158015610990573d6000803e3d6000fd5b505050506040513d601f19601f820116820180604052508101906109b491906118df565b5060405184815233907f7084f5476618d8e60b11ef0d7d3f06914655adb8793e28ff7f018d4c76d505d59060200160405180910390a25050506107ba6001600355565b6002546001600160a01b03163314610a645760405162461bcd60e51b815260206004820152602a60248201527f43616c6c6572206973206e6f742052657761726473446973747269627574696f6044820152691b8818dbdb9d1c9858dd60b21b60648201526084016108a1565b6000610a6e611548565b600b55610a79610f30565b600a556001600160a01b03811615610ac057610a94816104b4565b6001600160a01b0382166000908152600d6020908152604080832093909355600b54600c909152919020555b6007544210610ade57600954610ad690836117a0565b600855610b20565b600042600754610aee9190611776565b9050600060085482610b009190611789565b600954909150610b1082866117c2565b610b1a91906117a0565b60085550505b6005546040516370a0823160e01b815230600482015260009161010090046001600160a01b0316906370a0823190602401602060405180830381865afa158015610b6e573d6000803e3d6000fd5b505050506040513d601f19601f82011682018060405250810190610b9291906118c6565b6005546006549192506001600160a01b036101009091048116911603610bc257601254610bbf9082611776565b90505b600954610bcf90826117a0565b6008541115610c205760405162461bcd60e51b815260206004820152601860248201527f50726f76696465642072657761726420746f6f2068696768000000000000000060448201526064016108a1565b42600a5560095442610c3291906117c2565b6007556040518381527fde88a922e0d3b88b24e9623efeb464919c6bf9f66857a65e2bfcf2ce87a9433d9060200160405180910390a1505050565b610c7561163c565b33610c7e611548565b600b55610c89610f30565b600a556001600160a01b03811615610cd057610ca4816104b4565b6001600160a01b0382166000908152600d6020908152604080832093909355600b54600c909152919020555b336000908152600d60205260409020548015610daa57336000818152600d602052604080822091909155600554905163a9059cbb60e01b815260048101929092526024820183905261010090046001600160a01b03169063a9059cbb906044016020604051808303816000875af1158015610d4f573d6000803e3d6000fd5b505050506040513d601f19601f82011682018060405250810190610d7391906118df565b5060405181815233907fe2403640ba68fed3a2f88b7557551d1993f84b99bb10ff833f0cf8db0c5e04869060200160405180910390a25b5050610db66001600355565b565b60108054610dc5906117d5565b80601f0160208091040260200160405190810160405280929190818152602001828054610df1906117d5565b8015610e3e5780601f10610e1357610100808354040283529160200191610e3e565b820191906000526020600020905b815481529060010190602001808311610e2157829003601f168201915b505050505081565b6001546001600160a01b03163314610ebe5760405162461bcd60e51b815260206004820152603560248201527f596f75206d757374206265206e6f6d696e61746564206265666f726520796f7560448201527402063616e20616363657074206f776e65727368697605c1b60648201526084016108a1565b600054600154604080516001600160a01b0393841681529290911660208301527fb532073b38c83145e3e5135377a08bf9aab55bc0fd7c1179cd4fb995d2a5159c910160405180910390a160018054600080546001600160a01b03199081166001600160a01b03841617909155169055565b6000600754610f3c4290565b10610f48575060075490565b504290565b610f556115ca565b6006546001600160a01b0390811690831603610fbd5760405162461bcd60e51b815260206004820152602160248201527f43616e6e6f7420776974686472617720746865207374616b696e6720746f6b656044820152603760f91b60648201526084016108a1565b60005460405163a9059cbb60e01b81526001600160a01b039182166004820152602481018390529083169063a9059cbb906044016020604051808303816000875af1158015611010573d6000803e3d6000fd5b505050506040513d601f19601f8201168201806040525081019061103491906118df565b50604080516001600160a01b0384168152602081018390527f8c1256b8896378cd5044f80c202f9772b9d77dc85c8a6eb51967210b09bfaa28910160405180910390a15050565b61108361163c565b60055460ff16156110fc5760405162461bcd60e51b815260206004820152603c60248201527f5468697320616374696f6e2063616e6e6f7420626520706572666f726d65642060448201527f7768696c652074686520636f6e7472616374206973207061757365640000000060648201526084016108a1565b33611105611548565b600b55611110610f30565b600a556001600160a01b038116156111575761112b816104b4565b6001600160a01b0382166000908152600d6020908152604080832093909355600b54600c909152919020555b60405163d23614b160e01b81526001600160a01b037f0000000000000000000000000000000000000000000000000000000000000000169063d23614b1906111a6903390601090600401611809565b602060405180830381865afa1580156111c3573d6000803e3d6000fd5b505050506040513d601f19601f820116820180604052508101906111e791906118df565b6112265760405162461bcd60e51b815260206004820152601060248201526f4d55535420424520494e20484f55534560801b60448201526064016108a1565b60115460405163b9209e3360e01b81523360048201526001600160a01b039091169063b9209e3390602401602060405180830381865afa15801561126e573d6000803e3d6000fd5b505050506040513d601f19601f8201168201806040525081019061129291906118df565b6112de5760405162461bcd60e51b815260206004820152601e60248201527f4d5553542048415645205645524946494544204143434553532050415353000060448201526064016108a1565b6000821161131f5760405162461bcd60e51b815260206004820152600e60248201526d043414e4e4f54205354414b4520360941b60448201526064016108a1565b816012600082825461133191906117c2565b909155505033600090815260136020526040812080548492906113559084906117c2565b9091555050336000908152601460205260408120546113749084611789565b905080600e600082825461138891906117c2565b9091555050336000908152600f6020526040812080548392906113ac9084906117c2565b90915550506006546040516323b872dd60e01b8152336004820152306024820152604481018590526001600160a01b03909116906323b872dd906064016020604051808303816000875af1158015611408573d6000803e3d6000fd5b505050506040513d601f19601f8201168201806040525081019061142c91906118df565b5060405183815233907f9e71bc8eea02a63969f509818f2dafb9254532904319f9dbda79b67bd34a5f3d9060200160405180910390a250506107ba6001600355565b6114766115ca565b60075442116115135760405162461bcd60e51b815260206004820152605860248201527f50726576696f7573207265776172647320706572696f64206d7573742062652060448201527f636f6d706c657465206265666f7265206368616e67696e67207468652064757260648201527f6174696f6e20666f7220746865206e657720706572696f640000000000000000608482015260a4016108a1565b60098190556040518181527ffb46ca5a5e06d4540d6387b930a7c978bce0db5f449ec6b3f5d07c6e1d44f2d390602001610740565b6000600e5460000361155b5750600b5490565b600e54600854600a5461156c610f30565b6115769190611776565b6115809190611789565b61159290670de0b6b3a7640000611789565b61159c91906117a0565b600b546107f991906117c2565b336000908152601360205260409020546115c2906107fe565b610db6610c6d565b6000546001600160a01b03163314610db65760405162461bcd60e51b815260206004820152602f60248201527f4f6e6c792074686520636f6e7472616374206f776e6572206d6179207065726660448201526e37b936903a3434b99030b1ba34b7b760891b60648201526084016108a1565b60026003540361165f57604051633ee5aeb560e01b815260040160405180910390fd5b6002600355565b80356001600160a01b038116811461167d57600080fd5b919050565b60006020828403121561169457600080fd5b61169d82611666565b9392505050565b80151581146107ba57600080fd5b6000602082840312156116c457600080fd5b813561169d816116a4565b6000602082840312156116e157600080fd5b5035919050565b602081526000825180602084015260005b8181101561171657602081860181015160408684010152016116f9565b506000604082850101526040601f19601f83011684010191505092915050565b6000806040838503121561174957600080fd5b61175283611666565b946020939093013593505050565b634e487b7160e01b600052601160045260246000fd5b8181038181111561052b5761052b611760565b808202811582820484141761052b5761052b611760565b6000826117bd57634e487b7160e01b600052601260045260246000fd5b500490565b8082018082111561052b5761052b611760565b600181811c908216806117e957607f821691505b6020821081036106e857634e487b7160e01b600052602260045260246000fd5b6001600160a01b03831681526040602082015281546000908190600181811c9082168061183757607f821691505b60208210810361185557634e487b7160e01b84526022600452602484fd5b6040860182905260608601818015611874576001811461188a576118b8565b60ff198516825283151560051b820195506118b8565b60008981526020902060005b858110156118b257815484820152600190910190602001611896565b83019650505b509398975050505050505050565b6000602082840312156118d857600080fd5b5051919050565b6000602082840312156118f157600080fd5b815161169d816116a456fea2646970667358221220392d3a6f904c456da2ee83b095b2a0acfbf07760863cd1742894af51c540c99c64736f6c634300081e0033a2646970667358221220aa5f973d3006ccc1cc4fdb352d1207117ce560da9ce9fba10c04a48878990bca64736f6c634300081e0033",
  "linkReferences": {},
  "deployedLinkReferences": {}
}