{
  "_format": "hh-sol-artifact-1",
  "contractName": "SCVirtualAssetEvents",
  "sourceName": "SuperChamps/contracts/Ecosystem/SCVirtualAssetEvents.sol",
  "abi": [
    {
      "inputs": [
        {
          "internalType": "contract ISCVirtualAssetEventsFactory",
          "name": "factory_",
          "type": "address"
        },
        {
          "internalType": "string",
          "name": "game_",
          "type": "string"
        }
      ],
      "stateMutability": "nonpayable",
      "type": "constructor"
    },
    {
      "anonymous": false,
      "inputs": [
        {
          "indexed": false,
          "internalType": "string",
          "name": "user_id",
          "type": "string"
        },
        {
          "indexed": false,
          "internalType": "string",
          "name": "data",
          "type": "string"
        }
      ],
      "name": "GameUserActivity",
      "type": "event"
    },
    {
      "anonymous": false,
      "inputs": [
        {
          "indexed": false,
          "internalType": "string",
          "name": "user_id",
          "type": "string"
        },
        {
          "indexed": false,
          "internalType": "string",
          "name": "data",
          "type": "string"
        },
        {
          "indexed": false,
          "internalType": "bytes",
          "name": "sign",
          "type": "bytes"
        }
      ],
      "name": "GameUserActivityWithSign",
      "type": "event"
    },
    {
      "anonymous": false,
      "inputs": [
        {
          "indexed": false,
          "internalType": "string",
          "name": "user_id",
          "type": "string"
        },
        {
          "indexed": false,
          "internalType": "string",
          "name": "asset_id",
          "type": "string"
        },
        {
          "indexed": false,
          "internalType": "int256",
          "name": "delta",
          "type": "int256"
        },
        {
          "indexed": false,
          "internalType": "string",
          "name": "data",
          "type": "string"
        }
      ],
      "name": "GameUserAsset",
      "type": "event"
    },
    {
      "anonymous": false,
      "inputs": [
        {
          "indexed": false,
          "internalType": "string",
          "name": "user_id",
          "type": "string"
        },
        {
          "indexed": false,
          "internalType": "string",
          "name": "asset_id",
          "type": "string"
        },
        {
          "indexed": false,
          "internalType": "int256",
          "name": "delta",
          "type": "int256"
        },
        {
          "indexed": false,
          "internalType": "string",
          "name": "data",
          "type": "string"
        },
        {
          "indexed": false,
          "internalType": "bytes",
          "name": "sign",
          "type": "bytes"
        }
      ],
      "name": "GameUserAssetWithSign",
      "type": "event"
    },
    {
      "inputs": [
        {
          "internalType": "string",
          "name": "user_id",
          "type": "string"
        },
        {
          "internalType": "string",
          "name": "data",
          "type": "string"
        }
      ],
      "name": "EmitGameUserActivity",
      "outputs": [],
      "stateMutability": "nonpayable",
      "type": "function"
    },
    {
      "inputs": [
        {
          "internalType": "string",
          "name": "user_id",
          "type": "string"
        },
        {
          "internalType": "string",
          "name": "data",
          "type": "string"
        },
        {
          "internalType": "bytes",
          "name": "sign",
          "type": "bytes"
        }
      ],
      "name": "EmitGameUserActivityWithSign",
      "outputs": [],
      "stateMutability": "nonpayable",
      "type": "function"
    },
    {
      "inputs": [
        {
          "internalType": "string",
          "name": "user_id",
          "type": "string"
        },
        {
          "internalType": "string",
          "name": "asset_id",
          "type": "string"
        },
        {
          "internalType": "int256",
          "name": "delta",
          "type": "int256"
        },
        {
          "internalType": "string",
          "name": "data",
          "type": "string"
        }
      ],
      "name": "EmitGameUserAsset",
      "outputs": [],
      "stateMutability": "nonpayable",
      "type": "function"
    },
    {
      "inputs": [
        {
          "internalType": "string",
          "name": "user_id",
          "type": "string"
        },
        {
          "internalType": "string",
          "name": "asset_id",
          "type": "string"
        },
        {
          "internalType": "int256",
          "name": "delta",
          "type": "int256"
        },
        {
          "internalType": "string",
          "name": "data",
          "type": "string"
        },
        {
          "internalType": "bytes",
          "name": "sign",
          "type": "bytes"
        }
      ],
      "name": "EmitGameUserAssetWithSign",
      "outputs": [],
      "stateMutability": "nonpayable",
      "type": "function"
    },
    {
      "inputs": [],
      "name": "game",
      "outputs": [
        {
          "internalType": "string",
          "name": "",
          "type": "string"
        }
      ],
      "stateMutability": "view",
      "type": "function"
    }
  ],
  "bytecode": "0x608060405234801561001057600080fd5b50604051610bc3380380610bc383398101604081905261002f91610074565b600080546001600160a01b0319166001600160a01b038416179055600161005682826101e9565b5050506102a7565b634e487b7160e01b600052604160045260246000fd5b6000806040838503121561008757600080fd5b82516001600160a01b038116811461009e57600080fd5b60208401519092506001600160401b038111156100ba57600080fd5b8301601f810185136100cb57600080fd5b80516001600160401b038111156100e4576100e461005e565b604051601f8201601f19908116603f011681016001600160401b03811182821017156101125761011261005e565b60405281815282820160200187101561012a57600080fd5b60005b828110156101495760208185018101518383018201520161012d565b506000602083830101528093505050509250929050565b600181811c9082168061017457607f821691505b60208210810361019457634e487b7160e01b600052602260045260246000fd5b50919050565b601f8211156101e457806000526020600020601f840160051c810160208510156101c15750805b601f840160051c820191505b818110156101e157600081556001016101cd565b50505b505050565b81516001600160401b038111156102025761020261005e565b610216816102108454610160565b8461019a565b6020601f82116001811461024a57600083156102325750848201515b600019600385901b1c1916600184901b1784556101e1565b600084815260208120601f198516915b8281101561027a578785015182556020948501946001909201910161025a565b50848210156102985786840151600019600387901b60f8161c191681555b50505050600190811b01905550565b61090d806102b66000396000f3fe608060405234801561001057600080fd5b50600436106100575760003560e01c8063514660151461005c578063711ba825146100715780638c7a3e2c14610084578063c3fe3e2814610097578063df885024146100b5575b600080fd5b61006f61006a36600461042d565b6100c8565b005b61006f61007f36600461049c565b6101c0565b61006f61009236600461057b565b610212565b61009f61025b565b6040516100ac919061061e565b60405180910390f35b61006f6100c336600461066c565b6102e9565b600054604051635d0cf4ab60e11b81523360048201526001600160a01b039091169063ba19e95690602401602060405180830381865afa158015610110573d6000803e3d6000fd5b505050506040513d601f19601f820116820180604052508101906101349190610719565b61017d5760405162461bcd60e51b81526020600482015260156024820152742727aa102822a926a4a9a9a4a7a722a2102aa9a2a960591b60448201526064015b60405180910390fd5b7f327cc6e3532e2d8976875ffc771434060dc4fc22f75a5adb6a209a6108343408848484846040516101b2949392919061076b565b60405180910390a150505050565b7f241a52d07e4ad6e3f5586b38c9babd1f3b2180b3a863e05492e62d57284149308989898989898989896040516101ff9998979695949392919061079d565b60405180910390a1505050505050505050565b7f729fedf706b78debb34ef30843b5dae81b19d0ee8dbdd5457b925ac843c2e0e986868686868660405161024b96959493929190610804565b60405180910390a1505050505050565b600180546102689061084d565b80601f01602080910402602001604051908101604052809291908181526020018280546102949061084d565b80156102e15780601f106102b6576101008083540402835291602001916102e1565b820191906000526020600020905b8154815290600101906020018083116102c457829003601f168201915b505050505081565b600054604051635d0cf4ab60e11b81523360048201526001600160a01b039091169063ba19e95690602401602060405180830381865afa158015610331573d6000803e3d6000fd5b505050506040513d601f19601f820116820180604052508101906103559190610719565b6103995760405162461bcd60e51b81526020600482015260156024820152742727aa102822a926a4a9a9a4a7a722a2102aa9a2a960591b6044820152606401610174565b7fe0c2ea88b03bd9fc434842dfdd2939fa82c61ff6825bf0868bbc91d9bea2209c878787878787876040516103d49796959493929190610887565b60405180910390a150505050505050565b60008083601f8401126103f757600080fd5b5081356001600160401b0381111561040e57600080fd5b60208301915083602082850101111561042657600080fd5b9250929050565b6000806000806040858703121561044357600080fd5b84356001600160401b0381111561045957600080fd5b610465878288016103e5565b90955093505060208501356001600160401b0381111561048457600080fd5b610490878288016103e5565b95989497509550505050565b600080600080600080600080600060a08a8c0312156104ba57600080fd5b89356001600160401b038111156104d057600080fd5b6104dc8c828d016103e5565b909a5098505060208a01356001600160401b038111156104fb57600080fd5b6105078c828d016103e5565b90985096505060408a0135945060608a01356001600160401b0381111561052d57600080fd5b6105398c828d016103e5565b90955093505060808a01356001600160401b0381111561055857600080fd5b6105648c828d016103e5565b915080935050809150509295985092959850929598565b6000806000806000806060878903121561059457600080fd5b86356001600160401b038111156105aa57600080fd5b6105b689828a016103e5565b90975095505060208701356001600160401b038111156105d557600080fd5b6105e189828a016103e5565b90955093505060408701356001600160401b0381111561060057600080fd5b61060c89828a016103e5565b979a9699509497509295939492505050565b602081526000825180602084015260005b8181101561064c576020818601810151604086840101520161062f565b506000604082850101526040601f19601f83011684010191505092915050565b60008060008060008060006080888a03121561068757600080fd5b87356001600160401b0381111561069d57600080fd5b6106a98a828b016103e5565b90985096505060208801356001600160401b038111156106c857600080fd5b6106d48a828b016103e5565b9096509450506040880135925060608801356001600160401b038111156106fa57600080fd5b6107068a828b016103e5565b989b979a50959850939692959293505050565b60006020828403121561072b57600080fd5b8151801515811461073b57600080fd5b9392505050565b81835281816020850137506000828201602090810191909152601f909101601f19169091010190565b60408152600061077f604083018688610742565b8281036020840152610792818587610742565b979650505050505050565b60a0815260006107b160a083018b8d610742565b82810360208401526107c4818a8c610742565b905087604084015282810360608401526107df818789610742565b905082810360808401526107f4818587610742565b9c9b505050505050505050505050565b60608152600061081860608301888a610742565b828103602084015261082b818789610742565b90508281036040840152610840818587610742565b9998505050505050505050565b600181811c9082168061086157607f821691505b60208210810361088157634e487b7160e01b600052602260045260246000fd5b50919050565b60808152600061089b60808301898b610742565b82810360208401526108ae81888a610742565b905085604084015282810360608401526108c9818587610742565b9a995050505050505050505056fea2646970667358221220bdd3b90042a12424b18fcde4ea2000b12e213f774329dac0a9078df729ba82ae64736f6c634300081e0033",
  "linkReferences": {},
  "deployedLinkReferences": {}
}