{
  "_format": "hh-sol-artifact-1",
  "contractName": "SCVirtualAssetEvents",
  "sourceName": "SuperChamps/contracts/Ecosystem/SCVirtualAssetEvents.sol",
  "abi": [
    {
      "inputs": [
        {
          "internalType": "contract ISCVirtualAssetEventsFactory",
          "name": "factory_",
          "type": "address"
        },
        {
          "internalType": "string",
          "name": "game_",
          "type": "string"
        }
      ],
      "stateMutability": "nonpayable",
      "type": "constructor"
    },
    {
      "anonymous": false,
      "inputs": [
        {
          "indexed": false,
          "internalType": "string",
          "name": "user_id",
          "type": "string"
        },
        {
          "indexed": false,
          "internalType": "string",
          "name": "data",
          "type": "string"
        }
      ],
      "name": "GameUserActivity",
      "type": "event"
    },
    {
      "anonymous": false,
      "inputs": [
        {
          "indexed": false,
          "internalType": "string",
          "name": "user_id",
          "type": "string"
        },
        {
          "indexed": false,
          "internalType": "string",
          "name": "data",
          "type": "string"
        },
        {
          "indexed": false,
          "internalType": "bytes",
          "name": "sign",
          "type": "bytes"
        }
      ],
      "name": "GameUserActivityWithSign",
      "type": "event"
    },
    {
      "anonymous": false,
      "inputs": [
        {
          "indexed": false,
          "internalType": "string",
          "name": "user_id",
          "type": "string"
        },
        {
          "indexed": false,
          "internalType": "string",
          "name": "asset_id",
          "type": "string"
        },
        {
          "indexed": false,
          "internalType": "int256",
          "name": "delta",
          "type": "int256"
        },
        {
          "indexed": false,
          "internalType": "string",
          "name": "data",
          "type": "string"
        }
      ],
      "name": "GameUserAsset",
      "type": "event"
    },
    {
      "anonymous": false,
      "inputs": [
        {
          "indexed": false,
          "internalType": "string",
          "name": "user_id",
          "type": "string"
        },
        {
          "indexed": false,
          "internalType": "string",
          "name": "asset_id",
          "type": "string"
        },
        {
          "indexed": false,
          "internalType": "int256",
          "name": "delta",
          "type": "int256"
        },
        {
          "indexed": false,
          "internalType": "string",
          "name": "data",
          "type": "string"
        },
        {
          "indexed": false,
          "internalType": "bytes",
          "name": "sign",
          "type": "bytes"
        }
      ],
      "name": "GameUserAssetWithSign",
      "type": "event"
    },
    {
      "inputs": [
        {
          "internalType": "string",
          "name": "user_id",
          "type": "string"
        },
        {
          "internalType": "string",
          "name": "data",
          "type": "string"
        }
      ],
      "name": "EmitGameUserActivity",
      "outputs": [],
      "stateMutability": "nonpayable",
      "type": "function"
    },
    {
      "inputs": [
        {
          "internalType": "string",
          "name": "user_id",
          "type": "string"
        },
        {
          "internalType": "string",
          "name": "data",
          "type": "string"
        },
        {
          "internalType": "bytes",
          "name": "sign",
          "type": "bytes"
        }
      ],
      "name": "EmitGameUserActivityWithSign",
      "outputs": [],
      "stateMutability": "nonpayable",
      "type": "function"
    },
    {
      "inputs": [
        {
          "internalType": "string",
          "name": "user_id",
          "type": "string"
        },
        {
          "internalType": "string",
          "name": "asset_id",
          "type": "string"
        },
        {
          "internalType": "int256",
          "name": "delta",
          "type": "int256"
        },
        {
          "internalType": "string",
          "name": "data",
          "type": "string"
        }
      ],
      "name": "EmitGameUserAsset",
      "outputs": [],
      "stateMutability": "nonpayable",
      "type": "function"
    },
    {
      "inputs": [
        {
          "internalType": "string",
          "name": "user_id",
          "type": "string"
        },
        {
          "internalType": "string",
          "name": "asset_id",
          "type": "string"
        },
        {
          "internalType": "int256",
          "name": "delta",
          "type": "int256"
        },
        {
          "internalType": "string",
          "name": "data",
          "type": "string"
        },
        {
          "internalType": "bytes",
          "name": "sign",
          "type": "bytes"
        }
      ],
      "name": "EmitGameUserAssetWithSign",
      "outputs": [],
      "stateMutability": "nonpayable",
      "type": "function"
    },
    {
      "inputs": [],
      "name": "game",
      "outputs": [
        {
          "internalType": "string",
          "name": "",
          "type": "string"
        }
      ],
      "stateMutability": "view",
      "type": "function"
    }
  ],
  "bytecode": "0x60806040523480156200001157600080fd5b5060405162000bca38038062000bca83398101604081905262000034916200007c565b600080546001600160a01b0319166001600160a01b03841617905560016200005d828262000203565b505050620002cf565b634e487b7160e01b600052604160045260246000fd5b600080604083850312156200009057600080fd5b82516001600160a01b0381168114620000a857600080fd5b602084810151919350906001600160401b0380821115620000c857600080fd5b818601915086601f830112620000dd57600080fd5b815181811115620000f257620000f262000066565b604051601f8201601f19908116603f011681019083821181831017156200011d576200011d62000066565b8160405282815289868487010111156200013657600080fd5b600093505b828410156200015a57848401860151818501870152928501926200013b565b60008684830101528096505050505050509250929050565b600181811c908216806200018757607f821691505b602082108103620001a857634e487b7160e01b600052602260045260246000fd5b50919050565b601f821115620001fe576000816000526020600020601f850160051c81016020861015620001d95750805b601f850160051c820191505b81811015620001fa57828155600101620001e5565b5050505b505050565b81516001600160401b038111156200021f576200021f62000066565b620002378162000230845462000172565b84620001ae565b602080601f8311600181146200026f5760008415620002565750858301515b600019600386901b1c1916600185901b178555620001fa565b600085815260208120601f198616915b82811015620002a0578886015182559484019460019091019084016200027f565b5085821015620002bf5787850151600019600388901b60f8161c191681555b5050505050600190811b01905550565b6108eb80620002df6000396000f3fe608060405234801561001057600080fd5b50600436106100575760003560e01c8063514660151461005c578063711ba825146100715780638c7a3e2c14610084578063c3fe3e2814610097578063df885024146100b5575b600080fd5b61006f61006a36600461042e565b6100c8565b005b61006f61007f36600461049a565b6101c0565b61006f61009236600461056a565b610212565b61009f61025b565b6040516100ac9190610604565b60405180910390f35b61006f6100c3366004610653565b6102e9565b600054604051635d0cf4ab60e11b81523360048201526001600160a01b039091169063ba19e95690602401602060405180830381865afa158015610110573d6000803e3d6000fd5b505050506040513d601f19601f8201168201806040525081019061013491906106f7565b61017d5760405162461bcd60e51b81526020600482015260156024820152742727aa102822a926a4a9a9a4a7a722a2102aa9a2a960591b60448201526064015b60405180910390fd5b7f327cc6e3532e2d8976875ffc771434060dc4fc22f75a5adb6a209a6108343408848484846040516101b29493929190610749565b60405180910390a150505050565b7f241a52d07e4ad6e3f5586b38c9babd1f3b2180b3a863e05492e62d57284149308989898989898989896040516101ff9998979695949392919061077b565b60405180910390a1505050505050505050565b7f729fedf706b78debb34ef30843b5dae81b19d0ee8dbdd5457b925ac843c2e0e986868686868660405161024b969594939291906107e2565b60405180910390a1505050505050565b600180546102689061082b565b80601f01602080910402602001604051908101604052809291908181526020018280546102949061082b565b80156102e15780601f106102b6576101008083540402835291602001916102e1565b820191906000526020600020905b8154815290600101906020018083116102c457829003601f168201915b505050505081565b600054604051635d0cf4ab60e11b81523360048201526001600160a01b039091169063ba19e95690602401602060405180830381865afa158015610331573d6000803e3d6000fd5b505050506040513d601f19601f8201168201806040525081019061035591906106f7565b6103995760405162461bcd60e51b81526020600482015260156024820152742727aa102822a926a4a9a9a4a7a722a2102aa9a2a960591b6044820152606401610174565b7fe0c2ea88b03bd9fc434842dfdd2939fa82c61ff6825bf0868bbc91d9bea2209c878787878787876040516103d49796959493929190610865565b60405180910390a150505050505050565b60008083601f8401126103f757600080fd5b50813567ffffffffffffffff81111561040f57600080fd5b60208301915083602082850101111561042757600080fd5b9250929050565b6000806000806040858703121561044457600080fd5b843567ffffffffffffffff8082111561045c57600080fd5b610468888389016103e5565b9096509450602087013591508082111561048157600080fd5b5061048e878288016103e5565b95989497509550505050565b600080600080600080600080600060a08a8c0312156104b857600080fd5b893567ffffffffffffffff808211156104d057600080fd5b6104dc8d838e016103e5565b909b50995060208c01359150808211156104f557600080fd5b6105018d838e016103e5565b909950975060408c0135965060608c013591508082111561052157600080fd5b61052d8d838e016103e5565b909650945060808c013591508082111561054657600080fd5b506105538c828d016103e5565b915080935050809150509295985092959850929598565b6000806000806000806060878903121561058357600080fd5b863567ffffffffffffffff8082111561059b57600080fd5b6105a78a838b016103e5565b909850965060208901359150808211156105c057600080fd5b6105cc8a838b016103e5565b909650945060408901359150808211156105e557600080fd5b506105f289828a016103e5565b979a9699509497509295939492505050565b60006020808352835180602085015260005b8181101561063257858101830151858201604001528201610616565b506000604082860101526040601f19601f8301168501019250505092915050565b60008060008060008060006080888a03121561066e57600080fd5b873567ffffffffffffffff8082111561068657600080fd5b6106928b838c016103e5565b909950975060208a01359150808211156106ab57600080fd5b6106b78b838c016103e5565b909750955060408a0135945060608a01359150808211156106d757600080fd5b506106e48a828b016103e5565b989b979a50959850939692959293505050565b60006020828403121561070957600080fd5b8151801515811461071957600080fd5b9392505050565b81835281816020850137506000828201602090810191909152601f909101601f19169091010190565b60408152600061075d604083018688610720565b8281036020840152610770818587610720565b979650505050505050565b60a08152600061078f60a083018b8d610720565b82810360208401526107a2818a8c610720565b905087604084015282810360608401526107bd818789610720565b905082810360808401526107d2818587610720565b9c9b505050505050505050505050565b6060815260006107f660608301888a610720565b8281036020840152610809818789610720565b9050828103604084015261081e818587610720565b9998505050505050505050565b600181811c9082168061083f57607f821691505b60208210810361085f57634e487b7160e01b600052602260045260246000fd5b50919050565b60808152600061087960808301898b610720565b828103602084015261088c81888a610720565b905085604084015282810360608401526108a7818587610720565b9a995050505050505050505056fea2646970667358221220d7b0d9d212a7c37a57f637fca2d99f630b7b54473d1a314b230cd87861f2522d64736f6c63430008180033",
  "linkReferences": {},
  "deployedLinkReferences": {}
}