{
  "_format": "hh-sol-artifact-1",
  "contractName": "SCVirtualAssetEventsFactory",
  "sourceName": "SuperChamps/contracts/Ecosystem/SCVirtualAssetEvents.sol",
  "abi": [
    {
      "inputs": [
        {
          "internalType": "address",
          "name": "permissions_",
          "type": "address"
        }
      ],
      "stateMutability": "nonpayable",
      "type": "constructor"
    },
    {
      "inputs": [
        {
          "internalType": "string",
          "name": "game_id",
          "type": "string"
        }
      ],
      "name": "deployGameEvents",
      "outputs": [],
      "stateMutability": "nonpayable",
      "type": "function"
    },
    {
      "inputs": [
        {
          "internalType": "string",
          "name": "",
          "type": "string"
        }
      ],
      "name": "game_events",
      "outputs": [
        {
          "internalType": "contract SCVirtualAssetEvents",
          "name": "",
          "type": "address"
        }
      ],
      "stateMutability": "view",
      "type": "function"
    },
    {
      "inputs": [],
      "name": "games",
      "outputs": [
        {
          "internalType": "string[]",
          "name": "_games_",
          "type": "string[]"
        }
      ],
      "stateMutability": "view",
      "type": "function"
    },
    {
      "inputs": [
        {
          "internalType": "address[]",
          "name": "users",
          "type": "address[]"
        },
        {
          "internalType": "bool",
          "name": "state",
          "type": "bool"
        }
      ],
      "name": "permissionUser",
      "outputs": [],
      "stateMutability": "nonpayable",
      "type": "function"
    },
    {
      "inputs": [],
      "name": "permissions",
      "outputs": [
        {
          "internalType": "contract IPermissionsManager",
          "name": "",
          "type": "address"
        }
      ],
      "stateMutability": "view",
      "type": "function"
    },
    {
      "inputs": [
        {
          "internalType": "address",
          "name": "",
          "type": "address"
        }
      ],
      "name": "permissions_users",
      "outputs": [
        {
          "internalType": "bool",
          "name": "",
          "type": "bool"
        }
      ],
      "stateMutability": "view",
      "type": "function"
    }
  ],
  "bytecode": "0x60a060405234801561001057600080fd5b5060405161179138038061179183398101604081905261002f91610040565b6001600160a01b0316608052610070565b60006020828403121561005257600080fd5b81516001600160a01b038116811461006957600080fd5b9392505050565b6080516116f96100986000396000818160fb01528181610182015261040b01526116f96000f3fe60806040523480156200001157600080fd5b50600436106200006a5760003560e01c80634d30dd24146200006f57806369f0ff1814620000c3578063955a015b14620000dc578063ab8c71c014620000f5578063ba19e956146200011d578063dd784ea21462000154575b600080fd5b620000a66200008036600462000655565b80516020818301810180516001825292820191909301209152546001600160a01b031681565b6040516001600160a01b0390911681526020015b60405180910390f35b620000da620000d43660046200072f565b6200016b565b005b620000e6620002af565b604051620000ba919062000851565b620000a67f000000000000000000000000000000000000000000000000000000000000000081565b620001436200012e366004620008b9565b60006020819052908152604090205460ff1681565b6040519015158152602001620000ba565b620000da6200016536600462000655565b620003f4565b604051634f4bdc7b60e11b81526001600160a01b037f00000000000000000000000000000000000000000000000000000000000000001690639e97b8f690620001bb9060049033908201620008de565b602060405180830381865afa158015620001d9573d6000803e3d6000fd5b505050506040513d601f19601f82011682018060405250810190620001ff919062000919565b620002475760405162461bcd60e51b81526020600482015260136024820152722737ba10309029bcb9ba32b6b99020b236b4b760691b60448201526064015b60405180910390fd5b815160005b81811015620002a957826000808684815181106200026e576200026e62000939565b6020908102919091018101516001600160a01b03168252810191909152604001600020805460ff19169115159190911790556001016200024c565b50505050565b6002546060908067ffffffffffffffff811115620002d157620002d16200060b565b6040519080825280602002602001820160405280156200030657816020015b6060815260200190600190039081620002f05790505b50915060005b81811015620003ef57600281815481106200032b576200032b62000939565b90600052602060002001805462000342906200094f565b80601f016020809104026020016040519081016040528092919081815260200182805462000370906200094f565b8015620003c15780601f106200039557610100808354040283529160200191620003c1565b820191906000526020600020905b815481529060010190602001808311620003a357829003601f168201915b5050505050838281518110620003db57620003db62000939565b60209081029190910101526001016200030c565b505090565b604051634f4bdc7b60e11b81526001600160a01b037f00000000000000000000000000000000000000000000000000000000000000001690639e97b8f690620004449060049033908201620008de565b602060405180830381865afa15801562000462573d6000803e3d6000fd5b505050506040513d601f19601f8201168201806040525081019062000488919062000919565b620004cc5760405162461bcd60e51b81526020600482015260136024820152722737ba10309029bcb9ba32b6b99020b236b4b760691b60448201526064016200023e565b60006001600160a01b0316600182604051620004e991906200098b565b908152604051908190036020019020546001600160a01b0316146200053f5760405162461bcd60e51b815260206004820152600b60248201526a47414d452045584953545360a81b60448201526064016200023e565b30816040516200054f90620005fd565b6200055c929190620009a9565b604051809103906000f08015801562000579573d6000803e3d6000fd5b506001826040516200058c91906200098b565b90815260405190819003602001902080546001600160a01b03929092166001600160a01b0319909216919091179055600280546001810182556000919091527f405787fa12a823e0f2b7631cc41b3ba8828b3321ca811111fa75cd3aa3bb5ace01620005f9828262000a2c565b5050565b610bca8062000afa83390190565b634e487b7160e01b600052604160045260246000fd5b604051601f8201601f1916810167ffffffffffffffff811182821017156200064d576200064d6200060b565b604052919050565b600060208083850312156200066957600080fd5b823567ffffffffffffffff808211156200068257600080fd5b818501915085601f8301126200069757600080fd5b813581811115620006ac57620006ac6200060b565b620006c0601f8201601f1916850162000621565b91508082528684828501011115620006d757600080fd5b8084840185840137600090820190930192909252509392505050565b80356001600160a01b03811681146200070b57600080fd5b919050565b80151581146200071f57600080fd5b50565b80356200070b8162000710565b600080604083850312156200074357600080fd5b823567ffffffffffffffff808211156200075c57600080fd5b818501915085601f8301126200077157600080fd5b81356020828211156200078857620007886200060b565b8160051b92506200079b81840162000621565b8281529284018101928181019089851115620007b657600080fd5b948201945b84861015620007df57620007cf86620006f3565b82529482019490820190620007bb565b9650620007f0905087820162000722565b9450505050509250929050565b60005b838110156200081a57818101518382015260200162000800565b50506000910152565b600081518084526200083d816020860160208601620007fd565b601f01601f19169290920160200192915050565b600060208083016020845280855180835260408601915060408160051b87010192506020870160005b82811015620008ac57603f198886030184526200089985835162000823565b945092850192908501906001016200087a565b5092979650505050505050565b600060208284031215620008cc57600080fd5b620008d782620006f3565b9392505050565b60408101600f84106200090157634e487b7160e01b600052602160045260246000fd5b9281526001600160a01b039190911660209091015290565b6000602082840312156200092c57600080fd5b8151620008d78162000710565b634e487b7160e01b600052603260045260246000fd5b600181811c908216806200096457607f821691505b6020821081036200098557634e487b7160e01b600052602260045260246000fd5b50919050565b600082516200099f818460208701620007fd565b9190910192915050565b6001600160a01b0383168152604060208201819052600090620009cf9083018462000823565b949350505050565b601f82111562000a27576000816000526020600020601f850160051c8101602086101562000a025750805b601f850160051c820191505b8181101562000a235782815560010162000a0e565b5050505b505050565b815167ffffffffffffffff81111562000a495762000a496200060b565b62000a618162000a5a84546200094f565b84620009d7565b602080601f83116001811462000a99576000841562000a805750858301515b600019600386901b1c1916600185901b17855562000a23565b600085815260208120601f198616915b8281101562000aca5788860151825594840194600190910190840162000aa9565b508582101562000ae95787850151600019600388901b60f8161c191681555b5050505050600190811b0190555056fe60806040523480156200001157600080fd5b5060405162000bca38038062000bca83398101604081905262000034916200007c565b600080546001600160a01b0319166001600160a01b03841617905560016200005d828262000203565b505050620002cf565b634e487b7160e01b600052604160045260246000fd5b600080604083850312156200009057600080fd5b82516001600160a01b0381168114620000a857600080fd5b602084810151919350906001600160401b0380821115620000c857600080fd5b818601915086601f830112620000dd57600080fd5b815181811115620000f257620000f262000066565b604051601f8201601f19908116603f011681019083821181831017156200011d576200011d62000066565b8160405282815289868487010111156200013657600080fd5b600093505b828410156200015a57848401860151818501870152928501926200013b565b60008684830101528096505050505050509250929050565b600181811c908216806200018757607f821691505b602082108103620001a857634e487b7160e01b600052602260045260246000fd5b50919050565b601f821115620001fe576000816000526020600020601f850160051c81016020861015620001d95750805b601f850160051c820191505b81811015620001fa57828155600101620001e5565b5050505b505050565b81516001600160401b038111156200021f576200021f62000066565b620002378162000230845462000172565b84620001ae565b602080601f8311600181146200026f5760008415620002565750858301515b600019600386901b1c1916600185901b178555620001fa565b600085815260208120601f198616915b82811015620002a0578886015182559484019460019091019084016200027f565b5085821015620002bf5787850151600019600388901b60f8161c191681555b5050505050600190811b01905550565b6108eb80620002df6000396000f3fe608060405234801561001057600080fd5b50600436106100575760003560e01c8063514660151461005c578063711ba825146100715780638c7a3e2c14610084578063c3fe3e2814610097578063df885024146100b5575b600080fd5b61006f61006a36600461042e565b6100c8565b005b61006f61007f36600461049a565b6101c0565b61006f61009236600461056a565b610212565b61009f61025b565b6040516100ac9190610604565b60405180910390f35b61006f6100c3366004610653565b6102e9565b600054604051635d0cf4ab60e11b81523360048201526001600160a01b039091169063ba19e95690602401602060405180830381865afa158015610110573d6000803e3d6000fd5b505050506040513d601f19601f8201168201806040525081019061013491906106f7565b61017d5760405162461bcd60e51b81526020600482015260156024820152742727aa102822a926a4a9a9a4a7a722a2102aa9a2a960591b60448201526064015b60405180910390fd5b7f327cc6e3532e2d8976875ffc771434060dc4fc22f75a5adb6a209a6108343408848484846040516101b29493929190610749565b60405180910390a150505050565b7f241a52d07e4ad6e3f5586b38c9babd1f3b2180b3a863e05492e62d57284149308989898989898989896040516101ff9998979695949392919061077b565b60405180910390a1505050505050505050565b7f729fedf706b78debb34ef30843b5dae81b19d0ee8dbdd5457b925ac843c2e0e986868686868660405161024b969594939291906107e2565b60405180910390a1505050505050565b600180546102689061082b565b80601f01602080910402602001604051908101604052809291908181526020018280546102949061082b565b80156102e15780601f106102b6576101008083540402835291602001916102e1565b820191906000526020600020905b8154815290600101906020018083116102c457829003601f168201915b505050505081565b600054604051635d0cf4ab60e11b81523360048201526001600160a01b039091169063ba19e95690602401602060405180830381865afa158015610331573d6000803e3d6000fd5b505050506040513d601f19601f8201168201806040525081019061035591906106f7565b6103995760405162461bcd60e51b81526020600482015260156024820152742727aa102822a926a4a9a9a4a7a722a2102aa9a2a960591b6044820152606401610174565b7fe0c2ea88b03bd9fc434842dfdd2939fa82c61ff6825bf0868bbc91d9bea2209c878787878787876040516103d49796959493929190610865565b60405180910390a150505050505050565b60008083601f8401126103f757600080fd5b50813567ffffffffffffffff81111561040f57600080fd5b60208301915083602082850101111561042757600080fd5b9250929050565b6000806000806040858703121561044457600080fd5b843567ffffffffffffffff8082111561045c57600080fd5b610468888389016103e5565b9096509450602087013591508082111561048157600080fd5b5061048e878288016103e5565b95989497509550505050565b600080600080600080600080600060a08a8c0312156104b857600080fd5b893567ffffffffffffffff808211156104d057600080fd5b6104dc8d838e016103e5565b909b50995060208c01359150808211156104f557600080fd5b6105018d838e016103e5565b909950975060408c0135965060608c013591508082111561052157600080fd5b61052d8d838e016103e5565b909650945060808c013591508082111561054657600080fd5b506105538c828d016103e5565b915080935050809150509295985092959850929598565b6000806000806000806060878903121561058357600080fd5b863567ffffffffffffffff8082111561059b57600080fd5b6105a78a838b016103e5565b909850965060208901359150808211156105c057600080fd5b6105cc8a838b016103e5565b909650945060408901359150808211156105e557600080fd5b506105f289828a016103e5565b979a9699509497509295939492505050565b60006020808352835180602085015260005b8181101561063257858101830151858201604001528201610616565b506000604082860101526040601f19601f8301168501019250505092915050565b60008060008060008060006080888a03121561066e57600080fd5b873567ffffffffffffffff8082111561068657600080fd5b6106928b838c016103e5565b909950975060208a01359150808211156106ab57600080fd5b6106b78b838c016103e5565b909750955060408a0135945060608a01359150808211156106d757600080fd5b506106e48a828b016103e5565b989b979a50959850939692959293505050565b60006020828403121561070957600080fd5b8151801515811461071957600080fd5b9392505050565b81835281816020850137506000828201602090810191909152601f909101601f19169091010190565b60408152600061075d604083018688610720565b8281036020840152610770818587610720565b979650505050505050565b60a08152600061078f60a083018b8d610720565b82810360208401526107a2818a8c610720565b905087604084015282810360608401526107bd818789610720565b905082810360808401526107d2818587610720565b9c9b505050505050505050505050565b6060815260006107f660608301888a610720565b8281036020840152610809818789610720565b9050828103604084015261081e818587610720565b9998505050505050505050565b600181811c9082168061083f57607f821691505b60208210810361085f57634e487b7160e01b600052602260045260246000fd5b50919050565b60808152600061087960808301898b610720565b828103602084015261088c81888a610720565b905085604084015282810360608401526108a7818587610720565b9a995050505050505050505056fea2646970667358221220d7b0d9d212a7c37a57f637fca2d99f630b7b54473d1a314b230cd87861f2522d64736f6c63430008180033a2646970667358221220246cdb6939a7186f56102adf7bf6aa57c5c0d2eb99f4ca2e241f5903f0bafdb564736f6c63430008180033",
  "linkReferences": {},
  "deployedLinkReferences": {}
}