{
  "_format": "hh-sol-artifact-1",
  "contractName": "SCVirtualAssetEventsFactory",
  "sourceName": "SuperChamps/contracts/Ecosystem/SCVirtualAssetEvents.sol",
  "abi": [
    {
      "inputs": [
        {
          "internalType": "address",
          "name": "permissions_",
          "type": "address"
        }
      ],
      "stateMutability": "nonpayable",
      "type": "constructor"
    },
    {
      "inputs": [
        {
          "internalType": "string",
          "name": "game_id",
          "type": "string"
        }
      ],
      "name": "deployGameEvents",
      "outputs": [],
      "stateMutability": "nonpayable",
      "type": "function"
    },
    {
      "inputs": [
        {
          "internalType": "string",
          "name": "",
          "type": "string"
        }
      ],
      "name": "game_events",
      "outputs": [
        {
          "internalType": "contract SCVirtualAssetEvents",
          "name": "",
          "type": "address"
        }
      ],
      "stateMutability": "view",
      "type": "function"
    },
    {
      "inputs": [],
      "name": "games",
      "outputs": [
        {
          "internalType": "string[]",
          "name": "_games_",
          "type": "string[]"
        }
      ],
      "stateMutability": "view",
      "type": "function"
    },
    {
      "inputs": [
        {
          "internalType": "address[]",
          "name": "users",
          "type": "address[]"
        },
        {
          "internalType": "bool",
          "name": "state",
          "type": "bool"
        }
      ],
      "name": "permissionUser",
      "outputs": [],
      "stateMutability": "nonpayable",
      "type": "function"
    },
    {
      "inputs": [],
      "name": "permissions",
      "outputs": [
        {
          "internalType": "contract IPermissionsManager",
          "name": "",
          "type": "address"
        }
      ],
      "stateMutability": "view",
      "type": "function"
    },
    {
      "inputs": [
        {
          "internalType": "address",
          "name": "",
          "type": "address"
        }
      ],
      "name": "permissions_users",
      "outputs": [
        {
          "internalType": "bool",
          "name": "",
          "type": "bool"
        }
      ],
      "stateMutability": "view",
      "type": "function"
    }
  ],
  "bytecode": "0x60a0604052348015600f57600080fd5b506040516116f93803806116f9833981016040819052602c91603c565b6001600160a01b0316608052606a565b600060208284031215604d57600080fd5b81516001600160a01b0381168114606357600080fd5b9392505050565b6080516116676100926000396000818160e70152818161016601526103cf01526116676000f3fe608060405234801561001057600080fd5b50600436106100625760003560e01c80634d30dd241461006757806369f0ff18146100b8578063955a015b146100cd578063ab8c71c0146100e2578063ba19e95614610109578063dd784ea21461013c575b600080fd5b61009b610075366004610601565b80516020818301810180516001825292820191909301209152546001600160a01b031681565b6040516001600160a01b0390911681526020015b60405180910390f35b6100cb6100c63660046106d3565b61014f565b005b6100d5610288565b6040516100af91906107ea565b61009b7f000000000000000000000000000000000000000000000000000000000000000081565b61012c61011736600461084f565b60006020819052908152604090205460ff1681565b60405190151581526020016100af565b6100cb61014a366004610601565b6103b8565b604051634f4bdc7b60e11b81526001600160a01b037f00000000000000000000000000000000000000000000000000000000000000001690639e97b8f69061019d9060049033908201610871565b602060405180830381865afa1580156101ba573d6000803e3d6000fd5b505050506040513d601f19601f820116820180604052508101906101de91906108ab565b6102255760405162461bcd60e51b81526020600482015260136024820152722737ba10309029bcb9ba32b6b99020b236b4b760691b60448201526064015b60405180910390fd5b815160005b818110156102825782600080868481518110610248576102486108c8565b6020908102919091018101516001600160a01b03168252810191909152604001600020805460ff191691151591909117905560010161022a565b50505050565b6002546060908067ffffffffffffffff8111156102a7576102a76105ba565b6040519080825280602002602001820160405280156102da57816020015b60608152602001906001900390816102c55790505b50915060005b818110156103b357600281815481106102fb576102fb6108c8565b906000526020600020018054610310906108de565b80601f016020809104026020016040519081016040528092919081815260200182805461033c906108de565b80156103895780601f1061035e57610100808354040283529160200191610389565b820191906000526020600020905b81548152906001019060200180831161036c57829003601f168201915b50505050508382815181106103a0576103a06108c8565b60209081029190910101526001016102e0565b505090565b604051634f4bdc7b60e11b81526001600160a01b037f00000000000000000000000000000000000000000000000000000000000000001690639e97b8f6906104069060049033908201610871565b602060405180830381865afa158015610423573d6000803e3d6000fd5b505050506040513d601f19601f8201168201806040525081019061044791906108ab565b6104895760405162461bcd60e51b81526020600482015260136024820152722737ba10309029bcb9ba32b6b99020b236b4b760691b604482015260640161021c565b60006001600160a01b03166001826040516104a49190610918565b908152604051908190036020019020546001600160a01b0316146104f85760405162461bcd60e51b815260206004820152600b60248201526a47414d452045584953545360a81b604482015260640161021c565b3081604051610506906105ad565b610511929190610934565b604051809103906000f08015801561052d573d6000803e3d6000fd5b5060018260405161053e9190610918565b90815260405190819003602001902080546001600160a01b03929092166001600160a01b0319909216919091179055600280546001810182556000919091527f405787fa12a823e0f2b7631cc41b3ba8828b3321ca811111fa75cd3aa3bb5ace016105a982826109af565b5050565b610bc380610a6f83390190565b634e487b7160e01b600052604160045260246000fd5b604051601f8201601f1916810167ffffffffffffffff811182821017156105f9576105f96105ba565b604052919050565b60006020828403121561061357600080fd5b813567ffffffffffffffff81111561062a57600080fd5b8201601f8101841361063b57600080fd5b803567ffffffffffffffff811115610655576106556105ba565b610668601f8201601f19166020016105d0565b81815285602083850101111561067d57600080fd5b81602084016020830137600091810160200191909152949350505050565b80356001600160a01b03811681146106b257600080fd5b919050565b80151581146106c557600080fd5b50565b80356106b2816106b7565b600080604083850312156106e657600080fd5b823567ffffffffffffffff8111156106fd57600080fd5b8301601f8101851361070e57600080fd5b803567ffffffffffffffff811115610728576107286105ba565b8060051b610738602082016105d0565b9182526020818401810192908101908884111561075457600080fd5b6020850194505b8385101561077d5761076c8561069b565b82526020948501949091019061075b565b8096505050505050610791602084016106c8565b90509250929050565b60005b838110156107b557818101518382015260200161079d565b50506000910152565b600081518084526107d681602086016020860161079a565b601f01601f19169290920160200192915050565b6000602082016020835280845180835260408501915060408160051b86010192506020860160005b8281101561084357603f1987860301845261082e8583516107be565b94506020938401939190910190600101610812565b50929695505050505050565b60006020828403121561086157600080fd5b61086a8261069b565b9392505050565b60408101600f841061089357634e487b7160e01b600052602160045260246000fd5b9281526001600160a01b039190911660209091015290565b6000602082840312156108bd57600080fd5b815161086a816106b7565b634e487b7160e01b600052603260045260246000fd5b600181811c908216806108f257607f821691505b60208210810361091257634e487b7160e01b600052602260045260246000fd5b50919050565b6000825161092a81846020870161079a565b9190910192915050565b6001600160a01b0383168152604060208201819052600090610958908301846107be565b949350505050565b601f8211156109aa57806000526020600020601f840160051c810160208510156109875750805b601f840160051c820191505b818110156109a75760008155600101610993565b50505b505050565b815167ffffffffffffffff8111156109c9576109c96105ba565b6109dd816109d784546108de565b84610960565b6020601f821160018114610a1157600083156109f95750848201515b600019600385901b1c1916600184901b1784556109a7565b600084815260208120601f198516915b82811015610a415787850151825560209485019460019092019101610a21565b5084821015610a5f5786840151600019600387901b60f8161c191681555b50505050600190811b0190555056fe608060405234801561001057600080fd5b50604051610bc3380380610bc383398101604081905261002f91610074565b600080546001600160a01b0319166001600160a01b038416179055600161005682826101e9565b5050506102a7565b634e487b7160e01b600052604160045260246000fd5b6000806040838503121561008757600080fd5b82516001600160a01b038116811461009e57600080fd5b60208401519092506001600160401b038111156100ba57600080fd5b8301601f810185136100cb57600080fd5b80516001600160401b038111156100e4576100e461005e565b604051601f8201601f19908116603f011681016001600160401b03811182821017156101125761011261005e565b60405281815282820160200187101561012a57600080fd5b60005b828110156101495760208185018101518383018201520161012d565b506000602083830101528093505050509250929050565b600181811c9082168061017457607f821691505b60208210810361019457634e487b7160e01b600052602260045260246000fd5b50919050565b601f8211156101e457806000526020600020601f840160051c810160208510156101c15750805b601f840160051c820191505b818110156101e157600081556001016101cd565b50505b505050565b81516001600160401b038111156102025761020261005e565b610216816102108454610160565b8461019a565b6020601f82116001811461024a57600083156102325750848201515b600019600385901b1c1916600184901b1784556101e1565b600084815260208120601f198516915b8281101561027a578785015182556020948501946001909201910161025a565b50848210156102985786840151600019600387901b60f8161c191681555b50505050600190811b01905550565b61090d806102b66000396000f3fe608060405234801561001057600080fd5b50600436106100575760003560e01c8063514660151461005c578063711ba825146100715780638c7a3e2c14610084578063c3fe3e2814610097578063df885024146100b5575b600080fd5b61006f61006a36600461042d565b6100c8565b005b61006f61007f36600461049c565b6101c0565b61006f61009236600461057b565b610212565b61009f61025b565b6040516100ac919061061e565b60405180910390f35b61006f6100c336600461066c565b6102e9565b600054604051635d0cf4ab60e11b81523360048201526001600160a01b039091169063ba19e95690602401602060405180830381865afa158015610110573d6000803e3d6000fd5b505050506040513d601f19601f820116820180604052508101906101349190610719565b61017d5760405162461bcd60e51b81526020600482015260156024820152742727aa102822a926a4a9a9a4a7a722a2102aa9a2a960591b60448201526064015b60405180910390fd5b7f327cc6e3532e2d8976875ffc771434060dc4fc22f75a5adb6a209a6108343408848484846040516101b2949392919061076b565b60405180910390a150505050565b7f241a52d07e4ad6e3f5586b38c9babd1f3b2180b3a863e05492e62d57284149308989898989898989896040516101ff9998979695949392919061079d565b60405180910390a1505050505050505050565b7f729fedf706b78debb34ef30843b5dae81b19d0ee8dbdd5457b925ac843c2e0e986868686868660405161024b96959493929190610804565b60405180910390a1505050505050565b600180546102689061084d565b80601f01602080910402602001604051908101604052809291908181526020018280546102949061084d565b80156102e15780601f106102b6576101008083540402835291602001916102e1565b820191906000526020600020905b8154815290600101906020018083116102c457829003601f168201915b505050505081565b600054604051635d0cf4ab60e11b81523360048201526001600160a01b039091169063ba19e95690602401602060405180830381865afa158015610331573d6000803e3d6000fd5b505050506040513d601f19601f820116820180604052508101906103559190610719565b6103995760405162461bcd60e51b81526020600482015260156024820152742727aa102822a926a4a9a9a4a7a722a2102aa9a2a960591b6044820152606401610174565b7fe0c2ea88b03bd9fc434842dfdd2939fa82c61ff6825bf0868bbc91d9bea2209c878787878787876040516103d49796959493929190610887565b60405180910390a150505050505050565b60008083601f8401126103f757600080fd5b5081356001600160401b0381111561040e57600080fd5b60208301915083602082850101111561042657600080fd5b9250929050565b6000806000806040858703121561044357600080fd5b84356001600160401b0381111561045957600080fd5b610465878288016103e5565b90955093505060208501356001600160401b0381111561048457600080fd5b610490878288016103e5565b95989497509550505050565b600080600080600080600080600060a08a8c0312156104ba57600080fd5b89356001600160401b038111156104d057600080fd5b6104dc8c828d016103e5565b909a5098505060208a01356001600160401b038111156104fb57600080fd5b6105078c828d016103e5565b90985096505060408a0135945060608a01356001600160401b0381111561052d57600080fd5b6105398c828d016103e5565b90955093505060808a01356001600160401b0381111561055857600080fd5b6105648c828d016103e5565b915080935050809150509295985092959850929598565b6000806000806000806060878903121561059457600080fd5b86356001600160401b038111156105aa57600080fd5b6105b689828a016103e5565b90975095505060208701356001600160401b038111156105d557600080fd5b6105e189828a016103e5565b90955093505060408701356001600160401b0381111561060057600080fd5b61060c89828a016103e5565b979a9699509497509295939492505050565b602081526000825180602084015260005b8181101561064c576020818601810151604086840101520161062f565b506000604082850101526040601f19601f83011684010191505092915050565b60008060008060008060006080888a03121561068757600080fd5b87356001600160401b0381111561069d57600080fd5b6106a98a828b016103e5565b90985096505060208801356001600160401b038111156106c857600080fd5b6106d48a828b016103e5565b9096509450506040880135925060608801356001600160401b038111156106fa57600080fd5b6107068a828b016103e5565b989b979a50959850939692959293505050565b60006020828403121561072b57600080fd5b8151801515811461073b57600080fd5b9392505050565b81835281816020850137506000828201602090810191909152601f909101601f19169091010190565b60408152600061077f604083018688610742565b8281036020840152610792818587610742565b979650505050505050565b60a0815260006107b160a083018b8d610742565b82810360208401526107c4818a8c610742565b905087604084015282810360608401526107df818789610742565b905082810360808401526107f4818587610742565b9c9b505050505050505050505050565b60608152600061081860608301888a610742565b828103602084015261082b818789610742565b90508281036040840152610840818587610742565b9998505050505050505050565b600181811c9082168061086157607f821691505b60208210810361088157634e487b7160e01b600052602260045260246000fd5b50919050565b60808152600061089b60808301898b610742565b82810360208401526108ae81888a610742565b905085604084015282810360608401526108c9818587610742565b9a995050505050505050505056fea2646970667358221220bdd3b90042a12424b18fcde4ea2000b12e213f774329dac0a9078df729ba82ae64736f6c634300081e0033a2646970667358221220f3a812811bf086f74343c6995335c06d4157a54ae1d92b4333108f75129a2d2f64736f6c634300081e0033",
  "linkReferences": {},
  "deployedLinkReferences": {}
}