{
  "_format": "hh-sol-artifact-1",
  "contractName": "CreateCall",
  "sourceName": "SuperChamps/contracts/Utils/DeploymentProxy.sol",
  "abi": [
    {
      "anonymous": false,
      "inputs": [
        {
          "indexed": true,
          "internalType": "address",
          "name": "newContract",
          "type": "address"
        }
      ],
      "name": "ContractCreation",
      "type": "event"
    },
    {
      "inputs": [
        {
          "internalType": "uint256",
          "name": "value",
          "type": "uint256"
        },
        {
          "internalType": "bytes",
          "name": "deploymentData",
          "type": "bytes"
        }
      ],
      "name": "performCreate",
      "outputs": [
        {
          "internalType": "address",
          "name": "newContract",
          "type": "address"
        }
      ],
      "stateMutability": "nonpayable",
      "type": "function"
    },
    {
      "inputs": [
        {
          "internalType": "uint256",
          "name": "value",
          "type": "uint256"
        },
        {
          "internalType": "bytes",
          "name": "deploymentData",
          "type": "bytes"
        },
        {
          "internalType": "bytes32",
          "name": "salt",
          "type": "bytes32"
        }
      ],
      "name": "performCreate2",
      "outputs": [
        {
          "internalType": "address",
          "name": "newContract",
          "type": "address"
        }
      ],
      "stateMutability": "nonpayable",
      "type": "function"
    }
  ],
  "bytecode": "0x608060405234801561001057600080fd5b50610324806100206000396000f3fe608060405234801561001057600080fd5b50600436106100365760003560e01c80634847be6f1461003b5780634c8c9ea11461006a575b600080fd5b61004e610049366004610257565b61007d565b6040516001600160a01b03909116815260200160405180910390f35b61004e6100783660046102a7565b61011c565b60008183518460200186f590506001600160a01b0381166100e15760405162461bcd60e51b815260206004820152601960248201527810dbdd5b19081b9bdd0819195c1b1bde4818dbdb9d1c9858dd603a1b60448201526064015b60405180910390fd5b6040516001600160a01b038216907f4db17dd5e4732fb6da34a148104a592783ca119a1e7bb8829eba6cbadef0b51190600090a29392505050565b600081516020830184f090506001600160a01b03811661017a5760405162461bcd60e51b815260206004820152601960248201527810dbdd5b19081b9bdd0819195c1b1bde4818dbdb9d1c9858dd603a1b60448201526064016100d8565b6040516001600160a01b038216907f4db17dd5e4732fb6da34a148104a592783ca119a1e7bb8829eba6cbadef0b51190600090a292915050565b634e487b7160e01b600052604160045260246000fd5b600082601f8301126101db57600080fd5b813567ffffffffffffffff808211156101f6576101f66101b4565b604051601f8301601f19908116603f0116810190828211818310171561021e5761021e6101b4565b8160405283815286602085880101111561023757600080fd5b836020870160208301376000602085830101528094505050505092915050565b60008060006060848603121561026c57600080fd5b83359250602084013567ffffffffffffffff81111561028a57600080fd5b610296868287016101ca565b925050604084013590509250925092565b600080604083850312156102ba57600080fd5b82359150602083013567ffffffffffffffff8111156102d857600080fd5b6102e4858286016101ca565b915050925092905056fea26469706673582212206949a762c19dfab8117552adeb3d502e465bd9af4bca6f1d53c1b0ce84bb014064736f6c63430008180033",
  "linkReferences": {},
  "deployedLinkReferences": {}
}