{
  "_format": "hh-sol-artifact-1",
  "contractName": "SCMetagamePool",
  "sourceName": "SuperChamps/contracts/Metagame/SCMetagamePool.sol",
  "abi": [
    {
      "inputs": [
        {
          "internalType": "address",
          "name": "permissions_",
          "type": "address"
        },
        {
          "internalType": "address",
          "name": "token_",
          "type": "address"
        }
      ],
      "stateMutability": "nonpayable",
      "type": "constructor"
    },
    {
      "inputs": [
        {
          "internalType": "address",
          "name": "staker",
          "type": "address"
        },
        {
          "internalType": "uint256",
          "name": "amount",
          "type": "uint256"
        }
      ],
      "name": "UnableToTransferTokens",
      "type": "error"
    },
    {
      "inputs": [
        {
          "internalType": "address",
          "name": "staker",
          "type": "address"
        },
        {
          "internalType": "uint256",
          "name": "amount",
          "type": "uint256"
        },
        {
          "internalType": "uint256",
          "name": "total_staked_supply",
          "type": "uint256"
        }
      ],
      "name": "UnableToUnstakeTokens",
      "type": "error"
    },
    {
      "inputs": [],
      "name": "UnexpectedBalance",
      "type": "error"
    },
    {
      "anonymous": false,
      "inputs": [
        {
          "indexed": false,
          "internalType": "address",
          "name": "staker",
          "type": "address"
        },
        {
          "indexed": false,
          "internalType": "address",
          "name": "source",
          "type": "address"
        },
        {
          "indexed": false,
          "internalType": "uint256",
          "name": "amount",
          "type": "uint256"
        },
        {
          "indexed": false,
          "internalType": "uint256",
          "name": "balance",
          "type": "uint256"
        },
        {
          "indexed": false,
          "internalType": "address",
          "name": "receiver",
          "type": "address"
        },
        {
          "indexed": false,
          "internalType": "string",
          "name": "data",
          "type": "string"
        }
      ],
      "name": "SpendFromStake",
      "type": "event"
    },
    {
      "anonymous": false,
      "inputs": [
        {
          "indexed": false,
          "internalType": "address",
          "name": "staker",
          "type": "address"
        },
        {
          "indexed": false,
          "internalType": "address",
          "name": "source",
          "type": "address"
        },
        {
          "indexed": false,
          "internalType": "uint256",
          "name": "amount",
          "type": "uint256"
        },
        {
          "indexed": false,
          "internalType": "uint256",
          "name": "balance",
          "type": "uint256"
        }
      ],
      "name": "Stake",
      "type": "event"
    },
    {
      "anonymous": false,
      "inputs": [
        {
          "indexed": false,
          "internalType": "address",
          "name": "staker",
          "type": "address"
        },
        {
          "indexed": false,
          "internalType": "uint256",
          "name": "amount",
          "type": "uint256"
        },
        {
          "indexed": false,
          "internalType": "uint256",
          "name": "balance",
          "type": "uint256"
        }
      ],
      "name": "Unstake",
      "type": "event"
    },
    {
      "inputs": [
        {
          "internalType": "address",
          "name": "spender_",
          "type": "address"
        },
        {
          "internalType": "uint256",
          "name": "amount_",
          "type": "uint256"
        }
      ],
      "name": "approve",
      "outputs": [],
      "stateMutability": "nonpayable",
      "type": "function"
    },
    {
      "inputs": [
        {
          "internalType": "address",
          "name": "staker_",
          "type": "address"
        }
      ],
      "name": "checkpoint_timestamps",
      "outputs": [
        {
          "internalType": "uint256[]",
          "name": "",
          "type": "uint256[]"
        }
      ],
      "stateMutability": "view",
      "type": "function"
    },
    {
      "inputs": [
        {
          "internalType": "address",
          "name": "staker_",
          "type": "address"
        },
        {
          "internalType": "uint256",
          "name": "start_",
          "type": "uint256"
        },
        {
          "internalType": "uint256",
          "name": "count_",
          "type": "uint256"
        }
      ],
      "name": "checkpoint_timestamps_range",
      "outputs": [
        {
          "internalType": "uint256[]",
          "name": "_user_checkpoints_",
          "type": "uint256[]"
        }
      ],
      "stateMutability": "view",
      "type": "function"
    },
    {
      "inputs": [
        {
          "internalType": "address",
          "name": "staker_",
          "type": "address"
        },
        {
          "internalType": "uint256[]",
          "name": "checkpoint_timestamps_",
          "type": "uint256[]"
        }
      ],
      "name": "checkpoints",
      "outputs": [
        {
          "components": [
            {
              "internalType": "uint256",
              "name": "balance",
              "type": "uint256"
            },
            {
              "internalType": "address",
              "name": "msg_sender",
              "type": "address"
            }
          ],
          "internalType": "struct SCMetagamePool.StakingData[]",
          "name": "_data_",
          "type": "tuple[]"
        }
      ],
      "stateMutability": "view",
      "type": "function"
    },
    {
      "inputs": [],
      "name": "permissions",
      "outputs": [
        {
          "internalType": "contract IPermissionsManager",
          "name": "",
          "type": "address"
        }
      ],
      "stateMutability": "view",
      "type": "function"
    },
    {
      "inputs": [
        {
          "internalType": "uint256",
          "name": "amount_",
          "type": "uint256"
        },
        {
          "internalType": "address",
          "name": "staker_",
          "type": "address"
        },
        {
          "internalType": "address",
          "name": "receiver_",
          "type": "address"
        },
        {
          "internalType": "string",
          "name": "data_",
          "type": "string"
        }
      ],
      "name": "spend",
      "outputs": [],
      "stateMutability": "nonpayable",
      "type": "function"
    },
    {
      "inputs": [
        {
          "internalType": "uint256",
          "name": "amount_",
          "type": "uint256"
        }
      ],
      "name": "stake",
      "outputs": [],
      "stateMutability": "nonpayable",
      "type": "function"
    },
    {
      "inputs": [
        {
          "internalType": "address",
          "name": "staker_",
          "type": "address"
        },
        {
          "internalType": "uint256",
          "name": "amount_",
          "type": "uint256"
        }
      ],
      "name": "stakeFor",
      "outputs": [],
      "stateMutability": "nonpayable",
      "type": "function"
    },
    {
      "inputs": [],
      "name": "token",
      "outputs": [
        {
          "internalType": "contract IERC20",
          "name": "",
          "type": "address"
        }
      ],
      "stateMutability": "view",
      "type": "function"
    },
    {
      "inputs": [
        {
          "internalType": "uint256",
          "name": "amount_",
          "type": "uint256"
        }
      ],
      "name": "unstake",
      "outputs": [],
      "stateMutability": "nonpayable",
      "type": "function"
    }
  ],
  "bytecode": "0x60c060405234801561001057600080fd5b506040516110cd3803806110cd83398101604081905261002f91610062565b6001600160a01b039182166080521660a052610095565b80516001600160a01b038116811461005d57600080fd5b919050565b6000806040838503121561007557600080fd5b61007e83610046565b915061008c60208401610046565b90509250929050565b60805160a051610ff76100d6600039600081816101c90152818161026501528181610560015281816108c00152610955015260006101570152610ff76000f3fe608060405234801561001057600080fd5b506004361061009e5760003560e01c8063a694fc3a11610066578063a694fc3a1461013f578063ab8c71c014610152578063b9e32c8914610191578063e8e76e40146101b1578063fc0c546a146101c457600080fd5b8063095ea7b3146100a35780632e17de78146100dd5780632ee40908146100f057806332f68143146101035780636c0eb57f14610116575b600080fd5b6100db6100b1366004610bb4565b3360009081526002602090815260408083206001600160a01b039590951683529390529190912055565b005b6100db6100eb366004610bde565b6101eb565b6100db6100fe366004610bb4565b610240565b6100db610111366004610c3e565b610317565b610129610124366004610d03565b610425565b6040516101369190610dc7565b60405180910390f35b6100db61014d366004610bde565b61053b565b6101797f000000000000000000000000000000000000000000000000000000000000000081565b6040516001600160a01b039091168152602001610136565b6101a461019f366004610e1f565b61060c565b6040516101369190610e41565b6101a46101bf366004610e79565b610678565b6101797f000000000000000000000000000000000000000000000000000000000000000081565b60006101f88233336107c3565b60408051338152602081018590529081018290529091507ff960dbf9e5d0682f7a298ed974e33a28b4464914b7a2bfac12ae419a9afeb2809060600160405180910390a15050565b6040516323b872dd60e01b8152336004820152306024820152604481018290526000907f00000000000000000000000000000000000000000000000000000000000000006001600160a01b0316906323b872dd906064016020604051808303816000875af11580156102b6573d6000803e3d6000fd5b505050506040513d601f19601f820116820180604052508101906102da9190610eac565b90508061030857604051639716ea2960e01b8152336004820152602481018390526044015b60405180910390fd5b6103128383610a63565b505050565b6001600160a01b03831633146103ce576001600160a01b0383166000908152600260209081526040808320338452909152902054848110156103945760405162461bcd60e51b8152602060048201526016602482015275496e73756666696369656e7420616c6c6f77616e636560501b60448201526064016102ff565b6001600160a01b0384166000908152600260209081526040808320338452909152812080548792906103c7908490610ee4565b9091555050505b60006103db8585856107c3565b90507fc958491b5b35830fc9b2dcf17a99ea99adce9eddf7880ce2c1dcd73e0aa0dc5484338784878760405161041696959493929190610efd565b60405180910390a15050505050565b6060815167ffffffffffffffff81111561044157610441610bf7565b60405190808252806020026020018201604052801561048657816020015b604080518082019091526000808252602082015281526020019060019003908161045f5790505b50825190915060005b8181101561053357600080866001600160a01b03166001600160a01b0316815260200190815260200160002060008583815181106104cf576104cf610f7f565b6020908102919091018101518252818101929092526040908101600020815180830190925280548252600101546001600160a01b031691810191909152835184908390811061052057610520610f7f565b602090810291909101015260010161048f565b505092915050565b6040516323b872dd60e01b8152336004820152306024820152604481018290526000907f00000000000000000000000000000000000000000000000000000000000000006001600160a01b0316906323b872dd906064016020604051808303816000875af11580156105b1573d6000803e3d6000fd5b505050506040513d601f19601f820116820180604052508101906105d59190610eac565b9050806105fe57604051639716ea2960e01b8152336004820152602481018390526044016102ff565b6106083383610a63565b5050565b6001600160a01b03811660009081526001602090815260409182902080548351818402810184019094528084526060939283018282801561066c57602002820191906000526020600020905b815481526020019060010190808311610658575b50505050509050919050565b6001600160a01b0383166000908152600160205260409020546060908084106106e35760405162461bcd60e51b815260206004820152601960248201527f537461727420696e646578206f7574206f6620626f756e64730000000000000060448201526064016102ff565b60006106ef8486610f95565b9050818111156106fc5750805b6107068582610ee4565b67ffffffffffffffff81111561071e5761071e610bf7565b604051908082528060200260200182016040528015610747578160200160208202803683370190505b509250845b818110156107b9576001600160a01b038716600090815260016020526040902080548290811061077e5761077e610f7f565b90600052602060002001548487836107969190610ee4565b815181106107a6576107a6610f7f565b602090810291909101015260010161074c565b5050509392505050565b6001600160a01b0382166000908152600160205260408120805482901561084357815460009083906107f790600190610ee4565b8154811061080757610807610f7f565b60009182526020808320909101546001600160a01b0389168352828252604080842082855290925291205490915061083f9083610f95565b9150505b8581101561088a5760405162461bcd60e51b8152602060048201526014602482015273496e73756666696369656e742062616c616e636560601b60448201526064016102ff565b6108948682610ee4565b60405163a9059cbb60e01b81526001600160a01b038681166004830152602482018990529192506000917f0000000000000000000000000000000000000000000000000000000000000000169063a9059cbb906044016020604051808303816000875af1158015610909573d6000803e3d6000fd5b505050506040513d601f19601f8201168201806040525081019061092d9190610eac565b9050806109f2576040516370a0823160e01b8152306004820152869088906001600160a01b037f000000000000000000000000000000000000000000000000000000000000000016906370a0823190602401602060405180830381865afa15801561099c573d6000803e3d6000fd5b505050506040513d601f19601f820116820180604052508101906109c09190610fa8565b604051632a5bfc9d60e21b81526001600160a01b039093166004840152602483019190915260448201526064016102ff565b5081546001808201845560009384526020808520429301839055604080518082018252858152338184019081526001600160a01b039a8b16885287845282882095885294909252909420935184559051920180546001600160a01b0319169290951691909117909355509092915050565b6001600160a01b03821660009081526001602052604090208054829015610ae35781546000908390610a9790600190610ee4565b81548110610aa757610aa7610f7f565b60009182526020808320909101546001600160a01b03881683528282526040808420828552909252912054909150610adf9083610f95565b9150505b81546001808201845560008481526020808220429401849055604080518082018252868152338184018181526001600160a01b038c81168088528787528588208a89528752968590208451815591519190970180546001600160a01b0319169190971617909555815193845291830193909352918101869052606081018490527f63602d0ecc7b3a0ef7ff1a116e23056662d64280355ba8031b6d0d767c4b44589060800160405180910390a1505050505050565b80356001600160a01b0381168114610baf57600080fd5b919050565b60008060408385031215610bc757600080fd5b610bd083610b98565b946020939093013593505050565b600060208284031215610bf057600080fd5b5035919050565b634e487b7160e01b600052604160045260246000fd5b604051601f8201601f1916810167ffffffffffffffff81118282101715610c3657610c36610bf7565b604052919050565b60008060008060808587031215610c5457600080fd5b84359350610c6460208601610b98565b9250610c7260408601610b98565b9150606085013567ffffffffffffffff811115610c8e57600080fd5b8501601f81018713610c9f57600080fd5b803567ffffffffffffffff811115610cb957610cb9610bf7565b610ccc601f8201601f1916602001610c0d565b818152886020838501011115610ce157600080fd5b8160208401602083013760006020838301015280935050505092959194509250565b60008060408385031215610d1657600080fd5b610d1f83610b98565b9150602083013567ffffffffffffffff811115610d3b57600080fd5b8301601f81018513610d4c57600080fd5b803567ffffffffffffffff811115610d6657610d66610bf7565b8060051b610d7660208201610c0d565b91825260208184018101929081019088841115610d9257600080fd5b6020850194505b83851015610db857843580835260209586019590935090910190610d99565b80955050505050509250929050565b602080825282518282018190526000918401906040840190835b81811015610e14578351805184526020908101516001600160a01b03168185015290930192604090920191600101610de1565b509095945050505050565b600060208284031215610e3157600080fd5b610e3a82610b98565b9392505050565b602080825282518282018190526000918401906040840190835b81811015610e14578351835260209384019390920191600101610e5b565b600080600060608486031215610e8e57600080fd5b610e9784610b98565b95602085013595506040909401359392505050565b600060208284031215610ebe57600080fd5b81518015158114610e3a57600080fd5b634e487b7160e01b600052601160045260246000fd5b81810381811115610ef757610ef7610ece565b92915050565b6001600160a01b038781168252868116602083015260408201869052606082018590528316608082015260c060a082018190528251908201819052600090815b81811015610f5a57602081860181015160e0868401015201610f3d565b50600060e0828501015260e0601f19601f830116840101915050979650505050505050565b634e487b7160e01b600052603260045260246000fd5b80820180821115610ef757610ef7610ece565b600060208284031215610fba57600080fd5b505191905056fea2646970667358221220285327c2185746ffad4b563550e755204d4aebf73723131c0278cde6ec98d4e264736f6c634300081e0033",
  "linkReferences": {},
  "deployedLinkReferences": {}
}