{
  "_format": "hh-sol-artifact-1",
  "contractName": "KiguToken",
  "sourceName": "SuperChamps/contracts/Token/KiguToken.sol",
  "abi": [
    {
      "inputs": [],
      "stateMutability": "nonpayable",
      "type": "constructor"
    },
    {
      "inputs": [
        {
          "internalType": "address",
          "name": "spender",
          "type": "address"
        },
        {
          "internalType": "uint256",
          "name": "allowance",
          "type": "uint256"
        },
        {
          "internalType": "uint256",
          "name": "needed",
          "type": "uint256"
        }
      ],
      "name": "ERC20InsufficientAllowance",
      "type": "error"
    },
    {
      "inputs": [
        {
          "internalType": "address",
          "name": "sender",
          "type": "address"
        },
        {
          "internalType": "uint256",
          "name": "balance",
          "type": "uint256"
        },
        {
          "internalType": "uint256",
          "name": "needed",
          "type": "uint256"
        }
      ],
      "name": "ERC20InsufficientBalance",
      "type": "error"
    },
    {
      "inputs": [
        {
          "internalType": "address",
          "name": "approver",
          "type": "address"
        }
      ],
      "name": "ERC20InvalidApprover",
      "type": "error"
    },
    {
      "inputs": [
        {
          "internalType": "address",
          "name": "receiver",
          "type": "address"
        }
      ],
      "name": "ERC20InvalidReceiver",
      "type": "error"
    },
    {
      "inputs": [
        {
          "internalType": "address",
          "name": "sender",
          "type": "address"
        }
      ],
      "name": "ERC20InvalidSender",
      "type": "error"
    },
    {
      "inputs": [
        {
          "internalType": "address",
          "name": "spender",
          "type": "address"
        }
      ],
      "name": "ERC20InvalidSpender",
      "type": "error"
    },
    {
      "anonymous": false,
      "inputs": [
        {
          "indexed": true,
          "internalType": "address",
          "name": "owner",
          "type": "address"
        },
        {
          "indexed": true,
          "internalType": "address",
          "name": "spender",
          "type": "address"
        },
        {
          "indexed": false,
          "internalType": "uint256",
          "name": "value",
          "type": "uint256"
        }
      ],
      "name": "Approval",
      "type": "event"
    },
    {
      "anonymous": false,
      "inputs": [
        {
          "indexed": true,
          "internalType": "address",
          "name": "from",
          "type": "address"
        },
        {
          "indexed": true,
          "internalType": "address",
          "name": "to",
          "type": "address"
        },
        {
          "indexed": false,
          "internalType": "uint256",
          "name": "value",
          "type": "uint256"
        }
      ],
      "name": "Transfer",
      "type": "event"
    },
    {
      "inputs": [],
      "name": "INITIAL_SUPPLY",
      "outputs": [
        {
          "internalType": "uint256",
          "name": "",
          "type": "uint256"
        }
      ],
      "stateMutability": "view",
      "type": "function"
    },
    {
      "inputs": [
        {
          "internalType": "address",
          "name": "owner",
          "type": "address"
        },
        {
          "internalType": "address",
          "name": "spender",
          "type": "address"
        }
      ],
      "name": "allowance",
      "outputs": [
        {
          "internalType": "uint256",
          "name": "",
          "type": "uint256"
        }
      ],
      "stateMutability": "view",
      "type": "function"
    },
    {
      "inputs": [
        {
          "internalType": "address",
          "name": "spender",
          "type": "address"
        },
        {
          "internalType": "uint256",
          "name": "value",
          "type": "uint256"
        }
      ],
      "name": "approve",
      "outputs": [
        {
          "internalType": "bool",
          "name": "",
          "type": "bool"
        }
      ],
      "stateMutability": "nonpayable",
      "type": "function"
    },
    {
      "inputs": [
        {
          "internalType": "address",
          "name": "account",
          "type": "address"
        }
      ],
      "name": "balanceOf",
      "outputs": [
        {
          "internalType": "uint256",
          "name": "",
          "type": "uint256"
        }
      ],
      "stateMutability": "view",
      "type": "function"
    },
    {
      "inputs": [
        {
          "internalType": "uint256",
          "name": "value",
          "type": "uint256"
        }
      ],
      "name": "burn",
      "outputs": [],
      "stateMutability": "nonpayable",
      "type": "function"
    },
    {
      "inputs": [
        {
          "internalType": "address",
          "name": "account",
          "type": "address"
        },
        {
          "internalType": "uint256",
          "name": "value",
          "type": "uint256"
        }
      ],
      "name": "burnFrom",
      "outputs": [],
      "stateMutability": "nonpayable",
      "type": "function"
    },
    {
      "inputs": [],
      "name": "decimals",
      "outputs": [
        {
          "internalType": "uint8",
          "name": "",
          "type": "uint8"
        }
      ],
      "stateMutability": "view",
      "type": "function"
    },
    {
      "inputs": [
        {
          "internalType": "address",
          "name": "_recipient",
          "type": "address"
        }
      ],
      "name": "initialMint",
      "outputs": [],
      "stateMutability": "nonpayable",
      "type": "function"
    },
    {
      "inputs": [],
      "name": "isInitialMintDone",
      "outputs": [
        {
          "internalType": "bool",
          "name": "",
          "type": "bool"
        }
      ],
      "stateMutability": "view",
      "type": "function"
    },
    {
      "inputs": [
        {
          "internalType": "address",
          "name": "_to",
          "type": "address"
        },
        {
          "internalType": "uint256",
          "name": "_amount",
          "type": "uint256"
        }
      ],
      "name": "mint",
      "outputs": [
        {
          "internalType": "bool",
          "name": "",
          "type": "bool"
        }
      ],
      "stateMutability": "nonpayable",
      "type": "function"
    },
    {
      "inputs": [],
      "name": "minter",
      "outputs": [
        {
          "internalType": "address",
          "name": "",
          "type": "address"
        }
      ],
      "stateMutability": "view",
      "type": "function"
    },
    {
      "inputs": [],
      "name": "name",
      "outputs": [
        {
          "internalType": "string",
          "name": "",
          "type": "string"
        }
      ],
      "stateMutability": "view",
      "type": "function"
    },
    {
      "inputs": [
        {
          "internalType": "address",
          "name": "_minter",
          "type": "address"
        }
      ],
      "name": "setMinter",
      "outputs": [],
      "stateMutability": "nonpayable",
      "type": "function"
    },
    {
      "inputs": [],
      "name": "symbol",
      "outputs": [
        {
          "internalType": "string",
          "name": "",
          "type": "string"
        }
      ],
      "stateMutability": "view",
      "type": "function"
    },
    {
      "inputs": [],
      "name": "totalSupply",
      "outputs": [
        {
          "internalType": "uint256",
          "name": "",
          "type": "uint256"
        }
      ],
      "stateMutability": "view",
      "type": "function"
    },
    {
      "inputs": [
        {
          "internalType": "address",
          "name": "to",
          "type": "address"
        },
        {
          "internalType": "uint256",
          "name": "value",
          "type": "uint256"
        }
      ],
      "name": "transfer",
      "outputs": [
        {
          "internalType": "bool",
          "name": "",
          "type": "bool"
        }
      ],
      "stateMutability": "nonpayable",
      "type": "function"
    },
    {
      "inputs": [
        {
          "internalType": "address",
          "name": "from",
          "type": "address"
        },
        {
          "internalType": "address",
          "name": "to",
          "type": "address"
        },
        {
          "internalType": "uint256",
          "name": "value",
          "type": "uint256"
        }
      ],
      "name": "transferFrom",
      "outputs": [
        {
          "internalType": "bool",
          "name": "",
          "type": "bool"
        }
      ],
      "stateMutability": "nonpayable",
      "type": "function"
    }
  ],
  "bytecode": "0x60806040523480156200001157600080fd5b506040805180820182526004808252634b49475560e01b60208084018290528451808601909552918452908301529060036200004e83826200011f565b5060046200005d82826200011f565b5050600580546001600160a01b0319163317905550620001eb565b634e487b7160e01b600052604160045260246000fd5b600181811c90821680620000a357607f821691505b602082108103620000c457634e487b7160e01b600052602260045260246000fd5b50919050565b601f8211156200011a576000816000526020600020601f850160051c81016020861015620000f55750805b601f850160051c820191505b81811015620001165782815560010162000101565b5050505b505050565b81516001600160401b038111156200013b576200013b62000078565b62000153816200014c84546200008e565b84620000ca565b602080601f8311600181146200018b5760008415620001725750858301515b600019600386901b1c1916600185901b17855562000116565b600085815260208120601f198616915b82811015620001bc578886015182559484019460019091019084016200019b565b5085821015620001db5787850151600019600388901b60f8161c191681555b5050505050600190811b01905550565b610a9480620001fb6000396000f3fe608060405234801561001057600080fd5b506004361061010b5760003560e01c806342966c68116100a2578063a9059cbb11610071578063a9059cbb1461022e578063c268f9ba14610241578063dd62ed3e14610254578063f1136f411461028d578063fca3b5aa146102a157600080fd5b806342966c68146101d557806370a08231146101ea57806379cc67901461021357806395d89b411461022657600080fd5b806323b872dd116100de57806323b872dd1461018e5780632ff2e9dc146101a1578063313ce567146101b357806340c10f19146101c257600080fd5b806306fdde0314610110578063075461721461012e578063095ea7b31461015957806318160ddd1461017c575b600080fd5b6101186102b4565b604051610125919061089c565b60405180910390f35b600554610141906001600160a01b031681565b6040516001600160a01b039091168152602001610125565b61016c610167366004610907565b610346565b6040519015158152602001610125565b6002545b604051908152602001610125565b61016c61019c366004610931565b610360565b6101806a0ac0db698068112d00000081565b60405160128152602001610125565b61016c6101d0366004610907565b610384565b6101e86101e336600461096d565b6103cd565b005b6101806101f8366004610986565b6001600160a01b031660009081526020819052604090205490565b6101e8610221366004610907565b6103da565b6101186103f3565b61016c61023c366004610907565b610402565b6101e861024f366004610986565b610410565b6101806102623660046109a8565b6001600160a01b03918216600090815260016020908152604080832093909416825291909152205490565b60055461016c90600160a01b900460ff1681565b6101e86102af366004610986565b6104b0565b6060600380546102c3906109db565b80601f01602080910402602001604051908101604052809291908181526020018280546102ef906109db565b801561033c5780601f106103115761010080835404028352916020019161033c565b820191906000526020600020905b81548152906001019060200180831161031f57829003601f168201915b5050505050905090565b600033610354818585610541565b60019150505b92915050565b60003361036e858285610553565b6103798585856105d2565b506001949350505050565b6005546000906001600160a01b031633146103ba5760405162461bcd60e51b81526004016103b190610a15565b60405180910390fd5b6103c48383610631565b50600192915050565b6103d73382610667565b50565b6103e5823383610553565b6103ef8282610667565b5050565b6060600480546102c3906109db565b6000336103548185856105d2565b6005546001600160a01b0316331461043a5760405162461bcd60e51b81526004016103b190610a15565b600554600160a01b900460ff16156104885760405162461bcd60e51b8152602060048201526011602482015270496e697469616c206d696e7420646f6e6560781b60448201526064016103b1565b6005805460ff60a01b1916600160a01b1790556103d7816a0ac0db698068112d000000610631565b6005546001600160a01b031633146104da5760405162461bcd60e51b81526004016103b190610a15565b6001600160a01b03811661051f5760405162461bcd60e51b815260206004820152600c60248201526b5a65726f206164647265737360a01b60448201526064016103b1565b600580546001600160a01b0319166001600160a01b0392909216919091179055565b61054e838383600161069d565b505050565b6001600160a01b038381166000908152600160209081526040808320938616835292905220546000198110156105cc57818110156105bd57604051637dc7a0d960e11b81526001600160a01b038416600482015260248101829052604481018390526064016103b1565b6105cc8484848403600061069d565b50505050565b6001600160a01b0383166105fc57604051634b637e8f60e11b8152600060048201526024016103b1565b6001600160a01b0382166106265760405163ec442f0560e01b8152600060048201526024016103b1565b61054e838383610772565b6001600160a01b03821661065b5760405163ec442f0560e01b8152600060048201526024016103b1565b6103ef60008383610772565b6001600160a01b03821661069157604051634b637e8f60e11b8152600060048201526024016103b1565b6103ef82600083610772565b6001600160a01b0384166106c75760405163e602df0560e01b8152600060048201526024016103b1565b6001600160a01b0383166106f157604051634a1406b160e11b8152600060048201526024016103b1565b6001600160a01b03808516600090815260016020908152604080832093871683529290522082905580156105cc57826001600160a01b0316846001600160a01b03167f8c5be1e5ebec7d5bd14f71427d1e84f3dd0314c0f7b2291e5b200ac8c7c3b9258460405161076491815260200190565b60405180910390a350505050565b6001600160a01b03831661079d5780600260008282546107929190610a3d565b9091555061080f9050565b6001600160a01b038316600090815260208190526040902054818110156107f05760405163391434e360e21b81526001600160a01b038516600482015260248101829052604481018390526064016103b1565b6001600160a01b03841660009081526020819052604090209082900390555b6001600160a01b03821661082b5760028054829003905561084a565b6001600160a01b03821660009081526020819052604090208054820190555b816001600160a01b0316836001600160a01b03167fddf252ad1be2c89b69c2b068fc378daa952ba7f163c4a11628f55a4df523b3ef8360405161088f91815260200190565b60405180910390a3505050565b60006020808352835180602085015260005b818110156108ca578581018301518582016040015282016108ae565b506000604082860101526040601f19601f8301168501019250505092915050565b80356001600160a01b038116811461090257600080fd5b919050565b6000806040838503121561091a57600080fd5b610923836108eb565b946020939093013593505050565b60008060006060848603121561094657600080fd5b61094f846108eb565b925061095d602085016108eb565b9150604084013590509250925092565b60006020828403121561097f57600080fd5b5035919050565b60006020828403121561099857600080fd5b6109a1826108eb565b9392505050565b600080604083850312156109bb57600080fd5b6109c4836108eb565b91506109d2602084016108eb565b90509250929050565b600181811c908216806109ef57607f821691505b602082108103610a0f57634e487b7160e01b600052602260045260246000fd5b50919050565b6020808252600e908201526d139bdd08185d5d1a1bdc9a5e995960921b604082015260600190565b8082018082111561035a57634e487b7160e01b600052601160045260246000fdfea2646970667358221220c75643baaeb6404f1404349e216892044682b885c1d92343c47b194a7a3c75e564736f6c63430008180033",
  "linkReferences": {},
  "deployedLinkReferences": {}
}