{
  "_format": "hh-sol-artifact-1",
  "contractName": "SCMLRewards",
  "sourceName": "SuperChamps/contracts/Seasons/SCMLRewards.sol",
  "abi": [
    {
      "inputs": [
        {
          "internalType": "address",
          "name": "permissions_",
          "type": "address"
        }
      ],
      "stateMutability": "nonpayable",
      "type": "constructor"
    },
    {
      "anonymous": false,
      "inputs": [
        {
          "indexed": false,
          "internalType": "uint256",
          "name": "leaderboardId",
          "type": "uint256"
        },
        {
          "indexed": false,
          "internalType": "uint256[]",
          "name": "rewardAmounts",
          "type": "uint256[]"
        },
        {
          "indexed": false,
          "internalType": "uint256",
          "name": "claimEndTime",
          "type": "uint256"
        }
      ],
      "name": "LeaderboardFinalized",
      "type": "event"
    },
    {
      "anonymous": false,
      "inputs": [
        {
          "indexed": false,
          "internalType": "uint256",
          "name": "leaderboardId",
          "type": "uint256"
        },
        {
          "indexed": false,
          "internalType": "uint256",
          "name": "startTime",
          "type": "uint256"
        },
        {
          "indexed": false,
          "internalType": "address[]",
          "name": "tokens",
          "type": "address[]"
        }
      ],
      "name": "LeaderboardStarted",
      "type": "event"
    },
    {
      "anonymous": false,
      "inputs": [
        {
          "indexed": false,
          "internalType": "uint256",
          "name": "leaderboardId",
          "type": "uint256"
        },
        {
          "indexed": false,
          "internalType": "address",
          "name": "player",
          "type": "address"
        },
        {
          "indexed": false,
          "internalType": "address",
          "name": "token",
          "type": "address"
        },
        {
          "indexed": false,
          "internalType": "uint256",
          "name": "amount",
          "type": "uint256"
        }
      ],
      "name": "RewardsClaimed",
      "type": "event"
    },
    {
      "inputs": [
        {
          "internalType": "uint256",
          "name": "leaderboard_id_",
          "type": "uint256"
        }
      ],
      "name": "claimReward",
      "outputs": [],
      "stateMutability": "nonpayable",
      "type": "function"
    },
    {
      "inputs": [
        {
          "internalType": "uint256",
          "name": "",
          "type": "uint256"
        },
        {
          "internalType": "address",
          "name": "",
          "type": "address"
        },
        {
          "internalType": "address",
          "name": "",
          "type": "address"
        }
      ],
      "name": "claimed_rewards",
      "outputs": [
        {
          "internalType": "uint256",
          "name": "",
          "type": "uint256"
        }
      ],
      "stateMutability": "view",
      "type": "function"
    },
    {
      "inputs": [
        {
          "internalType": "uint256",
          "name": "id_",
          "type": "uint256"
        }
      ],
      "name": "endLeaderboard",
      "outputs": [],
      "stateMutability": "nonpayable",
      "type": "function"
    },
    {
      "inputs": [
        {
          "internalType": "uint256",
          "name": "id_",
          "type": "uint256"
        },
        {
          "internalType": "uint256[]",
          "name": "reward_amount_",
          "type": "uint256[]"
        },
        {
          "internalType": "uint256",
          "name": "claim_duration",
          "type": "uint256"
        }
      ],
      "name": "finalize",
      "outputs": [],
      "stateMutability": "nonpayable",
      "type": "function"
    },
    {
      "inputs": [
        {
          "internalType": "uint256",
          "name": "leaderboard_id_",
          "type": "uint256"
        }
      ],
      "name": "getClaimableReward",
      "outputs": [
        {
          "internalType": "uint256",
          "name": "",
          "type": "uint256"
        }
      ],
      "stateMutability": "view",
      "type": "function"
    },
    {
      "inputs": [
        {
          "internalType": "uint256",
          "name": "",
          "type": "uint256"
        },
        {
          "internalType": "address",
          "name": "",
          "type": "address"
        },
        {
          "internalType": "address",
          "name": "",
          "type": "address"
        }
      ],
      "name": "leaderboard_rewards",
      "outputs": [
        {
          "internalType": "uint256",
          "name": "",
          "type": "uint256"
        }
      ],
      "stateMutability": "view",
      "type": "function"
    },
    {
      "inputs": [
        {
          "internalType": "uint256",
          "name": "",
          "type": "uint256"
        }
      ],
      "name": "memeLeaderboards",
      "outputs": [
        {
          "internalType": "uint256",
          "name": "id",
          "type": "uint256"
        },
        {
          "internalType": "uint256",
          "name": "start_time",
          "type": "uint256"
        },
        {
          "internalType": "uint256",
          "name": "end_time",
          "type": "uint256"
        },
        {
          "internalType": "uint256",
          "name": "claim_end_time",
          "type": "uint256"
        }
      ],
      "stateMutability": "view",
      "type": "function"
    },
    {
      "inputs": [],
      "name": "permissions",
      "outputs": [
        {
          "internalType": "contract IPermissionsManager",
          "name": "",
          "type": "address"
        }
      ],
      "stateMutability": "view",
      "type": "function"
    },
    {
      "inputs": [
        {
          "internalType": "uint256",
          "name": "leaderboard_id_",
          "type": "uint256"
        },
        {
          "internalType": "address[]",
          "name": "players_",
          "type": "address[]"
        },
        {
          "internalType": "uint256[][]",
          "name": "rewards_",
          "type": "uint256[][]"
        }
      ],
      "name": "reportRewards",
      "outputs": [],
      "stateMutability": "nonpayable",
      "type": "function"
    },
    {
      "inputs": [
        {
          "internalType": "uint256",
          "name": "id_",
          "type": "uint256"
        },
        {
          "internalType": "address",
          "name": "treasury",
          "type": "address"
        }
      ],
      "name": "revokeUnclaimedReward",
      "outputs": [],
      "stateMutability": "nonpayable",
      "type": "function"
    },
    {
      "inputs": [
        {
          "internalType": "uint256",
          "name": "start_time_",
          "type": "uint256"
        },
        {
          "internalType": "address[]",
          "name": "tokens_",
          "type": "address[]"
        }
      ],
      "name": "startLeaderboard",
      "outputs": [
        {
          "internalType": "uint256",
          "name": "id",
          "type": "uint256"
        },
        {
          "internalType": "uint256",
          "name": "start_time",
          "type": "uint256"
        },
        {
          "internalType": "uint256",
          "name": "end_time",
          "type": "uint256"
        },
        {
          "internalType": "address[]",
          "name": "tokens",
          "type": "address[]"
        }
      ],
      "stateMutability": "nonpayable",
      "type": "function"
    }
  ],
  "bytecode": "0x60a060405234801561001057600080fd5b5060405161197338038061197383398101604081905261002f91610040565b6001600160a01b0316608052610070565b60006020828403121561005257600080fd5b81516001600160a01b038116811461006957600080fd5b9392505050565b6080516118c56100ae600039600081816101b90152818161023601528181610684015281816108e101528181610df501526110a201526118c56000f3fe608060405234801561001057600080fd5b50600436106100a85760003560e01c80638c25be3d116100715780638c25be3d1461016e578063a49afc4914610181578063ab8c71c0146101b4578063ae169a50146101f3578063d97c657114610206578063d97dcc321461021957600080fd5b8062486ac7146100ad5780630fbbe235146100f1578063547c4c6a14610115578063614fe7a11461012a578063696bf2601461013d575b600080fd5b6100de6100bb366004611405565b600160209081526000938452604080852082529284528284209052825290205481565b6040519081526020015b60405180910390f35b6101046100ff36600461148d565b61022c565b6040516100e89594939291906114d9565b61012861012336600461153c565b61066d565b005b610128610138366004611568565b6108ca565b6100de61014b366004611405565b600260209081526000938452604080852082529284528284209052825290205481565b6100de61017c366004611568565b610a1c565b61019461018f366004611568565b610ac4565b6040805194855260208501939093529183015260608201526080016100e8565b6101db7f000000000000000000000000000000000000000000000000000000000000000081565b6040516001600160a01b0390911681526020016100e8565b610128610201366004611568565b610afe565b610128610214366004611581565b610dde565b6101286102273660046115d4565b61108b565b60008060003660007f00000000000000000000000000000000000000000000000000000000000000006001600160a01b0316639e97b8f66004336040518363ffffffff1660e01b8152600401610283929190611653565b602060405180830381865afa1580156102a0573d6000803e3d6000fd5b505050506040513d601f19601f820116820180604052508101906102c4919061168d565b6102e95760405162461bcd60e51b81526004016102e0906116b6565b60405180910390fd5b6000881161032d5760405162461bcd60e51b8152602060048201526011602482015270043414e4e4f54205354415254204154203607c1b60448201526064016102e0565b8561036f5760405162461bcd60e51b81526020600482015260126024820152711393c81513d2d15394c8141493d59251115160721b60448201526064016102e0565b60648611156103b25760405162461bcd60e51b815260206004820152600f60248201526e544f4f204d414e5920544f4b454e5360881b60448201526064016102e0565b60005b8681101561043c5760008888838181106103d1576103d16116e3565b90506020020160208101906103e691906116f9565b6001600160a01b0316036104345760405162461bcd60e51b8152602060048201526015602482015274494e56414c494420544f4b454e204144445245535360581b60448201526064016102e0565b6001016103b5565b506000805460018101808355828052909190819083908110610460576104606116e3565b60009182526020909120600790910201828155600181018b9055600019600282015590508767ffffffffffffffff81111561049d5761049d611714565b6040519080825280602002602001820160405280156104c6578160200160208202803683370190505b5080516104dd916003840191602090910190611334565b5060005b88811015610556578989828181106104fb576104fb6116e3565b905060200201602081019061051091906116f9565b826003018281548110610525576105256116e3565b600091825260209091200180546001600160a01b0319166001600160a01b03929092169190911790556001016104e1565b508767ffffffffffffffff81111561057057610570611714565b604051908082528060200260200182016040528015610599578160200160208202803683370190505b5080516105b0916004840191602090910190611399565b508767ffffffffffffffff8111156105ca576105ca611714565b6040519080825280602002602001820160405280156105f3578160200160208202803683370190505b50805161060a916005840191602090910190611399565b50805460018201546040517f987d4dddfb1e494e061eee67171525715ff44d8f2e63f87c0fe7386eb9c8ac4d92610647929091600386019061172a565b60405180910390a180546001820154600290920154909b919a5098979650945050505050565b604051634f4bdc7b60e11b81526001600160a01b037f00000000000000000000000000000000000000000000000000000000000000001690639e97b8f6906106bb9060049033908201611653565b602060405180830381865afa1580156106d8573d6000803e3d6000fd5b505050506040513d601f19601f820116820180604052508101906106fc919061168d565b6107185760405162461bcd60e51b81526004016102e0906116b6565b600080838154811061072c5761072c6116e3565b90600052602060002090600702019050428160060154106107885760405162461bcd60e51b815260206004820152601660248201527510d3105253481411549253d1081393d508115391115160521b60448201526064016102e0565b60005b60038201548110156108c45760008260050182815481106107ae576107ae6116e3565b9060005260206000200154905060008111156108bb578260030182815481106107d9576107d96116e3565b60009182526020909120015460405163a9059cbb60e01b81526001600160a01b038681166004830152602482018490529091169063a9059cbb906044016020604051808303816000875af1158015610835573d6000803e3d6000fd5b505050506040513d601f19601f82011682018060405250810190610859919061168d565b6108975760405162461bcd60e51b815260206004820152600f60248201526e1514905394d1915488119052531151608a1b60448201526064016102e0565b60008360050183815481106108ae576108ae6116e3565b6000918252602090912001555b5060010161078b565b50505050565b604051634f4bdc7b60e11b81526001600160a01b037f00000000000000000000000000000000000000000000000000000000000000001690639e97b8f6906109189060049033908201611653565b602060405180830381865afa158015610935573d6000803e3d6000fd5b505050506040513d601f19601f82011682018060405250810190610959919061168d565b6109755760405162461bcd60e51b81526004016102e0906116b6565b6000808281548110610989576109896116e3565b9060005260206000209060070201905060008160010154116109bd5760405162461bcd60e51b81526004016102e09061178e565b600019816002015414610a125760405162461bcd60e51b815260206004820152601960248201527f4c4541444552424f41524420414c524541445920454e4445440000000000000060448201526064016102e0565b4260029091015550565b60008060008381548110610a3257610a326116e3565b6000918252602082206007909102019150805b6003830154811015610abc576000858152600160209081526040808320338452909152812060038501805491929184908110610a8357610a836116e3565b60009182526020808320909101546001600160a01b03168352820192909252604001902054610ab290836117d3565b9150600101610a45565b509392505050565b60008181548110610ad457600080fd5b60009182526020909120600790910201805460018201546002830154600690930154919350919084565b6000808281548110610b1257610b126116e3565b906000526020600020906007020190504281600601541015610b6b5760405162461bcd60e51b815260206004820152601260248201527110d3105253481411549253d108115391115160721b60448201526064016102e0565b60005b6003820154811015610dd9576000826003018281548110610b9157610b916116e3565b600091825260208083209091015486835260018252604080842033855283528084206001600160a01b039092168085529190925291205490915080610c045760405162461bcd60e51b81526020600482015260096024820152681393c8149155d0549160ba1b60448201526064016102e0565b600085815260026020908152604080832033845282528083206001600160a01b038616845290915290205415610c6e5760405162461bcd60e51b815260206004820152600f60248201526e105314915051164810d31052535151608a1b60448201526064016102e0565b600085815260026020908152604080832033845282528083206001600160a01b0386168452909152902081905560058401805482919085908110610cb457610cb46116e3565b906000526020600020016000828254610ccd91906117ec565b909155505060405163a9059cbb60e01b8152336004820152602481018290526001600160a01b0383169063a9059cbb906044016020604051808303816000875af1158015610d1f573d6000803e3d6000fd5b505050506040513d601f19601f82011682018060405250810190610d43919061168d565b610d815760405162461bcd60e51b815260206004820152600f60248201526e1514905394d1915488119052531151608a1b60448201526064016102e0565b604080518681523360208201526001600160a01b038416818301526060810183905290517f8c714497f80546fab5c937face14f08c9756d3467409ddee11c86ce235c08b229181900360800190a15050600101610b6e565b505050565b604051634f4bdc7b60e11b81526001600160a01b037f00000000000000000000000000000000000000000000000000000000000000001690639e97b8f690610e2c9060049033908201611653565b602060405180830381865afa158015610e49573d6000803e3d6000fd5b505050506040513d601f19601f82011682018060405250810190610e6d919061168d565b610e895760405162461bcd60e51b81526004016102e0906116b6565b6000808581548110610e9d57610e9d6116e3565b906000526020600020906007020190506000816001015411610ed15760405162461bcd60e51b81526004016102e09061178e565b42816002015410610f1c5760405162461bcd60e51b81526020600482015260156024820152741311505111549093d05491081393d5081153911151605a1b60448201526064016102e0565b600681015415610f665760405162461bcd60e51b81526020600482015260156024820152741311505111549093d0549108119253905312569151605a1b60448201526064016102e0565b60038101548314610faa5760405162461bcd60e51b815260206004820152600e60248201526d082a4a482b2409a92a69a82a886960931b60448201526064016102e0565b60005b600382015481101561103557848482818110610fcb57610fcb6116e3565b90506020020135826004018281548110610fe757610fe76116e3565b600091825260209091200155848482818110611005576110056116e3565b90506020020135826005018281548110611021576110216116e3565b600091825260209091200155600101610fad565b5061104082426117d3565b600682018190556040517f706ac36d087bf3945c95e6c805e55b6af2a5e0cb7372aea73ec319c48b09d8219161107c91889188918891906117ff565b60405180910390a15050505050565b604051634f4bdc7b60e11b81526001600160a01b037f00000000000000000000000000000000000000000000000000000000000000001690639e97b8f6906110d99060049033908201611653565b602060405180830381865afa1580156110f6573d6000803e3d6000fd5b505050506040513d601f19601f8201168201806040525081019061111a919061168d565b6111365760405162461bcd60e51b81526004016102e0906116b6565b600080868154811061114a5761114a6116e3565b90600052602060002090600702019050600081600101541161117e5760405162461bcd60e51b81526004016102e09061178e565b8382146111bf5760405162461bcd60e51b815260206004820152600f60248201526e082a4a482b2a6409a92a69a82a8869608b1b60448201526064016102e0565b600381015483836000816111d5576111d56116e3565b90506020028101906111e79190611845565b90501461122d5760405162461bcd60e51b81526020600482015260146024820152730a89e968a9c4082a4a482b2409a92a69a82a886960631b60448201526064016102e0565b60005b8481101561132b5760005b600383015481101561132257848483818110611259576112596116e3565b905060200281019061126b9190611845565b8281811061127b5761127b6116e3565b90506020020135600160008a815260200190815260200160002060008989868181106112a9576112a96116e3565b90506020020160208101906112be91906116f9565b6001600160a01b03166001600160a01b0316815260200190815260200160002060008560030184815481106112f5576112f56116e3565b60009182526020808320909101546001600160a01b0316835282019290925260400190205560010161123b565b50600101611230565b50505050505050565b828054828255906000526020600020908101928215611389579160200282015b8281111561138957825182546001600160a01b0319166001600160a01b03909116178255602090920191600190910190611354565b506113959291506113d4565b5090565b828054828255906000526020600020908101928215611389579160200282015b828111156113895782518255916020019190600101906113b9565b5b8082111561139557600081556001016113d5565b80356001600160a01b038116811461140057600080fd5b919050565b60008060006060848603121561141a57600080fd5b8335925061142a602085016113e9565b9150611438604085016113e9565b90509250925092565b60008083601f84011261145357600080fd5b50813567ffffffffffffffff81111561146b57600080fd5b6020830191508360208260051b850101111561148657600080fd5b9250929050565b6000806000604084860312156114a257600080fd5b83359250602084013567ffffffffffffffff8111156114c057600080fd5b6114cc86828701611441565b9497909650939450505050565b8581526020810185905260408101849052608060608201819052810182905260008360a08301825b8581101561152f576001600160a01b0361151a846113e9565b16825260209283019290910190600101611501565b5098975050505050505050565b6000806040838503121561154f57600080fd5b8235915061155f602084016113e9565b90509250929050565b60006020828403121561157a57600080fd5b5035919050565b6000806000806060858703121561159757600080fd5b84359350602085013567ffffffffffffffff8111156115b557600080fd5b6115c187828801611441565b9598909750949560400135949350505050565b6000806000806000606086880312156115ec57600080fd5b85359450602086013567ffffffffffffffff81111561160a57600080fd5b61161688828901611441565b909550935050604086013567ffffffffffffffff81111561163657600080fd5b61164288828901611441565b969995985093965092949392505050565b60408101600f841061167557634e487b7160e01b600052602160045260246000fd5b9281526001600160a01b039190911660209091015290565b60006020828403121561169f57600080fd5b815180151581146116af57600080fd5b9392505050565b6020808252601390820152722737ba10309029bcb9ba32b6b99020b236b4b760691b604082015260600190565b634e487b7160e01b600052603260045260246000fd5b60006020828403121561170b57600080fd5b6116af826113e9565b634e487b7160e01b600052604160045260246000fd5b60006060820185835284602084015260606040840152808454808352608085019150856000526020600020925060005b818110156117815783546001600160a01b031683526001938401936020909301920161175a565b5090979650505050505050565b6020808252601590820152741311505111549093d05491081393d5081193d55391605a1b604082015260600190565b634e487b7160e01b600052601160045260246000fd5b808201808211156117e6576117e66117bd565b92915050565b818103818111156117e6576117e66117bd565b848152606060208201819052810183905260006001600160fb1b0384111561182657600080fd5b8360051b80866080850137604083019390935250016080019392505050565b6000808335601e1984360301811261185c57600080fd5b83018035915067ffffffffffffffff82111561187757600080fd5b6020019150600581901b360382131561148657600080fdfea2646970667358221220bf486a0b29a292e7ddab5d7897dbe4a367c3fde0211edb98bb6e6e4967622b7264736f6c634300081e0033",
  "linkReferences": {},
  "deployedLinkReferences": {}
}