{
  "_format": "hh-sol-artifact-1",
  "contractName": "SCMetagameGenericDataView",
  "sourceName": "SuperChamps/contracts/Metagame/SCMetagameGenericDataView.sol",
  "abi": [
    {
      "inputs": [
        {
          "internalType": "address",
          "name": "permissions_",
          "type": "address"
        },
        {
          "internalType": "address",
          "name": "metadata_registry_",
          "type": "address"
        }
      ],
      "stateMutability": "nonpayable",
      "type": "constructor"
    },
    {
      "inputs": [
        {
          "internalType": "address",
          "name": "addr_",
          "type": "address"
        }
      ],
      "name": "getBaseMultiplier",
      "outputs": [
        {
          "internalType": "uint256",
          "name": "",
          "type": "uint256"
        }
      ],
      "stateMutability": "view",
      "type": "function"
    },
    {
      "inputs": [
        {
          "internalType": "address",
          "name": "addr_",
          "type": "address"
        },
        {
          "internalType": "string",
          "name": "location_",
          "type": "string"
        }
      ],
      "name": "getMembership",
      "outputs": [
        {
          "internalType": "bool",
          "name": "",
          "type": "bool"
        }
      ],
      "stateMutability": "view",
      "type": "function"
    },
    {
      "inputs": [
        {
          "internalType": "address",
          "name": "addr_",
          "type": "address"
        },
        {
          "internalType": "string",
          "name": "location_",
          "type": "string"
        }
      ],
      "name": "getMultiplier",
      "outputs": [
        {
          "internalType": "uint256",
          "name": "",
          "type": "uint256"
        }
      ],
      "stateMutability": "view",
      "type": "function"
    },
    {
      "inputs": [
        {
          "internalType": "string",
          "name": "",
          "type": "string"
        }
      ],
      "name": "location_views",
      "outputs": [
        {
          "internalType": "contract ISCMetagameDataSource",
          "name": "",
          "type": "address"
        }
      ],
      "stateMutability": "view",
      "type": "function"
    },
    {
      "inputs": [],
      "name": "metadata_registry",
      "outputs": [
        {
          "internalType": "contract ISCMetagameRegistry",
          "name": "",
          "type": "address"
        }
      ],
      "stateMutability": "view",
      "type": "function"
    },
    {
      "inputs": [],
      "name": "permissions",
      "outputs": [
        {
          "internalType": "contract IPermissionsManager",
          "name": "",
          "type": "address"
        }
      ],
      "stateMutability": "view",
      "type": "function"
    },
    {
      "inputs": [
        {
          "internalType": "address",
          "name": "view_",
          "type": "address"
        },
        {
          "internalType": "string",
          "name": "location_",
          "type": "string"
        }
      ],
      "name": "setLocationView",
      "outputs": [],
      "stateMutability": "nonpayable",
      "type": "function"
    }
  ],
  "bytecode": "0x60a060405234801561001057600080fd5b5060405161096738038061096783398101604081905261002f91610073565b6001600160a01b03918216608052600080546001600160a01b031916919092161790556100a6565b80516001600160a01b038116811461006e57600080fd5b919050565b6000806040838503121561008657600080fd5b61008f83610057565b915061009d60208401610057565b90509250929050565b60805161089f6100c8600039600081816101340152610222015261089f6000f3fe608060405234801561001057600080fd5b506004361061007d5760003560e01c80638409833e1161005b5780638409833e146100d0578063867abf95146100fb578063ab8c71c01461012f578063d23614b11461015657600080fd5b80630bec39c6146100825780631410f5de146100a8578063274d8cc8146100bd575b600080fd5b61009561009036600461056f565b610179565b6040519081526020015b60405180910390f35b6100bb6100b636600461064f565b61020b565b005b6100956100cb36600461064f565b610324565b6000546100e3906001600160a01b031681565b6040516001600160a01b03909116815260200161009f565b6100e361010936600461069d565b80516020818301810180516001825292820191909301209152546001600160a01b031681565b6100e37f000000000000000000000000000000000000000000000000000000000000000081565b61016961016436600461064f565b6103d7565b604051901515815260200161009f565b60408051600181528151908190036020018120546304e9b19960e31b82526001600160a01b038481166004840152602483019390935260006044830181905292169063274d8cc890606401602060405180830381865afa1580156101e1573d6000803e3d6000fd5b505050506040513d601f19601f8201168201806040525081019061020591906106da565b92915050565b604051634f4bdc7b60e11b81526001600160a01b037f00000000000000000000000000000000000000000000000000000000000000001690639e97b8f69061025990600490339082016106f3565b602060405180830381865afa158015610276573d6000803e3d6000fd5b505050506040513d601f19601f8201168201806040525081019061029a919061072d565b6102e05760405162461bcd60e51b81526020600482015260136024820152722737ba10309029bcb9ba32b6b99020b236b4b760691b604482015260640160405180910390fd5b816001826040516102f19190610773565b90815260405190819003602001902080546001600160a01b03929092166001600160a01b03199092169190911790555050565b60006001826040516103369190610773565b908152604051908190036020018120546304e9b19960e31b82526001600160a01b03169063274d8cc890610370908690869060040161078f565b602060405180830381865afa15801561038d573d6000803e3d6000fd5b505050506040513d601f19601f820116820180604052508101906103b191906106da565b6103ba84610179565b6103c6906127106107d1565b6103d091906107d1565b9392505050565b6000806001600160a01b03166001836040516103f39190610773565b908152604051908190036020019020546001600160a01b0316036104c157815160208084019190912060005460408051808201825260088152673437b6b2ba37bbb760c11b9481019490945251630d08914d60e31b815291926001600160a01b03909116916368448a689161046d9188919060040161078f565b600060405180830381865afa15801561048a573d6000803e3d6000fd5b505050506040513d6000823e601f3d908101601f191682016040526104b291908101906107f2565b80519060200120149050610205565b6001826040516104d19190610773565b9081526040519081900360200181205463d23614b160e01b82526001600160a01b03169063d23614b19061050b908690869060040161078f565b602060405180830381865afa158015610528573d6000803e3d6000fd5b505050506040513d601f19601f8201168201806040525081019061054c919061072d565b9050610205565b80356001600160a01b038116811461056a57600080fd5b919050565b60006020828403121561058157600080fd5b6103d082610553565b634e487b7160e01b600052604160045260246000fd5b604051601f8201601f1916810167ffffffffffffffff811182821017156105c9576105c961058a565b604052919050565b600067ffffffffffffffff8211156105eb576105eb61058a565b50601f01601f191660200190565b600082601f83011261060a57600080fd5b813561061d610618826105d1565b6105a0565b81815284602083860101111561063257600080fd5b816020850160208301376000918101602001919091529392505050565b6000806040838503121561066257600080fd5b61066b83610553565b9150602083013567ffffffffffffffff81111561068757600080fd5b610693858286016105f9565b9150509250929050565b6000602082840312156106af57600080fd5b813567ffffffffffffffff8111156106c657600080fd5b6106d2848285016105f9565b949350505050565b6000602082840312156106ec57600080fd5b5051919050565b60408101600f841061071557634e487b7160e01b600052602160045260246000fd5b9281526001600160a01b039190911660209091015290565b60006020828403121561073f57600080fd5b815180151581146103d057600080fd5b60005b8381101561076a578181015183820152602001610752565b50506000910152565b6000825161078581846020870161074f565b9190910192915050565b60018060a01b038316815260406020820152600082518060408401526107bc81606085016020870161074f565b601f01601f1916919091016060019392505050565b8082018082111561020557634e487b7160e01b600052601160045260246000fd5b60006020828403121561080457600080fd5b815167ffffffffffffffff81111561081b57600080fd5b8201601f8101841361082c57600080fd5b805161083a610618826105d1565b81815285602083850101111561084f57600080fd5b61086082602083016020860161074f565b9594505050505056fea2646970667358221220b6f66336c35e82bd47137501fae79841fbe3d4943f07cb44577defdf82d85d1864736f6c63430008180033",
  "linkReferences": {},
  "deployedLinkReferences": {}
}