{
  "_format": "hh-sol-artifact-1",
  "contractName": "SCAccessPassRenderer",
  "sourceName": "SuperChamps/contracts/NFTs/SCAccessPassRenderer.sol",
  "abi": [
    {
      "inputs": [
        {
          "internalType": "contract IPermissionsManager",
          "name": "permissions_",
          "type": "address"
        },
        {
          "internalType": "contract ISCAccessPass",
          "name": "access_pass_",
          "type": "address"
        },
        {
          "internalType": "string",
          "name": "name_",
          "type": "string"
        },
        {
          "internalType": "string",
          "name": "symbol_",
          "type": "string"
        },
        {
          "internalType": "string",
          "name": "uri_",
          "type": "string"
        }
      ],
      "stateMutability": "nonpayable",
      "type": "constructor"
    },
    {
      "inputs": [],
      "name": "name",
      "outputs": [
        {
          "internalType": "string",
          "name": "",
          "type": "string"
        }
      ],
      "stateMutability": "view",
      "type": "function"
    },
    {
      "inputs": [
        {
          "internalType": "address",
          "name": "access_pass_",
          "type": "address"
        }
      ],
      "name": "setAccessPass",
      "outputs": [],
      "stateMutability": "nonpayable",
      "type": "function"
    },
    {
      "inputs": [
        {
          "internalType": "string",
          "name": "uri_",
          "type": "string"
        },
        {
          "internalType": "bool",
          "name": "concatenate_ids_",
          "type": "bool"
        }
      ],
      "name": "setURI",
      "outputs": [],
      "stateMutability": "nonpayable",
      "type": "function"
    },
    {
      "inputs": [],
      "name": "symbol",
      "outputs": [
        {
          "internalType": "string",
          "name": "",
          "type": "string"
        }
      ],
      "stateMutability": "view",
      "type": "function"
    },
    {
      "inputs": [
        {
          "internalType": "uint256[]",
          "name": "token_id_elements_",
          "type": "uint256[]"
        }
      ],
      "name": "tokenURI",
      "outputs": [
        {
          "internalType": "string",
          "name": "",
          "type": "string"
        }
      ],
      "stateMutability": "view",
      "type": "function"
    },
    {
      "inputs": [
        {
          "internalType": "uint256",
          "name": "token_id_",
          "type": "uint256"
        }
      ],
      "name": "tokenURI",
      "outputs": [
        {
          "internalType": "string",
          "name": "",
          "type": "string"
        }
      ],
      "stateMutability": "view",
      "type": "function"
    }
  ],
  "bytecode": "0x60a06040523480156200001157600080fd5b5060405162000e6938038062000e69833981016040819052620000349162000172565b6001600160a01b03858116608052600080546001600160a01b0319169186169190911790556001620000678482620002c0565b506002620000768382620002c0565b506003620000858282620002c0565b5050505050506200038c565b6001600160a01b0381168114620000a757600080fd5b50565b634e487b7160e01b600052604160045260246000fd5b600082601f830112620000d257600080fd5b81516001600160401b0380821115620000ef57620000ef620000aa565b604051601f8301601f19908116603f011681019082821181831017156200011a576200011a620000aa565b81604052838152602092508660208588010111156200013857600080fd5b600091505b838210156200015c57858201830151818301840152908201906200013d565b6000602085830101528094505050505092915050565b600080600080600060a086880312156200018b57600080fd5b8551620001988162000091565b6020870151909550620001ab8162000091565b60408701519094506001600160401b0380821115620001c957600080fd5b620001d789838a01620000c0565b94506060880151915080821115620001ee57600080fd5b620001fc89838a01620000c0565b935060808801519150808211156200021357600080fd5b506200022288828901620000c0565b9150509295509295909350565b600181811c908216806200024457607f821691505b6020821081036200026557634e487b7160e01b600052602260045260246000fd5b50919050565b601f821115620002bb576000816000526020600020601f850160051c81016020861015620002965750805b601f850160051c820191505b81811015620002b757828155600101620002a2565b5050505b505050565b81516001600160401b03811115620002dc57620002dc620000aa565b620002f481620002ed84546200022f565b846200026b565b602080601f8311600181146200032c5760008415620003135750858301515b600019600386901b1c1916600185901b178555620002b7565b600085815260208120601f198616915b828110156200035d578886015182559484019460019091019084016200033c565b50858210156200037c5787850151600019600388901b60f8161c191681555b5050505050600190811b01905550565b608051610aba620003af600039600081816101af01526102690152610aba6000f3fe608060405234801561001057600080fd5b50600436106100625760003560e01c806306fdde031461006757806310d4fe081461008557806383aea88b14610098578063876a4cdc146100ad57806395d89b41146100c0578063c87b56dd146100c8575b600080fd5b61006f6100db565b60405161007c91906105d8565b60405180910390f35b61006f610093366004610652565b61016d565b6100ab6100a63660046106f8565b610198565b005b6100ab6100bb366004610744565b610252565b61006f61030b565b61006f6100d63660046107ea565b61031a565b6060600180546100ea90610803565b80601f016020809104026020016040519081016040528092919081815260200182805461011690610803565b80156101635780601f1061013857610100808354040283529160200191610163565b820191906000526020600020905b81548152906001019060200180831161014657829003601f168201915b5050505050905090565b6060610192826000815181106101855761018561083d565b602002602001015161031a565b92915050565b604051634f4bdc7b60e11b81526001600160a01b037f00000000000000000000000000000000000000000000000000000000000000001690639e97b8f6906101e69060049033908201610853565b602060405180830381865afa158015610203573d6000803e3d6000fd5b505050506040513d601f19601f82011682018060405250810190610227919061088d565b61023057600080fd5b600080546001600160a01b0319166001600160a01b0392909216919091179055565b604051634f4bdc7b60e11b81526001600160a01b037f00000000000000000000000000000000000000000000000000000000000000001690639e97b8f6906102a09060049033908201610853565b602060405180830381865afa1580156102bd573d6000803e3d6000fd5b505050506040513d601f19601f820116820180604052508101906102e1919061088d565b6102ea57600080fd5b60036102f683826108fb565b506004805460ff191691151591909117905550565b6060600280546100ea90610803565b60045460609060ff16156103845760006003805461033790610803565b9050116103535760405180602001604052806000815250610192565b600361035e83610449565b60405160200161036f9291906109bb565b60405160208183030381529060405292915050565b60008054604051630219207560e61b8152600481018590526001600160a01b03909116906386481d4090602401602060405180830381865afa1580156103ce573d6000803e3d6000fd5b505050506040513d601f19601f820116820180604052508101906103f29190610a42565b905060036103ff82610449565b60405160200161040f9190610a5b565b60408051601f198184030181529082905261042d92916020016109bb565b604051602081830303815290604052915050919050565b919050565b60606000610456836104dc565b600101905060008167ffffffffffffffff8111156104765761047661060b565b6040519080825280601f01601f1916602001820160405280156104a0576020820181803683370190505b5090508181016020015b600019016f181899199a1a9b1b9c1cb0b131b232b360811b600a86061a8153600a85049450846104aa57509392505050565b60008072184f03e93ff9f4daa797ed6e38ed64bf6a1f0160401b831061051b5772184f03e93ff9f4daa797ed6e38ed64bf6a1f0160401b830492506040015b6d04ee2d6d415b85acef81000000008310610547576d04ee2d6d415b85acef8100000000830492506020015b662386f26fc10000831061056557662386f26fc10000830492506010015b6305f5e100831061057d576305f5e100830492506008015b612710831061059157612710830492506004015b606483106105a3576064830492506002015b600a83106101925760010192915050565b60005b838110156105cf5781810151838201526020016105b7565b50506000910152565b60208152600082518060208401526105f78160408501602087016105b4565b601f01601f19169190910160400192915050565b634e487b7160e01b600052604160045260246000fd5b604051601f8201601f1916810167ffffffffffffffff8111828210171561064a5761064a61060b565b604052919050565b6000602080838503121561066557600080fd5b823567ffffffffffffffff8082111561067d57600080fd5b818501915085601f83011261069157600080fd5b8135818111156106a3576106a361060b565b8060051b91506106b4848301610621565b81815291830184019184810190888411156106ce57600080fd5b938501935b838510156106ec578435825293850193908501906106d3565b98975050505050505050565b60006020828403121561070a57600080fd5b81356001600160a01b038116811461072157600080fd5b9392505050565b801515811461073657600080fd5b50565b803561044481610728565b6000806040838503121561075757600080fd5b823567ffffffffffffffff8082111561076f57600080fd5b818501915085601f83011261078357600080fd5b81356020828211156107975761079761060b565b6107a9601f8301601f19168201610621565b925081835287818386010111156107bf57600080fd5b818185018285013760008183850101528295506107dd818801610739565b9450505050509250929050565b6000602082840312156107fc57600080fd5b5035919050565b600181811c9082168061081757607f821691505b60208210810361083757634e487b7160e01b600052602260045260246000fd5b50919050565b634e487b7160e01b600052603260045260246000fd5b60408101600f841061087557634e487b7160e01b600052602160045260246000fd5b9281526001600160a01b039190911660209091015290565b60006020828403121561089f57600080fd5b815161072181610728565b601f8211156108f6576000816000526020600020601f850160051c810160208610156108d35750805b601f850160051c820191505b818110156108f2578281556001016108df565b5050505b505050565b815167ffffffffffffffff8111156109155761091561060b565b610929816109238454610803565b846108aa565b602080601f83116001811461095e57600084156109465750858301515b600019600386901b1c1916600185901b1785556108f2565b600085815260208120601f198616915b8281101561098d5788860151825594840194600190910190840161096e565b50858210156109ab5787850151600019600388901b60f8161c191681555b5050505050600190811b01905550565b60008084546109c981610803565b600182811680156109e157600181146109f657610a25565b60ff1984168752821515830287019450610a25565b8860005260208060002060005b85811015610a1c5781548a820152908401908201610a03565b50505082870194505b505050508351610a398183602088016105b4565b01949350505050565b600060208284031215610a5457600080fd5b5051919050565b602f60f81b815260008251610a778160018501602087016105b4565b919091016001019291505056fea2646970667358221220795bc08bb56d43a143ec6223bd6bc9999892bf4eb53001fdf8cc251b3d173fb564736f6c63430008180033",
  "linkReferences": {},
  "deployedLinkReferences": {}
}