{
  "_format": "hh-sol-artifact-1",
  "contractName": "SCAccessPassRenderer",
  "sourceName": "SuperChamps/contracts/NFTs/SCAccessPassRenderer.sol",
  "abi": [
    {
      "inputs": [
        {
          "internalType": "contract IPermissionsManager",
          "name": "permissions_",
          "type": "address"
        },
        {
          "internalType": "contract ISCAccessPass",
          "name": "access_pass_",
          "type": "address"
        },
        {
          "internalType": "string",
          "name": "name_",
          "type": "string"
        },
        {
          "internalType": "string",
          "name": "symbol_",
          "type": "string"
        },
        {
          "internalType": "string",
          "name": "uri_",
          "type": "string"
        }
      ],
      "stateMutability": "nonpayable",
      "type": "constructor"
    },
    {
      "inputs": [],
      "name": "name",
      "outputs": [
        {
          "internalType": "string",
          "name": "",
          "type": "string"
        }
      ],
      "stateMutability": "view",
      "type": "function"
    },
    {
      "inputs": [
        {
          "internalType": "address",
          "name": "access_pass_",
          "type": "address"
        }
      ],
      "name": "setAccessPass",
      "outputs": [],
      "stateMutability": "nonpayable",
      "type": "function"
    },
    {
      "inputs": [
        {
          "internalType": "string",
          "name": "uri_",
          "type": "string"
        },
        {
          "internalType": "bool",
          "name": "concatenate_ids_",
          "type": "bool"
        }
      ],
      "name": "setURI",
      "outputs": [],
      "stateMutability": "nonpayable",
      "type": "function"
    },
    {
      "inputs": [],
      "name": "symbol",
      "outputs": [
        {
          "internalType": "string",
          "name": "",
          "type": "string"
        }
      ],
      "stateMutability": "view",
      "type": "function"
    },
    {
      "inputs": [
        {
          "internalType": "uint256[]",
          "name": "token_id_elements_",
          "type": "uint256[]"
        }
      ],
      "name": "tokenURI",
      "outputs": [
        {
          "internalType": "string",
          "name": "",
          "type": "string"
        }
      ],
      "stateMutability": "view",
      "type": "function"
    },
    {
      "inputs": [
        {
          "internalType": "uint256",
          "name": "token_id_",
          "type": "uint256"
        }
      ],
      "name": "tokenURI",
      "outputs": [
        {
          "internalType": "string",
          "name": "",
          "type": "string"
        }
      ],
      "stateMutability": "view",
      "type": "function"
    }
  ],
  "bytecode": "0x60a060405234801561001057600080fd5b50604051610e42380380610e4283398101604081905261002f91610156565b6001600160a01b03858116608052600080546001600160a01b0319169186169190911790556001610060848261029c565b50600261006d838261029c565b50600361007a828261029c565b50505050505061035a565b6001600160a01b038116811461009a57600080fd5b50565b634e487b7160e01b600052604160045260246000fd5b600082601f8301126100c457600080fd5b81516001600160401b038111156100dd576100dd61009d565b604051601f8201601f19908116603f011681016001600160401b038111828210171561010b5761010b61009d565b60405281815283820160200185101561012357600080fd5b60005b8281101561014257602081860181015183830182015201610126565b506000918101602001919091529392505050565b600080600080600060a0868803121561016e57600080fd5b855161017981610085565b602087015190955061018a81610085565b60408701519094506001600160401b038111156101a657600080fd5b6101b2888289016100b3565b606088015190945090506001600160401b038111156101d057600080fd5b6101dc888289016100b3565b608088015190935090506001600160401b038111156101fa57600080fd5b610206888289016100b3565b9150509295509295909350565b600181811c9082168061022757607f821691505b60208210810361024757634e487b7160e01b600052602260045260246000fd5b50919050565b601f82111561029757806000526020600020601f840160051c810160208510156102745750805b601f840160051c820191505b818110156102945760008155600101610280565b50505b505050565b81516001600160401b038111156102b5576102b561009d565b6102c9816102c38454610213565b8461024d565b6020601f8211600181146102fd57600083156102e55750848201515b600019600385901b1c1916600184901b178455610294565b600084815260208120601f198516915b8281101561032d578785015182556020948501946001909201910161030d565b508482101561034b5786840151600019600387901b60f8161c191681555b50505050600190811b01905550565b608051610ac661037c600039600081816101af01526102690152610ac66000f3fe608060405234801561001057600080fd5b50600436106100625760003560e01c806306fdde031461006757806310d4fe081461008557806383aea88b14610098578063876a4cdc146100ad57806395d89b41146100c0578063c87b56dd146100c8575b600080fd5b61006f6100db565b60405161007c91906105d8565b60405180910390f35b61006f610093366004610652565b61016d565b6100ab6100a6366004610703565b610198565b005b6100ab6100bb36600461074f565b610252565b61006f61030b565b61006f6100d63660046107fa565b61031a565b6060600180546100ea90610813565b80601f016020809104026020016040519081016040528092919081815260200182805461011690610813565b80156101635780601f1061013857610100808354040283529160200191610163565b820191906000526020600020905b81548152906001019060200180831161014657829003601f168201915b5050505050905090565b6060610192826000815181106101855761018561084d565b602002602001015161031a565b92915050565b604051634f4bdc7b60e11b81526001600160a01b037f00000000000000000000000000000000000000000000000000000000000000001690639e97b8f6906101e69060049033908201610863565b602060405180830381865afa158015610203573d6000803e3d6000fd5b505050506040513d601f19601f82011682018060405250810190610227919061089d565b61023057600080fd5b600080546001600160a01b0319166001600160a01b0392909216919091179055565b604051634f4bdc7b60e11b81526001600160a01b037f00000000000000000000000000000000000000000000000000000000000000001690639e97b8f6906102a09060049033908201610863565b602060405180830381865afa1580156102bd573d6000803e3d6000fd5b505050506040513d601f19601f820116820180604052508101906102e1919061089d565b6102ea57600080fd5b60036102f68382610909565b506004805460ff191691151591909117905550565b6060600280546100ea90610813565b60045460609060ff16156103845760006003805461033790610813565b9050116103535760405180602001604052806000815250610192565b600361035e83610449565b60405160200161036f9291906109c8565b60405160208183030381529060405292915050565b60008054604051630219207560e61b8152600481018590526001600160a01b03909116906386481d4090602401602060405180830381865afa1580156103ce573d6000803e3d6000fd5b505050506040513d601f19601f820116820180604052508101906103f29190610a4e565b905060036103ff82610449565b60405160200161040f9190610a67565b60408051601f198184030181529082905261042d92916020016109c8565b604051602081830303815290604052915050919050565b919050565b60606000610456836104dc565b600101905060008167ffffffffffffffff8111156104765761047661060b565b6040519080825280601f01601f1916602001820160405280156104a0576020820181803683370190505b5090508181016020015b600019016f181899199a1a9b1b9c1cb0b131b232b360811b600a86061a8153600a85049450846104aa57509392505050565b60008072184f03e93ff9f4daa797ed6e38ed64bf6a1f0160401b831061051b5772184f03e93ff9f4daa797ed6e38ed64bf6a1f0160401b830492506040015b6d04ee2d6d415b85acef81000000008310610547576d04ee2d6d415b85acef8100000000830492506020015b662386f26fc10000831061056557662386f26fc10000830492506010015b6305f5e100831061057d576305f5e100830492506008015b612710831061059157612710830492506004015b606483106105a3576064830492506002015b600a83106101925760010192915050565b60005b838110156105cf5781810151838201526020016105b7565b50506000910152565b60208152600082518060208401526105f78160408501602087016105b4565b601f01601f19169190910160400192915050565b634e487b7160e01b600052604160045260246000fd5b604051601f8201601f1916810167ffffffffffffffff8111828210171561064a5761064a61060b565b604052919050565b60006020828403121561066457600080fd5b813567ffffffffffffffff81111561067b57600080fd5b8201601f8101841361068c57600080fd5b803567ffffffffffffffff8111156106a6576106a661060b565b8060051b6106b660208201610621565b918252602081840181019290810190878411156106d257600080fd5b6020850194505b838510156106f8578435808352602095860195909350909101906106d9565b979650505050505050565b60006020828403121561071557600080fd5b81356001600160a01b038116811461072c57600080fd5b9392505050565b801515811461074157600080fd5b50565b803561044481610733565b6000806040838503121561076257600080fd5b823567ffffffffffffffff81111561077957600080fd5b8301601f8101851361078a57600080fd5b803567ffffffffffffffff8111156107a4576107a461060b565b6107b7601f8201601f1916602001610621565b8181528660208385010111156107cc57600080fd5b816020840160208301376000602083830101528094505050506107f160208401610744565b90509250929050565b60006020828403121561080c57600080fd5b5035919050565b600181811c9082168061082757607f821691505b60208210810361084757634e487b7160e01b600052602260045260246000fd5b50919050565b634e487b7160e01b600052603260045260246000fd5b60408101600f841061088557634e487b7160e01b600052602160045260246000fd5b9281526001600160a01b039190911660209091015290565b6000602082840312156108af57600080fd5b815161072c81610733565b601f82111561090457806000526020600020601f840160051c810160208510156108e15750805b601f840160051c820191505b8181101561090157600081556001016108ed565b50505b505050565b815167ffffffffffffffff8111156109235761092361060b565b610937816109318454610813565b846108ba565b6020601f82116001811461096b57600083156109535750848201515b600019600385901b1c1916600184901b178455610901565b600084815260208120601f198516915b8281101561099b578785015182556020948501946001909201910161097b565b50848210156109b95786840151600019600387901b60f8161c191681555b50505050600190811b01905550565b60008084546109d681610813565b6001821680156109ed5760018114610a0257610a32565b60ff1983168652811515820286019350610a32565b87600052602060002060005b83811015610a2a57815488820152600190910190602001610a0e565b505081860193505b5050508351610a458183602088016105b4565b01949350505050565b600060208284031215610a6057600080fd5b5051919050565b602f60f81b815260008251610a838160018501602087016105b4565b919091016001019291505056fea2646970667358221220e2942081f02b8e083d903b606a70671f0dd6f54b095496cb8fc69e4dcb4774ba64736f6c634300081e0033",
  "linkReferences": {},
  "deployedLinkReferences": {}
}