{
  "_format": "hh-sol-artifact-1",
  "contractName": "SCMetagameRegistry",
  "sourceName": "SuperChamps/contracts/Metagame/SCMetagameRegistry.sol",
  "abi": [
    {
      "inputs": [
        {
          "internalType": "address",
          "name": "permissions_",
          "type": "address"
        }
      ],
      "stateMutability": "nonpayable",
      "type": "constructor"
    },
    {
      "inputs": [
        {
          "internalType": "address",
          "name": "address_",
          "type": "address"
        }
      ],
      "name": "addressToUserID",
      "outputs": [
        {
          "internalType": "string",
          "name": "",
          "type": "string"
        }
      ],
      "stateMutability": "view",
      "type": "function"
    },
    {
      "inputs": [
        {
          "internalType": "string",
          "name": "user_id_",
          "type": "string"
        },
        {
          "internalType": "address",
          "name": "add_address_",
          "type": "address"
        },
        {
          "internalType": "string",
          "name": "updated_key_",
          "type": "string"
        },
        {
          "internalType": "string",
          "name": "updated_value_",
          "type": "string"
        },
        {
          "internalType": "uint256",
          "name": "signature_expiry_ts_",
          "type": "uint256"
        },
        {
          "internalType": "uint256",
          "name": "signature_nonce_",
          "type": "uint256"
        }
      ],
      "name": "hashMessage",
      "outputs": [
        {
          "internalType": "bytes32",
          "name": "",
          "type": "bytes32"
        }
      ],
      "stateMutability": "pure",
      "type": "function"
    },
    {
      "inputs": [
        {
          "internalType": "address",
          "name": "address_",
          "type": "address"
        },
        {
          "internalType": "string",
          "name": "metadata_key_",
          "type": "string"
        }
      ],
      "name": "metadataFromAddress",
      "outputs": [
        {
          "internalType": "string",
          "name": "",
          "type": "string"
        }
      ],
      "stateMutability": "view",
      "type": "function"
    },
    {
      "inputs": [
        {
          "internalType": "string",
          "name": "user_id_",
          "type": "string"
        },
        {
          "internalType": "string",
          "name": "metadata_key_",
          "type": "string"
        }
      ],
      "name": "metadataFromUserID",
      "outputs": [
        {
          "internalType": "string",
          "name": "",
          "type": "string"
        }
      ],
      "stateMutability": "view",
      "type": "function"
    },
    {
      "inputs": [],
      "name": "permissions",
      "outputs": [
        {
          "internalType": "contract IPermissionsManager",
          "name": "",
          "type": "address"
        }
      ],
      "stateMutability": "view",
      "type": "function"
    },
    {
      "inputs": [
        {
          "internalType": "address",
          "name": "tokenAddress_",
          "type": "address"
        },
        {
          "internalType": "uint256",
          "name": "tokenAmount_",
          "type": "uint256"
        }
      ],
      "name": "recoverERC20",
      "outputs": [],
      "stateMutability": "nonpayable",
      "type": "function"
    },
    {
      "inputs": [
        {
          "internalType": "string",
          "name": "user_id_",
          "type": "string"
        },
        {
          "internalType": "address",
          "name": "add_address_",
          "type": "address"
        },
        {
          "internalType": "string",
          "name": "updated_key_",
          "type": "string"
        },
        {
          "internalType": "string",
          "name": "updated_value_",
          "type": "string"
        },
        {
          "internalType": "uint256",
          "name": "signature_expiry_ts_",
          "type": "uint256"
        },
        {
          "internalType": "uint256",
          "name": "signature_nonce_",
          "type": "uint256"
        },
        {
          "internalType": "bytes",
          "name": "signature_",
          "type": "bytes"
        }
      ],
      "name": "registerUserInfo",
      "outputs": [],
      "stateMutability": "nonpayable",
      "type": "function"
    },
    {
      "inputs": [
        {
          "internalType": "string",
          "name": "",
          "type": "string"
        }
      ],
      "name": "uid_hash_last_nonce",
      "outputs": [
        {
          "internalType": "uint256",
          "name": "",
          "type": "uint256"
        }
      ],
      "stateMutability": "view",
      "type": "function"
    }
  ],
  "bytecode": "0x60a060405234801561001057600080fd5b506040516112ba3803806112ba83398101604081905261002f91610040565b6001600160a01b0316608052610070565b60006020828403121561005257600080fd5b81516001600160a01b038116811461006957600080fd5b9392505050565b60805161121a6100a0600039600081816101040152818161041b015281816108ca01526109a1015261121a6000f3fe608060405234801561001057600080fd5b50600436106100885760003560e01c8063ab8c71c01161005b578063ab8c71c0146100ff578063b3bffde31461013e578063d027e13014610151578063ee05ce5f1461017c57600080fd5b80631fe25e4f1461008d578063224942b3146100b657806368448a68146100d75780638980f11f146100ea575b600080fd5b6100a061009b366004610bf1565b61018f565b6040516100ad9190610c37565b60405180910390f35b6100c96100c4366004610d0d565b610246565b6040519081526020016100ad565b6100a06100e5366004610e09565b61032c565b6100fd6100f8366004610e5b565b610404565b005b6101267f000000000000000000000000000000000000000000000000000000000000000081565b6040516001600160a01b0390911681526020016100ad565b6100a061014c366004610e85565b610550565b6100c961015f366004610ef4565b805160208183018101805160048252928201919093012091525481565b6100fd61018a366004610f30565b61063f565b6001600160a01b038116600090815260208181526040808320548352600190915290208054606091906101c190611016565b80601f01602080910402602001604051908101604052809291908181526020018280546101ed90611016565b801561023a5780601f1061020f5761010080835404028352916020019161023a565b820191906000526020600020905b81548152906001019060200180831161021d57829003601f168201915b50505050509050919050565b6000866040516020016102599190611050565b6040516020818303038152906040528051906020012086866040516020016102819190611050565b60405160208183030381529060405280519060200120866040516020016102a89190611050565b60405160208183030381529060405280519060200120868660405160200161030a9695949392919095865260609490941b6bffffffffffffffffffffffff19166020860152603485019290925260548401526074830152609482015260b40190565b6040516020818303038152906040528051906020012090509695505050505050565b6001600160a01b038316600090815260208181526040808320548352600290915290819020905160609190610364908590859061106c565b9081526020016040518091039020805461037d90611016565b80601f01602080910402602001604051908101604052809291908181526020018280546103a990611016565b80156103f65780601f106103cb576101008083540402835291602001916103f6565b820191906000526020600020905b8154815290600101906020018083116103d957829003601f168201915b505050505090509392505050565b604051634f4bdc7b60e11b81526001600160a01b037f00000000000000000000000000000000000000000000000000000000000000001690639e97b8f69061045390600190339060040161107c565b602060405180830381865afa158015610470573d6000803e3d6000fd5b505050506040513d601f19601f8201168201806040525081019061049491906110b6565b6104da5760405162461bcd60e51b81526020600482015260126024820152712737ba10309023b637b130b61020b236b4b760711b60448201526064015b60405180910390fd5b60405163a9059cbb60e01b8152336004820152602481018290526001600160a01b0383169063a9059cbb906044016020604051808303816000875af1158015610527573d6000803e3d6000fd5b505050506040513d601f19601f8201168201806040525081019061054b91906110b6565b505050565b60606000858560405160200161056792919061106c565b60408051601f198184030181528282528051602091820120600081815260029092529190209092509061059d908690869061106c565b908152602001604051809103902080546105b690611016565b80601f01602080910402602001604051908101604052809291908181526020018280546105e290611016565b801561062f5780601f106106045761010080835404028352916020019161062f565b820191906000526020600020905b81548152906001019060200180831161061257829003601f168201915b5050505050915050949350505050565b801561098a574284116106855760405162461bcd60e51b815260206004820152600e60248201526d494e56414c49442045585049525960901b60448201526064016104d1565b826004896040516106969190611050565b908152602001604051809103902054106106e35760405162461bcd60e51b815260206004820152600e60248201526d434f4e53554d4544204e4f4e434560901b60448201526064016104d1565b600382826040516106f592919061106c565b9081526040519081900360200190205460ff161561074a5760405162461bcd60e51b8152602060048201526012602482015271434f4e53554d4544205349474e415455524560701b60448201526064016104d1565b8260048960405161075b9190611050565b90815260200160405180910390208190555060016003838360405161078192919061106c565b908152604051908190036020019020805491151560ff1990921691909117905560006107b1898989898989610246565b6040517f19457468657265756d205369676e6564204d6573736167653a0a3332000000006020820152603c8101829052909150605c01604051602081830303815290604052805190602001209050600080600061084386868080601f016020809104026020016040519081016040528093929190818152602001838380828437600092019190915250610b6192505050565b925092509250600060018583868660405160008152602001604052604051610887949392919093845260ff9290921660208401526040830152606082015260800190565b6020604051602081039080840390855afa1580156108a9573d6000803e3d6000fd5b5050604051601f19810151634f4bdc7b60e11b825292506001600160a01b037f0000000000000000000000000000000000000000000000000000000000000000169150639e97b8f690610902906004908590820161107c565b602060405180830381865afa15801561091f573d6000803e3d6000fd5b505050506040513d601f19601f8201168201806040525081019061094391906110b6565b6109805760405162461bcd60e51b815260206004820152600e60248201526d24a72b20a624a21029a4a3a722a960911b60448201526064016104d1565b5050505050610a56565b604051634f4bdc7b60e11b81526001600160a01b037f00000000000000000000000000000000000000000000000000000000000000001690639e97b8f6906109d8906004903390820161107c565b602060405180830381865afa1580156109f5573d6000803e3d6000fd5b505050506040513d601f19601f82011682018060405250810190610a1991906110b6565b610a565760405162461bcd60e51b815260206004820152600e60248201526d1393d5081055551213d49256915160921b60448201526064016104d1565b600088604051602001610a699190611050565b60408051601f198184030181529181528151602092830120600081815260019093529120909150610a9a8a82611126565b506001600160a01b03881660009081526020819052604090205415610b015760405162461bcd60e51b815260206004820152601a60248201527f4144445245535320414c5245414459205245474953544552454400000000000060448201526064016104d1565b6001600160a01b038816600090815260208181526040808320849055838352600290915290819020905187908290610b3a908b90611050565b90815260200160405180910390209081610b549190611126565b5050505050505050505050565b60008060008351604114610bb75760405162461bcd60e51b815260206004820152601860248201527f494e56414c4944205349474e4154555245204c454e475448000000000000000060448201526064016104d1565b50505060208101516040820151606090920151909260009190911a90565b80356001600160a01b0381168114610bec57600080fd5b919050565b600060208284031215610c0357600080fd5b610c0c82610bd5565b9392505050565b60005b83811015610c2e578181015183820152602001610c16565b50506000910152565b6020815260008251806020840152610c56816040850160208701610c13565b601f01601f19169190910160400192915050565b634e487b7160e01b600052604160045260246000fd5b600082601f830112610c9157600080fd5b81356001600160401b03811115610caa57610caa610c6a565b604051601f8201601f19908116603f011681016001600160401b0381118282101715610cd857610cd8610c6a565b604052818152838201602001851015610cf057600080fd5b816020850160208301376000918101602001919091529392505050565b60008060008060008060c08789031215610d2657600080fd5b86356001600160401b03811115610d3c57600080fd5b610d4889828a01610c80565b965050610d5760208801610bd5565b945060408701356001600160401b03811115610d7257600080fd5b610d7e89828a01610c80565b94505060608701356001600160401b03811115610d9a57600080fd5b610da689828a01610c80565b9699959850939660808101359560a090910135945092505050565b60008083601f840112610dd357600080fd5b5081356001600160401b03811115610dea57600080fd5b602083019150836020828501011115610e0257600080fd5b9250929050565b600080600060408486031215610e1e57600080fd5b610e2784610bd5565b925060208401356001600160401b03811115610e4257600080fd5b610e4e86828701610dc1565b9497909650939450505050565b60008060408385031215610e6e57600080fd5b610e7783610bd5565b946020939093013593505050565b60008060008060408587031215610e9b57600080fd5b84356001600160401b03811115610eb157600080fd5b610ebd87828801610dc1565b90955093505060208501356001600160401b03811115610edc57600080fd5b610ee887828801610dc1565b95989497509550505050565b600060208284031215610f0657600080fd5b81356001600160401b03811115610f1c57600080fd5b610f2884828501610c80565b949350505050565b60008060008060008060008060e0898b031215610f4c57600080fd5b88356001600160401b03811115610f6257600080fd5b610f6e8b828c01610c80565b985050610f7d60208a01610bd5565b965060408901356001600160401b03811115610f9857600080fd5b610fa48b828c01610c80565b96505060608901356001600160401b03811115610fc057600080fd5b610fcc8b828c01610c80565b9550506080890135935060a0890135925060c08901356001600160401b03811115610ff657600080fd5b6110028b828c01610dc1565b999c989b5096995094979396929594505050565b600181811c9082168061102a57607f821691505b60208210810361104a57634e487b7160e01b600052602260045260246000fd5b50919050565b60008251611062818460208701610c13565b9190910192915050565b8183823760009101908152919050565b60408101600f841061109e57634e487b7160e01b600052602160045260246000fd5b9281526001600160a01b039190911660209091015290565b6000602082840312156110c857600080fd5b81518015158114610c0c57600080fd5b601f82111561054b57806000526020600020601f840160051c810160208510156110ff5750805b601f840160051c820191505b8181101561111f576000815560010161110b565b5050505050565b81516001600160401b0381111561113f5761113f610c6a565b6111538161114d8454611016565b846110d8565b6020601f821160018114611187576000831561116f5750848201515b600019600385901b1c1916600184901b17845561111f565b600084815260208120601f198516915b828110156111b75787850151825560209485019460019092019101611197565b50848210156111d55786840151600019600387901b60f8161c191681555b50505050600190811b0190555056fea26469706673582212207bd3e4a9b5f20ccff67bf4a97a826d33c574ca0832d71091f616fd743048f3fa64736f6c634300081e0033",
  "linkReferences": {},
  "deployedLinkReferences": {}
}