{
  "_format": "hh-sol-artifact-1",
  "contractName": "KiguMinter",
  "sourceName": "SuperChamps/contracts/Token/KiguMinter.sol",
  "abi": [
    {
      "inputs": [
        {
          "internalType": "address",
          "name": "_kiguToken",
          "type": "address"
        },
        {
          "internalType": "address",
          "name": "_emissionContract",
          "type": "address"
        }
      ],
      "stateMutability": "nonpayable",
      "type": "constructor"
    },
    {
      "anonymous": false,
      "inputs": [
        {
          "indexed": true,
          "internalType": "address",
          "name": "newEmissionContract",
          "type": "address"
        }
      ],
      "name": "EmissionContractUpdated",
      "type": "event"
    },
    {
      "anonymous": false,
      "inputs": [
        {
          "indexed": true,
          "internalType": "uint256",
          "name": "week",
          "type": "uint256"
        },
        {
          "indexed": true,
          "internalType": "uint256",
          "name": "amount",
          "type": "uint256"
        },
        {
          "indexed": true,
          "internalType": "uint256",
          "name": "totalMinted",
          "type": "uint256"
        }
      ],
      "name": "Minted",
      "type": "event"
    },
    {
      "inputs": [],
      "name": "DECAY_FACTOR",
      "outputs": [
        {
          "internalType": "uint256",
          "name": "",
          "type": "uint256"
        }
      ],
      "stateMutability": "view",
      "type": "function"
    },
    {
      "inputs": [],
      "name": "FIXED_MINT_END_WEEK",
      "outputs": [
        {
          "internalType": "uint256",
          "name": "",
          "type": "uint256"
        }
      ],
      "stateMutability": "view",
      "type": "function"
    },
    {
      "inputs": [],
      "name": "FIXED_WEEKLY_SUPPLY",
      "outputs": [
        {
          "internalType": "uint256",
          "name": "",
          "type": "uint256"
        }
      ],
      "stateMutability": "view",
      "type": "function"
    },
    {
      "inputs": [],
      "name": "WEEK",
      "outputs": [
        {
          "internalType": "uint256",
          "name": "",
          "type": "uint256"
        }
      ],
      "stateMutability": "view",
      "type": "function"
    },
    {
      "inputs": [],
      "name": "activePeriod",
      "outputs": [
        {
          "internalType": "uint256",
          "name": "",
          "type": "uint256"
        }
      ],
      "stateMutability": "view",
      "type": "function"
    },
    {
      "inputs": [],
      "name": "emissionContract",
      "outputs": [
        {
          "internalType": "address",
          "name": "",
          "type": "address"
        }
      ],
      "stateMutability": "view",
      "type": "function"
    },
    {
      "inputs": [],
      "name": "epochCount",
      "outputs": [
        {
          "internalType": "uint256",
          "name": "",
          "type": "uint256"
        }
      ],
      "stateMutability": "view",
      "type": "function"
    },
    {
      "inputs": [],
      "name": "kigu",
      "outputs": [
        {
          "internalType": "contract IKigu",
          "name": "",
          "type": "address"
        }
      ],
      "stateMutability": "view",
      "type": "function"
    },
    {
      "inputs": [],
      "name": "lastEmission",
      "outputs": [
        {
          "internalType": "uint256",
          "name": "",
          "type": "uint256"
        }
      ],
      "stateMutability": "view",
      "type": "function"
    },
    {
      "inputs": [],
      "name": "mintKiguToken",
      "outputs": [
        {
          "internalType": "uint256",
          "name": "emission",
          "type": "uint256"
        }
      ],
      "stateMutability": "nonpayable",
      "type": "function"
    },
    {
      "inputs": [],
      "name": "totalMinted",
      "outputs": [
        {
          "internalType": "uint256",
          "name": "",
          "type": "uint256"
        }
      ],
      "stateMutability": "view",
      "type": "function"
    }
  ],
  "bytecode": "0x60c060405234801561001057600080fd5b5060405161064138038061064183398101604081905261002f91610140565b6001600160a01b03811661008a5760405162461bcd60e51b815260206004820152601360248201527f4e6f74456d697373696f6e436f6e74726163740000000000000000000000000060448201526064015b60405180910390fd5b6001600160a01b0382166100e05760405162461bcd60e51b815260206004820152601460248201527f4e6f744b696775546f6b656e436f6e74726163740000000000000000000000006044820152606401610081565b6001600160a01b03808316608052811660a05262093a806101018142610173565b61010b9190610195565b60025550506a027b46536c66c8e30000006003556101c0565b80516001600160a01b038116811461013b57600080fd5b919050565b6000806040838503121561015357600080fd5b61015c83610124565b915061016a60208401610124565b90509250929050565b60008261019057634e487b7160e01b600052601260045260246000fd5b500490565b80820281158282048414176101ba57634e487b7160e01b600052601160045260246000fd5b92915050565b60805160a05161044f6101f26000396000818160d7015261018d01526000818161013901526102d8015261044f6000f3fe608060405234801561001057600080fd5b50600436106100a95760003560e01c8063a2309ff811610071578063a2309ff814610123578063aade93be1461012c578063adcdf49514610134578063e08eae5f1461015b578063f4359ce514610164578063f817c53c1461016e57600080fd5b80630a441f7b146100ae57806316981bdf146100ca5780631a15e6d0146100d2578063829965cc146101115780638dfdc0ca1461011a575b600080fd5b6100b760025481565b6040519081526020015b60405180910390f35b6100b7610180565b6100f97f000000000000000000000000000000000000000000000000000000000000000081565b6040516001600160a01b0390911681526020016100c1565b6100b760015481565b6100b760035481565b6100b760005481565b6100b7601e81565b6100f97f000000000000000000000000000000000000000000000000000000000000000081565b6100b76125e481565b6100b762093a8081565b6100b76a027b46536c66c8e300000081565b6000336001600160a01b037f000000000000000000000000000000000000000000000000000000000000000016146101f05760405162461bcd60e51b815260206004820152600e60248201526d139bdd08185d5d1a1bdc9a5e995960921b60448201526064015b60405180910390fd5b62093a80600254610201919061039e565b42101561023c5760405162461bcd60e51b8152602060048201526009602482015268546f6f206561726c7960b81b60448201526064016101e7565b600180600082825461024e919061039e565b9091555062093a80905061026281426103b7565b61026c91906103d9565b600255600154601e1061028b57506a027b46536c66c8e30000006102ab565b6127106125e460035461029e91906103d9565b6102a891906103b7565b90505b806000546102b9919061039e565b6000556040516340c10f1960e01b8152336004820152602481018290527f00000000000000000000000000000000000000000000000000000000000000006001600160a01b0316906340c10f19906044016020604051808303816000875af1158015610329573d6000803e3d6000fd5b505050506040513d601f19601f8201168201806040525081019061034d91906103f0565b50600381905560008054600154604051919284927f488bbf7ce8682b98371a0bb07d4e838ce2e533a907ceda8ac6ee658fdbd162e09190a490565b634e487b7160e01b600052601160045260246000fd5b808201808211156103b1576103b1610388565b92915050565b6000826103d457634e487b7160e01b600052601260045260246000fd5b500490565b80820281158282048414176103b1576103b1610388565b60006020828403121561040257600080fd5b8151801515811461041257600080fd5b939250505056fea264697066735822122074fe52eb09548709349f7d7151f46b68ab78b2ff9531641bbdc2381c3b774cc164736f6c63430008180033",
  "linkReferences": {},
  "deployedLinkReferences": {}
}