{
  "_format": "hh-sol-artifact-1",
  "contractName": "KiguMinter",
  "sourceName": "SuperChamps/contracts/Token/KiguMinter.sol",
  "abi": [
    {
      "inputs": [
        {
          "internalType": "address",
          "name": "_kiguToken",
          "type": "address"
        },
        {
          "internalType": "address",
          "name": "_emissionContract",
          "type": "address"
        }
      ],
      "stateMutability": "nonpayable",
      "type": "constructor"
    },
    {
      "anonymous": false,
      "inputs": [
        {
          "indexed": true,
          "internalType": "address",
          "name": "newEmissionContract",
          "type": "address"
        }
      ],
      "name": "EmissionContractUpdated",
      "type": "event"
    },
    {
      "anonymous": false,
      "inputs": [
        {
          "indexed": true,
          "internalType": "uint256",
          "name": "week",
          "type": "uint256"
        },
        {
          "indexed": true,
          "internalType": "uint256",
          "name": "amount",
          "type": "uint256"
        },
        {
          "indexed": true,
          "internalType": "uint256",
          "name": "totalMinted",
          "type": "uint256"
        }
      ],
      "name": "Minted",
      "type": "event"
    },
    {
      "inputs": [],
      "name": "DECAY_FACTOR",
      "outputs": [
        {
          "internalType": "uint256",
          "name": "",
          "type": "uint256"
        }
      ],
      "stateMutability": "view",
      "type": "function"
    },
    {
      "inputs": [],
      "name": "FIXED_MINT_END_WEEK",
      "outputs": [
        {
          "internalType": "uint256",
          "name": "",
          "type": "uint256"
        }
      ],
      "stateMutability": "view",
      "type": "function"
    },
    {
      "inputs": [],
      "name": "FIXED_WEEKLY_SUPPLY",
      "outputs": [
        {
          "internalType": "uint256",
          "name": "",
          "type": "uint256"
        }
      ],
      "stateMutability": "view",
      "type": "function"
    },
    {
      "inputs": [],
      "name": "WEEK",
      "outputs": [
        {
          "internalType": "uint256",
          "name": "",
          "type": "uint256"
        }
      ],
      "stateMutability": "view",
      "type": "function"
    },
    {
      "inputs": [],
      "name": "activePeriod",
      "outputs": [
        {
          "internalType": "uint256",
          "name": "",
          "type": "uint256"
        }
      ],
      "stateMutability": "view",
      "type": "function"
    },
    {
      "inputs": [],
      "name": "emissionContract",
      "outputs": [
        {
          "internalType": "address",
          "name": "",
          "type": "address"
        }
      ],
      "stateMutability": "view",
      "type": "function"
    },
    {
      "inputs": [],
      "name": "epochCount",
      "outputs": [
        {
          "internalType": "uint256",
          "name": "",
          "type": "uint256"
        }
      ],
      "stateMutability": "view",
      "type": "function"
    },
    {
      "inputs": [],
      "name": "kigu",
      "outputs": [
        {
          "internalType": "contract IKigu",
          "name": "",
          "type": "address"
        }
      ],
      "stateMutability": "view",
      "type": "function"
    },
    {
      "inputs": [],
      "name": "lastEmission",
      "outputs": [
        {
          "internalType": "uint256",
          "name": "",
          "type": "uint256"
        }
      ],
      "stateMutability": "view",
      "type": "function"
    },
    {
      "inputs": [],
      "name": "mintKiguToken",
      "outputs": [
        {
          "internalType": "uint256",
          "name": "emission",
          "type": "uint256"
        }
      ],
      "stateMutability": "nonpayable",
      "type": "function"
    },
    {
      "inputs": [],
      "name": "totalMinted",
      "outputs": [
        {
          "internalType": "uint256",
          "name": "",
          "type": "uint256"
        }
      ],
      "stateMutability": "view",
      "type": "function"
    }
  ],
  "bytecode": "0x60c060405234801561001057600080fd5b5060405161063138038061063183398101604081905261002f9161013e565b6001600160a01b03811661008a5760405162461bcd60e51b815260206004820152601360248201527f4e6f74456d697373696f6e436f6e74726163740000000000000000000000000060448201526064015b60405180910390fd5b6001600160a01b0382166100e05760405162461bcd60e51b815260206004820152601460248201527f4e6f744b696775546f6b656e436f6e74726163740000000000000000000000006044820152606401610081565b6001600160a01b03808316608052811660a052601e6100ff8142610171565b6101099190610193565b60025550506a027b46536c66c8e30000006003556101be565b80516001600160a01b038116811461013957600080fd5b919050565b6000806040838503121561015157600080fd5b61015a83610122565b915061016860208401610122565b90509250929050565b60008261018e57634e487b7160e01b600052601260045260246000fd5b500490565b80820281158282048414176101b857634e487b7160e01b600052601160045260246000fd5b92915050565b60805160a0516104416101f06000396000818160d7015261018301526000818161013901526102ca01526104416000f3fe608060405234801561001057600080fd5b50600436106100a95760003560e01c8063a2309ff811610071578063a2309ff814610123578063aade93be1461012c578063adcdf49514610134578063e08eae5f1461015b578063f4359ce51461012c578063f817c53c1461016457600080fd5b80630a441f7b146100ae57806316981bdf146100ca5780631a15e6d0146100d2578063829965cc146101115780638dfdc0ca1461011a575b600080fd5b6100b760025481565b6040519081526020015b60405180910390f35b6100b7610176565b6100f97f000000000000000000000000000000000000000000000000000000000000000081565b6040516001600160a01b0390911681526020016100c1565b6100b760015481565b6100b760035481565b6100b760005481565b6100b7601e81565b6100f97f000000000000000000000000000000000000000000000000000000000000000081565b6100b76125e481565b6100b76a027b46536c66c8e300000081565b6000336001600160a01b037f000000000000000000000000000000000000000000000000000000000000000016146101e65760405162461bcd60e51b815260206004820152600e60248201526d139bdd08185d5d1a1bdc9a5e995960921b60448201526064015b60405180910390fd5b601e6002546101f59190610390565b4210156102305760405162461bcd60e51b8152602060048201526009602482015268546f6f206561726c7960b81b60448201526064016101dd565b60018060008282546102429190610390565b90915550601e905061025481426103a9565b61025e91906103cb565b600255600154601e1061027d57506a027b46536c66c8e300000061029d565b6127106125e460035461029091906103cb565b61029a91906103a9565b90505b806000546102ab9190610390565b6000556040516340c10f1960e01b8152336004820152602481018290527f00000000000000000000000000000000000000000000000000000000000000006001600160a01b0316906340c10f19906044016020604051808303816000875af115801561031b573d6000803e3d6000fd5b505050506040513d601f19601f8201168201806040525081019061033f91906103e2565b50600381905560008054600154604051919284927f488bbf7ce8682b98371a0bb07d4e838ce2e533a907ceda8ac6ee658fdbd162e09190a490565b634e487b7160e01b600052601160045260246000fd5b808201808211156103a3576103a361037a565b92915050565b6000826103c657634e487b7160e01b600052601260045260246000fd5b500490565b80820281158282048414176103a3576103a361037a565b6000602082840312156103f457600080fd5b8151801515811461040457600080fd5b939250505056fea2646970667358221220d5c6539613eaac9a4a2c8db06430ec3bf0d6da0abf4a87991aea01d59ef8b55464736f6c63430008180033",
  "linkReferences": {},
  "deployedLinkReferences": {}
}